:100000000C94AA010C94C7010C94C7010C94C7016D
:100010000C94C7010C94C7010C94C7010C94C70140
:100020000C94C7010C94C7010C94C7010C94C70130
:100030000C94C9010C94C7010C94C7010C94D30112
:100040000C94AD030C94C7010C94C7010C94C70128
:100050000C94C7010C94C7010C94C7010C94C70100
:100060000C94C7010C94C7010C94C7010C94C701F0
:100070002020202020202020202020202020202080
:100080000000444D4D204D415354455220763930A7
:10009000303100005052455353202320464F522008
:1000A00048454C50000052414E47453A200000411F
:1000B00055544F52414E47453A204F4E000035208F
:1000C000564F4C54530000322E353620564F4C5468
:1000D000530000312E3120564F4C54530000312034
:1000E0006B4F484D00003130206B4F484D000031C0
:1000F0003030206B4F484D000031206B485A0000D3
:100100003130206B485A00004D4F44453A200000E2
:10011000564F4C544D455445522000004F484D4DCC
:100120004554455200004652455155454E435900ED
:100130000048454C50204D454E5500005052455307
:100140005320414E59204B455900005052455353BE
:10015000202320464F52204E45585400005052450F
:100160005353202A20464F522050524556000050EB
:1001700052455353203020544F20455849540000D5
:100180005448452048454C50204D454E55000041AF
:1001900020464F5220564F4C544D45544552000076
:1001A000564F4C544D4554455200004220464F5244
:1001B000204F484D4D4554455200004F484D4D4548
:1001C00054455200004320464F5220465245515557
:1001D000454E435900004652455155454E43494509
:1001E0005300004420544F20544F47474C450000D3
:1001F0004155544F52414E474500003120544F2045
:1002000053574954434800004155544F52414E47BB
:10021000452056414C55450000001F000000001FBE
:1002200000001F101010101F00001F181818181FB2
:1002300000001F1C1C1C1C1F00001F1E1E1E1E1F5A
:1002400000001F1F1F1F1F1F0003070F1F0F0703A3
:1002500000181C1E1F1E1C180000407A10F35A00C4
:10026000A0724E18090010A5D4E80000E8764817DF
:100270000000E40B54020000CA9A3B000000E1F5C4
:1002800005000080969800000040420F000000A08A
:100290008601000000102700000000E803000000B5
:1002A000006400000000000A0000000000010000DF
:1002B0000000002C76D888DC674F0823DFC1DFAE52
:1002C00059E1B1B796E5E3E453C63AE6519976961B
:1002D000E8E6C28426EB898C9B62ED407C6FFCEFE4
:1002E000BC9C9F40F2BAA56FA5F490055A2AF75C12
:1002F000936B6CF9676DC11BFCE0E40D47FEF520C4
:10030000E6B500D0ED902E0300943577050080848B
:100310001E080000204E0A000000C80C333333339F
:100320000F986E12831141EF8D2114893BE655160B
:10033000CFFEE6DB18D1844B381BF77C1D901DA443
:10034000BBE424203284725E228100C9F124ECA136
:10035000E53D270011241FBECFEFD0E1DEBFCDBFAA
:1003600012E0A0E0B1E0E4E1F7E202C005900D92F6
:10037000A234B107D9F712E0A2E4B2E001C01D92A5
:10038000A63CB107E1F70E9446060C9488130C9432
:1003900000001F920F920FB60F9211240F900FBE04
:1003A0000F901F9018951F920F920FB60F92112465
:1003B0000F900FBE0F901F9018952FE02AB980EF75
:1003C0008BB99AE1392F3A95F1F739B18AB92BB93E
:1003D0009A95F1F729B1232B2F3F61F0E1E2F1E08B
:1003E00090E080819F5F821711F4892F08953196E4
:1003F0009031B9F780E008950E94DD01282F909197
:100400009A02913079F0913020F0923009F059C081
:100410002FC0882309F455C081E080939A0210927E
:10042000A6020CC08823B1F08091B902281731F4DC
:1004300082E080939A029093A6020895809195029B
:10044000909196024E969093B7028093B6022093B5
:10045000B902089510929A028091A602823021F486
:100460008091B9028093B50281E08093A60208953D
:10047000882379F481E080939A029093A602809178
:100480009502909196024E969093B7028093B60291
:1004900008958091B9022817A1F081E080939A0213
:1004A0001092A60280919502909196024E9690939A
:1004B000B7028093B6028091B9028093B50220936F
:1004C000B90208959091B5028091B502882311F088
:1004D0001092B502892F08959091BD029330C1F119
:1004E000943028F4913099F0923030F50CC095306A
:1004F00009F440C09530A8F1963009F444C0973013
:1005000009F068C04AC0882309F464C019C080316A
:1005100029F48091BA028093A40202C08E3019F4AB
:100520001092BD0206C08F3009F054C082E0809363
:10053000BD029093BE020895803189F18E3021F47E
:1005400081E08093BD0238C08F3009F043C00DC0F8
:10055000803129F18E3011F482E02BC08F30D1F53B
:100560000DC08031E1F08E3011F483E022C08F3075
:1005700089F50DC0803199F08E3011F484E019C0F6
:100580008F3041F515C0803151F08E3011F485E087
:1005900010C08F30F9F487E00CC0803139F48091BD
:1005A000BA028093A4021092BD0205C08E3039F4C5
:1005B00086E08093BD0281E08093BE0208958F3073
:1005C00049F48091BA028093A4021092BD0281E0A6
:1005D0008093BE0208952091B5028091B5028823D0
:1005E00011F01092B502222309F4B6C08091BE0228
:1005F000882309F0B1C09091A4029230F1F09330B9
:1006000030F4992351F0913009F0A6C012C0933014
:1006100051F1943009F0A0C050C02F3031F48FED6B
:1006200085B982E08093BA0222C082E08093A4025E
:100630007DC0822F0E946C0208952F3031F481E03A
:100640008093A4029093BA0272C02D30D1F18091B0
:100650009702882311F42130B1F02B3031F583E07B
:100660008093A40259C02F3031F49093BA0281E0F4
:100670008093A4025CC02D3021F1809197028823E1
:1006800091F4213081F48091BB028F5F8093BB0293
:100690008091BB02609194020E9493109093BB02E0
:1006A0002093BE0208952A3099F12C3009F054C0ED
:1006B00084E08093A40282E02FC02F30B1F22D306D
:1006C00049F48091970291E0892780939702909353
:1006D000BE020895809197028823C1F42130B1F4BD
:1006E0008091BB028F5F8093BB028091BB026091BF
:1006F00094020E9493109093BB02E091BB02F0E041
:10070000E15FFE4F80818093BF0210C02A3091F4D8
:1007100082E08093A40283E0809394028091BB02E4
:10072000609194020E9493109093BB0281E08093A9
:10073000BE0208952B3081F483E08093A40280935D
:1007400094028091BB02609194020E949310909356
:10075000BB0281E08093BE0208951F920F920FB6F4
:100760000F9211242F933F934F935F936F937F9337
:100770008F939F93AF93BF93EF93FF932091950235
:10078000309196028091B6029091B70228173907EE
:1007900038F08091B6029091B70270E04E9708F061
:1007A00071E02091B6023091B7028FEF90E0821B8A
:1007B000930B4E9710F060E012C08091B6029091BA
:1007C000B702409195025091960260E080952EE12B
:1007D00030E0281B31094217530708F061E080918F
:1007E00095029091960201969093960280939502BD
:1007F00020919502309196028091B6029091B702B5
:100800002817390710F0772369F420919502309169
:1008100096028091B6029091B7022817390730F4FA
:10082000662321F00E94FC010E94EB028091950258
:100830009091960268EC70E00E949F10892B59F409
:100840008091A402882339F08091A402813019F0AC
:1008500081E080939F02809195029091960268ECCE
:1008600070E00E949F108E3B910529F480917A00E0
:10087000806480937A00FF91EF91BF91AF919F9137
:100880008F917F916F915F914F913F912F910F9039
:100890000FBE0F901F901895E82F813039F08130EE
:1008A00018F0823041F404C080E603C080EE01C03D
:1008B00080EA80937C00F0E0EE0FFF1FEE0FFF1F39
:1008C000E050FF4F80819181A281B3818093AD027E
:1008D0009093AE02A093AF02B093B0020895E82FB8
:1008E000833010F011B80895813039F0813018F05C
:1008F000823039F404C080E803C080E401C080E2A3
:1009000081B9F0E0E45FFE4F80818093980281B16D
:1009100082B90895EF92FF920F931F9380919702EF
:10092000882309F4AEC08091A402823021F0833084
:1009300009F0A7C055C08091BB028130B9F0813069
:1009400020F0823009F044C02EC060919B0270916B
:100950009C0280919D0290919E0220E030E040E058
:1009600050E40E94970D18169CF432C0E0909B0250
:10097000F0909C0200919D0210919E02C801B70167
:1009800026E636E646E65FE30E94670D882324F4F8
:100990008091BB028F5F1AC0C801B70120E030E030
:1009A00040E050E40CC060919B0270919C028091E9
:1009B0009D0290919E0226E636E646E65FE30E949F
:1009C000370D18162CF48091BB0281508093BB0226
:1009D00083E00E946F048091BB020E944C0451C0CE
:1009E0008091BB028130B9F0813020F0823009F073
:1009F00044C02EC06091A0027091A1028091A20219
:100A00009091A30220E030E048E251E40E94970D6B
:100A100018169CF112C0E090A002F090A102009183
:100A2000A2021091A302C801B70123E333E343E517
:100A300050E40E94970D181624F08091BB028F5F3E
:100A40001AC0C801B70120E030E048E251E40CC010
:100A50006091A0027091A1028091A2029091A302E4
:100A600023E333E343E550E40E94370D18162CF4DA
:100A70008091BB0281508093BB028091BB020E9497
:100A80006F041F910F91FF90EF9008956F927F92E6
:100A90008F929F92AF92BF92CF92DF92EF92FF928E
:100AA0000F931F93809179008093BC026091BC02E8
:100AB000E090AD02F090AE020091AF021091B00252
:100AC00070E080E090E00E94250E20E030E040E8F9
:100AD0005BE30E94910BA80197010E94910B3B01DF
:100AE0004C0160939B0270939C0280939D029093B3
:100AF0009E0260919802A090AD02B090AE02C090AC
:100B0000AF02D090B00270E0882777FD8095982FD3
:100B10000E94C70DA40193010E94910B7B018C01DF
:100B2000C601B501A40193010E94330B9B01AC01E6
:100B3000C801B7010E948B0C7B018C01CB01D8014D
:100B40008093A0029093A102A093A202B093A3026B
:100B50008091A402823019F0833061F403C0C40193
:100B6000B30102C0B701C80144E022E001EB12E08A
:100B70000E94FD1007EA12E0C80161EB72E00E94DA
:100B80001E1180E790E060E040E00E94F00780E006
:100B900060E00E94E107F80101900020E9F7319739
:100BA000E01BF10BC8016E2F0E94CC071F910F9123
:100BB000FF90EF90DF90CF90BF90AF909F908F907D
:100BC0007F906F9008950E942B080E9493080E94C6
:100BD000C40780E060E00E94E10782E890E060E006
:100BE00040E00E94F00784E990E060E041E00E946C
:100BF000F00708951F9310929F0280E00E944C041A
:100C000083E00E946F0487E880937A0011B81FEF99
:100C100014B915B91AB892E090936E0089EF87BDA8
:100C200094BD23E025BD80E280936F009093800007
:100C300081EC809381001092B5028EE190E0909358
:100C40009602809395029093B7028093B602109219
:100C500097021092A4021092BD0210929A02109272
:100C6000BB02209394028091BB02EFE0F1E0E80F19
:100C7000F11D80818093BF021092BE028EEF85B974
:100C80000E94E30515B978941F9108950E94FA0512
:100C90008091B502882311F0809585B980919F02DB
:100CA000882331F00E9446050E948A0410929F0218
:100CB0008091BE02882361F31092BE028091A4024B
:100CC000823009F479C0833018F4813009F706C006
:100CD000833009F4A7C08430D9F6DAC08091BD0210
:100CE000833099F1843028F48130C9F0823010F5D6
:100CF0000BC0853009F43FC0853090F1863009F48F
:100D000045C0873029F64DC00E94C40781E391E0B9
:100D100060E040E00E94F0078CE391E0DDC00E94BB
:100D2000C4078BE491E060E040E00E94F0078DE5AD
:100D300091E0D2C00E94C4078FE691E060E040E0FD
:100D40000E94F00780E891E0C7C00E94C4078FE8C6
:100D500091E060E040E00E94F00780EA91E0BCC0D2
:100D60000E94C4078BEA91E060E040E00E94F00737
:100D70008BEB91E0B1C00E94C40785EC91E060E08C
:100D800040E00E94F00786ED91E0A6C00E94C407F3
:100D900083EE91E060E040E00E94F00780EF91E098
:100DA0009BC00E94C4078BEF91E060E040E00E948E
:100DB000F00788E092E090C00E94C40788E091E0CC
:100DC00060E040E00E94F00780E191E066E040E0F2
:100DD0000E94F00783E00E946F04809197028823AD
:100DE00009F078C086EA90E060E041E00E94F007F8
:100DF0008091BB02813041F0813018F0823069F47B
:100E000006C08EEB90E005C087EC90E002C083ED59
:100E100090E067E041E00E94F0078091BB020E94F1
:100E20004C0436CF0E94C40788E091E060E040E0C7
:100E30000E94F0078CE191E066E040E00E94F0073C
:100E400080E00E944C0480919702882309F042C000
:100E500086EA90E060E041E00E94F0078091BB02EA
:100E6000813041F0813018F0823069F406C08FEE95
:100E700090E005C086EE90E002C08EED90E067E065
:100E800041E00E94F0078091BB020E946F0400CFF6
:100E90000E94C40788E091E060E040E00E94F00713
:100EA00086E291E066E040E00E94F00780918100D8
:100EB000887F8093810090918100E091BB02F0E0F7
:100EC000EF5EFE4F8081982B909381008091970276
:100ED000882321F08FEA90E060E014C086EA90E079
:100EE00060E041E00E94F0078091BB02882321F07E
:100EF000813009F0CDCE03C080E091E002C089EFDF
:100F000090E067E041E00E94F007C2CE282F207FEA
:100F100028B9409A429A20EA3FE0F9013197F1F767
:100F200042984098F9013197F1F790E044E0880F3A
:100F3000991F4A95E1F788B9409A429AC9010197E9
:100F4000F1F742984098C9010197F1F70895282FC9
:100F5000207F28B9429A20EA3FE0F9013197F1F762
:100F60004298F9013197F1F790E054E0880F991F0A
:100F70005A95E1F788B9429AC9010197F1F7429869
:100F8000C9010197F1F7089581E00E94A70708952C
:100F900082E00E94A70708950F931F93CF93DF93DA
:100FA000062F009749F0EC0110E004C089910E94DF
:100FB00086071F5F1017D0F3DF91CF911F910F911C
:100FC0000895623031F0633031F0613029F4805C93
:100FD00003C08C5E01C08C5A80680E94A7070895E8
:100FE0001F93CF93DF93EC01862F642F0E94E107BC
:100FF00010E003C00E9486071F5FFE01E10FF11D94
:1010000084918823B9F7DF91CF911F910895EF92D2
:10101000FF920F931F93CF93DF937C01162F110F35
:10102000110F110F1064C0E0D0E0F701EC0FFD1FAD
:101030000491812F8C0F0E94A707802F0E948607A2
:101040002196C830D10589F7DF91CF911F910F917B
:10105000FF90EF9008951F93CF93DF9380E69AEE71
:101060000197F1F718B818B887B1806F87B987B1C1
:10107000876087B980E388B9429A20EA3FE0F901A6
:101080003197F1F74298F9013197F1F788B9429A0F
:10109000C9010197F1F74298C9010197F1F780E280
:1010A00088B9429AC9010197F1F74298C90101979D
:1010B000F1F788E20E94A7078CE00E94A707C9E128
:1010C000D2E060E0162F1F5FCE010E94070828962D
:1010D000612F1830B9F7DF91CF911F9108950F93C9
:1010E0001F93082F10E004C08EE10E94A7071F5F26
:1010F0001017D0F31F910F9108950F931F93082F8E
:1011000010E004C088E10E94A7071F5F1017D0F30A
:101110001F910F9108958EE00E94A70708958FE018
:101120000E94A70708958CE00E94A707089588E011
:101130000E94A70708958CE00E94A70708950F93C7
:101140001F93082F10E004C080E10E94A7071F5FD3
:101150001017D0F31F910F9108950F931F93082F2D
:1011600010E004C084E10E94A7071F5F1017D0F3AE
:101170001F910F910895DF92EF92FF920F931F93AB
:10118000CF93DF93D42E96E0899FC0011124242FA2
:1011900030E0AC01429FC001439F900D529F900DE3
:1011A000112470E00E94B310EB01CB0166E070E007
:1011B0000E949F10E82EFF2400E010E012C0C8013A
:1011C0000596C817D90710F085E006C0C017D107EB
:1011D00010F08E2D01C080E00E948607F3940A5F14
:1011E0001F4FFD1460F3DF91CF911F910F91FF907E
:1011F000EF90DF90089587E68093C40088E18093A4
:10120000C10008951F93182F873049F46091C402DC
:101210007091C50281E391E00E9425110BC08A30D4
:1012200019F48DE00E9402098091C00085FFFCCF77
:101230001093C60080E090E01F910895EF92FF9216
:101240000F931F93CF93DF937C0180914202909183
:101250004302892B09F09FC004E412E08091C00092
:1012600087FFFCCF8091C00084FF03C02EEF3FEFCB
:10127000A6C08091C00083FDA0C09091C6009D30A3
:1012800011F09A3069F48AE0F8018083B7010E9476
:10129000020984E492E090934302809342027BC06F
:1012A000993009F490E2892F80528F3510F0903AEE
:1012B00070F0F2E003391F0711F487E004C0F80171
:1012C00091938F01892FB7010E940209C7CF9231F4
:1012D00039F1933138F4933009F46FC0983009F044
:1012E000BDCF09C0973109F44BC09F3721F095312C
:1012F00009F0B4CF32C0F2E004341F0709F008F45B
:10130000ADCF88E0B7010E94020980E2B7010E94D8
:10131000020988E0B7010E940209015010409ECFE7
:101320008DE0B7010E940209C4E4D2E004C08991B3
:10133000B7010E940209C017D107C8F38FCF88E018
:10134000B7010E94020980E2B7010E94020988E009
:10135000B7010E9402090150104082E004341807CE
:1013600009F068F77BCF88E0B7010E94020980E2AC
:10137000B7010E94020988E0B7010E9402098E01AC
:10138000E2E004341E0709F008F468CFE8018A910E
:10139000803249F763CFE0914202F091430281919C
:1013A000F0934302E09342028A3021F41092430208
:1013B00010924202282F30E002C02FEF3FEFC90108
:1013C000DF91CF911F910F91FF90EF900895A0E0D2
:1013D000B0E0EDEEF9E00C94C610DC012B01FA014F
:1013E0009C91923008F439C1EB018881823008F475
:1013F00033C1943069F4843009F02FC111969C9167
:1014000011978981981709F428C1A9E3B1E025C192
:10141000843009F421C18230A9F4923009F01DC151
:101420009A01AD0188E0EA010990AE01E901099253
:101430009E018150C1F7E201898111969C91892317
:10144000818308C1923009F407C112962D903C9017
:101450001397EB018A819B811496AD90BD90CD903E
:10146000DC901797EC80FD800E811F819101281B75
:10147000390BB90137FF04C066277727621B730B4E
:10148000603271050CF061C0121613066CF537015D
:101490004801062E04C096948794779467940A9422
:1014A000D2F721E030E040E050E004C0220F331FCB
:1014B000441F551F6A95D2F721503040404050409C
:1014C0002E213F214023512321153105410551058E
:1014D00021F021E030E040E050E079018A01E62887
:1014E000F728082919293CC0232BD1F1260E371ED5
:1014F00035014601062E04C096948794779467942C
:101500000A94D2F721E030E040E050E004C0220F1E
:10151000331F441F551F6A95D2F721503040404079
:1015200050402A213B214C215D21211531054105E7
:10153000510521F021E030E040E050E059016A011E
:10154000A628B728C828D9280BC0821593052CF0E7
:101550001C01AA24BB24650103C0EE24FF248701DB
:1015600011969C91D20111968C91981709F445C05F
:10157000992339F0A80197012A193B094C095D0903
:1015800006C0A60195012E193F09400B510B57FDCE
:1015900008C0118233822282248335834683578395
:1015A0001DC081E081833382228288279927DC0154
:1015B000821B930BA40BB50B84839583A683B783FF
:1015C0000DC0220F331F441F551F248335834683CC
:1015D000578382819381019793838283248135810C
:1015E00046815781DA01C9010197A109B1098F5FCD
:1015F0009F4FAF4FBF4328F30BC0918333822282AA
:10160000EA0CFB1C0C1D1D1DE482F582068317836A
:1016100083E08083248135814681578157FF1AC03A
:10162000C901AA2797FDA095BA2F81709070A0706C
:10163000B0705695479537952795822B932BA42B01
:10164000B52B84839583A683B7838281938101968A
:1016500093838283DF0101C0D201CD01CDB7DEB714
:10166000E2E10C94E210A0E2B0E0E9E3FBE00C94CC
:10167000D21069837A838B839C832D833E834F832F
:101680005887E9E0EE2EF12CEC0EFD1ECE010196FE
:10169000B7010E94C20F8E010F5E1F4FCE0105964B
:1016A000B8010E94C20F8A8991E089278A8BC701FD
:1016B000B801AE01475E5F4F0E94E7090E94ED0E40
:1016C000A096E6E00C94EE10A0E2B0E0EAE6FBE0C3
:1016D0000C94D21069837A838B839C832D833E8301
:1016E0004F835887F9E0EF2EF12CEC0EFD1ECE0152
:1016F0000196B7010E94C20F8E010F5E1F4FCE01EF
:101700000596B8010E94C20FC701B801AE01475E3D
:101710005F4F0E94E7090E94ED0EA096E6E00C9450
:10172000EE10A0E2B0E0E7E9FBE00C94C61069839C
:101730007A838B839C832D833E834F835887CE018E
:101740000196BE01675F7F4F0E94C20FCE010596D2
:10175000BE016F5E7F4F0E94C20F9985923088F064
:1017600089898230C8F0943019F4823051F404C071
:10177000843029F4923081F489E391E0C6C092303C
:1017800049F420E09A858A89981321E02A87CE01BE
:101790000996BBC0823049F420E09A858A89981363
:1017A00021E02A8BCE014196B0C02D843E844F8427
:1017B00058886D887E888F88988CEE24FF24870156
:1017C000AA24BB24650140E050E060E070E0E0E066
:1017D000F0E0C10181709070892BE9F0E60CF71CF4
:1017E000081D191D9A01AB012A0D3B1D4C1D5D1DE5
:1017F00080E090E0A0E0B0E0E614F70408051905E9
:1018000020F481E090E0A0E0B0E0BA01A901480F27
:10181000591F6A1F7B1FAA0CBB1CCC1CDD1C97FE2A
:1018200008C081E090E0A0E0B0E0A82AB92ACA2A66
:10183000DB2A3196E032F10549F0660C771C881CF2
:10184000991C5694479437942794C3CFFA85EA8914
:101850002B893C898B859C85280F391F2E5F3F4F34
:1018600017C0CA0181709070892B61F01695079599
:10187000F794E79480E090E0A0E0B0E8E82AF92A45
:101880000A2B1B2B76956795579547952F5F3F4FF2
:1018900077FDE7CF0CC0440F551F661F771F17FD5C
:1018A0004160EE0CFF1C001F111F215030404030E2
:1018B00090E0590790E0690790E4790760F32B8F77
:1018C0003C8FDB01CA018F779070A070B0708034BC
:1018D0009105A105B10561F447FD0AC0E114F104C9
:1018E0000105110529F0405C5F4F6F4F7F4F407835
:1018F0001A8EFE1711F081E08A8F4D8F5E8F6F8FE9
:1019000078A383E0898FCE0149960E94ED0EA096C0
:10191000E2E10C94E210A8E1B0E0E1E9FCE00C9413
:10192000CE1069837A838B839C832D833E834F8380
:101930005887B9E0EB2EF12CEC0EFD1ECE0101967E
:10194000B7010E94C20F8E010F5E1F4FCE01059698
:10195000B8010E94C20F2985223008F47EC039895F
:10196000323010F4B8017CC08A859A8989278A8729
:10197000243011F0223031F4231709F06EC069E3EE
:1019800071E06EC0343039F41D861E861F86188AB9
:101990001C861B8604C0323021F484E08987B7019D
:1019A0005FC02B853C858B899C89281B390B3C8724
:1019B0002B87ED84FE840F851889AD88BE88CF887B
:1019C000D88CEA14FB040C051D0540F4EE0CFF1C3A
:1019D000001F111F215030403C872B8720E030E052
:1019E00040E050E080E090E0A0E0B0E460E070E033
:1019F000EA14FB040C051D0540F0282B392B4A2B5B
:101A00005B2BEA18FB080C091D09B695A79597955D
:101A10008795EE0CFF1C001F111F6F5F7F4F6F310A
:101A2000710531F7DA01C9018F779070A070B0703D
:101A300080349105A105B10561F427FD0AC0E114C8
:101A4000F1040105110529F0205C3F4F4F4F5F4F16
:101A500020782D873E874F87588BBE01675F7F4F69
:101A6000CB010E94ED0E6896EAE00C94EA10A8E122
:101A7000B0E0EDE3FDE00C94D21069837A838B83B0
:101A80009C832D833E834F83588789E0E82EF12C79
:101A9000EC0EFD1ECE010196B7010E94C20F8E0111
:101AA0000F5E1F4FCE010596B8010E94C20F8985B7
:101AB000823040F08989823028F0C701B8010E9445
:101AC0003A1001C08FEF6896E6E00C94EE10A8E1A2
:101AD000B0E0EDE6FDE00C94D21069837A838B834D
:101AE0009C832D833E834F83588789E0E82EF12C19
:101AF000EC0EFD1ECE010196B7010E94C20F8E01B1
:101B00000F5E1F4FCE010596B8010E94C20F898556
:101B1000823040F08989823028F0C701B8010E94E4
:101B20003A1001C081E06896E6E00C94EE10A8E15E
:101B3000B0E0EDE9FDE00C94D21069837A838B83E9
:101B40009C832D833E834F83588789E0E82EF12CB8
:101B5000EC0EFD1ECE010196B7010E94C20F8E0150
:101B60000F5E1F4FCE010596B8010E94C20F8985F6
:101B7000823040F08989823028F0C701B8010E9484
:101B80003A1001C081E06896E6E00C94EE10A8E0FF
:101B9000B0E0EDECFDE00C94CF109B01AC0183E0D4
:101BA0008983DA01C9018827B7FD83959927AA2778
:101BB000BB27B82E211531054105510519F482E0E6
:101BC00089833AC08823A9F0203080E0380780E07C
:101BD000480780E8580729F460E070E080E09FEC57
:101BE00030C0EE24FF248701E21AF30A040B150B20
:101BF00002C079018A018EE1C82ED12CDC82CB8211
:101C0000ED82FE820F831887C801B7010E949E0EE5
:101C100001971816190684F4082E04C0EE0CFF1C58
:101C2000001F111F0A94D2F7ED82FE820F831887DE
:101C3000C81AD90ADC82CB82BA82CE0101960E94F0
:101C4000ED0E2896E9E00C94EB10A8E0B0E0EBE292
:101C5000FEE00C94CE107B018C01611571058105AD
:101C6000910519F482E0898360C083E089838EE165
:101C7000C82ED12CDC82CB82ED82FE820F831887A6
:101C8000C801B7010E949E0EFC013197F7FF3BC0CF
:101C9000222733272E1B3F0B57016801022E04C059
:101CA000D694C794B794A7940A94D2F740E050E032
:101CB00060E070E081E090E0A0E0B0E004C0880F58
:101CC000991FAA1FBB1F2A95D2F70197A109B10935
:101CD0008E219F21A023B1230097A105B10521F0FA
:101CE00041E050E060E070E04A295B296C297D29E1
:101CF0004D835E836F8378878EE190E08E1B9F0B10
:101D00009C838B8312C0309781F00E2E04C0EE0CA2
:101D1000FF1C001F111F0A94D2F7ED82FE820F8371
:101D20001887CE1ADF0ADC82CB821A82CE01019696
:101D30000E94ED0E2896EAE00C94EA10EF92FF92D2
:101D40000F931F937B018C0180E0E81680E0F8067A
:101D500081E0080780E0180788F48FEFE816F104A7
:101D60000105110531F028F088E090E0A0E0B0E036
:101D700017C080E090E0A0E0B0E012C080E0E8167C
:101D800080E0F80680E0080781E0180728F088E185
:101D900090E0A0E0B0E004C080E190E0A0E0B0E01E
:101DA00020E230E040E050E0281B390B4A0B5B0B8F
:101DB00004C016950795F794E7948A95D2F7F70132
:101DC000EF5BFE4F8081281B310941095109C90190
:101DD0001F910F91FF90EF900895DF92EF92FF9285
:101DE0000F931F93FC01E480F58006811781D18059
:101DF0008081823048F480E090E0A0E1B0E0E82A01
:101E0000F92A0A2B1B2BA5C0843009F49FC082300D
:101E100021F4EE24FF24870105C0E114F10401053B
:101E2000110519F4E0E0F0E096C0628173819FEF44
:101E3000623879070CF05BC022E83FEF261B370BB6
:101E40002A3131052CF020E030E040E050E02AC09B
:101E5000B801A701022E04C076956795579547955E
:101E60000A94D2F781E090E0A0E0B0E004C0880FCF
:101E7000991FAA1FBB1F2A95D2F70197A109B10983
:101E80008E219F21A023B1230097A105B10521F048
:101E900081E090E0A0E0B0E09A01AB01282B392B63
:101EA0004A2B5B2BDA01C9018F779070A070B0705C
:101EB00080349105A105B10539F427FF09C0205CE4
:101EC0003F4F4F4F5F4F04C0215C3F4F4F4F5F4F1D
:101ED000E0E0F0E02030A0E03A07A0E04A07A0E40C
:101EE0005A0710F0E1E0F0E079018A0127C060387C
:101EF000710564F5FB01E158FF4FD801C7018F77E9
:101F00009070A070B07080349105A105B10539F4CE
:101F1000E7FE0DC080E490E0A0E0B0E004C08FE3F5
:101F200090E0A0E0B0E0E80EF91E0A1F1B1F17FFAB
:101F300005C016950795F794E794319687E01695B6
:101F40000795F794E7948A95D1F705C0EE24FF240E
:101F50008701EFEFF0E06E2F679566276795902F6A
:101F60009F77D794DD24D7948E2F8695492F462BC3
:101F7000582F5D29B701CA011F910F91FF90EF9073
:101F8000DF900895FC01DB01408151812281622FA5
:101F90006F7770E0221F2227221F9381892F880FDD
:101FA000822B282F30E0991F9927991F11969C9317
:101FB000119721153105A9F54115510561057105E7
:101FC00011F482E037C082E89FEF13969C938E93C2
:101FD00012979A01AB0167E0220F331F441F551F70
:101FE0006A95D1F783E08C930DC0220F331F441FF5
:101FF000551F12968D919C911397019713969C9360
:102000008E931297203080E0380780E0480780E404
:10201000580758F314962D933D934D935C9317975F
:1020200008952F3F310579F441155105610571057A
:1020300019F484E08C93089564FF03C081E08C93CD
:1020400012C01C9210C02F57304013963C932E9311
:10205000129783E08C9387E0440F551F661F771F0C
:102060008A95D1F7706414964D935D936D937C932C
:10207000179708951F93DC01FB019C91923008F49F
:1020800047C08081823008F443C0943051F41196E7
:102090001C91843099F58181682F70E0611B710972
:1020A0003FC0843021F0923031F48230B9F1818127
:1020B000882389F12DC011961C9111978230F1F07F
:1020C00081811817D9F412962D913C911397828132
:1020D00093818217930794F028173907BCF0149660
:1020E0008D919D910D90BC91A02D248135814681CB
:1020F0005781281739074A075B0718F4112341F065
:102100000AC082179307A407B50740F4112319F0FA
:1021100061E070E005C06FEF7FEF02C060E070E04B
:10212000CB011F910895991B79E004C0991F961760
:1021300008F0961B881F7A95C9F780950895AA1B09
:10214000BB1B51E107C0AA1FBB1FA617B70710F0A2
:10215000A61BB70B881F991F5A95A9F780959095D4
:10216000BC01CD01089597FB092E07260AD077FD03
:1021700004D0E5DF06D000201AF4709561957F4FFA
:102180000895F6F7909581959F4F08952F923F926D
:102190004F925F926F927F928F929F92AF92BF9277
:1021A000CF92DF92EF92FF920F931F93CF93DF9323
:1021B000CDB7DEB7CA1BDB0B0FB6F894DEBF0FBE80
:1021C000CDBF09942A88398848885F846E847D84CD
:1021D0008C849B84AA84B984C884DF80EE80FD80CF
:1021E0000C811B81AA81B981CE0FD11D0FB6F89445
:1021F000DEBF0FBECDBFED010895EF92FF920F93AA
:102200001F93F22FF02E47FD02C0E4E001C0E4E18D
:10221000242F332727FD309537FF03C030952195B4
:102220003F4F4F2D512F0F2FEE2E0E944E118F2D0D
:10223000912F1F910F91FF90EF900895FB01DC010A
:1022400001900D920020E1F70895EF92FF920F9315
:102250001F93CF93DF937C018B01DB0113968C914D
:1022600081FD03C0CFEFDFEF13C0C0E0D0E00BC0B3
:10227000D8011896ED91FC911997B8010995892B11
:1022800011F0CFEFDFEFF70181917F01882381F714
:10229000CE01CDB7DEB7E6E00C94EE10A9E0B0E0D9
:1022A000E4E5F1E10C94CA106A01122FA02EBE2CB5
:1022B0002BE3201718F42CE3922E02C0902E939457
:1022C000AE014F5F5F4F27E0092D0E94B012BC01A5
:1022D0008981E82EFF24C70189709070019711F45D
:1022E000ADE209C0B1FE02C0ABE205C0B0FC02C065
:1022F000A0E001C0A0E2E3FE3BC0AA2311F423E06A
:1023000001C024E0211710F020E002C0121B212F91
:10231000EB2CB4FE02C0322F0AC0F601322F80E24D
:1023200002C0819331503323E1F7C20ED11CAA239E
:1023300019F0F601A1936F01F6013196E2FE05C096
:102340009EE4D6019C9381E404C09EE6D6019C9352
:1023500081E611968C9391833296DF01832F90E270
:1023600002C09D9381508823E1F7E30FF11D40C027
:10237000E2FE42C0AA2311F423E001C024E02117A9
:1023800010F020E002C0121B212FEB2CB4FE02C083
:10239000922F0AC0F601922F80E202C081939150E1
:1023A0009923E1F7C20ED11CAA2319F0F601A193DB
:1023B0006F01F6013196E2FE08C089E4D6018C93E4
:1023C0008EE411968C9386E407C089E6D6018C933F
:1023D0008EE611968C9386E681833296DF01892FF3
:1023E00020E202C02D9381508823E1F7E90FF11D0F
:1023F00010822EEF3FEFAFC0161617061CF041E01B
:1024000050E003C0AB014F5F5F4FAA2019F480E09A
:1024100090E003C08A2D90E0019620E030E0AA23EE
:1024200011F021E030E0240F351F280F391F812FD4
:1024300090E02817390714F020E002C0121B212F6A
:102440004B2D50E0CA0180719070B4FC0DC0B3FCFC
:102450000BC0F601322F40E202C0419331503323CA
:10246000E1F7C20ED11C01C0322FAA2319F0F601E8
:10247000A1936F01892B11F0132F0AC0F601132FBE
:1024800080E302C0819311501123E1F7C30ED11CE8
:10249000092D060FBA8090E1892E912C8E209F2065
:1024A000E4FE04C0F1E3BF1609F40150101614F065
:1024B00001E003C0093008F008E09B0177FF02C08B
:1024C00020E030E0CB010196821B930BFE01319698
:1024D000E80FF91F8EE2F82E3B01601A71088A2D71
:1024E00090E044275527481B590B8FEF2F3F3807A3
:1024F00019F4D601FD926D01621773072CF0621674
:10250000730614F4808101C080E32150304031967D
:102510002417350724F0D6018D936D01E6CF2617D9
:10252000370749F4B5E3BB1528F0BB1621F4811435
:10253000910409F481E3F6018193D601812F90E2A1
:1025400002C09C93815011968823D9F7E10FF11DA9
:10255000108220E030E0C9012996EEE00C94E610EC
:10256000283008F027E03327DA01990F311D87FD65
:10257000916000966105710539F432602E5F3D93DC
:1025800030E32A95E1F708959F3F30F080387105D8
:10259000610509F03C5F3C5F3D93913008F0806835
:1025A000911DDF93CF931F930F93FF92EF92192FFB
:1025B000987F9695E92F96959695E90FFF27ED540C
:1025C000FD4F99273327EE24FF24A701E70105904B
:1025D0000894079428F4360FE71EF81E491F511D72
:1025E000660F771F881F991F0694A1F7059007941F
:1025F00028F4E70EF81E491F561FC11D770F881FCC
:10260000991F661F0694A1F70590079428F4F80E09
:10261000491F561FC71FD11D880F991F661F771F9F
:102620000694A1F70590079420F4490F561FC71F81
:10263000D81F990F661F771F881F0694A9F78491EA
:102640001095177041F0D695C79557954795F79413
:10265000E7941A95C1F7E9E5F2E0689415901591B1
:1026600035916591959105907FE27395E118F10A96
:10267000430B560BC90BD009C0F7E10CF11E431FE9
:10268000561FC91FD01D7EF4703311F48A95E6CF12
:10269000E894015030F0080F0AF40027021708F4FC
:1026A000202F2395022F7A3328F079E37D932A9502
:1026B000E9F710C07D932A9589F60694979567955A
:1026C000379517951794E118F10A430B560BC90B70
:1026D000D00998F023957E9173957A3308F070E3D2
:1026E0007C932013B8F77E9170617D9330F08395D1
:1026F00071E37D9370E32A95E1F71124EF90FF9049
:102700000F911F91CF91DF91992787FD90950895A3
:04271000F894FFCF6B
:102714000000A0400AD72340CDCC8C3F640A010AB4
:10272400010102000000030000000002091E09006C
:1027340000EEEDEBDEDDDBBEBDBBE7D7B7777E7B1E
:102744007D2A72696E672A0A0000000000000000FA
:102754000000010202030303030404040404040448
:102764000405050505050505050505050505050516
:1027740005060606060606060606060606060606F6
:1027840006060606060606060606060606060606E5
:1027940006070707070707070707070707070707C6
:1027A40007070707070707070707070707070707B5
:1027B40007070707070707070707070707070707A5
:1027C4000707070707070707070707070707070795
:1027D4000708080808080808080808080808080876
:1027E4000808080808080808080808080808080865
:1027F4000808080808080808080808080808080855
:102804000808080808080808080808080808080844
:102814000808080808080808080808080808080834
:102824000808080808080808080808080808080824
:102834000808080808080808080808080808080814
:102844000808080808080808080808080808080804
:0228540008007A
:00000001FF
