:100000000C94A1010C94BE010C94BE010C94BE0191
:100010000C94BE010C94BE010C94BE010C94BE0164
:100020000C94BE010C94BE010C94BE010C94BE0154
:100030000C94BE010C94BE010C94BE010C94BE0144
:100040000C94CD030C94BE010C94BE010C94BE0123
:100050000C94BE010C94BE010C94BE010C94BE0124
:100060000C94BE010C94BE010C94BE010C94BE0114
:10007000444D4D204D415354455220763930303156
:1000800000005052455353202320464F52204845EC
:100090004C50000052414E47453A20000041555413
:1000A0004F52414E47453A204F4E00003520564FA3
:1000B0004C54530000322E353620564F4C545300CA
:1000C00000312E3120564F4C5453000031206B4FDD
:1000D000484D00003130206B4F484D00003130302A
:1000E000206B4F484D000031206B485A00003130E2
:1000F000206B485A00004D4F44453A200000564FAF
:100100004C544D455445522000004F484D4D4554E8
:10011000455200004652455155454E43590000484E
:10012000454C50204D454E550000505245535320EC
:10013000414E59204B4559000050524553532023FE
:1001400020464F52204E45585400005052455353BC
:10015000202A20464F52205052455600005052450A
:100160005353203020544F204558495400005448E0
:10017000452048454C50204D454E550000412046F5
:100180004F5220564F4C544D455445520000564F47
:100190004C544D4554455200004220464F52204F8A
:1001A000484D4D4554455200004F484D4D4554452E
:1001B0005200004320464F52204652455155454E6D
:1001C000435900004652455155454E434945530059
:1001D000004420544F20544F47474C4500004155A0
:1001E000544F52414E474500003120544F20535741
:1001F0004954434800004155544F52414E47452011
:1002000056414C55450000001F000000001F000033
:100210001F101010101F00001F181818181F0000C2
:100220001F1C1C1C1C1F00001F1E1E1E1E1F00006A
:100230001F1F1F1F1F1F0003070F1F0F070300189B
:100240001C1E1F1E1C180000407A10F35A00A072DA
:100250004E18090010A5D4E80000E8764817000001
:10026000E40B54020000CA9A3B000000E1F50500CF
:100270000080969800000040420F000000A0860118
:10028000000000102700000000E8030000000064E8
:1002900000000000000A0000000000010000000053
:1002A000002C76D888DC674F0823DFC1DFAE59E128
:1002B000B1B796E5E3E453C63AE651997696E8E697
:1002C000C28426EB898C9B62ED407C6FFCEFBC9C6A
:1002D0009F40F2BAA56FA5F490055A2AF75C936B7C
:1002E0006CF9676DC11BFCE0E40D47FEF520E6B537
:1002F00000D0ED902E0300943577050080841E0811
:100300000000204E0A000000C80C333333330F982E
:100310006E12831141EF8D2114893BE65516CFFEF5
:10032000E6DB18D1844B381BF77C1D901DA4BBE481
:1003300024203284725E228100C9F124ECA1E53DC3
:10034000270011241FBECFEFD0E1DEBFCDBF12E0EA
:10035000A0E0B1E0E8E3F4E202C005900D92A2341F
:10036000B107D9F712E0A2E4B2E001C01D92AB3BA5
:10037000B107E1F70E9406050C941A120C940000D4
:100380002FE02AB980EF8BB99AE1392F3A95F1F72E
:1003900039B18AB92BB99A95F1F729B1232B2F3F9F
:1003A00061F0E2E2F1E090E080819F5F821711F45A
:1003B000892F089531969031B9F780E008950E9411
:1003C000C001282F90919902913079F0913020F05E
:1003D000923009F059C02FC0882309F455C081E03C
:1003E000809399021092A0020CC08823B1F08091F2
:1003F000AE02281731F482E0809399029093A00214
:10040000089580919502909196024E969093AD0238
:100410008093AC022093AE020895109299028091CD
:10042000A002823021F48091AE028093AB0281E081
:100430008093A0020895882379F481E08093990243
:100440009093A00280919502909196024E9690937F
:10045000AD028093AC0208958091AE022817A1F0FE
:1004600081E0809399021092A00280919502909170
:1004700096024E969093AD028093AC028091AE02AC
:100480008093AB022093AE0208959091AB028091CD
:10049000AB02882311F01092AB02892F089590913E
:1004A000B2029330C1F1943028F4913099F0923037
:1004B00030F50CC0953009F440C09530A8F1963065
:1004C00009F444C0973009F068C04AC0882309F491
:1004D00064C019C0803129F48091AF0280939F02DB
:1004E00002C08E3019F41092B20206C08F3009F0AB
:1004F00054C082E08093B2029093B3020895803199
:1005000089F18E3021F481E08093B20238C08F30BF
:1005100009F043C00DC0803129F18E3011F482E022
:100520002BC08F30D1F50DC08031E1F08E3011F449
:1005300083E022C08F3089F50DC0803199F08E3074
:1005400011F484E019C08F3041F515C0803151F0AD
:100550008E3011F485E010C08F30F9F487E00CC0C4
:10056000803139F48091AF0280939F021092B202E1
:1005700005C08E3039F486E08093B20281E080932A
:10058000B30208958F3049F48091AF0280939F02A7
:100590001092B20281E08093B30208952091AB02E1
:1005A0008091AB02882311F01092AB02222309F450
:1005B000F3C08091B302882309F0EEC090919F02AE
:1005C0009230F9F0933030F4992359F0913009F0DA
:1005D000E3C013C0933009F44EC0943009F0DCC07E
:1005E0008BC02F3031F48FED85B982E08093AF025C
:1005F00046C082E080939F02B9C0822F0E944F02C2
:1006000008952F3031F481E080939F029093AF02E0
:10061000AEC02D3009F475C080919702882329F56A
:10062000213019F58091B0028F5F8093B0028091E4
:10063000B002609194020E948B0C9093B002E09102
:10064000B002F0E0EE0FFF1FEE0FFF1FED5FFE4F59
:1006500080819181A281B3818093A7029093A802A7
:10066000A093A902B093AA0223C02B30E9F583E03E
:1006700080939F0271C02F3031F49093AF0281E0DC
:1006800080939F0274C02D30E1F1809197028823FE
:1006900091F4213081F48091B0028F5F8093B00299
:1006A0008091B002609194020E948B0C9093B002F2
:1006B0002093B30208952A30B9F482E080939F0218
:1006C00083E0809394028091B002609194020E9432
:1006D0008B0C9093B002E091B002F0E0E15FFE4F2E
:1006E00080818093980242C02C3009F055C084E08C
:1006F00080939F0282E030C02F3009F4BECF2D30AE
:1007000049F48091970291E0892780939702909312
:10071000B3020895809197028823C1F42130B1F487
:100720008091B0028F5F8093B0028091B00260919F
:1007300094020E948B0C9093B002E091B002F0E022
:10074000EE5EFE4F80818093B40210C02A3091F497
:1007500082E080939F0283E0809394028091B002B4
:10076000609194020E948B0C9093B00281E0809380
:10077000B30208952B3081F483E080939F0280932D
:1007800094028091B002609194020E948B0C90932D
:10079000B00281E08093B30208951F920F920FB6CA
:1007A0000F9211242F933F934F935F936F937F93F7
:1007B0008F939F93AF93BF93EF93FF9320919502F5
:1007C000309196028091AC029091AD0228173907C2
:1007D00038F08091AC029091AD0270E04E9708F035
:1007E00071E02091AC023091AD028FEF90E0821B5E
:1007F000930B4E9710F060E012C08091AC02909184
:10080000AD02409195025091960260E080952EE1F4
:1008100030E0281B31094217530708F061E080914E
:10082000950290919602019690939602809395027C
:1008300020919502309196028091AC029091AD0288
:100840002817390710F0772369F420919502309129
:1008500096028091AC029091AD022817390730F4CE
:10086000662321F00E94DF010E94CE028091950252
:100870009091960264E670E00E94970C892B19F41F
:1008800081E080939E02FF91EF91BF91AF919F9184
:100890008F917F916F915F914F913F912F910F9029
:1008A0000FBE0F901F9018950F931F9380917900A2
:1008B0008093B102EAE7F0E08081806480830E9447
:1008C000AD062091B10200D000D000D0EDB7FEB748
:1008D000319601EA12E0ADB7BEB712961C930E93A3
:1008E000119780E091E093838283248315820E9494
:1008F0003F0D8DB79EB706960FB6F8949EBF0FBEFC
:100900008DBF80E060E00E94CA06F80101900020DF
:10091000E9F73197E01BF10BC8016E2F0E94B50675
:1009200010929E021F910F9108950E9414070E9439
:100930007C070E94AD0680E060E00E94CA0680E766
:1009400090E060E040E00E94D90682E890E060E03C
:1009500041E00E94D90608951F9310929E021FEF56
:1009600011B912B914B915B91AB892E090936E0082
:1009700089EF87BD94BD23E025BD1092AB028EE1C7
:1009800090E090939602809395029093AD028093AD
:10099000AC021092970210929F021092B202109233
:1009A00099021092B00220939402E091B002F0E01C
:1009B000EE0FFF1FEE0FFF1FED5FFE4F8081918155
:1009C000A281B3818093A7029093A802A093A90269
:1009D000B093AA028091B002EFE0F1E0E80FF11DC0
:1009E0008081809398028091B002E2E1F1E0E80F0B
:1009F000F11D80818093B4021092B3028EEF85B90D
:100A00000E94950415B978941F910895EF92FF9272
:100A10000F931F93CF93DF930E94AC04C1EAD2E0FF
:100A20008091AB02882311F0809585B980919E0258
:100A3000882381F180917A00806480937A001092FB
:100A40009E026091B102E090A702F090A80200918E
:100A5000A9021091AA0270E080E090E00E94760A5C
:100A600020E030E04FE753E40E94CA09A801970153
:100A70000E94D0089B01AC0120939A0230939B0204
:100A800040939C0250939D0246E023E001EA12E06D
:100A90000E94F50C8091B302882309F406C180916D
:100AA0009F02823009F47CC0833020F4813009F049
:100AB000F9C007C0833009F49FC0843009F0F2C048
:100AC000C5C08091B2028330A1F1843028F4813016
:100AD000D1F0823018F50CC0853009F440C0853063
:100AE00098F1863009F446C0873009F0DBC04DC06C
:100AF0000E94AD068FE191E060E040E00E94D906DF
:100B00008AE291E0B7C00E94AD0689E391E060E01F
:100B100040E00E94D9068BE491E0ACC00E94AD0693
:100B20008DE591E060E040E00E94D9068EE691E01C
:100B3000A1C00E94AD068DE791E060E040E00E9418
:100B4000D9068EE891E096C00E94AD0689E991E051
:100B500060E040E00E94D90689EA91E08BC00E94E3
:100B6000AD0683EB91E060E040E00E94D90684ECA2
:100B700091E080C00E94AD0681ED91E060E040E030
:100B80000E94D9068EED91E075C00E94AD0689EEF7
:100B900091E060E040E00E94D90686EF91E06AC0F3
:100BA0000E94AD0686EF90E060E040E00E94D9062A
:100BB0008EEF90E066E040E00E94D90680919702B7
:100BC000882309F055C084E990E060E041E00E948C
:100BD000D9068091B002813049F0813020F0823016
:100BE00009F060C006C08CEA90E058C085EB90E048
:100BF00055C081EC90E052C00E94AD0686EF90E0B7
:100C000060E040E00E94D9068AE091E066E040E0C2
:100C10000E94D90680919702882351F584E990E0DB
:100C200060E041E00E94D9068091B002813041F03D
:100C3000813018F08230B1F506C08DED90E02EC005
:100C400084ED90E02BC08CEC90E028C00E94AD06B3
:100C500086EF90E060E040E00E94D90684E191E0F8
:100C600066E040E00E94D90680919702882321F037
:100C70008DE990E060E013C084E990E060E041E03D
:100C80000E94D9068091B002882319F0813051F476
:100C900003C08EEE90E002C087EE90E067E041E096
:100CA0000E94D9061092B302BBCE80919F0283307E
:100CB00029F0843019F0823009F0B2CE80E060E093
:100CC0000E94CA06FE0101900020E9F73197E15A1F
:100CD000F24081EA92E06E2F0E94B506A1CE282F45
:100CE000207F28B9409A429A20EA3FE0F9013197E3
:100CF000F1F742984098F9013197F1F790E044E01C
:100D0000880F991F4A95E1F788B9409A429AC9011C
:100D10000197F1F742984098C9010197F1F70895BA
:100D2000282F207F28B9429A20EA3FE0F901319725
:100D3000F1F74298F9013197F1F790E054E0880F0C
:100D4000991F5A95E1F788B9429AC9010197F1F7BD
:100D50004298C9010197F1F7089581E00E94900639
:100D6000089582E00E94900608950F931F93CF93F9
:100D7000DF93062F009749F0EC0110E004C0899141
:100D80000E946F061F5F1017D0F3DF91CF911F9164
:100D90000F910895623031F0633031F0613029F401
:100DA000805C03C08C5E01C08C5A80680E949006F3
:100DB00008951F93CF93DF93EC01862F642F0E9439
:100DC000CA0610E003C00E946F061F5FFE01E10F1C
:100DD000F11D84918823B9F7DF91CF911F91089578
:100DE000EF92FF920F931F93CF93DF937C01162F07
:100DF000110F110F110F1064C0E0D0E0F701EC0FDC
:100E0000FD1F0491812F8C0F0E949006802F0E945D
:100E10006F062196C830D10589F7DF91CF911F91D8
:100E20000F91FF90EF9008951F93CF93DF9380E68B
:100E30009AEE0197F1F718B818B887B1806F87B9A3
:100E400087B1876087B980E388B9429A20EA3FE09A
:100E5000F9013197F1F74298F9013197F1F788B923
:100E6000429AC9010197F1F74298C9010197F1F738
:100E700080E288B9429AC9010197F1F74298C90105
:100E80000197F1F788E20E9490068CE00E9490069C
:100E9000C7E0D2E060E0162F1F5FCE010E94F0068F
:100EA0002896612F1830B9F7DF91CF911F910895DF
:100EB0000F931F93082F10E004C08EE10E9490064C
:100EC0001F5F1017D0F31F910F9108950F931F9379
:100ED000082F10E004C088E10E9490061F5F1017E1
:100EE000D0F31F910F9108958EE00E94900608950F
:100EF0008FE00E94900608958CE00E94900608956D
:100F000088E00E94900608958CE00E949006089563
:100F10000F931F93082F10E004C080E10E949006F9
:100F20001F5F1017D0F31F910F9108950F931F9318
:100F3000082F10E004C084E10E9490061F5F101784
:100F4000D0F31F910F910895DF92EF92FF920F93CC
:100F50001F93CF93DF93D42E96E0899FC001112475
:100F6000242F30E0AC01429FC001439F900D529F5F
:100F7000900D112470E00E94AB0CEB01CB0166E0F8
:100F800070E00E94970CE82EFF2400E010E012C0F1
:100F9000C8010596C817D90710F085E006C0C0172C
:100FA000D10710F08E2D01C080E00E946F06F394EF
:100FB0000A5F1F4FFD1460F3DF91CF911F910F91D6
:100FC000FF90EF90DF90089587E68093C40088E15A
:100FD0008093C10008951F93182F873049F46091C2
:100FE000B9027091BA0282E391E00E94160D0BC023
:100FF0008A3019F48DE00E94EB078091C00085FFD4
:10100000FCCF1093C60080E090E01F910895EF920E
:10101000FF920F931F93CF93DF937C018091420245
:1010200090914302892B09F09FC004E412E0809163
:10103000C00087FFFCCF8091C00084FF03C02EEF6B
:101040003FEFA6C08091C00083FDA0C09091C60074
:101050009D3011F09A3069F48AE0F8018083B7017D
:101060000E94EB0784E492E0909343028093420253
:101070007BC0993009F490E2892F80528F3510F0AF
:10108000903A70F0F2E003391F0711F487E004C0D2
:10109000F80191938F01892FB7010E94EB07C7CF09
:1010A000923139F1933138F4933009F46FC09830AC
:1010B00009F0BDCF09C0973109F44BC09F3721F02B
:1010C000953109F0B4CF32C0F2E004341F0709F0C3
:1010D00008F4ADCF88E0B7010E94EB0780E2B701CA
:1010E0000E94EB0788E0B7010E94EB070150104017
:1010F0009ECF8DE0B7010E94EB07C4E4D2E004C0AC
:101100008991B7010E94EB07C017D107C8F38FCFB1
:1011100088E0B7010E94EB0780E2B7010E94EB076D
:1011200088E0B7010E94EB070150104082E00434D0
:10113000180709F068F77BCF88E0B7010E94EB073A
:1011400080E2B7010E94EB0788E0B7010E94EB073D
:101150008E01E2E004341E0709F008F468CFE801CC
:101160008A91803249F763CFE0914202F0914302C5
:101170008191F0934302E09342028A3021F410926D
:10118000430210924202282F30E002C02FEF3FEFBF
:10119000C901DF91CF911F910F91FF90EF900895BA
:1011A000A0E2B0E0E6EDF8E00C94BE0C69837A832F
:1011B0008B839C832D833E834F835887CE0101967A
:1011C000BE01675F7F4F0E94130CCE010596BE01E2
:1011D0006F5E7F4F0E94130C9985923088F0898949
:1011E0008230C8F0943019F4823051F404C0843055
:1011F00029F4923081F48AE391E0C6C0923049F438
:1012000020E09A858A89981321E02A87CE010996E1
:10121000BBC0823049F420E09A858A89981321E086
:101220002A8BCE014196B0C02D843E844F845888CD
:101230006D887E888F88988CEE24FF248701AA24ED
:10124000BB24650140E050E060E070E0E0E0F0E0E9
:10125000C10181709070892BE9F0E60CF71C081D24
:10126000191D9A01AB012A0D3B1D4C1D5D1D80E02F
:1012700090E0A0E0B0E0E614F7040805190520F4BA
:1012800081E090E0A0E0B0E0BA01A901480F591F49
:101290006A1F7B1FAA0CBB1CCC1CDD1C97FE08C060
:1012A00081E090E0A0E0B0E0A82AB92ACA2ADB2AAF
:1012B0003196E032F10549F0660C771C881C991CC8
:1012C0005694479437942794C3CFFA85EA892B899B
:1012D0003C898B859C85280F391F2E5F3F4F17C097
:1012E000CA0181709070892B61F016950795F7946B
:1012F000E79480E090E0A0E0B0E8E82AF92A0A2B21
:101300001B2B76956795579547952F5F3F4F77FD38
:10131000E7CF0CC0440F551F661F771F17FD4160B4
:10132000EE0CFF1C001F111F21503040403090E098
:10133000590790E0690790E4790760F32B8F3C8FA1
:10134000DB01CA018F779070A070B0708034910576
:10135000A105B10561F447FD0AC0E114F1040105DE
:10136000110529F0405C5F4F6F4F7F4F40781A8E18
:10137000FE1711F081E08A8F4D8F5E8F6F8F78A3FB
:1013800083E0898FCE0149960E943E0BA096E2E150
:101390000C94DA0CA8E1B0E0E0EDF9E00C94C60C96
:1013A00069837A838B839C832D833E834F83588705
:1013B000B9E0EB2EF12CEC0EFD1ECE010196B7012B
:1013C0000E94130C8E010F5E1F4FCE010596B801CF
:1013D0000E94130C2985223008F47EC039893230EE
:1013E00010F4B8017CC08A859A8989278A872430BD
:1013F00011F0223031F4231709F06EC06AE371E076
:101400006EC0343039F41D861E861F86188A1C86ED
:101410001B8604C0323021F484E08987B7015FC0A5
:101420002B853C858B899C89281B390B3C872B8716
:10143000ED84FE840F851889AD88BE88CF88D88C4E
:10144000EA14FB040C051D0540F4EE0CFF1C001F04
:10145000111F215030403C872B8720E030E040E0D6
:1014600050E080E090E0A0E0B0E460E070E0EA14DA
:10147000FB040C051D0540F0282B392B4A2B5B2B58
:10148000EA18FB080C091D09B695A795979587954D
:10149000EE0CFF1C001F111F6F5F7F4F6F31710536
:1014A00031F7DA01C9018F779070A070B070803485
:1014B0009105A105B10561F427FD0AC0E114F1040D
:1014C0000105110529F0205C3F4F4F4F5F4F2078F9
:1014D0002D873E874F87588BBE01675F7F4FCB01BB
:1014E0000E943E0B6896EAE00C94E20CA8E0B0E0A3
:1014F000ECE7FAE00C94C60C7B018C0161157105D8
:101500008105910519F482E0898360C083E08983B5
:101510008EE1C82ED12CDC82CB82ED82FE820F833D
:101520001887C801B7010E94EF0AFC013197F7FF45
:101530003BC0222733272E1B3F0B57016801022E89
:1015400004C0D694C794B794A7940A94D2F740E005
:1015500050E060E070E081E090E0A0E0B0E004C026
:10156000880F991FAA1FBB1F2A95D2F70197A109BF
:10157000B1098E219F21A023B1230097A105B105B8
:1015800021F041E050E060E070E04A295B296C29DD
:101590007D294D835E836F8378878EE190E08E1B7B
:1015A0009F0B9C838B8312C0309781F00E2E04C05A
:1015B000EE0CFF1C001F111F0A94D2F7ED82FE8271
:1015C0000F831887CE1ADF0ADC82CB821A82CE0103
:1015D00001960E943E0B2896EAE00C94E20CEF92F2
:1015E000FF920F931F937B018C0180E0E81680E04F
:1015F000F80681E0080780E0180788F48FEFE81606
:10160000F1040105110531F028F088E090E0A0E038
:10161000B0E017C080E090E0A0E0B0E012C080E051
:10162000E81680E0F80680E0080781E0180728F057
:1016300088E190E0A0E0B0E004C080E190E0A0E0AC
:10164000B0E020E230E040E050E0281B390B4A0BCC
:101650005B0B04C016950795F794E7948A95D2F72B
:10166000F701EE5BFE4F8081281B310941095109CA
:10167000C9011F910F91FF90EF900895DF92EF92B3
:10168000FF920F931F93FC01E480F5800681178180
:10169000D1808081823048F480E090E0A0E1B0E029
:1016A000E82AF92A0A2B1B2BA5C0843009F49FC015
:1016B000823021F4EE24FF24870105C0E114F104F7
:1016C0000105110519F4E0E0F0E096C06281738134
:1016D0009FEF623879070CF05BC022E83FEF261BD2
:1016E000370B2A3131052CF020E030E040E050E0AB
:1016F0002AC0B801A701022E04C0769567955795B8
:1017000047950A94D2F781E090E0A0E0B0E004C0F1
:10171000880F991FAA1FBB1F2A95D2F70197A1090D
:10172000B1098E219F21A023B1230097A105B10506
:1017300021F081E090E0A0E0B0E09A01AB01282B1D
:10174000392B4A2B5B2BDA01C9018F779070A0707F
:10175000B07080349105A105B10539F427FF09C0A7
:10176000205C3F4F4F4F5F4F04C0215C3F4F4F4FB6
:101770005F4FE0E0F0E02030A0E03A07A0E04A0749
:10178000A0E45A0710F0E1E0F0E079018A0127C0F7
:101790006038710564F5FB01E158FF4FD801C701BE
:1017A0008F779070A070B07080349105A105B1055D
:1017B00039F4E7FE0DC080E490E0A0E0B0E004C0A2
:1017C0008FE390E0A0E0B0E0E80EF91E0A1F1B1FB7
:1017D00017FF05C016950795F794E794319687E0B3
:1017E00016950795F794E7948A95D1F705C0EE24EE
:1017F000FF248701EFEFF0E06E2F6795662767956E
:10180000902F9F77D794DD24D7948E2F8695492FDC
:10181000462B582F5D29B701CA011F910F91FF90E8
:10182000EF90DF900895FC01DB014081518122811E
:10183000622F6F7770E0221F2227221F9381892F4A
:10184000880F822B282F30E0991F9927991F119616
:101850009C93119721153105A9F541155105610595
:10186000710511F482E037C082E89FEF13969C93D4
:101870008E9312979A01AB0167E0220F331F441F2A
:10188000551F6A95D1F783E08C930DC0220F331F4B
:10189000441F551F12968D919C9113970197139693
:1018A0009C938E931297203080E0380780E04807A1
:1018B00080E4580758F314962D933D934D935C9311
:1018C000179708952F3F310579F4411551056105AA
:1018D000710519F484E08C93089564FF03C081E0DE
:1018E0008C9312C01C9210C02F57304013963C931B
:1018F0002E93129783E08C9387E0440F551F661F49
:10190000771F8A95D1F7706414964D935D936D930C
:101910007C9317970895991B79E004C0991F961737
:1019200008F0961B881F7A95C9F780950895AA1B21
:10193000BB1B51E107C0AA1FBB1FA617B70710F0BA
:10194000A61BB70B881F991F5A95A9F780959095EC
:10195000BC01CD01089597FB092E07260AD077FD1B
:1019600004D0E5DF06D000201AF4709561957F4F12
:101970000895F6F7909581959F4F08952F923F9285
:101980004F925F926F927F928F929F92AF92BF928F
:10199000CF92DF92EF92FF920F931F93CF93DF933B
:1019A000CDB7DEB7CA1BDB0B0FB6F894DEBF0FBE98
:1019B000CDBF09942A88398848885F846E847D84E5
:1019C0008C849B84AA84B984C884DF80EE80FD80E7
:1019D0000C811B81AA81B981CE0FD11D0FB6F8945D
:1019E000DEBF0FBECDBFED010895EF92FF920F93C2
:1019F0001F93F22FF02E47FD02C0E4E001C0E4E1A6
:101A0000242F332727FD309537FF03C030952195CC
:101A10003F4F4F2D512F0F2FEE2E0E94400F8F2D35
:101A2000912F1F910F91FF90EF900895EF92FF92E9
:101A30000F931F93CF93DF937C018B01DB011396F0
:101A40008C9181FD03C0CFEFDFEF13C0C0E0D0E089
:101A50000BC0D8011896ED91FC911997B801099522
:101A6000892B11F0CFEFDFEFF70181917F01882300
:101A700081F7CE01CDB7DEB7E6E00C94E60CAEE020
:101A8000B0E0E5E4FDE00C94CC0C0D891E8986E005
:101A90008C831A8309838FEF9FE79E838D839E013A
:101AA000275E3F4FCE0101966F89788DA9010E9474
:101AB000630D2F813885020F131FF80110822E96B7
:101AC000E4E00C94E80CABE0B0E0E9E6FDE00C9457
:101AD000BE0C3C012B015A01FC0117821682838146
:101AE00081FD03C06FEF7FEFC6C19AE0892E1E0112
:101AF0000894211C311CF3012381F20123FD8591FF
:101B000023FF81912F01882309F4B2C1853239F472
:101B100023FD859123FF81912F01853229F490E0E7
:101B2000B3010E949011E7CF982FFF24EE2499244F
:101B3000FFE1FF15D0F09B3269F09C3228F490321F
:101B400059F0933291F40EC09D3249F0903369F40C
:101B500041E024C052E0F52A84E0F82A28C098E049
:101B6000F92A25C0E0E1FE2A22C0F7FC29C0892F0E
:101B700080538A3070F4F6FE05C0989C902C112496
:101B8000980E15C0E89CE02C1124E80EF0E2FF2A24
:101B90000EC09E3229F4F6FC6BC140E4F42A07C063
:101BA0009C3619F450E8F52A02C0983649F4F2013F
:101BB00023FD959123FF91912F01992309F0B8CF2F
:101BC000892F8554833018F08052833038F444E0F4
:101BD00050E0A40EB51E5FE359830FC0933631F079
:101BE000933779F0933509F056C020C0F501808114
:101BF000898342E050E0A40EB51E610101E010E0CF
:101C000012C0F501C080D180F6FC03C06FEF7FEFFA
:101C100002C0692D70E042E050E0A40EB51EC6017E
:101C20000E9485118C015FE7F52214C0F501C08088
:101C3000D180F6FC03C06FEF7FEF02C0692D70E02A
:101C400042E050E0A40EB51EC6010E947A118C013C
:101C500050E8F52AF3FE07C01AC080E290E0B30115
:101C60000E949011EA948E2D90E008171907A8F3AE
:101C70000EC0F601F7FC8591F7FE81916F0190E0AF
:101C8000B3010E949011E110EA9401501040011537
:101C9000110579F7EAC0943611F0993669F5F7FE27
:101CA00008C0F501208131814281538184E090E0B8
:101CB0000AC0F501808191819C01442737FD409540
:101CC000542F82E090E0A80EB91E9FE6F92257FF3C
:101CD00009C050954095309521953F4F4F4F5F4F2C
:101CE000E0E8FE2ACA01B901A1012AE030E00E9421
:101CF000BC11D82ED21840C0953729F41F2D1F7E55
:101D00002AE030E01DC01F2D197F9F3661F090370B
:101D100020F4983509F0ACC00FC0903739F09837EF
:101D200009F0A6C004C028E030E00AC0106114FD2C
:101D3000146020E130E004C014FD166020E132E0C0
:101D400017FF08C0F501608171818281938144E0B1
:101D500050E008C0F50180819181BC0180E090E0F5
:101D600042E050E0A40EB51EA1010E94BC11D82E85
:101D7000D2188FE7F82EF122F6FE0BC05EEFF522A7
:101D8000D91438F4F4FE07C0F2FC05C08FEEF82237
:101D900002C01D2D01C0192DF4FE0DC0FE01ED0D78
:101DA000F11D8081803319F499EEF92208C01F5F7C
:101DB000F2FE05C003C08F2D867809F01F5F0F2D3E
:101DC000F3FC14C0F0FE0FC01E1510F09D2C0BC0CC
:101DD0009D2C9E0C911A1E2D06C080E290E0B3014E
:101DE0000E9490111F5F1E15C0F304C01E1510F451
:101DF000E11A01C0EE2404FF0FC080E390E0B301BC
:101E00000E94901102FF1DC001FD03C088E790E011
:101E10000EC088E590E00BC0802F867891F001FF1E
:101E200002C08BE201C080E2F7FC8DE290E0B301DA
:101E30000E94901106C080E390E0B3010E949011CF
:101E40009A94D914C0F3DA94F101ED0DF11D80815B
:101E500090E0B3010E949011DD20A9F706C080E256
:101E600090E0B3010E949011EA94EE20C1F743CEB6
:101E7000F30166817781CB012B96E2E10C94DA0CB9
:101E8000A9E0B0E0E6E4FFE00C94C20C6A01122F76
:101E9000A02EBE2C2BE3201718F42CE3922E02C0A8
:101EA000902E9394AE014F5F5F4F27E0092D0E9463
:101EB000A210BC018981E82EFF24C70189709070AF
:101EC000019711F4ADE209C0B1FE02C0ABE205C05A
:101ED000B0FC02C0A0E001C0A0E2E3FE3BC0AA2328
:101EE00011F423E001C024E0211710F020E002C02B
:101EF000121B212FEB2CB4FE02C0322F0AC0F601B8
:101F0000322F80E202C0819331503323E1F7C20EB9
:101F1000D11CAA2319F0F601A1936F01F6013196A5
:101F2000E2FE05C09EE4D6019C9381E404C09EE6D7
:101F3000D6019C9381E611968C9391833296DF01B2
:101F4000832F90E202C09D9381508823E1F7E30F35
:101F5000F11D40C0E2FE42C0AA2311F423E001C0FB
:101F600024E0211710F020E002C0121B212FEB2CDF
:101F7000B4FE02C0922F0AC0F601922F80E202C086
:101F8000819391509923E1F7C20ED11CAA2319F035
:101F9000F601A1936F01F6013196E2FE08C089E4D3
:101FA000D6018C938EE411968C9386E407C089E663
:101FB000D6018C938EE611968C9386E681833296B9
:101FC000DF01892F20E202C02D9381508823E1F7A1
:101FD000E90FF11D10822EEF3FEFAFC01616170666
:101FE0001CF041E050E003C0AB014F5F5F4FAA20FF
:101FF00019F480E090E003C08A2D90E0019620E083
:1020000030E0AA2311F021E030E0240F351F280F23
:10201000391F812F90E02817390714F020E002C003
:10202000121B212F4B2D50E0CA0180719070B4FC1F
:102030000DC0B3FC0BC0F601322F40E202C0419349
:1020400031503323E1F7C20ED11C01C0322FAA2335
:1020500019F0F601A1936F01892B11F0132F0AC01B
:10206000F601132F80E302C0819311501123E1F791
:10207000C30ED11C092D060FBA8090E1892E912C38
:102080008E209F20E4FE04C0F1E3BF1609F4015046
:10209000101614F001E003C0093008F008E09B01BD
:1020A00077FF02C020E030E0CB010196821B930B4A
:1020B000FE013196E80FF91F8EE2F82E3B01601AFF
:1020C00071088A2D90E044275527481B590B8FEF44
:1020D0002F3F380719F4D601FD926D01621773077F
:1020E0002CF06216730614F4808101C080E3215045
:1020F000304031962417350724F0D6018D936D01B9
:10210000E6CF2617370749F4B5E3BB1528F0BB1611
:1021100021F48114910409F481E3F6018193D6013D
:10212000812F90E202C09C93815011968823D9F7A9
:10213000E10FF11D108220E030E0C9012996EEE0A8
:102140000C94DE0C283008F027E03327DA01990FD1
:10215000311D87FD916000966105710539F432608B
:102160002E5F3D9330E32A95E1F708959F3F30F0CD
:1021700080387105610509F03C5F3C5F3D9391300B
:1021800008F08068911DDF93CF931F930F93FF9208
:10219000EF92192F987F9695E92F96959695E90FCE
:1021A000FF27EF55FD4F99273327EE24FF24A70182
:1021B000E70105900894079428F4360FE71EF81EEF
:1021C000491F511D660F771F881F991F0694A1F79D
:1021D0000590079428F4E70EF81E491F561FC11DED
:1021E000770F881F991F661F0694A1F70590079423
:1021F00028F4F80E491F561FC71FD11D880F991FBD
:10220000661F771F0694A1F70590079420F4490FE5
:10221000561FC71FD81F990F661F771F881F069468
:10222000A9F784911095177041F0D695C7955795E9
:102230004795F794E7941A95C1F7E7E4F2E06894BC
:102240001590159135916591959105907FE2739563
:10225000E118F10A430B560BC90BD009C0F7E10C8A
:10226000F11E431F561FC91FD01D7EF4703311F499
:102270008A95E6CFE894015030F0080F0AF4002761
:10228000021708F4202F2395022F7A3328F079E3E0
:102290007D932A95E9F710C07D932A9589F60694D7
:1022A00097956795379517951794E118F10A430BA1
:1022B000560BC90BD00998F023957E9173957A330C
:1022C00008F070E37C932013B8F77E9170617D93E2
:1022D00030F0839571E37D9370E32A95E1F7112443
:1022E000EF90FF900F911F91CF91DF91992787FD7C
:1022F00090950895FC010590615070400110D8F749
:10230000809590958E0F9F1F0895FC01615070403D
:1023100001900110D8F7809590958E0F9F1F08951A
:102320000F931F93CF93DF938C01EB018B8181FF80
:102330001BC082FF0DC02E813F818C819D8128179B
:10234000390764F4E881F9810193F983E88306C0D1
:10235000E885F985802F0995892B31F48E819F813D
:1023600001969F838E8302C00FEF1FEFC801DF919C
:10237000CF911F910F910895FA01AA27283051F1AA
:10238000203181F1E8946F936E7F6E5F7F4F8F4FA6
:102390009F4FAF4FB1E03ED0B4E03CD0670F781F05
:1023A000891F9A1FA11D680F791F8A1F911DA11DEA
:1023B0006A0F711D811D911DA11D20D009F4689423
:1023C0003F912AE0269F11243019305D3193DEF6CB
:1023D000CF010895462F4770405D4193B3E00FD081
:1023E000C9F7F6CF462F4F70405D4A3318F0495D6C
:1023F00031FD4052419302D0A9F7EACFB4E0A6954F
:102400009795879577956795BA95C9F70097610570
:10241000710508959B01AC010A2E069457954795C6
:1024200037952795BA95C9F7620F731F841F951FBB
:08243000A01D0895F894FFCFF0
:102438002564000000A0400AD72340CDCC8C3F641F
:102448000A010A010000000300000000EB0707086A
:102458000000EEEDEBDEDDDBBEBDBBE7D7B7777E78
:102468007B7D2A72696E672A0A000000000000005E
:10247800000000010202030303030404040404042B
:1024880004040505050505050505050505050505F6
:1024980005050606060606060606060606060606D6
:1024A80006060606060606060606060606060606C4
:1024B80006060707070707070707070707070707A6
:1024C8000707070707070707070707070707070794
:1024D8000707070707070707070707070707070784
:1024E8000707070707070707070707070707070774
:1024F8000707080808080808080808080808080856
:102508000808080808080808080808080808080843
:102518000808080808080808080808080808080833
:102528000808080808080808080808080808080823
:102538000808080808080808080808080808080813
:102548000808080808080808080808080808080803
:1025580008080808080808080808080808080808F3
:1025680008080808080808080808080808080808E3
:02257800080851
:00000001FF
