:100000000C947D000C949A000C949A000C949A0025
:100010000C949A000C949A000C949A000C949A00F8
:100020000C949A000C949A000C949A000C949A00E8
:100030000C949A000C949A000C949A000C949A00D8
:100040000C9469010C949A000C949A000C949A00F8
:100050000C949A000C949A000C949A000C949A00B8
:100060000C949A000C949A000C949A000C949A00A8
:100070005265616374696F6E4D61737465720000DF
:1000800020763930303100005265616479000043D8
:10009000484541544552000053636F72653A200051
:1000A00000546F6F20536C6F7721000048696768B8
:1000B0002053636F72653A200000001F00000000AB
:1000C0001F00001F101010101F00001F1818181814
:1000D0001F00001F1C1C1C1C1F00001F1E1E1E1EBC
:1000E0001F00001F1F1F1F1F1F0003070F1F0F07E9
:1000F0000300181C1E1F1E1C180011241FBECFEF6A
:10010000D0E1DEBFCDBF11E0A0E0B1E0ECE0F1E175
:1001100002C005900D92AA30B107D9F711E0AAE00C
:10012000B1E001C01D92A033B107E1F70E94E601E2
:100130000C9484080C94000089B180958170909192
:100140001401913089F0913030F1923071F58823AB
:1001500061F191E0909314018EE180932E019093D0
:100160002C0190932F010895882329F010921401F7
:10017000909329010BC082E08093140180912901A2
:10018000882321F090932D011092290110922C01C7
:1001900010922F010895882341F491E09093140167
:1001A0008EE180932E0190932C01089580910C0193
:1001B000823001F1833038F4882309F466C081303D
:1001C00009F086C009C0843009F45BC0843078F13E
:1001D000853009F07DC05FC080910D01882309F44E
:1001E00077C080912D01882309F472C082E080934A
:1001F0000C01089580912B01882309F469C0809136
:10020000270190912801019790932801809327015D
:10021000019611F483E0EBCF80912F01882329F41C
:1002200080912901882309F453C085E0E0CF8091B3
:100230002F01882389F480912901882369F4809112
:100240002D01882349F480911201909113010196A8
:10025000909313018093120180912D01882379F4EA
:100260008091120190911301885E934089F58091ED
:100270002901882369F580912F01882349F584E0BD
:10028000B6CF80911101882319F180912D01882327
:10029000F9F081E0ACCF80912D01882351F080915D
:1002A0000E01882331F481E080930E0110922D011C
:1002B000089580910F01882359F080912D018823A2
:1002C00039F080910E01882319F081E080930C01B0
:1002D00008951F920F920FB60F9211242F933F9300
:1002E0004F935F936F937F938F939F93AF93BF933E
:1002F000EF93FF9380910A0190910B0101969093E7
:100300000B0180930A0180912C01882339F08091A0
:100310002E01815080932E018F5F11F40E949C006A
:1003200080911501882321F082B191E0892782B95B
:100330000E94D600FF91EF91BF91AF919F918F9155
:100340007F916F915F914F913F912F910F900FBED1
:100350000F901F9018950E94C7030E942F040E94BF
:10036000600380E060E00E947D0380E790E060E051
:1003700040E00E948C0380E890E060E041E00E9451
:100380008C0308958FEF81B912B884B915B81AB8E3
:1003900092E090936E0089EF87BD94BD83E085BDA8
:1003A0001092150110920B0110920A0110920C018B
:1003B00010920D0110922B0110922A01109211013E
:1003C00010920F010E94AB01789408957F928F9252
:1003D0009F92AF92BF92CF92DF92EF92FF920F93D4
:1003E0001F93CF93DF930E94C20180E090E00E94B0
:1003F0002007823559F081E090E068EE73E00E94BA
:100400003C0780E090E062E50E942E076BEF762EBD
:10041000FF24F3945FEE852EC6E1D1E040E0C42EC8
:1004200041E0D42E37E7932E2FEDE22E9EEFB92E2A
:100430008DEFA82E00910C01023049F1033028F411
:10044000002359F00130B1F70AC0043009F44EC05E
:100450000430D8F1053071F7DDC0B5B8EBCF80912D
:100460000D01882339F710922D0110921101A5B8C2
:100470000E94600380E060E00E947D0388E890E0D5
:1004800060E040E00E948C0300930D01D3CF809187
:100490002B01882379F610922D0110920D011092F4
:1004A0000F0110920E0175B80E9460030E940F05A3
:1004B00069EE73E00E94AB0488519C4F9093280131
:1004C00080932701F0922B01B5CF80912A018823D8
:1004D00009F0B0CF10922B0110921301109212016B
:1004E00095B8F0921501F0922A01A4CF80911101E4
:1004F000882309F09FCF85B81092150110922D0125
:1005000010922A018091120190911301885E93400C
:1005100039F481EA90E060E040E00E948C0333C04F
:1005200088E990E060E040E00E948C038091120135
:100530009091130100D000D000D0EDB7FEB73196F6
:10054000ADB7BEB71296DC93CE931197D382C28219
:10055000958384830E941F058DB79EB706960FB6BC
:10056000F8949EBF0FBE8DBF87E060E00E947D03C0
:10057000FE0101900020E9F73197E651F140CE01EC
:100580006E2F0E9468038CEA90E060E041E00E94D8
:100590008C0381E090E00E9428078C0100D000D0FD
:1005A00000D0EDB7FEB73196ADB7BEB71296DC936B
:1005B000CE931197D382C282958384830E941F05B4
:1005C0008DB79EB706960FB6F8949EBF0FBE8DBF2F
:1005D0008BE061E00E947D03FE0101900020E9F7BD
:1005E0003197E651F140CE016E2F0E946803F092E0
:1005F000110180911201909113018017910708F069
:1006000019CF609112017091130181E090E00E9476
:100610003C0710CF80910F01882309F00BCFE5B87C
:1006200010922B0110920E011092150160E00E94B1
:100630007D038FE890E060E040E00E948C03F09240
:100640000F01F8CE282F207F28B9409A429A20EA3D
:100650003FE0F9013197F1F742984098F90131975D
:10066000F1F790E044E0880F991F4A95E1F788B9C7
:10067000409A429AC9010197F1F742984098C901FE
:100680000197F1F70895282F207F28B9429A20EA90
:100690003FE0F9013197F1F74298F9013197F1F70D
:1006A00090E054E0880F991F5A95E1F788B9429A73
:1006B000C9010197F1F74298C9010197F1F708952F
:1006C00081E00E944303089582E00E94430308955D
:1006D0000F931F93CF93DF93062F009749F0EC0100
:1006E00010E004C089910E9422031F5F1017D0F30D
:1006F000DF91CF911F910F910895623031F06330F7
:1007000031F0613029F4805C03C08C5E01C08C5AEA
:1007100080680E94430308951F93CF93DF93EC01F9
:10072000862F642F0E947D0310E003C00E942203E5
:100730001F5FFE01E10FF11D84918823B9F7DF915E
:10074000CF911F910895EF92FF920F931F93CF9334
:10075000DF937C01162F110F110F110F1064C0E0F1
:10076000D0E0F701EC0FFD1F0491812F8C0F0E9448
:100770004303802F0E9422032196C830D10589F7B8
:10078000DF91CF911F910F91FF90EF9008951F93EC
:10079000CF93DF9380E69AEE0197F1F718B818B877
:1007A00087B1806F87B987B1876087B980E388B9DF
:1007B000429A20EA3FE0F9013197F1F74298F901B6
:1007C0003197F1F788B9429AC9010197F1F7429838
:1007D000C9010197F1F780E288B9429AC9010197EE
:1007E000F1F74298C9010197F1F788E20E944303AB
:1007F0008CE00E944303CAEBD0E060E0162F1F5F3D
:10080000CE010E94A3032896612F1830B9F7DF911B
:10081000CF911F9108950F931F93082F10E004C0EC
:100820008EE10E9443031F5F1017D0F31F910F91B9
:1008300008950F931F93082F10E004C088E10E94D1
:1008400043031F5F1017D0F31F910F9108958EE09F
:100850000E94430308958FE00E94430308958CE0B3
:100860000E944303089588E00E94430308958CE0AA
:100870000E94430308950F931F93082F10E004C0B4
:1008800080E10E9443031F5F1017D0F31F910F9167
:1008900008950F931F93082F10E004C084E10E9475
:1008A00043031F5F1017D0F31F910F910895DF923C
:1008B000EF92FF920F931F93CF93DF93D42E96E086
:1008C000899FC0011124242F30E0AC01429FC00158
:1008D000439F900D529F900D112470E00E94AB0435
:1008E000EB01CB0166E070E00E949704E82EFF2444
:1008F00000E010E012C0C8010596C817D90710F033
:1009000085E006C0C017D10710F08E2D01C080E031
:100910000E942203F3940A5F1F4FFD1460F3DF91DE
:10092000CF911F910F91FF90EF90DF900895AA1B38
:10093000BB1B51E107C0AA1FBB1FA617B70710F0CA
:10094000A61BB70B881F991F5A95A9F780959095FC
:10095000BC01CD01089597FB092E07260AD077FD2B
:1009600004D0E5DF06D000201AF4709561957F4F22
:100970000895F6F7909581959F4F0895A0E0B0E017
:10098000E4ECF4E00C943308EC01A880B980CA8050
:10099000DB80A114B104C104D10441F484E2A82E87
:1009A00089EDB82E8BE5C82E87E0D82EC601B5019B
:1009B0002DE133EF41E050E00E94100827EA31E4D6
:1009C00040E050E00E94F1077B018C01C601B501B7
:1009D0002DE133EF41E050E00E941008CA01B90157
:1009E0002CEE34EF4FEF5FEF0E94F1076E0D7F1D8D
:1009F000801F911F97FF04C0615070408040904855
:100A0000688379838A839B839B013F77C901CDB734
:100A1000DEB7EAE00C944F080E94BE04089585E01A
:100A200091E00E94BE040895A0E0B0E0809305012B
:100A300090930601A0930701B09308010895AEE0DA
:100A4000B0E0E5E2F5E00C9439080D891E8986E0F6
:100A50008C831A8309838FEF9FE79E838D839E018A
:100A6000275E3F4FCE0101966F89788DA9010E94C4
:100A700043052F813885020F131FF80110822E962F
:100A8000E4E00C945508ABE0B0E0E9E4F5E00C9448
:100A90002B083C012B015A01FC011782168283812D
:100AA00081FD03C06FEF7FEFC6C19AE0892E1E0162
:100AB0000894211C311CF3012381F20123FD85914F
:100AC00023FF81912F01882309F4B2C1853239F4C3
:100AD00023FD859123FF81912F01853229F490E038
:100AE000B3010E945707E7CF982FFF24EE249924E3
:100AF000FFE1FF15D0F09B3269F09C3228F4903270
:100B000059F0933291F40EC09D3249F0903369F45C
:100B100041E024C052E0F52A84E0F82A28C098E099
:100B2000F92A25C0E0E1FE2A22C0F7FC29C0892F5E
:100B300080538A3070F4F6FE05C0989C902C1124E6
:100B4000980E15C0E89CE02C1124E80EF0E2FF2A74
:100B50000EC09E3229F4F6FC6BC140E4F42A07C0B3
:100B60009C3619F450E8F52A02C0983649F4F2018F
:100B700023FD959123FF91912F01992309F0B8CF7F
:100B8000892F8554833018F08052833038F444E044
:100B900050E0A40EB51E5FE359830FC0933631F0C9
:100BA000933779F0933509F056C020C0F501808164
:100BB000898342E050E0A40EB51E610101E010E01F
:100BC00012C0F501C080D180F6FC03C06FEF7FEF4B
:100BD00002C0692D70E042E050E0A40EB51EC601CF
:100BE0000E944C078C015FE7F52214C0F501C0801C
:100BF000D180F6FC03C06FEF7FEF02C0692D70E07B
:100C000042E050E0A40EB51EC6010E9441078C01CF
:100C100050E8F52AF3FE07C01AC080E290E0B30165
:100C20000E945707EA948E2D90E008171907A8F341
:100C30000EC0F601F7FC8591F7FE81916F0190E0FF
:100C4000B3010E945707E110EA94015010400115CA
:100C5000110579F7EAC0943611F0993669F5F7FE77
:100C600008C0F501208131814281538184E090E008
:100C70000AC0F501808191819C01442737FD409590
:100C8000542F82E090E0A80EB91E9FE6F92257FF8C
:100C900009C050954095309521953F4F4F4F5F4F7C
:100CA000E0E8FE2ACA01B901A1012AE030E00E9471
:100CB0008307D82ED21840C0953729F41F2D1F7EE8
:100CC0002AE030E01DC01F2D197F9F3661F090375C
:100CD00020F4983509F0ACC00FC0903739F0983740
:100CE00009F0A6C004C028E030E00AC0106114FD7D
:100CF000146020E130E004C014FD166020E132E011
:100D000017FF08C0F501608171818281938144E001
:100D100050E008C0F50180819181BC0180E090E045
:100D200042E050E0A40EB51EA1010E948307D82E18
:100D3000D2188FE7F82EF122F6FE0BC05EEFF522F7
:100D4000D91438F4F4FE07C0F2FC05C08FEEF82287
:100D500002C01D2D01C0192DF4FE0DC0FE01ED0DC8
:100D6000F11D8081803319F499EEF92208C01F5FCC
:100D7000F2FE05C003C08F2D867809F01F5F0F2D8E
:100D8000F3FC14C0F0FE0FC01E1510F09D2C0BC01C
:100D90009D2C9E0C911A1E2D06C080E290E0B3019E
:100DA0000E9457071F5F1E15C0F304C01E1510F4E4
:100DB000E11A01C0EE2404FF0FC080E390E0B3010C
:100DC0000E94570702FF1DC001FD03C088E790E0A5
:100DD0000EC088E590E00BC0802F867891F001FF6F
:100DE00002C08BE201C080E2F7FC8DE290E0B3012B
:100DF0000E94570706C080E390E0B3010E945707A6
:100E00009A94D914C0F3DA94F101ED0DF11D8081AB
:100E100090E0B3010E945707DD20A9F706C080E2E9
:100E200090E0B3010E945707EA94EE20C1F743CE49
:100E3000F30166817781CB012B96E2E10C944708A0
:100E4000F999FECF92BD81BDF89A992780B5089592
:100E5000A8E1B0E042E050E00C94E307262FF999B6
:100E6000FECF1FBA92BD81BD20BD0FB6F894FA9A8D
:100E7000F99A0FBE019608950E942E07272F0C9411
:100E80002F07FC010590615070400110D8F7809544
:100E900090958E0F9F1F0895FC0161507040019046
:100EA0000110D8F7809590958E0F9F1F08950F938E
:100EB0001F93CF93DF938C01EB018B8181FF1BC0CC
:100EC00082FF0DC02E813F818C819D8128173907BB
:100ED00064F4E881F9810193F983E88306C0E88529
:100EE000F985802F0995892B31F48E819F81019698
:100EF0009F838E8302C00FEF1FEFC801DF91CF9158
:100F00001F910F910895FA01AA27283051F120313D
:100F100081F1E8946F936E7F6E5F7F4F8F4F9F4F8D
:100F2000AF4FB1E03ED0B4E03CD0670F781F891FCF
:100F30009A1FA11D680F791F8A1F911DA11D6A0F9D
:100F4000711D811D911DA11D20D009F468943F9150
:100F50002AE0269F11243019305D3193DEF6CF014F
:100F60000895462F4770405D4193B3E00FD0C9F715
:100F7000F6CF462F4F70405D4A3318F0495D31FD82
:100F80004052419302D0A9F7EACFB4E0A6959795D5
:100F9000879577956795BA95C9F7009761057105AB
:100FA00008959B01AC010A2E0694579547953795F5
:100FB0002795BA95C9F7620F731F841F951FA01D4F
:100FC0000895DC01CB01FC01F999FECF06C0F2BD0A
:100FD000E1BDF89A319600B40D9241505040B8F7F7
:100FE0000895629FD001739FF001829FE00DF11D73
:100FF000649FE00DF11D929FF00D839FF00D749F93
:10100000F00D659FF00D9927729FB00DE11DF91F3E
:10101000639FB00DE11DF91FBD01CF01112408959B
:1010200097FB092E05260ED057FD04D04BD00AD0D1
:10103000001C38F450954095309521953F4F4F4F07
:101040005F4F0895F6F790958095709561957F4F65
:101050008F4F9F4F08952F923F924F925F926F92C2
:101060007F928F929F92AF92BF92CF92DF92EF9238
:10107000FF920F931F93CF93DF93CDB7DEB7CA1BB9
:10108000DB0B0FB6F894DEBF0FBECDBF09942A88E4
:10109000398848885F846E847D848C849B84AA848C
:1010A000B984C884DF80EE80FD800C811B81AA8119
:1010B000B981CE0FD11D0FB6F894DEBF0FBECDBFE4
:1010C000ED010895A1E21A2EAA1BBB1BFD010DC064
:1010D000AA1FBB1FEE1FFF1FA217B307E407F507E8
:1010E00020F0A21BB30BE40BF50B661F771F881FC4
:1010F000991F1A9469F760957095809590959B015A
:0C110000AC01BD01CF010895F894FFCFB1
:0A110C00256900E80301000000005F
:00000001FF
