:100000000C9472000C948F000C948F000C948F0051
:100010000C948F000C948F000C948F000C948F0024
:100020000C948F000C948F000C948F000C948F0014
:100030000C948F000C948F000C948F000C948F0004
:100040000C946E010C948F000C948F000C948F0014
:100050000C948F000C948F000C948F000C948F00E4
:100060000C948F000C948F000C948F000C948F00D4
:1000700048656C6C6F20576F726C6400005265614C
:100080006479000043484541544552000053636F72
:1000900072653A200000486967682053636F726593
:1000A0003A200000001F000000001F00001F101079
:1000B00010101F00001F181818181F00001F1C1C0C
:1000C0001C1C1F00001F1E1E1E1E1F00001F1F1FC6
:1000D0001F1F1F0003070F1F0F070300181C1E1F01
:1000E0001E1C180011241FBECFEFD0E1DEBFCDBF14
:1000F00011E0A0E0B1E0EAE7F0E102C005900D9266
:10010000AA30B107D9F711E0AAE0B1E001C01D9211
:10011000AF32B107E1F70E94DB010C943B080C946D
:10012000000089B18095817090911401913089F01F
:10013000913030F1923071F5882361F191E0909324
:1001400014018EE180932D0190932B0190932E0149
:100150000895882329F010921401909328010BC070
:1001600082E08093140180912801882321F09093EC
:100170002C011092280110922B0110922E0108954B
:10018000882341F491E0909314018EE180932D0136
:1001900090932B01089580910C01823051F18330AE
:1001A00030F4882371F0813009F097C015C0843095
:1001B00009F476C0843008F43EC0853009F08DC063
:1001C0007DC080912C01882309F487C081E0809351
:1001D0000C0110922C01089580912C01882309F4C0
:1001E0007CC082E080930C0110922C0110920D01D2
:1001F0000895809127018150809327018F5F51F4EA
:1002000083E080930C0110922A0110921301109246
:100210001201089580912E01882329F480912801EC
:10022000882309F45AC085E080930C0110922A01BA
:1002300010922B01089580912E01882391F48091D2
:100240002801882371F480912C01882351F4809136
:100250001201909113010196909313018093120162
:10026000089580912C01882331F084E080930C0163
:1002700010922C0112C08091120190911301885E9E
:10028000934059F580912801882339F580912E01FA
:10029000882319F584E080930C01109229010895B8
:1002A00080912C018823C9F081E080930C01109289
:1002B0002C01109211010E941703089580910E01E4
:1002C000882359F080912C01882339F082E08093B3
:1002D0000C0110922C0110920E0108951F920F92A2
:1002E0000FB60F9211242F933F934F935F936F9309
:1002F0007F938F939F93AF93BF93EF93FF938091DF
:100300000A0190910B01019690930B0180930A01D1
:1003100080912B01882339F080912D0181508093A9
:100320002D018F5F11F40E9491000E94CB00FF917C
:10033000EF91BF91AF919F918F917F916F915F915D
:100340004F913F912F910F900FBE0F901F901895D6
:100350000E947E030E94E6030E94170380E060E093
:100360000E94340380E790E060E040E00E94430395
:1003700008952FEF24B915B81AB892E090936E0043
:1003800089EF87BD94BD83E085BD20931501109250
:100390000B0110920A0110920C0110920D011092A3
:1003A0002A01109229011092110110920E010E944F
:1003B000A801789408958F929F92AF92BF92CF92A6
:1003C000DF92EF92FF920F931F93CF93DF930E94E0
:1003D000B90180E090E00E94D706843559F081E0B1
:1003E00090E068EE73E00E94F30680E090E064E540
:1003F0000E94E5066BEF862E01E05FEE952EC6E1CA
:10040000D1E040E0E42E41E0F42E37EFA32E2FEDB3
:10041000C22E9EEFB92E8DEFD82E10910C01123006
:1004200021F1133028F4112351F01130B1F709C034
:100430001430B9F1143060F1153079F7A8C0B5B8AF
:10044000ECCFD5B880910D01882339F70E941703AE
:1004500080E060E00E9434038DE790E060E040E0DF
:100460000E94430310930D01D8CF85B880912A01D3
:10047000882399F60E9417030E94C60468EE73E071
:100480000E94620488518093270100932A01C5CFFE
:10049000A5B880912901882309F0BFCF00932901D5
:1004A000BCCF95B880911101882309F0B6CF60E0E8
:1004B0000E9434038DE890E060E040E00E94430336
:1004C00080E060E00E94340386E990E060E041E073
:1004D0000E944303809112019091130100D000D03B
:1004E00000D0EDB7FEB73196ADB7BEB71296DC932C
:1004F000CE931197F382E282958384830E94D6047F
:100500008DB79EB706960FB6F8949EBF0FBE8DBFEF
:1005100087E060E00E943403FE0101900020E9F7CB
:100520003197EC1BFD0BCE016E2F0E941F0381E063
:1005300090E00E94DF0600D000D000D0EDB7FEB7FB
:100540003196ADB7BEB71296DC93CE931197F38276
:10055000E282958384830E94D6048DB79EB7069667
:100560000FB6F8949EBF0FBE8DBF8BE061E00E9476
:100570003403FE0101900020E9F73197EC1BFD0BDD
:10058000CE016E2F0E941F030093110146CFC5B804
:1005900080910E01882309F040CF60E00E9434036F
:1005A00084E890E060E040E00E94430300930E0185
:1005B00034CF282F207F28B9409A429A20EA3FE082
:1005C000F9013197F1F742984098F9013197F1F725
:1005D00090E044E0880F991F4A95E1F788B9409A66
:1005E000429AC9010197F1F742984098C9010197D1
:1005F000F1F70895282F207F28B9429A20EA3FE09A
:10060000F9013197F1F74298F9013197F1F790E04C
:1006100054E0880F991F5A95E1F788B9429AC901A9
:100620000197F1F74298C9010197F1F7089581E028
:100630000E94FA02089582E00E94FA0208950F9340
:100640001F93CF93DF93062F009749F0EC0110E042
:1006500004C089910E94D9021F5F1017D0F3DF9167
:10066000CF911F910F910895623031F0633031F0D6
:10067000613029F4805C03C08C5E01C08C5A8068B4
:100680000E94FA0208951F93CF93DF93EC01862F07
:10069000642F0E94340310E003C00E94D9021F5F40
:1006A000FE01E10FF11D84918823B9F7DF91CF910D
:1006B0001F910895EF92FF920F931F93CF93DF93B3
:1006C0007C01162F110F110F110F1064C0E0D0E044
:1006D000F701EC0FFD1F0491812F8C0F0E94FA028D
:1006E000802F0E94D9022196C830D10589F7DF9169
:1006F000CF911F910F91FF90EF9008951F93CF938B
:10070000DF9380E69AEE0197F1F718B818B887B131
:10071000806F87B987B1876087B980E388B9429ACB
:1007200020EA3FE0F9013197F1F74298F90131975A
:10073000F1F788B9429AC9010197F1F74298C901C6
:100740000197F1F780E288B9429AC9010197F1F760
:100750004298C9010197F1F788E20E94FA028CE001
:100760000E94FA02C4EAD0E060E0162F1F5FCE01BB
:100770000E945A032896612F1830B9F7DF91CF9164
:100780001F9108950F931F93082F10E004C08EE16E
:100790000E94FA021F5F1017D0F31F910F91089566
:1007A0000F931F93082F10E004C088E10E94FA0203
:1007B0001F5F1017D0F31F910F9108958EE00E94D4
:1007C000FA0208958FE00E94FA0208958CE00E94D8
:1007D000FA02089588E00E94FA0208958CE00E94CF
:1007E000FA0208950F931F93082F10E004C080E1D0
:1007F0000E94FA021F5F1017D0F31F910F91089506
:100800000F931F93082F10E004C084E10E94FA02A6
:100810001F5F1017D0F31F910F910895DF92EF9291
:10082000FF920F931F93CF93DF93D42E96E0899F6F
:10083000C0011124242F30E0AC01429FC001439F2E
:10084000900D529F900D112470E00E946204EB0104
:10085000CB0166E070E00E944E04E82EFF2400E029
:1008600010E012C0C8010596C817D90710F085E03E
:1008700006C0C017D10710F08E2D01C080E00E9485
:10088000D902F3940A5F1F4FFD1460F3DF91CF91FB
:100890001F910F91FF90EF90DF900895AA1BBB1B53
:1008A00051E107C0AA1FBB1FA617B70710F0A61B70
:1008B000B70B881F991F5A95A9F780959095BC0191
:1008C000CD01089597FB092E07260AD077FD04D0A5
:1008D000E5DF06D000201AF4709561957F4F0895EA
:1008E000F6F7909581959F4F0895A0E0B0E0EBE773
:1008F000F4E00C94EA07EC01A880B980CA80DB80A0
:10090000A114B104C104D10441F484E2A82E89EDFC
:10091000B82E8BE5C82E87E0D82EC601B5012DE193
:1009200033EF41E050E00E94C70727EA31E440E09E
:1009300050E00E94A8077B018C01C601B5012DE1A2
:1009400033EF41E050E00E94C707CA01B9012CEE25
:1009500034EF4FEF5FEF0E94A8076E0D7F1D801FE1
:10096000911F97FF04C06150704080409048688399
:1009700079838A839B839B013F77C901CDB7DEB71B
:10098000EAE00C9406080E947504089585E091E061
:100990000E9475040895A0E0B0E080930501909353
:1009A0000601A0930701B09308010895AEE0B0E0FE
:1009B000ECEDF4E00C94F0070D891E8986E08C8341
:1009C0001A8309838FEF9FE79E838D839E01275EA5
:1009D0003F4FCE0101966F89788DA9010E94FA04DC
:1009E0002F813885020F131FF80110822E96E4E044
:1009F0000C940C08ABE0B0E0E0E0F5E00C94E2070A
:100A00003C012B015A01FC0117821682838181FD72
:100A100003C06FEF7FEFC6C19AE0892E1E010894D4
:100A2000211C311CF3012381F20123FD859123FF59
:100A300081912F01882309F4B2C1853239F423FD55
:100A4000859123FF81912F01853229F490E0B30134
:100A50000E940E07E7CF982FFF24EE249924FFE190
:100A6000FF15D0F09B3269F09C3228F4903259F097
:100A7000933291F40EC09D3249F0903369F441E015
:100A800024C052E0F52A84E0F82A28C098E0F92A28
:100A900025C0E0E1FE2A22C0F7FC29C0892F80533F
:100AA0008A3070F4F6FE05C0989C902C1124980EA4
:100AB00015C0E89CE02C1124E80EF0E2FF2A0EC0DD
:100AC0009E3229F4F6FC6BC140E4F42A07C09C3640
:100AD00019F450E8F52A02C0983649F4F20123FDD2
:100AE000959123FF91912F01992309F0B8CF892F78
:100AF0008554833018F08052833038F444E050E05D
:100B0000A40EB51E5FE359830FC0933631F09337BF
:100B100079F0933509F056C020C0F50180818983B2
:100B200042E050E0A40EB51E610101E010E012C0E9
:100B3000F501C080D180F6FC03C06FEF7FEF02C0EB
:100B4000692D70E042E050E0A40EB51EC6010E947F
:100B500003078C015FE7F52214C0F501C080D18046
:100B6000F6FC03C06FEF7FEF02C0692D70E042E03A
:100B700050E0A40EB51EC6010E94F8068C0150E894
:100B8000F52AF3FE07C01AC080E290E0B3010E948C
:100B90000E07EA948E2D90E008171907A8F30EC0EF
:100BA000F601F7FC8591F7FE81916F0190E0B301AA
:100BB0000E940E07E110EA94015010400115110542
:100BC00079F7EAC0943611F0993669F5F7FE08C056
:100BD000F501208131814281538184E090E00AC097
:100BE000F501808191819C01442737FD4095542F68
:100BF00082E090E0A80EB91E9FE6F92257FF09C0D7
:100C000050954095309521953F4F4F4F5F4FE0E80D
:100C1000FE2ACA01B901A1012AE030E00E943A0788
:100C2000D82ED21840C0953729F41F2D1F7E2AE0F8
:100C300030E01DC01F2D197F9F3661F0903720F4E2
:100C4000983509F0ACC00FC0903739F0983709F0EB
:100C5000A6C004C028E030E00AC0106114FD146092
:100C600020E130E004C014FD166020E132E017FFFF
:100C700008C0F501608171818281938144E050E078
:100C800008C0F50180819181BC0180E090E042E0E4
:100C900050E0A40EB51EA1010E943A07D82ED2182A
:100CA0008FE7F82EF122F6FE0BC05EEFF522D91485
:100CB00038F4F4FE07C0F2FC05C08FEEF82202C043
:100CC0001D2D01C0192DF4FE0DC0FE01ED0DF11D0D
:100CD0008081803319F499EEF92208C01F5FF2FE7B
:100CE00005C003C08F2D867809F01F5F0F2DF3FC20
:100CF00014C0F0FE0FC01E1510F09D2C0BC09D2CD3
:100D00009E0C911A1E2D06C080E290E0B3010E9455
:100D10000E071F5F1E15C0F304C01E1510F4E11A64
:100D200001C0EE2404FF0FC080E390E0B3010E94F5
:100D30000E0702FF1DC001FD03C088E790E00EC052
:100D400088E590E00BC0802F867891F001FF02C00B
:100D50008BE201C080E2F7FC8DE290E0B3010E94DB
:100D60000E0706C080E390E0B3010E940E079A943C
:100D7000D914C0F3DA94F101ED0DF11D808190E0FA
:100D8000B3010E940E07DD20A9F706C080E290E0C3
:100D9000B3010E940E07EA94EE20C1F743CEF3019F
:100DA00066817781CB012B96E2E10C94FE07F999DD
:100DB000FECF92BD81BDF89A992780B50895A8E12C
:100DC000B0E042E050E00C949A07262FF999FECF4C
:100DD0001FBA92BD81BD20BD0FB6F894FA9AF99A58
:100DE0000FBE019608950E94E506272F0C94E60693
:100DF000FC010590615070400110D8F780959095E6
:100E00008E0F9F1F0895FC016150704001900110EA
:100E1000D8F7809590958E0F9F1F08950F931F937D
:100E2000CF93DF938C01EB018B8181FF1BC082FF8D
:100E30000DC02E813F818C819D812817390764F474
:100E4000E881F9810193F983E88306C0E885F98593
:100E5000802F0995892B31F48E819F8101969F8384
:100E60008E8302C00FEF1FEFC801DF91CF911F915A
:100E70000F910895FA01AA27283051F1203181F10C
:100E8000E8946F936E7F6E5F7F4F8F4F9F4FAF4F92
:100E9000B1E03ED0B4E03CD0670F781F891F9A1FA5
:100EA000A11D680F791F8A1F911DA11D6A0F711D59
:100EB000811D911DA11D20D009F468943F912AE065
:100EC000269F11243019305D3193DEF6CF0108954D
:100ED000462F4770405D4193B3E00FD0C9F7F6CF7E
:100EE000462F4F70405D4A3318F0495D31FD405246
:100EF000419302D0A9F7EACFB4E0A69597958795DC
:100F000077956795BA95C9F70097610571050895BA
:100F10009B01AC010A2E0694579547953795279566
:100F2000BA95C9F7620F731F841F951FA01D0895FE
:100F3000DC01CB01FC01F999FECF06C0F2BDE1BD99
:100F4000F89A319600B40D9241505040B8F7089588
:100F5000629FD001739FF001829FE00DF11D649F9D
:100F6000E00DF11D929FF00D839FF00D749FF00D29
:100F7000659FF00D9927729FB00DE11DF91F639FCA
:100F8000B00DE11DF91FBD01CF011124089597FB9C
:100F9000092E05260ED057FD04D04BD00AD0001CD8
:100FA00038F450954095309521953F4F4F4F5F4F06
:100FB0000895F6F790958095709561957F4F8F4FC6
:100FC0009F4F08952F923F924F925F926F927F9220
:100FD0008F929F92AF92BF92CF92DF92EF92FF9249
:100FE0000F931F93CF93DF93CDB7DEB7CA1BDB0BF5
:100FF0000FB6F894DEBF0FBECDBF09942A8839889A
:1010000048885F846E847D848C849B84AA84B984A0
:10101000C884DF80EE80FD800C811B81AA81B981AC
:10102000CE0FD11D0FB6F894DEBF0FBECDBFED01C0
:101030000895A1E21A2EAA1BBB1BFD010DC0AA1F19
:10104000BB1FEE1FFF1FA217B307E407F50720F031
:10105000A21BB30BE40BF50B661F771F881F991FAC
:101060001A9469F760957095809590959B01AC01F5
:0A107000BD01CF010895F894FFCFF1
:0A107A00256900E8030100000000F2
:00000001FF
