:100000000C94A6000C94C3000C94C3000C94C30081
:100010000C94C3000C94C3000C94C3000C94C30054
:100020000C94C3000C9408060C94C3000C94C300F9
:100030000C94C3000C94B2020C94C3000C94C30043
:100040000C94C3000C94C3000C94C3000C94C30024
:100050000C94C3000C94C3000C94C3000C94C30014
:100060000C94C3000C94C3000C94C3000C94C30004
:1000700005A84CCDB2D44EB93836A9020C50B9916E
:100080008688083CA6AAAA2ABE000000803F5359D1
:100090004E54482076393030310000505245535389
:1000A000202320464F522048454C500000534551D4
:1000B00055454E4345204944200000564F4943458D
:1000C0002049442000004D41494E204652455120D0
:1000D00000004D41494E2044454341592000004D08
:1000E00041494E2052495345200000464D2046527A
:1000F0004551200000464D20444550544820000002
:10010000464D204445434159200000001F00000097
:10011000001F00001F101010101F00001F181818DB
:10012000181F00001F1C1C1C1C1F00001F1E1E1E71
:100130001E1F00001F1F1F1F1F1F0003070F1F0F81
:10014000070300181C1E1F1E1C18000011241FBED0
:10015000CFEFD0E1DEBFCDBF13E0A0E0B1E0E2EF32
:10016000F7E202C005900D92AA33B107D9F715E066
:10017000AAE3B3E001C01D92A132B107E1F70E94EA
:1001800001060C94F7130C940000EF92FF920F936A
:100190001F938091140290911502A0911602B091C4
:1001A00017027C018D017BE016950795F794E79483
:1001B0007A95D1F721E0E222E09203059C01AD019E
:1001C0006EE056954795379527956A95D1F721703A
:1001D0002093BD032E25880F991FAA1FBB1F820FD6
:1001E000911DA11DB11D8093140290931502A0933F
:1001F0001602B09317028F771F910F91FF90EF9027
:10020000089508951F930E94C500982F80913B0385
:10021000813011F1813068F1823089F0833011F042
:1002200010E053C080911705282F30E043E0220FE3
:10023000331F4A95E1F710E02C563E4F40C08091A5
:100240001705282F30E083E0220F331F8A95E1F74E
:1002500010E02C5A3E4F2BC080911705282F30E01C
:1002600013E0220F331F1A95E1F710E02C523E4F96
:1002700016C080911705282F30E0B3E0220F331FFE
:10028000BA95E1F710E02C5E3E4F01C01F5FF90107
:10029000E10FF11D80818917C0F4F8CF1F5FF901CC
:1002A000E10FF11D8081891780F4F8CF1F5FF901FC
:1002B000E10FF11D8081891740F4F8CF1F5FF9012C
:1002C000E10FF11D80818917C8F3E12FF0E0EE0FF7
:1002D000FF1FEC5FFE4F6081718180E090E00E9423
:1002E000CC0C2FE632E143E051E40E944E0B0E9419
:1002F000780C7093B6036093B5037093B803609362
:10030000B7037093BA036093B9037093BC0360930F
:10031000BB03109317051F910895FF920F931F932E
:10032000CF93DF93F82E80910505909106058823E1
:1003300009F048C00F2D10E0A801440F551FDA0145
:10034000A653BC4F2D913C9111978D919C91119783
:10035000F801ED55FC4F608102C0969587956A952E
:10036000E2F7281B390B11963C932E93DA01AB521E
:10037000BB4F2D913C9111978D919C911197F80154
:10038000E956FC4F608102C0969587956A95E2F721
:10039000281B390B11963C932E9347555C4FFA015D
:1003A0002081318180819181005F1A4FF801608145
:1003B00002C0969587956A95E2F7281B390BFA01DA
:1003C00031832083CF2DD0E0DE01AA0FBB1FFD01BA
:1003D000EB52FB4F208131818FEF9FE7821B930B04
:1003E000FD01E85FFA4F9183808320813181FD0117
:1003F000E653FC4F80819181892F9927232F332742
:10040000AC01429FC001439F900D529F900D11245B
:10041000A750BB4F11969C938E938091A803813077
:1004200081F5FF2011F40E940201FE01EE0FFF1F73
:10043000DF01A653BC4F8FEF9FE711969C938E93DD
:10044000DF01AB52BB4F11969C938E93DF01A85FE7
:10045000BA4F11961C921E92DF01A755BC4F119600
:100460009C938E93DF01A154BC4F11961C921E9257
:10047000E556FC4F1182108253E0F51611F41092EC
:10048000A803AE01440F551FDA01A154BC4F2D91B2
:100490003C911197FA01E051FB4F80819181820FCD
:1004A000931F11969C938E938D919C91909316051A
:1004B000E0911605F0E0EB52FC4F60816093C703BA
:1004C000DA01A556BC4F0D911C911197FA01EB541E
:1004D000FC4F20813181FA01E755FC4F80819181E9
:1004E000CF54DC4FE881200F311F02C096958795CD
:1004F000EA95E2F7772767FD7095FC01E69FC0015A
:10050000E79F900DF69F900D1124280F391F11962B
:100510003C932E938D919C919093020547505B4F95
:10052000FA0120813181E0910205232F3327F0E089
:10053000EB52FC4F8081992787FD9095AC01249F59
:10054000C001259F900D349F900D1124880F892F95
:10055000881F990B91958058DF91CF911F910F9132
:10056000FF9008951F920F920FB60F9211240F93D0
:100570001F932F933F934F935F936F937F938F932B
:100580009F93AF93BF93EF93FF93809103018823D1
:1005900061F010E000E0812F0E948D018695869524
:1005A000080F1F5F1430B9F707BD809105059091C2
:1005B000060501969093060580930505FF91EF913E
:1005C000BF91AF919F918F917F916F915F914F916B
:1005D0003F912F911F910F910F900FBE0F901F9081
:1005E00018950F931F930E9455078091C90384307B
:1005F00009F476C0853050F4813011F1813098F0E3
:10060000823061F1833009F021C14AC0863009F49B
:10061000A7C0863008F484C0873009F4C1C0883090
:1006200009F014C1DDC08EE890E060E040E00E9477
:1006300081078BE990E060E041E00E94810706C1FC
:100640008BEB90E060E041E00E9481078091D20353
:1006500061E00E94720720913A030DC08DEA90E09C
:1006600060E041E00E9481078091C80361E00E9440
:10067000720720913B0300D000D000D0EDB7FEB749
:1006800031960DED14E0ADB7BEB712961C930E93E4
:10069000119780E091E09383828324831582C1C007
:1006A00086EC90E060E041E00E9481078091EF04D9
:1006B00061E00E94720700D000D000D0EDB7FEB715
:1006C00031960DED14E0ADB7BEB712961C930E93A4
:1006D000119780E091E09383828385EB93E09FC044
:1006E00082ED90E060E041E00E9481078091A703E5
:1006F00061E00E94720700D000D000D0EDB7FEB7D5
:1007000031960DED14E0ADB7BEB712961C930E9363
:10071000119780E091E09383828383EA93E07FC026
:100720008FED90E060E041E00E9481078091140528
:1007300061E00E94720700D000D000D0EDB7FEB794
:1007400031960DED14E0ADB7BEB712961C930E9323
:10075000119780E091E09383828387E993E05FC003
:100760008BEE90E060E041E00E94810780910405FB
:1007700061E00E94720700D000D000D0EDB7FEB754
:1007800031960DED14E0ADB7BEB712961C930E93E3
:10079000119780E091E09383828380EF94E03FC0E3
:1007A00085EF90E060E041E00E94810780911505AF
:1007B00061E00E94720700D000D000D0EDB7FEB714
:1007C00031960DED14E0ADB7BEB712961C930E93A3
:1007D000119780E091E09383828381EB93E01FC0C7
:1007E00080E091E060E041E00E9481078091BE03DB
:1007F00061E00E94720700D000D000D0EDB7FEB7D4
:1008000031960DED14E0ADB7BEB712961C930E9362
:10081000119780E091E09383828380E195E0958356
:1008200084830E94C10FF80101900020E9F73197FD
:10083000E01BF10B8DB79EB706960FB6F8949EBFDE
:100840000FBE8DBFC8016E2F0E945D071F910F91D3
:100850000895109203018093C9030E94F1028091D0
:10086000C90390E0882309F491E09093030108956F
:100870000F931F93CF93DF9380913E038823B9F1A9
:100880000E940F07EC0180913F03909140038C1769
:100890009D0769F180E060E00E94720700D000D0FF
:1008A00000D0EDB7FEB731960DED14E0ADB7BEB791
:1008B00012961C930E93119780E091E093838283AC
:1008C000D583C4830E94C10FF80101900020E9F78D
:1008D0003197E01BF10B8DB79EB706960FB6F894D3
:1008E0009EBF0FBE8DBFC8016E2F0E945D070E9484
:1008F0000507082F843069F410923E038091C903E4
:1009000090E0019669E070E00E944E0F0E94290479
:1009100003C0882309F47DC08091C9038430A1F10C
:10092000853040F48230D1F0833000F5813009F019
:1009300070C00BC08630F9F1863090F1873009F431
:1009400049C0883009F065C050C0003109F05FC06F
:100950000E940F07837080933A0352C0003109F060
:1009600055C00E940F0780933B034AC0003109F035
:100970004DC080913A03C82FD0E00E940F07CC0FE2
:10098000DD1FCB54DC4F23C0003109F03FC0809104
:100990003A03C82FD0E00E940F07CD55DC4F2FC07F
:1009A0000031A1F580913A03C82FD0E00E940F07D3
:1009B000C956DC4F24C0003149F580913A03C82F55
:1009C000D0E00E940F07CC0FDD1FC051DB4F998391
:1009D000888316C00031D1F480913A03C82FD0E04B
:1009E0000E940F07CF54DC4F0AC0003179F4809188
:1009F0003A03C82FD0E00E940F07C05FDA4F888308
:100A000010923E0380E00E94290403C081E080939D
:100A10003E03DF91CF911F910F9108950E94BC0773
:100A20000E9424080E94550780E060E00E9472073F
:100A30008EE890E060E040E00E9481078BE990E062
:100A400060E041E00E94810708950F931F93CF93C8
:100A5000DF9388E084B91AB805ED13E0C0E0D0E078
:100A60001FC0BE0180E090E00E94CC0C26E53EE075
:100A700049EC50E40E944E0B20E030E040E85BE39C
:100A80000E944E0B0E94E50F20E030E04EEF52E452
:100A90000E944E0B0E947809F80161938F01219604
:100AA000CF3FD105F1F2E8F2D093D403C093D30342
:100AB000109206051092050581E085BD10926E002A
:100AC00083EC84BD80E887BD84E395E09093890042
:100AD0008093880092E090936F0029E0209381003A
:100AE000109280009093700089EF8093B3009093F0
:100AF000B00083E08093B1008CE08093C803209322
:100B0000D2039AE09093EF048BE08093A703909335
:100B1000140588E080930405209315052093BE03F7
:100B20000E940E0578946AE578E07093B6036093AE
:100B3000B50384E08093A3031092970384E192E0CD
:100B40009093F1048093F00487E08093B10326E052
:100B500020931005E4E1FEE2F093B603E093B503C1
:100B600045E04093A30331E03093970383E393E19F
:100B70009093F1048093F00458E05093B1032093D4
:100B800010057093B8036093B7034093A4033093A8
:100B9000980383E39BE09093F3048093F20489E04D
:100BA0008093B2034093110580E090E19093BA03E3
:100BB0008093B90323E02093A5033093990380E049
:100BC00098E19093F5048093F4045093B303209339
:100BD0001205F093BC03E093BB032093A60330936C
:100BE0009A0389E991E09093F7048093F6048AE0F0
:100BF0008093B40340931305DF91CF911F910F9120
:100C000008950E9425050E94C5000E943804FBCF6C
:100C10001F920F920FB60F9211242F933F934F9371
:100C20005F936F937F938F939F93AF93BF93EF9354
:100C3000FF930E94B70680913C0390913D0301967B
:100C400090933D0380933C0380913C0390913D033E
:100C50006CE474E00E943A0F892B19F481E08093D0
:100C6000A803FF91EF91BF91AF919F918F917F91D9
:100C70006F915F914F913F912F910F900FBE0F9009
:100C80001F9018952FE021B980EF82B99AE1392F92
:100C90003A95F1F730B181B922B99A95F1F720B1BF
:100CA000232B2F3F61F0EAE1F2E090E080819F5F2B
:100CB000821711F4892F089531969031B9F780E0A9
:100CC0000895982F80914303813031F410924303AB
:100CD0001092420310924103983079F1993080F4D8
:100CE000943059F1953038F49230B9F09330B8F42B
:100CF0009130E1F526C09630B1F09730B0F411C0D4
:100D00009E3038F49C30C8F49A3099F09B3098F4B7
:100D10000EC09F50923050F510C042E013C043E027
:100D200011C044E00FC045E00DC046E00BC047E0F5
:100D300009C048E007C049E005C081E08093430353
:100D4000089541E080914103909142039C0163E04A
:100D5000220F331F6A95E1F7880F991F280F391F5B
:100D6000240F311D30934203209341030895809155
:100D70001905882329F08091190581508093190560
:100D80000E944206982F80914403813091F0813077
:100D900028F0823021F18330B9F52AC09923A1F1DE
:100DA00081E0809344038EE18093190590931A05A6
:100DB000089580911905882339F5992369F0809168
:100DC0001A05981749F482E080934403909318051C
:100DD000892F0E9461060895109244030895992373
:100DE00099F483E0809344038EE18093190508957C
:100DF00080911905882341F4992321F482E080939E
:100E00004403089510924403089590911805809129
:100E10001805882311F010921805892F08958091E4
:100E20004103909142030895809143030895282F30
:100E3000207F28B9409A429A20EA3FE0F901319791
:100E4000F1F742984098F9013197F1F790E044E0CA
:100E5000880F991F4A95E1F788B9409A429AC901CB
:100E60000197F1F742984098C9010197F1F7089569
:100E7000282F207F28B9429A20EA3FE0F9013197D4
:100E8000F1F74298F9013197F1F790E054E0880FBB
:100E9000991F5A95E1F788B9429AC9010197F1F76C
:100EA0004298C9010197F1F7089581E00E9438073F
:100EB000089582E00E94380708950F931F93CF93FF
:100EC000DF93062F009749F0EC0110E004C08991F0
:100ED0000E9417071F5F1017D0F3DF91CF911F916A
:100EE0000F910895623031F0633031F0613029F4B0
:100EF000805C03C08C5E01C08C5A80680E943807F9
:100F000008951F93CF93DF93EC01862F642F0E94E7
:100F1000720710E003C00E9417071F5FFE01E10F78
:100F2000F11D84918823B9F7DF91CF911F91089526
:100F3000EF92FF920F931F93CF93DF937C01162FB5
:100F4000110F110F110F1064C0E0D0E0F701EC0F8A
:100F5000FD1F0491812F8C0F0E943807802F0E9463
:100F600017072196C830D10589F7DF91CF911F91DE
:100F70000F91FF90EF9008951F93CF93DF9380E63A
:100F80009AEE0197F1F718B818B887B1806F87B952
:100F900087B1876087B980E388B9429A20EA3FE049
:100FA000F9013197F1F74298F9013197F1F788B9D2
:100FB000429AC9010197F1F74298C9010197F1F7E7
:100FC00080E288B9429AC9010197F1F74298C901B4
:100FD0000197F1F788E20E9438078CE00E943807F9
:100FE000CBE0D1E060E0162F1F5FCE010E94980792
:100FF0002896612F1830B9F7DF91CF911F9108958E
:101000000F931F93082F10E004C08EE10E94380751
:101010001F5F1017D0F31F910F9108950F931F9327
:10102000082F10E004C088E10E9438071F5F1017E6
:10103000D0F31F910F9108958EE00E943807089514
:101040008FE00E94380708958CE00E9438070895C9
:1010500088E00E94380708958CE00E9438070895C0
:101060000F931F93082F10E004C080E10E943807FF
:101070001F5F1017D0F31F910F9108950F931F93C7
:10108000082F10E004C084E10E9438071F5F10178A
:10109000D0F31F910F910895DF92EF92FF920F937B
:1010A0001F93CF93DF93D42E96E0899FC001112424
:1010B000242F30E0AC01429FC001439F900D529F0E
:1010C000900D112470E00E944E0FEB01CB0166E001
:1010D00070E00E943A0FE82EFF2400E010E012C0FA
:1010E000C8010596C817D90710F085E006C0C017DB
:1010F000D10710F08E2D01C080E00E941707F394F5
:101100000A5F1F4FFD1460F3DF91CF911F910F9184
:10111000FF90EF90DF90089587E68093C40088E108
:101120008093C10008951F93182F873049F4609170
:101130001F05709120058AE292E00E94980F0BC073
:101140008A3019F48DE00E9493088091C00085FFD9
:10115000FCCF1093C60080E090E01F910895EF92BD
:10116000FF920F931F93CF93DF937C0180914503F0
:1011700090914603892B09F09FC007E413E080910A
:10118000C00087FFFCCF8091C00084FF03C02EEF1A
:101190003FEFA6C08091C00083FDA0C09091C60023
:1011A0009D3011F09A3069F48AE0F8018083B7012C
:1011B0000E94930887E493E090934603809345034D
:1011C0007BC0993009F490E2892F80528F3510F05E
:1011D000903A70F0F3E006391F0711F487E004C07D
:1011E000F80191938F01892FB7010E949308C7CF0F
:1011F000923139F1933138F4933009F46FC098305B
:1012000009F0BDCF09C0973109F44BC09F3721F0D9
:10121000953109F0B4CF32C0F3E007341F0709F06D
:1012200008F4ADCF88E0B7010E94930880E2B701CF
:101230000E94930888E0B7010E9493080150104073
:101240009ECF8DE0B7010E949308C7E4D3E004C0AD
:101250008991B7010E949308C017D107C8F38FCFB7
:1012600088E0B7010E94930880E2B7010E949308CA
:1012700088E0B7010E9493080150104083E00734D2
:10128000180709F068F77BCF88E0B7010E94930840
:1012900080E2B7010E94930888E0B7010E9493089A
:1012A0008E01E3E007341E0709F008F468CFE80177
:1012B0008A91803249F763CFE0914503F09146036C
:1012C0008191F0934603E09345038A3021F4109214
:1012D000460310924503282F30E002C02FEF3FEF66
:1012E000C901DF91CF911F910F91FF90EF90089569
:1012F000EF92FF920F931F937B018C0120E030E06F
:1013000040E05FE40E94480C88238CF0C801B701DC
:1013100020E030E040E05FE40E94F00A0E94780C98
:101320009B01AC01205030404040504806C0C801ED
:10133000B7010E94780C9B01AC01B901CA011F9151
:101340000F91FF90EF900895A0E0B0E0EAEAF9E095
:101350000C94610FDC012B01FA019C91923008F48E
:1013600039C1EB018881823008F433C1943069F4CB
:10137000843009F02FC111969C911197898198179B
:1013800009F428C1A2E3B2E025C1843009F421C1E7
:101390008230A9F4923009F01DC19A01AD0188E0B4
:1013A000EA010990AE01E90109929E018150C1F75D
:1013B000E201898111969C918923818308C1923031
:1013C00009F407C112962D903C901397EB018A8186
:1013D0009B811496AD90BD90CD90DC901797EC80DA
:1013E000FD800E811F819101281B390BB90137FF48
:1013F00004C066277727621B730B603271050CF0FF
:1014000061C0121613066CF537014801062E04C0A0
:1014100096948794779467940A94D2F721E030E009
:1014200040E050E004C0220F331F441F551F6A954F
:10143000D2F721503040404050402E213F214023E0
:101440005123211531054105510521F021E030E0FE
:1014500040E050E079018A01E628F7280829192997
:101460003CC0232BD1F1260E371E35014601062E36
:1014700004C096948794779467940A94D2F721E0F5
:1014800030E040E050E004C0220F331F441F551FDE
:101490006A95D2F721503040404050402A213B21EC
:1014A0004C215D21211531054105510521F021E037
:1014B00030E040E050E059016A01A628B728C8286A
:1014C000D9280BC0821593052CF01C01AA24BB243B
:1014D000650103C0EE24FF24870111969C91D2017F
:1014E00011968C91981709F445C0992339F0A801F9
:1014F00097012A193B094C095D0906C0A60195010F
:101500002E193F09400B510B57FD08C01182338241
:10151000228224833583468357831DC081E08183E3
:101520003382228288279927DC01821B930BA40B2C
:10153000B50B84839583A683B7830DC0220F331F19
:10154000441F551F248335834683578382819381AB
:101550000197938382832481358146815781DA0103
:10156000C9010197A109B1098F5F9F4FAF4FBF43D9
:1015700028F30BC0918333822282EA0CFB1C0C1DE2
:101580001D1DE482F5820683178383E08083248116
:1015900035814681578157FF1AC0C901AA2797FD97
:1015A000A095BA2F81709070A070B0705695479535
:1015B00037952795822B932BA42BB52B848395836A
:1015C000A683B78382819381019693838283DF010F
:1015D00001C0D201CD01CDB7DEB7E2E10C947D0FA1
:1015E000A0E2B0E0E6EFFAE00C946D0F69837A8335
:1015F0008B839C832D833E834F835887E9E0EE2EB7
:10160000F12CEC0EFD1ECE010196B7010E94690E71
:101610008E010F5E1F4FCE010596B8010E94690E24
:101620008A8991E089278A8BC701B801AE01475E9C
:101630005F4F0E94A4090E94940DA096E6E00C94CE
:10164000890FA0E2B0E0E7E2FBE00C946D0F698344
:101650007A838B839C832D833E834F835887F9E065
:10166000EF2EF12CEC0EFD1ECE010196B7010E946B
:10167000690E8E010F5E1F4FCE010596B8010E94C4
:10168000690EC701B801AE01475E5F4F0E94A40911
:101690000E94940DA096E6E00C94890FA0E2B0E0C1
:1016A000E4E5FBE00C94610F69837A838B839C8370
:1016B0002D833E834F835887CE010196BE01675F1D
:1016C0007F4F0E94690ECE010596BE016F5E7F4F6F
:1016D0000E94690E9985923088F089898230C8F01D
:1016E000943019F4823051F404C0843029F49230DB
:1016F00081F482E392E0C6C0923049F420E09A85FA
:101700008A89981321E02A87CE010996BBC08230CE
:1017100049F420E09A858A89981321E02A8BCE012A
:101720004196B0C02D843E844F8458886D887E8851
:101730008F88988CEE24FF248701AA24BB2465019E
:1017400040E050E060E070E0E0E0F0E0C101817076
:101750009070892BE9F0E60CF71C081D191D9A0101
:10176000AB012A0D3B1D4C1D5D1D80E090E0A0E00B
:10177000B0E0E614F7040805190520F481E090E0D4
:10178000A0E0B0E0BA01A901480F591F6A1F7B1FF2
:10179000AA0CBB1CCC1CDD1C97FE08C081E090E0AD
:1017A000A0E0B0E0A82AB92ACA2ADB2A3196E032A2
:1017B000F10549F0660C771C881C991C56944794D7
:1017C00037942794C3CFFA85EA892B893C898B8586
:1017D0009C85280F391F2E5F3F4F17C0CA018170AB
:1017E0009070892B61F016950795F794E79480E047
:1017F00090E0A0E0B0E8E82AF92A0A2B1B2B7695A6
:101800006795579547952F5F3F4F77FDE7CF0CC002
:10181000440F551F661F771F17FD4160EE0CFF1C1C
:10182000001F111F21503040403090E0590790E0D8
:10183000690790E4790760F32B8F3C8FDB01CA01C5
:101840008F779070A070B07080349105A105B105BC
:1018500061F447FD0AC0E114F1040105110529F006
:10186000405C5F4F6F4F7F4F40781A8EFE1711F02C
:1018700081E08A8F4D8F5E8F6F8F78A383E0898F91
:10188000CE0149960E94940DA096E2E10C947D0F42
:10189000A8E1B0E0EEE4FCE00C946D0F69837A837C
:1018A0008B839C832D833E834F83588789E0E82E6A
:1018B000F12CEC0EFD1ECE010196B7010E94690EBF
:1018C0008E010F5E1F4FCE010596B8010E94690E72
:1018D0008985823040F08989823028F0C701B801BB
:1018E0000E94E10E01C08FEF6896E6E00C94890F2C
:1018F000ACE0B0E0EEE7FCE00C94710F69837A8312
:101900008B839C83CE010196BE016B5F7F4F0E944B
:10191000690E8D81823061F1823050F1843021F482
:101920008E81882351F12EC02F81388537FD20C04C
:101930006E812F3131051CF06623F9F023C08EE152
:1019400090E0821B930B29853A854B855C8504C00A
:1019500056954795379527958A95D2F76623B1F026
:1019600050954095309521953F4F4F4F5F4F0EC09A
:1019700020E030E040E050E009C02FEF3FEF4FEFB4
:101980005FE704C020E030E040E050E8B901CA0160
:101990002C96E2E00C948D0FA8E0B0E0E2EDFCE0C4
:1019A0000C94690F7B018C0161157105810591050E
:1019B00019F482E0898360C083E089838EE1C82EB8
:1019C000D12CDC82CB82ED82FE820F831887C80186
:1019D000B7010E94450DFC013197F7FF3BC022275C
:1019E00033272E1B3F0B57016801022E04C0D694EB
:1019F000C794B794A7940A94D2F740E050E060E00F
:101A000070E081E090E0A0E0B0E004C0880F991F92
:101A1000AA1FBB1F2A95D2F70197A109B1098E21F0
:101A20009F21A023B1230097A105B10521F041E03A
:101A300050E060E070E04A295B296C297D294D83E4
:101A40005E836F8378878EE190E08E1B9F0B9C8373
:101A50008B8312C0309781F00E2E04C0EE0CFF1C59
:101A6000001F111F0A94D2F7ED82FE820F831887A0
:101A7000CE1ADF0ADC82CB821A82CE0101960E9446
:101A8000940D2896EAE00C94850FEF92FF920F9345
:101A90001F937B018C0180E0E81680E0F80681E06E
:101AA000080780E0180788F48FEFE816F1040105B5
:101AB000110531F028F088E090E0A0E0B0E017C018
:101AC00080E090E0A0E0B0E012C080E0E81680E0A6
:101AD000F80680E0080781E0180728F088E190E028
:101AE000A0E0B0E004C080E190E0A0E0B0E020E23F
:101AF00030E040E050E0281B390B4A0B5B0B04C080
:101B000016950795F794E7948A95D2F7F701E65C66
:101B1000FD4F8081281B310941095109C9011F91DD
:101B20000F91FF90EF900895DF92EF92FF920F9345
:101B30001F93FC01E480F58006811781D1808081AC
:101B4000823048F480E090E0A0E1B0E0E82AF92A91
:101B50000A2B1B2BA5C0843009F49FC0823021F4CE
:101B6000EE24FF24870105C0E114F10401051105ED
:101B700019F4E0E0F0E096C0628173819FEF623873
:101B800079070CF05BC022E83FEF261B370B2A31A8
:101B900031052CF020E030E040E050E02AC0B801F0
:101BA000A701022E04C076956795579547950A942C
:101BB000D2F781E090E0A0E0B0E004C0880F991F68
:101BC000AA1FBB1F2A95D2F70197A109B1098E213F
:101BD0009F21A023B1230097A105B10521F081E049
:101BE00090E0A0E0B0E09A01AB01282B392B4A2B02
:101BF0005B2BDA01C9018F779070A070B0708034D0
:101C00009105A105B10539F427FF09C0205C3F4FBC
:101C10004F4F5F4F04C0215C3F4F4F4F5F4FE0E09D
:101C2000F0E02030A0E03A07A0E04A07A0E45A071D
:101C300010F0E1E0F0E079018A0127C06038710519
:101C400064F5FB01E158FF4FD801C7018F77907011
:101C5000A070B07080349105A105B10539F4E7FE9C
:101C60000DC080E490E0A0E0B0E004C08FE390E01D
:101C7000A0E0B0E0E80EF91E0A1F1B1F17FF05C009
:101C800016950795F794E794319687E01695079592
:101C9000F794E7948A95D1F705C0EE24FF248701D5
:101CA000EFEFF0E06E2F679566276795902F9F778F
:101CB000D794DD24D7948E2F8695492F462B582F05
:101CC0005D29B701CA011F910F91FF90EF90DF903E
:101CD0000895FC01DB01408151812281622F6F77E1
:101CE00070E0221F2227221F9381892F880F822BC9
:101CF000282F30E0991F9927991F11969C931197CF
:101D000021153105A9F5411551056105710511F43C
:101D100082E037C082E89FEF13969C938E931297D0
:101D20009A01AB0167E0220F331F441F551F6A95CC
:101D3000D1F783E08C930DC0220F331F441F551F32
:101D400012968D919C911397019713969C938E9365
:101D50001297203080E0380780E0480780E4580779
:101D600058F314962D933D934D935C9317970895D4
:101D70002F3F310579F4411551056105710519F4BD
:101D800084E08C93089564FF03C081E08C9312C0BB
:101D90001C9210C02F57304013963C932E931297ED
:101DA00083E08C9387E0440F551F661F771F8A9549
:101DB000D1F7706414964D935D936D937C93179750
:101DC00008951F93DC01FB019C91923008F447C0F9
:101DD0008081823008F443C0943051F411961C91F4
:101DE000843099F58181682F70E0611B71093FC0D3
:101DF000843021F0923031F48230B9F1818188232E
:101E000089F12DC011961C9111978230F1F08181DA
:101E10001817D9F412962D913C91139782819381D2
:101E20008217930794F028173907BCF014968D9108
:101E30009D910D90BC91A02D2481358146815781C3
:101E4000281739074A075B0718F4112341F00AC025
:101E500082179307A407B50740F4112319F061E036
:101E600070E005C06FEF7FEF02C060E070E0CB0173
:101E70001F910895AA1BBB1B51E107C0AA1FBB1FDE
:101E8000A617B70710F0A61BB70B881F991F5A9506
:101E9000A9F780959095BC01CD01089597FB092E77
:101EA00007260AD077FD04D0E5DF06D000201AF41B
:101EB000709561957F4F0895F6F7909581959F4FA6
:101EC00008952F923F924F925F926F927F928F92DE
:101ED0009F92AF92BF92CF92DF92EF92FF920F93B9
:101EE0001F93CF93DF93CDB7DEB7CA1BDB0B0FB6C3
:101EF000F894DEBF0FBECDBF09942A883988488880
:101F00005F846E847D848C849B84AA84B984C88415
:101F1000DF80EE80FD800C811B81AA81B981CE0F0C
:101F2000D11D0FB6F894DEBF0FBECDBFED010895F1
:101F3000EF92FF920F931F93CF93DF937C018B015E
:101F4000DB0113968C9181FD03C0CFEFDFEF13C04F
:101F5000C0E0D0E00BC0D8011896ED91FC91199724
:101F6000B8010995892B11F0CFEFDFEFF7018191CF
:101F70007F01882381F7CE01CDB7DEB7E6E00C9470
:101F8000890FAEE0B0E0E7ECFFE00C946F0F0D8935
:101F90001E8986E08C831A8309838FEF9FE79E83D7
:101FA0008D839E01275E3F4FCE0101966F89788D0C
:101FB000A9010E94EB0F2F813885020F131FF80132
:101FC00010822E96E4E00C948B0F9F9382D20F9098
:101FD00007FCEE5FA5C2ABE0B0E0E1EFFFE00C94E0
:101FE000610F3C012B015A01FC011782168283818B
:101FF00081FD03C06FEF7FEFC6C19AE0892E1E01FD
:102000000894211C311CF3012381F20123FD8591E9
:1020100023FF81912F01882309F4B2C1853239F45D
:1020200023FD859123FF81912F01853229F490E0D2
:10203000B3010E94DE11E7CF982FFF24EE249924EC
:10204000FFE1FF15D0F09B3269F09C3228F490320A
:1020500059F0933291F40EC09D3249F0903369F4F7
:1020600041E024C052E0F52A84E0F82A28C098E034
:10207000F92A25C0E0E1FE2A22C0F7FC29C0892FF9
:1020800080538A3070F4F6FE05C0989C902C112481
:10209000980E15C0E89CE02C1124E80EF0E2FF2A0F
:1020A0000EC09E3229F4F6FC6BC140E4F42A07C04E
:1020B0009C3619F450E8F52A02C0983649F4F2012A
:1020C00023FD959123FF91912F01992309F0B8CF1A
:1020D000892F8554833018F08052833038F444E0DF
:1020E00050E0A40EB51E5FE359830FC0933631F064
:1020F000933779F0933509F056C020C0F5018081FF
:10210000898342E050E0A40EB51E610101E010E0B9
:1021100012C0F501C080D180F6FC03C06FEF7FEFE5
:1021200002C0692D70E042E050E0A40EB51EC60169
:102130000E94D3118C015FE7F52214C0F501C08025
:10214000D180F6FC03C06FEF7FEF02C0692D70E015
:1021500042E050E0A40EB51EC6010E94C8118C01D9
:1021600050E8F52AF3FE07C01AC080E290E0B30100
:102170000E94DE11EA948E2D90E008171907A8F34B
:102180000EC0F601F7FC8591F7FE81916F0190E09A
:10219000B3010E94DE11E110EA94015010400115D4
:1021A000110579F7EAC0943611F0993669F5F7FE12
:1021B00008C0F501208131814281538184E090E0A3
:1021C0000AC0F501808191819C01442737FD40952B
:1021D000542F82E090E0A80EB91E9FE6F92257FF27
:1021E00009C050954095309521953F4F4F4F5F4F17
:1021F000E0E8FE2ACA01B901A1012AE030E00E940C
:102200000A12D82ED21840C0953729F41F2D1F7EF0
:102210002AE030E01DC01F2D197F9F3661F09037F6
:1022200020F4983509F0ACC00FC0903739F09837DA
:1022300009F0A6C004C028E030E00AC0106114FD17
:10224000146020E130E004C014FD166020E132E0AB
:1022500017FF08C0F501608171818281938144E09C
:1022600050E008C0F50180819181BC0180E090E0E0
:1022700042E050E0A40EB51EA1010E940A12D82E21
:10228000D2188FE7F82EF122F6FE0BC05EEFF52292
:10229000D91438F4F4FE07C0F2FC05C08FEEF82222
:1022A00002C01D2D01C0192DF4FE0DC0FE01ED0D63
:1022B000F11D8081803319F499EEF92208C01F5F67
:1022C000F2FE05C003C08F2D867809F01F5F0F2D29
:1022D000F3FC14C0F0FE0FC01E1510F09D2C0BC0B7
:1022E0009D2C9E0C911A1E2D06C080E290E0B30139
:1022F0000E94DE111F5F1E15C0F304C01E1510F4EE
:10230000E11A01C0EE2404FF0FC080E390E0B301A6
:102310000E94DE1102FF1DC001FD03C088E790E0AE
:102320000EC088E590E00BC0802F867891F001FF09
:1023300002C08BE201C080E2F7FC8DE290E0B301C5
:102340000E94DE1106C080E390E0B3010E94DE111E
:102350009A94D914C0F3DA94F101ED0DF11D808146
:1023600090E0B3010E94DE11DD20A9F706C080E2F3
:1023700090E0B3010E94DE11EA94EE20C1F743CE53
:10238000F30166817781CB012B96E2E10C947D0FFE
:10239000FC010590615070400110D8F78095909530
:1023A0008E0F9F1F0895FC01615070400190011035
:1023B000D8F7809590958E0F9F1F08950F931F93C8
:1023C000CF93DF938C01EB018B8181FF1BC082FFD8
:1023D0000DC02E813F818C819D812817390764F4BF
:1023E000E881F9810193F983E88306C0E885F985DE
:1023F000802F0995892B31F48E819F8101969F83CF
:102400008E8302C00FEF1FEFC801DF91CF911F91A4
:102410000F910895FA01AA27283051F1203181F156
:10242000E8946F936E7F6E5F7F4F8F4F9F4FAF4FDC
:10243000B1E03ED0B4E03CD0670F781F891F9A1FEF
:10244000A11D680F791F8A1F911DA11D6A0F711DA3
:10245000811D911DA11D20D009F468943F912AE0AF
:10246000269F11243019305D3193DEF6CF01089597
:10247000462F4770405D4193B3E00FD0C9F7F6CFC8
:10248000462F4F70405D4A3318F0495D31FD405290
:10249000419302D0A9F7EACFB4E0A6959795879526
:1024A00077956795BA95C9F7009761057105089505
:1024B0009B01AC010A2E06945795479537952795B1
:1024C000BA95C9F7620F731F841F951FA01D089549
:1024D000CEC03FD0E8F3E894E0E0BB279F57F0F090
:1024E0002AED3FE049EC06C0EE0FBB0F661F771FD9
:1024F000881F28F0B23A62077307840728F0B25A9F
:10250000620B730B840BE3959A9572F7803830F465
:102510009A95BB0F661F771F881FD2F790489BC004
:10252000EF93E0FF06C0A2EA2AED3FE049EC5FEB43
:1025300037D0BFD00F90039401FC9058E0E7F0E053
:1025400099C057FD9058440F551F59F05F3F71F0E7
:102550004795880F97FB991F61F09F3F79F087950A
:102560000895121613061406551FF2CF4695F1DF93
:1025700008C0161617061806991FF1CF8695710523
:1025800061050894089587D030F08CD020F031F4A4
:102590009F3F11F41EF46BC00EF4E095E7FB53C0AF
:1025A000E92FCFDF80F3BA17620773078407950717
:1025B00018F071F49EF58EC00EF4E0950B2EBA2F34
:1025C000A02D0B01B90190010C01CA01A001112439
:1025D000FF27591B99F0593F50F4503E68F11A16E5
:1025E000F040A22F232F342F4427585FF3CF469576
:1025F00037952795A795F0405395C9F77EF41F1698
:10260000BA0B620B730B840BBAF09150A1F0FF0F61
:10261000BB1F661F771F881FC2F70EC0BA0F621F4D
:10262000731F841F48F4879577956795B795F7953D
:102630009E3F08F0B3CF9395880F08F09927EE0FCF
:1026400097958795089597F99F6780E870E060E017
:1026500008959F3F31F0915020F4879577956795C5
:10266000B795880F911D9695879597F908959FEFD7
:1026700080EC08959F938F937F936F93FF93EF93D5
:102680009B01AC010BD8EF91FF912BD02F913F9183
:102690004F915F9103C800240A9416161706180676
:1026A0000906089500240A94121613061406050656
:1026B0000895092E0394000C11F4882352F0BB0FE7
:1026C00040F4BF2B11F460FF04C06F5F7F4F8F4F4A
:1026D0009F4F0895E894BB2766277727CB0197F98A
:1026E0000895DF93CF931F930F93FF92EF92DF92A2
:1026F0007B018C01689405C0DA2EEF0121D0FE0128
:10270000E894A5912591359145915591AEF3EF014E
:1027100047DFFE019701A801DA9479F7DF90EF9087
:10272000FF900F911F91CF91DF910895B4DF28F0B2
:10273000B9DF18F0952309F086CF99CF1124CBCFBC
:1027400000DFA0F3959FD1F3950F50E0551F629FD6
:10275000F001729FBB27F00DB11D639FAA27F00DFA
:10276000B11DAA1F649F6627B00DA11D661F829F21
:102770002227B00DA11D621F739FB00DA11D621F06
:10278000839FA00D611D221F749F3327A00D611D23
:10279000231F849F600D211D822F762F6A2F112405
:1027A0009F5750408AF0E1F088234AF0EE0FFF1F58
:1027B000BB1F661F771F881F91505040A9F79E3F8F
:1027C000510570F040CF87CF5F3FECF3983EDCF3CC
:1027D000869577956795B795F795E7959F5FC1F7CC
:1027E000FE2B880F911D9695879597F90895F8947B
:0227F000FFCF19
:1027F20025640001060126014A018801B8010B0285
:102802004B02930200FF0000000000000000FF00E6
:1028120000000000000000FF0000000000000000B7
:10282200FF0000000000000000FF000000000000A8
:102832000000FF00FF000000000000000000000098
:10284200000000001F3F5F7F9FBFDFFF1F3F5F7FD2
:102852009FBFDFFF1F3F5F7F9FBFDFFF1F3F5F7F86
:102862009FBFDFFF1F3F5F7F9FBFDFFF1F3F5F7F76
:102872009FBFDFFF1F3F5F7F9FBFDFFF1F3F5F7F66
:102882009FBFDFFF2846547174A6E3FF2D49527C97
:10289200ABD7F2FF1C30567E8BA3D3FF3D6C7292F6
:1028A200ADAEC6FF0F395C73A1B7EAFF08426A7585
:1028B20090B0CEFF06386686AEBDE8FF0443627371
:1028C2008C99CAFF00000000000000FFFF0000001A
:1028D2000000000000FF0000000000000000FF00F8
:1028E20000000000000000FF0000000000000000E7
:1028F200FF0000000000000000FF000000000000D8
:102902000000FF00864A0600FF00EEEDEBE7DEDD89
:10291200DBD7BEBDBBB77E7D7B772A72696E672A25
:102922000A00000000000000000000010202030390
:102932000303040404040404040405050505050551
:10294200050505050505050505050606060606062F
:102952000606060606060606060606060606060615
:1029620006060606060606060606070707070707FF
:1029720007070707070707070707070707070707E5
:1029820007070707070707070707070707070707D5
:1029920007070707070707070707070707070707C5
:1029A20007070707070707070707080808080808AF
:1029B2000808080808080808080808080808080895
:1029C2000808080808080808080808080808080885
:1029D2000808080808080808080808080808080875
:1029E2000808080808080808080808080808080865
:1029F2000808080808080808080808080808080855
:102A02000808080808080808080808080808080844
:102A12000808080808080808080808080808080834
:0A2A2200080808080808080808085A
:00000001FF
