:100000000C9477000C9494000C9494000C9494003D
:100010000C9494000C9494000C9494000C94940010
:100020000C9494000C9494000C9494000C94940000
:100030000C9494000C9496000C9494000C949400EE
:100040000C9494000C9494000C9494000C949400E0
:100050000C9494000C9494000C9494000C949400D0
:100060000C9494000C9494000C9494000C949400C0
:1000700005A84CCDB2D44EB93836A9020C50B9916E
:100080008688083CA6AAAA2ABE000000803F5359D1
:100090004E54482076393030310000505245535389
:1000A000202320464F522048454C500000001F009E
:1000B0000000001F00001F101010101F00001F186C
:1000C0001818181F00001F1C1C1C1C1F00001F1EDE
:1000D0001E1E1E1F00001F1F1F1F1F1F0003070FD4
:1000E0001F0F070300181C1E1F1E1C1800001124E0
:1000F0001FBECFEFD0E1DEBFCDBF12E0A0E0B1E088
:10010000EAE5F1E202C005900D92A432B107D9F7F9
:1001100013E0A4E2B2E001C01D92A83BB107E1F7F1
:100120000E94B4010C94AB100C9400001F920F922B
:100130000FB60F9211242F933F934F935F936F93BA
:100140007F938F939F93EF93FF931092B20081E080
:100150008093B1008091A8039091A903882309F0AE
:100160003FC02091890230918A028091890290914A
:100170008A0240917D0202C0969587954A95E2F7E2
:10018000281B390B30938A022093890220918D031A
:1001900030918E0380918D0390918E0340917A026D
:1001A00002C0969587954A95E2F7281B390B309344
:1001B0008E0320938D0320918002309181028091E3
:1001C0008002909181024091AD0302C0969587957F
:1001D0004A95E2F7281B390B309381022093800265
:1001E00080918D0390918E034FEF5FE79A01281B5A
:1001F000390B3093AC032093AB032091AB033091C8
:10020000AC038091890290918A02892F9927232F2C
:100210003327BC01629FC001639F900D729F900DB8
:1002200011249093A6038093A50380917F028130CF
:10023000D1F450938A024093890250938E034093E5
:100240008D031092AC031092AB0350938102409344
:100250008002109286021092850210927C02109207
:100260007B0210927F02209185023091860280915C
:10027000A2039091A303820F931F90938602809311
:10028000850280918502909186029093AE03E09161
:10029000AE03F0E0E357FD4F408140938702609149
:1002A0007B0270917C0220918302309184028091C4
:1002B000800290918102E0918202260F371F55271C
:1002C00047FD509502C096958795EA95E2F7BC01E7
:1002D000469FC001479F900D569F900D1124280FF7
:1002E000391F30937C0220937B0280917B02909196
:1002F0007C029093A7032091A5033091A603E0917F
:10030000A703F0E0E357FD4F8081992787FD909583
:10031000232F3327AC01429FC001439F900D529F72
:10032000900D1124880F892F881F990B9195805863
:1003300087BD8091A8039091A90301969093A9038A
:100340008093A8031092B100FF91EF919F918F913C
:100350007F916F915F914F913F912F910F900FBEC1
:100360000F901F901895089521E08091A803909117
:10037000A9038823D1F7309908C08091A40388236A
:1003800021F420937F022093A403309BEECF809131
:10039000A403882351F31092A403E7CF0F931F9374
:1003A000809188028530B1F1863040F4833001F1CC
:1003B000843038F5813009F08EC00BC08730C1F130
:1003C000873078F1883009F450C0893009F083C053
:1003D00053C00E942E038EE890E060E040E00E944F
:1003E0005A038BE990E060E041E00E945A0373C039
:1003F0000E942E0380E061E00E944B032091A00345
:1004000041C080E061E00E944B0320918302309163
:10041000840216C080E061E00E944B0320917D02BF
:1004200031C080E061E00E944B0320917A022AC033
:1004300080E061E00E944B032091A2033091A3036E
:1004400000D000D000D0EDB7FEB731960FE813E032
:10045000ADB7BEB712961C930E93119780E091E052
:10046000938382833583248321C080E061E00E94EE
:100470004B032091820206C080E061E00E944B03A2
:100480002091AD0300D000D000D0EDB7FEB731967B
:100490000FE813E0ADB7BEB712961C930E931197F9
:1004A00080E091E093838283248315820E94750CFF
:1004B000F80101900020E9F73197E01BF10B8DB7AF
:1004C0009EB706960FB6F8949EBF0FBE8DBFC801AB
:1004D0006E2F0E9436031F910F9108950E9495037D
:1004E0000E94FD030E942E0380E060E00E944B0307
:1004F0008EE890E060E040E00E945A038BE990E0D3
:1005000060E041E00E945A0308950F931F93CF9338
:10051000DF9388E084B90DE812E0C0E0D0E01FC0AE
:10052000BE0180E090E00E94800926E53EE049ECB3
:1005300050E40E94020820E030E040E85BE30E94C3
:1005400002080E94990C20E030E04EEF52E40E9435
:1005500002080E942C06F80161938F012196CF3F7B
:10056000D105F1F2E8F2D0938C02C0938B02109285
:10057000A9031092A80381E085BD10926E0083EC60
:1005800084BD80E887BD8FEC97E0909389008093CD
:10059000880082E080936F0089E080938100109250
:1005A00080000E946E0278948AE598E0909384021D
:1005B0008093830284E080937D0210927A0284E12A
:1005C00092E09093A3038093A20387E0809382023A
:1005D00086E08093AD03DF91CF911F910F91089535
:1005E000282F207F28B9409A429A20EA3FE0F9015B
:1005F0003197F1F742984098F9013197F1F790E07F
:1006000044E0880F991F4A95E1F788B9409A429AC9
:10061000C9010197F1F742984098C9010197F1F794
:100620000895282F207F28B9429A20EA3FE0F90157
:100630003197F1F74298F9013197F1F790E054E0E2
:10064000880F991F5A95E1F788B9429AC901019715
:10065000F1F74298C9010197F1F7089581E00E94EE
:100660001103089582E00E94110308950F931F93D0
:10067000CF93DF93062F009749F0EC0110E004C000
:1006800089910E94F0021F5F1017D0F3DF91CF9184
:100690001F910F910895623031F0633031F0613075
:1006A00029F4805C03C08C5E01C08C5A80680E9473
:1006B000110308951F93CF93DF93EC01862F642FCE
:1006C0000E944B0310E003C00E94F0021F5FFE0176
:1006D000E10FF11D84918823B9F7DF91CF911F912C
:1006E0000895EF92FF920F931F93CF93DF937C01B6
:1006F000162F110F110F110F1064C0E0D0E0F70199
:10070000EC0FFD1F0491812F8C0F0E941103802F8D
:100710000E94F0022196C830D10589F7DF91CF9170
:100720001F910F91FF90EF9008951F93CF93DF9348
:1007300080E69AEE0197F1F718B818B887B1806F84
:1007400087B987B1876087B980E388B9429A20EA80
:100750003FE0F9013197F1F74298F9013197F1F74C
:1007600088B9429AC9010197F1F74298C9010197E6
:10077000F1F780E288B9429AC9010197F1F74298EE
:10078000C9010197F1F788E20E9411038CE00E94F1
:100790001103CDEAD0E060E0162F1F5FCE010E946A
:1007A00071032896612F1830B9F7DF91CF911F910F
:1007B00008950F931F93082F10E004C08EE10E944C
:1007C00011031F5F1017D0F31F910F9108950F931E
:1007D0001F93082F10E004C088E10E9411031F5FDF
:1007E0001017D0F31F910F9108958EE00E9411030E
:1007F00008958FE00E94110308958CE00E94110378
:10080000089588E00E94110308958CE00E9411036E
:1008100008950F931F93082F10E004C080E10E94F9
:1008200011031F5F1017D0F31F910F9108950F93BD
:100830001F93082F10E004C084E10E9411031F5F82
:100840001017D0F31F910F910895DF92EF92FF924E
:100850000F931F93CF93DF93D42E96E0899FC0010F
:100860001124242F30E0AC01429FC001439F900D22
:10087000529F900D112470E00E94020CEB01CB01FD
:1008800066E070E00E94EE0BE82EFF2400E010E02E
:1008900012C0C8010596C817D90710F085E006C038
:1008A000C017D10710F08E2D01C080E00E94F00229
:1008B000F3940A5F1F4FFD1460F3DF91CF911F91F6
:1008C0000F91FF90EF90DF90089587E68093C4002A
:1008D00088E18093C10008951F93182F873049F451
:1008E0006091B6037091B70383E091E00E944C0CD5
:1008F0000BC08A3019F48DE00E946C048091C00016
:1009000085FFFCCF1093C60080E090E01F91089512
:10091000EF92FF920F931F93CF93DF937C0180910F
:10092000240290912502892B09F09FC006E212E073
:100930008091C00087FFFCCF8091C00084FF03C07E
:100940002EEF3FEFA6C08091C00083FDA0C0909124
:10095000C6009D3011F09A3069F48AE0F801808376
:10096000B7010E946C0486E292E090932502809386
:1009700024027BC0993009F490E2892F80528F3590
:1009800010F0903A70F0F2E005371F0711F487E09D
:1009900004C0F80191938F01892FB7010E946C0464
:1009A000C7CF923139F1933138F4933009F46FC0E5
:1009B000983009F0BDCF09C0973109F44BC09F377B
:1009C00021F0953109F0B4CF32C0F2E006321F07B2
:1009D00009F008F4ADCF88E0B7010E946C0480E212
:1009E000B7010E946C0488E0B7010E946C040150BA
:1009F00010409ECF8DE0B7010E946C04C6E2D2E0A9
:100A000004C08991B7010E946C04C017D107C8F3D4
:100A10008FCF88E0B7010E946C0480E2B7010E948A
:100A20006C0488E0B7010E946C040150104082E021
:100A30000632180709F068F77BCF88E0B7010E94FB
:100A40006C0480E2B7010E946C0488E0B7010E9448
:100A50006C048E01E2E006321E0709F008F468CF4C
:100A6000E8018A91803249F763CFE0912402F09146
:100A700025028191F0932502E09324028A3021F42B
:100A80001092250210922402282F30E002C02FEF8E
:100A90003FEFC901DF91CF911F910F91FF90EF9030
:100AA00008952FE02AB980EF8BB99AE1392F3A9552
:100AB000F1F739B18AB92BB99A95F1F729B1232BFE
:100AC0002F3F61F0EBE0F1E090E080819F5F8217C3
:100AD00011F4892F089531969031B9F780E0089587
:100AE000982F80917802813031F410927802109220
:100AF000770210927602973DB9F1983D98F4973BB2
:100B000099F1983B40F49B3779F19E3769F197371B
:100B100009F043C029C09D3B19F19E3BF9F09B3B76
:100B2000E1F520C0973E01F1983E38F49D3D91F0EB
:100B30009E3D71F09B3D89F50FC09D3E29F09E3E84
:100B4000B9F09B3E51F502C042E013C043E011C032
:100B500044E00FC045E00DC046E00BC047E009C0CF
:100B600048E007C049E005C081E08093780208951D
:100B700041E080917602909177029C0163E0220F20
:100B8000331F6A95E1F7880F991F280F391F240F2B
:100B9000311D309377022093760208958091B0033F
:100BA00081508093B0030E945105982F8091790263
:100BB000813091F0813028F0823009F18330A1F545
:100BC00027C0992389F181E0809379028EE1809397
:100BD000B0039093B10308958091B003882321F569
:100BE0009923E1F08091B1039817C1F482E08093DA
:100BF00079029093AF03892F0E947005089599237D
:100C000099F483E0809379028EE18093B003089594
:100C10008091B003882341F4992319F4109279024A
:100C2000089582E08093790208959091AF038091B6
:100C3000AF03882311F01092AF03892F089580919C
:100C40007802882319F420E030E004C02091760275
:100C500030917702C9010895EF92FF920F931F938D
:100C60007B018C0120E030E040E05FE40E94FC0862
:100C700088238CF0C801B70120E030E040E05FE459
:100C80000E94A4070E942C099B01AC012050304017
:100C90004040504806C0C801B7010E942C099B0182
:100CA000AC01B901CA011F910F91FF90EF90089517
:100CB000A0E0B0E0EEE5F6E00C94150CDC012B01B1
:100CC000FA019C91923008F439C1EB01888182309D
:100CD00008F433C1943069F4843009F02FC11196BF
:100CE0009C9111978981981709F428C1ABE1B1E073
:100CF00025C1843009F421C18230A9F4923009F071
:100D00001DC19A01AD0188E0EA010990AE01E90137
:100D100009929E018150C1F7E201898111969C914F
:100D20008923818308C1923009F407C112962D905E
:100D30003C901397EB018A819B811496AD90BD90F6
:100D4000CD90DC901797EC80FD800E811F81910182
:100D5000281B390BB90137FF04C066277727621BB0
:100D6000730B603271050CF061C0121613066CF53E
:100D700037014801062E04C09694879477946794AF
:100D80000A94D2F721E030E040E050E004C0220FA6
:100D9000331F441F551F6A95D2F721503040404001
:100DA00050402E213F21402351232115310541057B
:100DB000510521F021E030E040E050E079018A0166
:100DC000E628F728082919293CC0232BD1F1260E43
:100DD000371E35014601062E04C0969487947794F9
:100DE00067940A94D2F721E030E040E050E004C07C
:100DF000220F331F441F551F6A95D2F721503040F0
:100E0000404050402A213B214C215D2121153105D4
:100E10004105510521F021E030E040E050E059016A
:100E20006A01A628B728C828D9280BC082159305BF
:100E30002CF01C01AA24BB24650103C0EE24FF246E
:100E4000870111969C91D20111968C91981709F403
:100E500045C0992339F0A80197012A193B094C098B
:100E60005D0906C0A60195012E193F09400B510BE3
:100E700057FD08C011823382228224833583468342
:100E800057831DC081E0818333822282882799277E
:100E9000DC01821B930BA40BB50B84839583A68383
:100EA000B7830DC0220F331F441F551F2483358382
:100EB0004683578382819381019793838283248120
:100EC000358146815781DA01C9010197A109B1092C
:100ED0008F5F9F4FAF4FBF4328F30BC09183338287
:100EE0002282EA0CFB1C0C1D1D1DE482F582068388
:100EF000178383E08083248135814681578157FFA2
:100F00001AC0C901AA2797FDA095BA2F81709070C9
:100F1000A070B0705695479537952795822B932BE7
:100F2000A42BB52B84839583A683B7838281938179
:100F3000019693838283DF0101C0D201CD01CDB739
:100F4000DEB7E2E10C94310CA0E2B0E0EAEAF7E0AF
:100F50000C94210C69837A838B839C832D833E833D
:100F60004F835887E9E0EE2EF12CEC0EFD1ECE01EA
:100F70000196B7010E941D0B8E010F5E1F4FCE011F
:100F80000596B8010E941D0B8A8991E089278A8BFA
:100F9000C701B801AE01475E5F4F0E9458060E942C
:100FA000480AA096E6E00C943D0CA0E2B0E0EBED20
:100FB000F7E00C94210C69837A838B839C832D83C7
:100FC0003E834F835887F9E0EF2EF12CEC0EFD1E87
:100FD000CE010196B7010E941D0B8E010F5E1F4FBF
:100FE000CE010596B8010E941D0BC701B801AE01E4
:100FF000475E5F4F0E9458060E94480AA096E6E0AE
:101000000C943D0CA0E2B0E0E8E0F8E00C94150C84
:1010100069837A838B839C832D833E834F83588798
:10102000CE010196BE01675F7F4F0E941D0BCE016E
:101030000596BE016F5E7F4F0E941D0B9985923011
:1010400088F089898230C8F0943019F4823051F4E4
:1010500004C0843029F4923081F48BE191E0C6C061
:10106000923049F420E09A858A89981321E02A87F2
:10107000CE010996BBC0823049F420E09A858A8966
:10108000981321E02A8BCE014196B0C02D843E8476
:101090004F8458886D887E888F88988CEE24FF2432
:1010A0008701AA24BB24650140E050E060E070E0C5
:1010B000E0E0F0E0C10181709070892BE9F0E60C6E
:1010C000F71C081D191D9A01AB012A0D3B1D4C1D73
:1010D0005D1D80E090E0A0E0B0E0E614F7040805B4
:1010E000190520F481E090E0A0E0B0E0BA01A90188
:1010F000480F591F6A1F7B1FAA0CBB1CCC1CDD1C90
:1011000097FE08C081E090E0A0E0B0E0A82AB92AEC
:10111000CA2ADB2A3196E032F10549F0660C771CC9
:10112000881C991C5694479437942794C3CFFA850A
:10113000EA892B893C898B859C85280F391F2E5F76
:101140003F4F17C0CA0181709070892B61F01695CE
:101150000795F794E79480E090E0A0E0B0E8E82AF3
:10116000F92A0A2B1B2B76956795579547952F5F84
:101170003F4F77FDE7CF0CC0440F551F661F771F09
:1011800017FD4160EE0CFF1C001F111F2150304065
:10119000403090E0590790E0690790E4790760F3E8
:1011A0002B8F3C8FDB01CA018F779070A070B070DD
:1011B00080349105A105B10561F447FD0AC0E11431
:1011C000F1040105110529F0405C5F4F6F4F7F4F1F
:1011D00040781A8EFE1711F081E08A8F4D8F5E8F56
:1011E0006F8F78A383E0898FCE0149960E94480AC9
:1011F000A096E2E10C94310CA8E1B0E0E2E0F9E065
:101200000C94210C69837A838B839C832D833E838A
:101210004F83588789E0E82EF12CEC0EFD1ECE019D
:101220000196B7010E941D0B8E010F5E1F4FCE016C
:101230000596B8010E941D0B8985823040F089898E
:10124000823028F0C701B8010E94950B01C08FEFD2
:101250006896E6E00C943D0CACE0B0E0E2E3F9E027
:101260000C94250C69837A838B839C83CE01019631
:10127000BE016B5F7F4F0E941D0B8D81823061F13B
:10128000823050F1843021F48E81882351F12EC0B8
:101290002F81388537FD20C06E812F3131051CF03C
:1012A0006623F9F023C08EE190E0821B930B298521
:1012B0003A854B855C8504C05695479537952795AB
:1012C0008A95D2F76623B1F05095409530952195D7
:1012D0003F4F4F4F5F4F0EC020E030E040E050E006
:1012E00009C02FEF3FEF4FEF5FE704C020E030E091
:1012F00040E050E8B901CA012C96E2E00C94410CA0
:10130000A8E0B0E0E6E8F9E00C941D0C7B018C014C
:10131000611571058105910519F482E0898360C02A
:1013200083E089838EE1C82ED12CDC82CB82ED82D2
:10133000FE820F831887C801B7010E94F909FC01DA
:101340003197F7FF3BC0222733272E1B3F0B570156
:101350006801022E04C0D694C794B794A7940A9447
:10136000D2F740E050E060E070E081E090E0A0E083
:10137000B0E004C0880F991FAA1FBB1F2A95D2F79F
:101380000197A109B1098E219F21A023B1230097C4
:10139000A105B10521F041E050E060E070E04A298C
:1013A0005B296C297D294D835E836F8378878EE16D
:1013B00090E08E1B9F0B9C838B8312C0309781F033
:1013C0000E2E04C0EE0CFF1C001F111F0A94D2F752
:1013D000ED82FE820F831887CE1ADF0ADC82CB8271
:1013E0001A82CE0101960E94480A2896EAE00C94DF
:1013F000390CEF92FF920F931F937B018C0180E0D9
:10140000E81680E0F80681E0080780E0180788F415
:101410008FEFE816F1040105110531F028F088E09E
:1014200090E0A0E0B0E017C080E090E0A0E0B0E085
:1014300012C080E0E81680E0F80680E0080781E04E
:10144000180728F088E190E0A0E0B0E004C080E157
:1014500090E0A0E0B0E020E230E040E050E0281B67
:10146000390B4A0B5B0B04C016950795F794E7946C
:101470008A95D2F7F701ED5DFE4F8081281B310977
:1014800041095109C9011F910F91FF90EF900895F3
:10149000DF92EF92FF920F931F93FC01E480F5809F
:1014A00006811781D1808081823048F480E090E00D
:1014B000A0E1B0E0E82AF92A0A2B1B2BA5C0843052
:1014C00009F49FC0823021F4EE24FF24870105C077
:1014D000E114F1040105110519F4E0E0F0E096C013
:1014E000628173819FEF623879070CF05BC022E85C
:1014F0003FEF261B370B2A3131052CF020E030E07E
:1015000040E050E02AC0B801A701022E04C0769541
:101510006795579547950A94D2F781E090E0A0E04F
:10152000B0E004C0880F991FAA1FBB1F2A95D2F7ED
:101530000197A109B1098E219F21A023B123009712
:10154000A105B10521F081E090E0A0E0B0E09A01B2
:10155000AB01282B392B4A2B5B2BDA01C9018F7782
:101560009070A070B07080349105A105B10539F478
:1015700027FF09C0205C3F4F4F4F5F4F04C0215CE5
:101580003F4F4F4F5F4FE0E0F0E02030A0E03A07E0
:10159000A0E04A07A0E45A0710F0E1E0F0E079018A
:1015A0008A0127C06038710564F5FB01E158FF4FDF
:1015B000D801C7018F779070A070B070803491050A
:1015C000A105B10539F4E7FE0DC080E490E0A0E08C
:1015D000B0E004C08FE390E0A0E0B0E0E80EF91EB8
:1015E0000A1F1B1F17FF05C016950795F794E79470
:1015F000319687E016950795F794E7948A95D1F789
:1016000005C0EE24FF248701EFEFF0E06E2F679511
:1016100066276795902F9F77D794DD24D7948E2FD8
:101620008695492F462B582F5D29B701CA011F9176
:101630000F91FF90EF90DF900895FC01DB01408156
:1016400051812281622F6F7770E0221F2227221F93
:101650009381892F880F822B282F30E0991F99279B
:10166000991F11969C93119721153105A9F54115E4
:1016700051056105710511F482E037C082E89FEFE2
:1016800013969C938E9312979A01AB0167E0220FF9
:10169000331F441F551F6A95D1F783E08C930DC00B
:1016A000220F331F441F551F12968D919C91139743
:1016B000019713969C938E931297203080E0380701
:1016C00080E0480780E4580758F314962D933D9323
:1016D0004D935C93179708952F3F310579F4411589
:1016E00051056105710519F484E08C93089564FF38
:1016F00003C081E08C9312C01C9210C02F57304061
:1017000013963C932E93129783E08C9387E0440FBB
:10171000551F661F771F8A95D1F7706414964D93F5
:101720005D936D937C93179708951F93DC01FB01E4
:101730009C91923008F447C08081823008F443C005
:10174000943051F411961C91843099F58181682F61
:1017500070E0611B71093FC0843021F0923031F498
:101760008230B9F18181882389F12DC011961C91B5
:1017700011978230F1F081811817D9F412962D91CA
:101780003C911397828193818217930794F02817D5
:101790003907BCF014968D919D910D90BC91A02DB0
:1017A0002481358146815781281739074A075B070D
:1017B00018F4112341F00AC082179307A407B50754
:1017C00040F4112319F061E070E005C06FEF7FEF86
:1017D00002C060E070E0CB011F910895AA1BBB1B03
:1017E00051E107C0AA1FBB1FA617B70710F0A61B21
:1017F000B70B881F991F5A95A9F780959095BC0142
:10180000CD01089597FB092E07260AD077FD04D055
:10181000E5DF06D000201AF4709561957F4F08959A
:10182000F6F7909581959F4F08952F923F924F9292
:101830005F926F927F928F929F92AF92BF92CF9260
:10184000DF92EF92FF920F931F93CF93DF93CDB769
:10185000DEB7CA1BDB0B0FB6F894DEBF0FBECDBFE1
:1018600009942A88398848885F846E847D848C84B2
:101870009B84AA84B984C884DF80EE80FD800C81BB
:101880001B81AA81B981CE0FD11D0FB6F894DEBF9E
:101890000FBECDBFED010895EF92FF920F931F93FE
:1018A000CF93DF937C018B01DB0113968C9181FD3B
:1018B00003C0CFEFDFEF13C0C0E0D0E00BC0D80112
:1018C0001896ED91FC911997B8010995892B11F0A3
:1018D000CFEFDFEFF70181917F01882381F7CE0100
:1018E000CDB7DEB7E6E00C943D0CAEE0B0E0EBE740
:1018F000FCE00C94230C0D891E8986E08C831A83EE
:1019000009838FEF9FE79E838D839E01275E3F4F64
:10191000CE0101966F89788DA9010E949F0C2F81BD
:101920003885020F131FF80110822E96E4E00C9404
:101930003F0C9F9382D20F9007FCEE5FA5C2ABE0F5
:10194000B0E0E5EAFCE00C94150C3C012B015A01D7
:10195000FC0117821682838181FD03C06FEF7FEF48
:10196000C6C19AE0892E1E010894211C311CF30186
:101970002381F20123FD859123FF81912F0188238B
:1019800009F4B2C1853239F423FD859123FF819199
:101990002F01853229F490E0B3010E94920EE7CF27
:1019A000982FFF24EE249924FFE1FF15D0F09B32FD
:1019B00069F09C3228F4903259F0933291F40EC0C1
:1019C0009D3249F0903369F441E024C052E0F52A99
:1019D00084E0F82A28C098E0F92A25C0E0E1FE2A30
:1019E00022C0F7FC29C0892F80538A3070F4F6FE9C
:1019F00005C0989C902C1124980E15C0E89CE02CF2
:101A00001124E80EF0E2FF2A0EC09E3229F4F6FC03
:101A10006BC140E4F42A07C09C3619F450E8F52A5B
:101A200002C0983649F4F20123FD959123FF91916C
:101A30002F01992309F0B8CF892F8554833018F0EE
:101A40008052833038F444E050E0A40EB51E5FE3CA
:101A500059830FC0933631F0933779F0933509F0FD
:101A600056C020C0F5018081898342E050E0A40E79
:101A7000B51E610101E010E012C0F501C080D18007
:101A8000F6FC03C06FEF7FEF02C0692D70E042E00B
:101A900050E0A40EB51EC6010E94870E8C015FE7C0
:101AA000F52214C0F501C080D180F6FC03C06FEFB1
:101AB0007FEF02C0692D70E042E050E0A40EB51E39
:101AC000C6010E947C0E8C0150E8F52AF3FE07C087
:101AD0001AC080E290E0B3010E94920EEA948E2D2B
:101AE00090E008171907A8F30EC0F601F7FC8591DE
:101AF000F7FE81916F0190E0B3010E94920EE11018
:101B0000EA94015010400115110579F7EAC09436A6
:101B100011F0993669F5F7FE08C0F5012081318191
:101B20004281538184E090E00AC0F5018081918177
:101B30009C01442737FD4095542F82E090E0A80E89
:101B4000B91E9FE6F92257FF09C050954095309580
:101B500021953F4F4F4F5F4FE0E8FE2ACA01B90180
:101B6000A1012AE030E00E94BE0ED82ED21840C05B
:101B7000953729F41F2D1F7E2AE030E01DC01F2D50
:101B8000197F9F3661F0903720F4983509F0ACC08A
:101B90000FC0903739F0983709F0A6C004C028E08C
:101BA00030E00AC0106114FD146020E130E004C090
:101BB00014FD166020E132E017FF08C0F5016081D6
:101BC00071818281938144E050E008C0F5018081F9
:101BD0009181BC0180E090E042E050E0A40EB51E8F
:101BE000A1010E94BE0ED82ED2188FE7F82EF12246
:101BF000F6FE0BC05EEFF522D91438F4F4FE07C0F0
:101C0000F2FC05C08FEEF82202C01D2D01C0192D77
:101C1000F4FE0DC0FE01ED0DF11D8081803319F43D
:101C200099EEF92208C01F5FF2FE05C003C08F2D98
:101C3000867809F01F5F0F2DF3FC14C0F0FE0FC073
:101C40001E1510F09D2C0BC09D2C9E0C911A1E2D64
:101C500006C080E290E0B3010E94920E1F5F1E1545
:101C6000C0F304C01E1510F4E11A01C0EE2404FFF5
:101C70000FC080E390E0B3010E94920E02FF1DC0EE
:101C800001FD03C088E790E00EC088E590E00BC03E
:101C9000802F867891F001FF02C08BE201C080E2C4
:101CA000F7FC8DE290E0B3010E94920E06C080E343
:101CB00090E0B3010E94920E9A94D914C0F3DA9482
:101CC000F101ED0DF11D808190E0B3010E94920EB3
:101CD000DD20A9F706C080E290E0B3010E94920ED9
:101CE000EA94EE20C1F743CEF30166817781CB0100
:101CF0002B96E2E10C94310CFC0105906150704090
:101D00000110D8F7809590958E0F9F1F0895FC01C4
:101D10006150704001900110D8F7809590958E0F1A
:101D20009F1F08950F931F93CF93DF938C01EB01B7
:101D30008B8181FF1BC082FF0DC02E813F818C8172
:101D40009D812817390764F4E881F9810193F983AB
:101D5000E88306C0E885F985802F0995892B31F441
:101D60008E819F8101969F838E8302C00FEF1FEFAC
:101D7000C801DF91CF911F910F910895FA01AA2711
:101D8000283051F1203181F1E8946F936E7F6E5FBE
:101D90007F4F8F4F9F4FAF4FB1E03ED0B4E03CD06C
:101DA000670F781F891F9A1FA11D680F791F8A1F4F
:101DB000911DA11D6A0F711D811D911DA11D20D0B6
:101DC00009F468943F912AE0269F11243019305D70
:101DD0003193DEF6CF010895462F4770405D419361
:101DE000B3E00FD0C9F7F6CF462F4F70405D4A33AE
:101DF00018F0495D31FD4052419302D0A9F7EACF76
:101E0000B4E0A6959795879577956795BA95C9F7A4
:101E100000976105710508959B01AC010A2E069497
:101E20005795479537952795BA95C9F7620F731F50
:101E3000841F951FA01D0895CEC03FD0E8F3E894FD
:101E4000E0E0BB279F57F0F02AED3FE049EC06C0E9
:101E5000EE0FBB0F661F771F881F28F0B23A62078C
:101E60007307840728F0B25A620B730B840BE39557
:101E70009A9572F7803830F49A95BB0F661F771FDA
:101E8000881FD2F790489BC0EF93E0FF06C0A2EAFC
:101E90002AED3FE049EC5FEB37D0BFD00F900394C1
:101EA00001FC9058E0E7F0E099C057FD9058440FCE
:101EB000551F59F05F3F71F04795880F97FB991FA9
:101EC00061F09F3F79F08795089512161306140666
:101ED000551FF2CF4695F1DF08C0161617061806F3
:101EE000991FF1CF8695710561050894089587D0F3
:101EF00030F08CD020F031F49F3F11F41EF46BC011
:101F00000EF4E095E7FB53C0E92FCFDF80F3BA175B
:101F1000620773078407950718F071F49EF58EC069
:101F20000EF4E0950B2EBA2FA02D0B01B9019001F4
:101F30000C01CA01A0011124FF27591B99F0593F38
:101F400050F4503E68F11A16F040A22F232F342F80
:101F50004427585FF3CF469537952795A795F040CE
:101F60005395C9F77EF41F16BA0B620B730B840BE3
:101F7000BAF09150A1F0FF0FBB1F661F771F881F9B
:101F8000C2F70EC0BA0F621F731F841F48F48795F3
:101F900077956795B795F7959E3F08F0B3CF9395E2
:101FA000880F08F09927EE0F97958795089597F970
:101FB0009F6780E870E060E008959F3F31F09150A6
:101FC00020F4879577956795B795880F911D96951D
:101FD000879597F908959FEF80EC08959F938F93CD
:101FE0007F936F93FF93EF939B01AC010BD8EF911D
:101FF000FF912BD02F913F914F915F9103C8002407
:102000000A941616170618060906089500240A945D
:1020100012161306140605060895092E0394000CE3
:1020200011F4882352F0BB0F40F4BF2B11F460FF72
:1020300004C06F5F7F4F8F4F9F4F0895E894BB2779
:1020400066277727CB0197F90895DF93CF931F93E6
:102050000F93FF92EF92DF927B018C01689405C091
:10206000DA2EEF0121D0FE01E894A591259135915A
:1020700045915591AEF3EF0147DFFE019701A801AD
:10208000DA9479F7DF90EF90FF900F911F91CF9145
:10209000DF910895B4DF28F0B9DF18F0952309F037
:1020A00086CF99CF1124CBCF00DFA0F3959FD1F33A
:1020B000950F50E0551F629FF001729FBB27F00DF6
:1020C000B11D639FAA27F00DB11DAA1F649F66274B
:1020D000B00DA11D661F829F2227B00DA11D621F9A
:1020E000739FB00DA11D621F839FA00D611D221F54
:1020F000749F3327A00D611D231F849F600D211D38
:10210000822F762F6A2F11249F5750408AF0E1F0DA
:1021100088234AF0EE0FFF1FBB1F661F771F881F23
:1021200091505040A9F79E3F510570F040CF87CFA6
:102130005F3FECF3983EDCF3869577956795B7950E
:10214000F795E7959F5FC1F7FE2B880F911D969538
:0A215000879597F90895F894FFCFE2
:10215A002564002A72696E672A0A00EEEDEBE7DE53
:10216A00DDDBD7BEBDBBB77E7D7B770000000000FC
:10217A000000000001020203030303040404040430
:10218A0004040405050505050505050505050505F8
:10219A0005050506060606060606060606060606D8
:1021AA0006060606060606060606060606060606C5
:1021BA0006060607070707070707070707070707A8
:1021CA000707070707070707070707070707070795
:1021DA000707070707070707070707070707070785
:1021EA000707070707070707070707070707070775
:1021FA000707070808080808080808080808080858
:10220A000808080808080808080808080808080844
:10221A000808080808080808080808080808080834
:10222A000808080808080808080808080808080824
:10223A000808080808080808080808080808080814
:10224A000808080808080808080808080808080804
:10225A0008080808080808080808080808080808F4
:10226A0008080808080808080808080808080808E4
:04227A000808080048
:00000001FF
