:100000000C9458000C9475000C9475000C947500B9
:100010000C9475000C9475000C9475000C9475008C
:100020000C9475000C9475000C9475000C9475007C
:100030000C9475000C94EC010C9475000C947500F4
:100040000C9475000C9475000C9475000C9475005C
:100050000C9475000C9475000C9475000C9475004C
:100060000C9475000C9475000C9475000C9475003C
:10007000001F000000001F00001F101010101F00C4
:10008000001F181818181F00001F1C1C1C1C1F0024
:10009000001F1E1E1E1E1F00001F1F1F1F1F1F00F0
:1000A00003070F1F0F070300181C1E1F1E1C18003C
:1000B00011241FBECFEFD0E1DEBFCDBF12E0A0E024
:1000C000B1E0ECE1FBE202C005900D92A435B1076E
:1000D000D9F712E0A4E5B2E001C01D92A13DB1073D
:1000E000E1F70E940F0A0C948C150C940000282F45
:1000F000207F28B9409A429A2AEF30E0F9013197DF
:10010000F1F742984098F9013197F1F790E044E017
:10011000880F991F4A95E1F788B9409A429AC90118
:100120000197F1F742984098C9010197F1F70895B6
:10013000282F207F28B9429A2AEF30E0F901319721
:10014000F1F74298F9013197F1F790E054E0880F08
:10015000991F5A95E1F788B9429AC9010197F1F7B9
:100160004298C9010197F1F7089581E00E94980033
:10017000089582E00E94980008950F931F93CF93F3
:10018000DF93062F009749F0EC0110E004C089913D
:100190000E9477001F5F1017D0F3DF91CF911F915E
:1001A0000F910895623031F0633031F0613029F4FD
:1001B000805C03C08C5E01C08C5A80680E949800ED
:1001C00008951F93CF93DF93EC01862F642F0E9435
:1001D000D20010E003C00E9477001F5FFE01E10F14
:1001E000F11D84918823B9F7DF91CF911F91089574
:1001F000EF92FF920F931F93CF93DF937C01162F03
:10020000110F110F110F1064C0E0D0E0F701EC0FD7
:10021000FD1F0491812F8C0F0E949800802F0E9457
:1002200077002196C830D10589F7DF91CF911F91D2
:100230000F91FF90EF9008951F93CF93DF9386EA7D
:100240009EE00197F1F718B818B887B1806F87B9A9
:1002500087B1876087B980E388B9429A2AEF30E096
:10026000F9013197F1F74298F9013197F1F788B91F
:10027000429AC9010197F1F74298C9010197F1F734
:1002800080E288B9429AC9010197F1F74298C90101
:100290000197F1F788E20E9498008CE00E94980094
:1002A000C0E7D0E060E0162F1F5FCE010E94F8008B
:1002B0002896612F1830B9F7DF91CF911F910895DB
:1002C0000F931F93082F10E004C08EE10E94980046
:1002D0001F5F1017D0F31F910F9108950F931F9375
:1002E000082F10E004C088E10E9498001F5F1017DB
:1002F000D0F31F910F9108958EE00E949800089509
:100300008FE00E94980008958CE00E949800089564
:1003100088E00E94980008958CE00E94980008955B
:100320000F931F93082F10E004C080E10E949800F3
:100330001F5F1017D0F31F910F9108950F931F9314
:10034000082F10E004C084E10E9498001F5F10177E
:10035000D0F31F910F910895DF92EF92FF920F93C8
:100360001F93CF93DF93D42E96E0899FC001112471
:10037000242F30E0AC01429FC001439F900D529F5B
:10038000900D112470E00E947F12EB01CB0166E01A
:1003900070E00E946B12E82EFF2400E010E012C013
:1003A000C8010596C817D90710F085E006C0C01728
:1003B000D10710F08E2D01C080E00E947700F394E9
:1003C0000A5F1F4FFD1460F3DF91CF911F910F91D2
:1003D000FF90EF90DF9008951F920F920FB60F924B
:1003E00011242F923F924F925F926F927F928F9241
:1003F0009F92AF92BF92CF92DF92EF92FF920F93B4
:100400001F932F933F934F935F936F937F938F939C
:100410009F93AF93BF93CF93DF93EF93FF9310928C
:100420006F0050908202B09B14C08091C4029091E2
:10043000C502A091C602B091C7020196A11DB11DCF
:100440008093C4029093C502A093C602B093C702E2
:10045000B09A80918400909185003C018824992471
:100460008091C4029091C502A091C602B091C702CA
:10047000DC0199278827680E791E8A1E9B1E4090F2
:10048000810270E061E0FFEFAF2EFFEFBF2EFFEFC4
:10049000CF2EFFE7DF2EEBE02E2E33243394CBE07C
:1004A000D0E043C0629DD0011124AD57BD4F1A96D4
:1004B0008C911A978230A1F41296ED90FD900D91D7
:1004C0001C9115976E147F048006910620F01A96F1
:1004D0003C921A9705C0EA14FB040C051D0510F0A8
:1004E000860175011A968C911A978130D9F4872F5D
:1004F00090E08C9FF0018D9FF00D9C9FF00D1124DA
:10050000EF57FD4F16962D913D914D915C911997A6
:1005100080859185A285B385281739074A075B072F
:1005200008F4762F6F5F57016801461608F0BACFBE
:100530007515B1F0EBE05E9ED0011124AD57BD4FB3
:100540008DB78C938EB711968C937E9FF0011124FA
:10055000ED57FD4F81818EBF80818DBF70938202E8
:10056000A092C802B092C902C092CA02D092CB0235
:10057000209184003091850040E050E08091C402D9
:100580009091C502A091C602B091C702DC019927E3
:100590008827280F391F4A1F5B1FD601C501821B00
:1005A000930BA40BB50B9C01AD0184309105A10503
:1005B000B10524F424E030E040E050E08091840074
:1005C00090918500A0E0B0E0820F931FA41FB51F9B
:1005D00080509040A140B04038F4809184009091C8
:1005E0008500820F931F0EC080918400909185003A
:1005F0008C5F9F4F28F4109289001092880006C0EB
:1006000084E090E0909389008093880082E080935A
:100610006F00FF91EF91DF91CF91BF91AF919F91CB
:100620008F917F916F915F914F913F912F911F918A
:100630000F91FF90EF90DF90CF90BF90AF909F9081
:100640008F907F906F905F904F903F902F900F9082
:100650000FBE0F901F901895109285001092840085
:100660001092800025E02093810022E020936F000B
:100670002FEF30E1281B390B3093C3022093C202C5
:1006800010928102109282021092C4021092C5024E
:100690001092C6021092C7028FEF9FEFAFEFBFE735
:1006A0008093C8029093C902A093CA02B093CB0270
:1006B0008093890290938A02A0938B02B0938C025C
:1006C0001092850210928602109287021092880280
:1006D000789408958F929F92AF92BF92CF92DF92BB
:1006E000EF92FF920F931F93CF93DF9349015A012B
:1006F000F894209181022F5F20938102C091C20261
:10070000D091C3029E01261B370B3093C302209366
:10071000C2028883FE0192933197DF01CE014B978D
:100720001C921197A817B907D9F77997C082D2926E
:100730003197DF019E01235230401C921197A2177E
:10074000B307D9F79F0126503040E09181028BE03A
:10075000E89FF0011124ED57FD4F82829382A4821D
:10076000B582E682F7820087118782E08287208344
:1007700031830E94EC01DF91CF911F910F91FF9087
:10078000EF90DF90CF90BF90AF909F908F900895A3
:10079000F894E1E8F2E0E80FF11D60AF7894089575
:1007A000482F20918202F894E82FF0E0E754FD4FA3
:1007B0008081882319F08150808310C030E08BE065
:1007C00090E0289FF001299FF00D389FF00D112433
:1007D000ED57FD4F4E5F42870E94EC0178940895DB
:1007E000FF920F931F93182FF89400918102E1E07C
:1007F0004FEF5FEF6FEF7FEFF0E08BE0F82E212FF0
:1008000030E02E5F3F4F1EC0EF9DD0011124AD5749
:10081000BD4F1A968C911A9790E08217930769F44E
:1008200016968D919D910D90BC91A02D481759075A
:100830006A077B0710F0FE2F02C0DB01CA01EF5FE1
:10084000AC01BD010E1700F7FF2341F4E12FF0E0EA
:10085000E058FD4F81AD8F5F81AF11C02F2F30E089
:100860008BE090E0289FF001299FF00D389FF00D5C
:100870001124EF57FD4F81E084870E94EC017894AA
:100880001F910F91FF900895209184003091850071
:1008900040E050E08091C4029091C502A091C60250
:1008A000B091C702DC0199278827280F391F4A1FFA
:1008B0005B1FB901CA010895E0918202ABE0EA9F93
:1008C000F0011124ED57FD4FF894A2E0A287628356
:1008D00073838483958326833783408751870E945F
:1008E000EC0108958091820290E02BE030E0829F3D
:1008F000F001839FF00D929FF00D1124EF57FD4FF3
:10090000DF011496648111967C91119712968C9157
:10091000129713969C9108958091820290E02BE0AB
:1009200030E0829FF001839FF00D929FF00D112423
:10093000EF57FD4FDF011896608511967C91119756
:1009400012968C91129713969C910895F894809129
:10095000820290E02BE030E0829FF001839FF00D57
:10096000929FF00D1124EF57FD4F14860E94EC0169
:100970000895F894E82FF0E0E754FD4F8081882334
:1009800019F0815080838F5F78940895DF93CF931F
:10099000CDB7DEB766970FB6F894DEBF0FBECDBFFA
:1009A0000E941C010E9484010E94B50080E060E06A
:1009B0000E94D200DE011396E0E0F1E084E10190B4
:1009C0000D928150E1F780911401909115019A8365
:1009D0008983CE01039660E040E00E94E100CE01F1
:1009E000019660E041E00E94E10066960FB6F8943F
:1009F000DEBF0FBECDBFCF91DF91089587EC80930E
:100A00007A008CEF81B980E182B914B884E080BFAC
:100A100080EE80937C000E94C60408952FE024B9E4
:100A200080EF85B991E0392F3A95F1F733B184B968
:100A300025B99A95F1F723B1232B2F3F61F0E3E21B
:100A4000F1E090E080819F5F821711F4892F089573
:100A500031969031B9F780E008950E940E05982FE5
:100A600020916702213089F0213020F0223009F0F6
:100A700048C02CC0882309F444C081E080936702F9
:100A800010926D02809380020EC0882379F08091CD
:100A9000CC02981731F482E08093670220936D02B4
:100AA00012C0209380029093CC02089510926702A6
:100AB00080916D02823021F48091CC0280937E027D
:100AC00081E080936D02109280020895882341F4A2
:100AD00081E08093670220936D02809380020895E5
:100AE0008091CC02981769F081E0809367021092A0
:100AF0006D02809380028091CC0280937E0290935D
:100B0000CC02089590917E0280917E02882311F09C
:100B100010927E02892F08953F924F925F926F92BA
:100B20007F928F929F92AF92BF92CF92DF92EF927D
:100B3000FF920F931F93CF93DF936624772488242B
:100B4000992444245524C0E0D0E033243394809188
:100B500079008093CE0280917A00806480937A003D
:100B60006091CE0270E080E090E00E94DE0F20E015
:100B700030E040E85BE30E94F60C2AE037ED43E208
:100B800050E40E94F60C60936802709369028093AF
:100B90006A0290936B022AE037ED43E25CE30E9425
:100BA000F60C0E94200B5B016C0182E00E94D003D6
:100BB000B50180E090E00E94DE0F609343017093E6
:100BC0004401809345019093460182E00E94F00326
:100BD00081E00E94D00360913B0170913C018091C3
:100BE0003D0190913E010E94200B7B018C0181E030
:100BF0000E94F003EA18FB08B70180E090E00E9431
:100C0000DE0F5B016C01332009F063C09301A40186
:100C10000E94980C3B014C0120E030E040E050E0A5
:100C20000E949C0E181664F0C401B30120E030E06D
:100C300040E050E00E94FC0E582E550C550802C0B2
:100C400055245394541461F4BE01882777FD809590
:100C5000982F0E942C0FA60195010E94C90C08C074
:100C6000C601B5012DEC3CEC4CE45FE30E94F60CB0
:100C70000E948A0FEB01BE01882777FD8095982F8F
:100C80000E942C0F20E030E040E050E00E94F60C83
:100C90009B01AC01C601B5010E94C90C7B018C010E
:100CA000C401B3010E948A0F882777FD8095982F91
:100CB0000E942C0F20E030E040E050E00E94F60C53
:100CC0009B01AC01C801B7010E94C90C0E948A0FA8
:100CD00003C00E948A0F332477FF02C017BC0AC0EA
:100CE0006F3F710531F02CF08FEF87BDC0E0D0E091
:100CF00001C067BDC601B50120E030E040E050E032
:100D00000E949C0E181614F4139A01C01398809137
:100D10007A00806480937A002091C4023091C502E9
:100D20004091C6025091C702A90133272227609142
:100D3000840070918500E0908400F090850080E050
:100D400090E0620F731F841F951F6856744F8F4F7A
:100D50009F4F00E010E02E0D3F1D401F511F2F52EE
:100D6000334F4F4F5F4F0E945C04D601C5013501E0
:100D70004D01452CECCE2F923F924F925F926F9295
:100D80007F928F929F92AF92BF92CF92EF92FF92FB
:100D90000F931F93DF93CF93CDB7DEB768970FB64E
:100DA000F894DEBF0FBECDBFB0907E0280917E0270
:100DB000882311F010927E02AA24CC24C3946624C6
:100DC0007724430122243324210181E090E0A0E034
:100DD000B0E0898B9A8BAB8BBC8B809180020E9498
:100DE0002D05809154028823C1F397E0B91609F4C8
:100DF0008EC19B15A8F0A3E0BA1609F4A4C0AB15E8
:100E000038F0B1E0BB1629F182E0B81631F755C0D1
:100E100095E0B91609F409C19B1508F43FC1CCC08F
:100E2000ADE0BA1609F49CC2AB1540F0B8E0BB16B1
:100E300009F4A6C189E0B81681F6DBC19FE0B916B6
:100E400009F446C2B91608F439C2A0E1BA1629F667
:100E50000AC2CC2081F0C401B3012AE030E040E0B6
:100E600050E00E944C123B014C010894611C711C23
:100E7000811C911C19C0C201B1012AE030E040E0A0
:100E800050E00E944C121B012C010894211C311CC3
:100E9000411C511C69897A898B899C890E944C125A
:100EA000698B7A8B8B8B9C8BE1E0F0E0EC0FFD1F64
:100EB000EA0DF11DB1E3B083FFC1CC20B9F0D4013C
:100EC000C30112E0880F991FAA1FBB1F1A95D1F703
:100ED000680E791E8A1E9B1E0894611C711C811C61
:100EE000911C660C771C881C991C24C0D201C1017E
:100EF000F2E0880F991FAA1FBB1FFA95D1F7280EA1
:100F0000391E4A1E5B1E0894211C311C411C511CB9
:100F1000220C331C441C551C69897A898B899C8955
:100F20002AE030E040E050E00E944C12698B7A8B5E
:100F30008B8B9C8BE1E0F0E0EC0FFD1FEA0DF11DC7
:100F400082E38083B9C1CC2099F0C401B3012AE0C7
:100F500030E040E050E00E944C123B014C0183E045
:100F600090E0A0E0B0E0680E791E8A1E9B1E1CC0B7
:100F7000C201B1012AE030E040E050E00E944C1292
:100F80001B012C0183E090E0A0E0B0E0280E391EA8
:100F90004A1E5B1E69897A898B899C890E944C1242
:100FA000698B7A8B8B8B9C8BE1E0F0E0EC0FFD1F63
:100FB000EA0DF11D93E355C1CC2099F0C401B301B2
:100FC0002AE030E040E050E00E944C123B014C012E
:100FD00084E090E0A0E0B0E0680E791E8A1E9B1EBF
:100FE0001CC0C201B1012AE030E040E050E00E94A4
:100FF0004C121B012C0184E090E0A0E0B0E0280E30
:10100000391E4A1E5B1E69897A898B899C890E94D8
:101010004C12698B7A8B8B8B9C8BE1E0F0E0EC0FB0
:10102000FD1FEA0DF11D94E31CC1CC2099F0C40111
:10103000B3012AE030E040E050E00E944C123B0156
:101040004C0185E090E0A0E0B0E0680E791E8A1EB9
:101050009B1E1CC0C201B1012AE030E040E050E01C
:101060000E944C121B012C0185E090E0A0E0B0E052
:10107000280E391E4A1E5B1E69897A898B899C89D4
:101080000E944C12698B7A8B8B8B9C8BE1E0F0E099
:10109000EC0FFD1FEA0DF11D95E3E3C0CC2099F0A4
:1010A000C401B3012AE030E040E050E00E944C125D
:1010B0003B014C0186E090E0A0E0B0E0680E791EB4
:1010C0008A1E9B1E1CC0C201B1012AE030E040E034
:1010D00050E00E944C121B012C0186E090E0A0E041
:1010E000B0E0280E391E4A1E5B1E69897A898B89F9
:1010F0009C890E944C12698B7A8B8B8B9C8BE1E0D4
:10110000F0E0EC0FFD1FEA0DF11D96E3AAC0CC2024
:1011100099F0C401B3012AE030E040E050E00E94C1
:101120004C123B014C0187E090E0A0E0B0E0680E7B
:10113000791E8A1E9B1E1CC0C201B1012AE030E04C
:1011400040E050E00E944C121B012C0187E090E02F
:10115000A0E0B0E0280E391E4A1E5B1E69897A891C
:101160008B899C890E944C12698B7A8B8B8B9C8B10
:10117000E1E0F0E0EC0FFD1FEA0DF11D97E371C017
:10118000CC2099F0C401B3012AE030E040E050E007
:101190000E944C123B014C0188E090E0A0E0B0E0DE
:1011A000680E791E8A1E9B1E1CC0C201B1012AE076
:1011B00030E040E050E00E944C121B012C0188E01E
:1011C00090E0A0E0B0E0280E391E4A1E5B1E69893F
:1011D0007A898B899C890E944C12698B7A8B8B8BC4
:1011E0009C8BE1E0F0E0EC0FFD1FEA0DF11D98E3B0
:1011F00038C0CC2099F0C401B3012AE030E040E0CF
:1012000050E00E944C123B014C0189E090E0A0E0CC
:10121000B0E0680E791E8A1E9B1E1CC0C201B1017F
:101220002AE030E040E050E00E944C121B012C010B
:1012300089E090E0A0E0B0E0280E391E4A1E5B1E57
:1012400069897A898B899C890E944C12698B7A8B77
:101250008B8B9C8BE1E0F0E0EC0FFD1FEA0DF11DA4
:1012600099E3908329C0CC2059F0C401B3012AE04E
:1012700030E040E050E00E944C123B014C0114C0B1
:10128000C201B1012AE030E040E050E00E944C127F
:101290001B012C0169897A898B899C890E944C12D7
:1012A000698B7A8B8B8B9C8BE1E0F0E0EC0FFD1F60
:1012B000EA0DF11DA0E3A083A3948FCDE1E0F0E05F
:1012C000EC0FFD1FEA0DF11DBEE2B083A394CC2408
:1012D000AA94CC2069F0C401B3012AE030E040E0D8
:1012E00050E00E949212C901DA013C014D0138C060
:1012F000E1E0F0E0EC0FFD1FEA0DF11D80818E3280
:1013000099F4C401B3012AE030E040E050E00E94CB
:101310009212C901DA013C014D01CC24C39481E051
:1013200090E0A0E0B0E018C0C201B1012AE030E0D6
:1013300040E050E00E949212C901DA011C012D0127
:1013400069897A898B899C892AE030E040E050E005
:101350000E949212C901DA01898B9A8BAB8BBC8BEC
:1013600010925402C401B3010E94DE0F6D8B7E8B7C
:101370008F8B988FC201B1010E94DE0F7B018C011F
:1013800069897A898B899C890E94DE0F9B01AC0157
:10139000C801B7010E94F00D9B01AC016D897E89E7
:1013A0008F89988D0E94C90C7B018C0180916C0201
:1013B0008130A9F0813020F0823009F00ECD1EC0BE
:1013C00081E00E94D003C701D80180933B01909334
:1013D0003C01A0933D01B0933E0181E01DC085E03A
:1013E0000E94D003C701D801809337019093380140
:1013F000A0933901B0933A0185E00EC086E00E94C7
:10140000D003C701D8018093330190933401A09396
:101410003501B093360186E00E94F003DECCAF9236
:10142000BF92CF92DF92EF92FF920F931F93DF93C1
:10143000CF9300D000D0CDB7DEB78BEF8AB91BB801
:101440000E94FE0480E890E00E942C03F89481E062
:101450008093BD027894F8948093BC027894F894B9
:101460008093BA027894F8948093BB027894F894AD
:101470008093BF027894F8948093BE0278948CE8AD
:1014800095E060E071E02DE033E040E050E0ADE059
:10149000EA2EA3E0FA2E012D112D6E010894C11C35
:1014A000D11C0E946A03F3E0AF2EB12CAC0EBD1E1E
:1014B0008BEB96E060E071E02AE136E040E050E03E
:1014C000EAE1EE2EE6E0FE2E012D112D65010E94CF
:1014D0006A038CE79AE060E071E02AE136E040E0E0
:1014E00050E00E946A03789483B7817F83BF83B7FB
:1014F000816083BF8895FECF6F927F928F929F927B
:10150000AF92BF92CF92DF92EF92FF920F931F9311
:10151000DF93CF93CDB7DEB72A970FB6F894DEBF2F
:101520000FBECDBFDE011196E9E1F1E085E001904B
:101530000D928150E1F784E00E94D00384E00E9484
:10154000F00383E00E94D003A0904301B0904401D7
:10155000C0904501D090460183E00E94F00385E0F1
:101560000E94D00385E00E94F00386E00E94D00331
:1015700086E00E94F00380E060E00E94D200CE018D
:10158000019664E00E94BD0006E0802E912C8C0E36
:101590009D1E16E1612E11E0712E8DB79EB7089742
:1015A0000FB6F8949EBF0FBE8DBFEDB7FEB7319654
:1015B000ADB7BEB712969C928E92119773826282DB
:1015C000A482B582C682D7820E94EB128DB79EB7E5
:1015D00008960FB6F8949EBF0FBE8DBF80E060E006
:1015E0000E94D200C40165E00E94BD002091C402A7
:1015F0003091C5024091C6025091C702A90133271C
:1016000022276091840070918500E0908400F09022
:10161000850080E090E0620F731F841F951F6B5C54
:10162000734F8F4F9F4F00E010E02E0D3F1D401F66
:10163000511F2554324F4F4F5F4F0E945C04ADCF76
:10164000EF92FF920F931F937B018C0120E030E01B
:1016500040E05FE40E94CC0E88238CF0C801B70103
:1016600020E030E040E05FE40E94980C0E948A0F86
:101670009B01AC01205030404040504806C0C8019A
:10168000B7010E948A0F9B01AC01B901CA011F91E9
:101690000F91FF90EF900895A0E0B0E0E2E5FBE04D
:1016A0000C94B412DC012B01FA019C91923008F4E5
:1016B00039C1EB018881823008F433C1943069F478
:1016C000843009F02FC111969C9111978981981748
:1016D00009F428C1ABE4B1E025C1843009F421C18B
:1016E0008230A9F4923009F01DC19A01AD0188E061
:1016F000EA010990AE01E90109929E018150C1F70A
:10170000E201898111969C918923818308C19230DD
:1017100009F407C112962D903C901397EB018A8132
:101720009B811496AD90BD90CD90DC901797EC8086
:10173000FD800E811F819101281B390BB90137FFF4
:1017400004C066277727621B730B603271050CF0AB
:1017500061C0121613066CF537014801062E04C04D
:1017600096948794779467940A94D2F721E030E0B6
:1017700040E050E004C0220F331F441F551F6A95FC
:10178000D2F721503040404050402E213F2140238D
:101790005123211531054105510521F021E030E0AB
:1017A00040E050E079018A01E628F7280829192944
:1017B0003CC0232BD1F1260E371E35014601062EE3
:1017C00004C096948794779467940A94D2F721E0A2
:1017D00030E040E050E004C0220F331F441F551F8B
:1017E0006A95D2F721503040404050402A213B2199
:1017F0004C215D21211531054105510521F021E0E4
:1018000030E040E050E059016A01A628B728C82816
:10181000D9280BC0821593052CF01C01AA24BB24E7
:10182000650103C0EE24FF24870111969C91D2012B
:1018300011968C91981709F445C0992339F0A801A5
:1018400097012A193B094C095D0906C0A6019501BB
:101850002E193F09400B510B57FD08C011823382EE
:10186000228224833583468357831DC081E0818390
:101870003382228288279927DC01821B930BA40BD9
:10188000B50B84839583A683B7830DC0220F331FC6
:10189000441F551F24833583468357838281938158
:1018A0000197938382832481358146815781DA01B0
:1018B000C9010197A109B1098F5F9F4FAF4FBF4386
:1018C00028F30BC0918333822282EA0CFB1C0C1D8F
:1018D0001D1DE482F5820683178383E080832481C3
:1018E00035814681578157FF1AC0C901AA2797FD44
:1018F000A095BA2F81709070A070B07056954795E2
:1019000037952795822B932BA42BB52B8483958316
:10191000A683B78382819381019693838283DF01BB
:1019200001C0D201CD01CDB7DEB7E2E10C94D012F7
:10193000A0E2B0E0EEE9FCE00C94C01269837A8387
:101940008B839C832D833E834F835887E9E0EE2E63
:10195000F12CEC0EFD1ECE010196B7010E947B1109
:101960008E010F5E1F4FCE010596B8010E947B11BC
:101970008A8991E089278A8BC701B801AE01475E49
:101980005F4F0E944C0B0E94A610A096E6E00C94BC
:10199000DC12A0E2B0E0EFECFCE00C94C012698332
:1019A0007A838B839C832D833E834F835887F9E012
:1019B000EF2EF12CEC0EFD1ECE010196B7010E9418
:1019C0007B118E010F5E1F4FCE010596B8010E945C
:1019D0007B11C701B801AE01475E5F4F0E944C0BFF
:1019E0000E94A610A096E6E00C94DC12A0E2B0E003
:1019F000ECEFFCE00C94B41269837A838B839C83B4
:101A00002D833E834F835887CE010196BE01675FC9
:101A10007F4F0E947B11CE010596BE016F5E7F4F06
:101A20000E947B119985923088F089898230C8F0B4
:101A3000943019F4823051F404C0843029F4923087
:101A400081F48BE491E0C6C0923049F420E09A859D
:101A50008A89981321E02A87CE010996BBC082307B
:101A600049F420E09A858A89981321E02A8BCE01D7
:101A70004196B0C02D843E844F8458886D887E88FE
:101A80008F88988CEE24FF248701AA24BB2465014B
:101A900040E050E060E070E0E0E0F0E0C101817023
:101AA0009070892BE9F0E60CF71C081D191D9A01AE
:101AB000AB012A0D3B1D4C1D5D1D80E090E0A0E0B8
:101AC000B0E0E614F7040805190520F481E090E081
:101AD000A0E0B0E0BA01A901480F591F6A1F7B1F9F
:101AE000AA0CBB1CCC1CDD1C97FE08C081E090E05A
:101AF000A0E0B0E0A82AB92ACA2ADB2A3196E0324F
:101B0000F10549F0660C771C881C991C5694479483
:101B100037942794C3CFFA85EA892B893C898B8532
:101B20009C85280F391F2E5F3F4F17C0CA01817057
:101B30009070892B61F016950795F794E79480E0F3
:101B400090E0A0E0B0E8E82AF92A0A2B1B2B769552
:101B50006795579547952F5F3F4F77FDE7CF0CC0AF
:101B6000440F551F661F771F17FD4160EE0CFF1CC9
:101B7000001F111F21503040403090E0590790E085
:101B8000690790E4790760F32B8F3C8FDB01CA0172
:101B90008F779070A070B07080349105A105B10569
:101BA00061F447FD0AC0E114F1040105110529F0B3
:101BB000405C5F4F6F4F7F4F40781A8EFE1711F0D9
:101BC00081E08A8F4D8F5E8F6F8F78A383E0898F3E
:101BD000CE0149960E94A610A096E2E10C94D01284
:101BE000A8E1B0E0E6EFFDE00C94BC1269837A83D3
:101BF0008B839C832D833E834F835887B9E0EB2EE4
:101C0000F12CEC0EFD1ECE010196B7010E947B1156
:101C10008E010F5E1F4FCE010596B8010E947B1109
:101C20002985223008F47EC03989323010F4B80199
:101C30007CC08A859A8989278A87243011F02230CE
:101C400031F4231709F06EC06BE471E06EC03430DC
:101C500039F41D861E861F86188A1C861B8604C0C2
:101C6000323021F484E08987B7015FC02B853C8541
:101C70008B899C89281B390B3C872B87ED84FE843C
:101C80000F851889AD88BE88CF88D88CEA14FB04EC
:101C90000C051D0540F4EE0CFF1C001F111F215008
:101CA00030403C872B8720E030E040E050E080E08F
:101CB00090E0A0E0B0E460E070E0EA14FB040C0502
:101CC0001D0540F0282B392B4A2B5B2BEA18FB080B
:101CD0000C091D09B695A79597958795EE0CFF1CE5
:101CE000001F111F6F5F7F4F6F31710531F7DA01F0
:101CF000C9018F779070A070B07080349105A105F4
:101D0000B10561F427FD0AC0E114F10401051105D4
:101D100029F0205C3F4F4F4F5F4F20782D873E8743
:101D20004F87588BBE01675F7F4FCB010E94A61083
:101D30006896EAE00C94D812A8E1B0E0E2EAFEE08E
:101D40000C94C01269837A838B839C832D833E839A
:101D50004F83588789E0E82EF12CEC0EFD1ECE0152
:101D60000196B7010E947B118E010F5E1F4FCE01BD
:101D70000596B8010E947B118985823040F08989DF
:101D8000823028F0C701B8010E94F31101C08FEF23
:101D90006896E6E00C94DC12A8E1B0E0E2EDFEE02B
:101DA0000C94C01269837A838B839C832D833E833A
:101DB0004F83588789E0E82EF12CEC0EFD1ECE01F2
:101DC0000196B7010E947B118E010F5E1F4FCE015D
:101DD0000596B8010E947B118985823040F089897F
:101DE000823028F0C701B8010E94F31101C08FEFC3
:101DF0006896E6E00C94DC12A8E1B0E0E2E0FFE0D7
:101E00000C94C01269837A838B839C832D833E83D9
:101E10004F83588789E0E82EF12CEC0EFD1ECE0191
:101E20000196B7010E947B118E010F5E1F4FCE01FC
:101E30000596B8010E947B118985823040F089891E
:101E4000823028F0C701B8010E94F31101C081E07F
:101E50006896E6E00C94DC12A8E0B0E0E2E3FFE074
:101E60000C94BD129B01AC0183E08983DA01C901A6
:101E70008827B7FD83959927AA27BB27B82E211558
:101E800031054105510519F482E089833AC0882360
:101E9000A9F0203080E0380780E0480780E8580744
:101EA00029F460E070E080E09FEC30C0EE24FF2475
:101EB0008701E21AF30A040B150B02C079018A01AB
:101EC0008EE1C82ED12CDC82CB82ED82FE820F8384
:101ED0001887C801B7010E945710019718161906F4
:101EE00084F4082E04C0EE0CFF1C001F111F0A947E
:101EF000D2F7ED82FE820F831887C81AD90ADC82D6
:101F0000CB82BA82CE0101960E94A6102896E9E003
:101F10000C94D912ACE0B0E0E0E9FFE00C94C412FC
:101F200069837A838B839C83CE010196BE016B5FAC
:101F30007F4F0E947B118D81823061F1823050F1A0
:101F4000843021F48E81882351F12EC02F81388571
:101F500037FD20C06E812F3131051CF06623F9F06A
:101F600023C08EE190E0821B930B29853A854B8537
:101F70005C8504C056954795379527958A95D2F785
:101F80006623B1F050954095309521953F4F4F4FC6
:101F90005F4F0EC020E030E040E050E009C02FEF7E
:101FA0003FEF4FEF5FE704C020E030E040E050E853
:101FB000B901CA012C96E2E00C94E012A8E0B0E06E
:101FC000E4EEFFE00C94BC127B018C0161157105FD
:101FD0008105910519F482E0898360C083E08983DB
:101FE0008EE1C82ED12CDC82CB82ED82FE820F8363
:101FF0001887C801B7010E945710FC013197F7FFFD
:102000003BC0222733272E1B3F0B57016801022EAE
:1020100004C0D694C794B794A7940A94D2F740E02A
:1020200050E060E070E081E090E0A0E0B0E004C04B
:10203000880F991FAA1FBB1F2A95D2F70197A109E4
:10204000B1098E219F21A023B1230097A105B105DD
:1020500021F041E050E060E070E04A295B296C2902
:102060007D294D835E836F8378878EE190E08E1BA0
:102070009F0B9C838B8312C0309781F00E2E04C07F
:10208000EE0CFF1C001F111F0A94D2F7ED82FE8296
:102090000F831887CE1ADF0ADC82CB821A82CE0128
:1020A00001960E94A6102896EAE00C94D812EF92AE
:1020B000FF920F931F937B018C0180E0E81680E074
:1020C000F80681E0080780E0180788F48FEFE8162B
:1020D000F1040105110531F028F088E090E0A0E05E
:1020E000B0E017C080E090E0A0E0B0E012C080E077
:1020F000E81680E0F80680E0080781E0180728F07D
:1021000088E190E0A0E0B0E004C080E190E0A0E0D1
:10211000B0E020E230E040E050E0281B390B4A0BF1
:102120005B0B04C016950795F794E7948A95D2F750
:10213000F701ED5AFE4F8081281B310941095109F1
:10214000C9011F910F91FF90EF900895DF92EF92D8
:10215000FF920F931F93FC01E480F58006811781A5
:10216000D1808081823048F480E090E0A0E1B0E04E
:10217000E82AF92A0A2B1B2BA5C0843009F49FC03A
:10218000823021F4EE24FF24870105C0E114F1041C
:102190000105110519F4E0E0F0E096C06281738159
:1021A0009FEF623879070CF05BC022E83FEF261BF7
:1021B000370B2A3131052CF020E030E040E050E0D0
:1021C0002AC0B801A701022E04C0769567955795DD
:1021D00047950A94D2F781E090E0A0E0B0E004C017
:1021E000880F991FAA1FBB1F2A95D2F70197A10933
:1021F000B1098E219F21A023B1230097A105B1052C
:1022000021F081E090E0A0E0B0E09A01AB01282B42
:10221000392B4A2B5B2BDA01C9018F779070A070A4
:10222000B07080349105A105B10539F427FF09C0CC
:10223000205C3F4F4F4F5F4F04C0215C3F4F4F4FDB
:102240005F4FE0E0F0E02030A0E03A07A0E04A076E
:10225000A0E45A0710F0E1E0F0E079018A0127C01C
:102260006038710564F5FB01E158FF4FD801C701E3
:102270008F779070A070B07080349105A105B10582
:1022800039F4E7FE0DC080E490E0A0E0B0E004C0C7
:102290008FE390E0A0E0B0E0E80EF91E0A1F1B1FDC
:1022A00017FF05C016950795F794E794319687E0D8
:1022B00016950795F794E7948A95D1F705C0EE2413
:1022C000FF248701EFEFF0E06E2F67956627679593
:1022D000902F9F77D794DD24D7948E2F8695492F02
:1022E000462B582F5D29B701CA011F910F91FF900E
:1022F000EF90DF900895FC01DB0140815181228144
:10230000622F6F7770E0221F2227221F9381892F6F
:10231000880F822B282F30E0991F9927991F11963B
:102320009C93119721153105A9F5411551056105BA
:10233000710511F482E037C082E89FEF13969C93F9
:102340008E9312979A01AB0167E0220F331F441F4F
:10235000551F6A95D1F783E08C930DC0220F331F70
:10236000441F551F12968D919C91139701971396B8
:102370009C938E931297203080E0380780E04807C6
:1023800080E4580758F314962D933D934D935C9336
:10239000179708952F3F310579F4411551056105CF
:1023A000710519F484E08C93089564FF03C081E003
:1023B0008C9312C01C9210C02F57304013963C9340
:1023C0002E93129783E08C9387E0440F551F661F6E
:1023D000771F8A95D1F7706414964D935D936D9332
:1023E0007C93179708951F93DC01FB019C91923019
:1023F00008F447C08081823008F443C0943051F41F
:1024000011961C91843099F58181682F70E0611BD1
:1024100071093FC0843021F0923031F48230B9F13B
:102420008181882389F12DC011961C9111978230EA
:10243000F1F081811817D9F412962D913C911397E0
:10244000828193818217930794F028173907BCF093
:1024500014968D919D910D90BC91A02D2481358174
:1024600046815781281739074A075B0718F411235B
:1024700041F00AC082179307A407B50740F411235F
:1024800019F061E070E005C06FEF7FEF02C060E01F
:1024900070E0CB011F910895629FD001739FF001FE
:1024A000829FE00DF11D649FE00DF11D929FF00DE4
:1024B000839FF00D749FF00D659FF00D9927729F1B
:1024C000B00DE11DF91F639FB00DE11DF91FBD01A6
:1024D000CF0111240895AA1BBB1B51E107C0AA1FFD
:1024E000BB1FA617B70710F0A61BB70B881F991FB5
:1024F0005A95A9F780959095BC01CD01089597FB59
:10250000092E07260AD077FD04D0E5DF06D000208B
:102510001AF4709561957F4F0895F6F7909581951F
:102520009F4F0895A1E21A2EAA1BBB1BFD010DC0EF
:10253000AA1FBB1FEE1FFF1FA217B307E407F50773
:1025400020F0A21BB30BE40BF50B661F771F881F4F
:10255000991F1A9469F760957095809590959B01E5
:10256000AC01BD01CF0108952F923F924F925F922F
:102570006F927F928F929F92AF92BF92CF92DF9293
:10258000EF92FF920F931F93CF93DF93CDB7DEB7F8
:10259000CA1BDB0B0FB6F894DEBF0FBECDBF09948C
:1025A0002A88398848885F846E847D848C849B84E3
:1025B000AA84B984C884DF80EE80FD800C811B81F1
:1025C000AA81B981CE0FD11D0FB6F894DEBF0FBE20
:1025D000CDBFED010895AEE0B0E0E1EFF2E10C9483
:1025E000C2120D891E8986E08C831A8309838FEFBE
:1025F0009FE79E838D839E01275E3F4FCE0101960C
:102600006F89788DA9010E940F132F813885020FE1
:10261000131FF80110822E96E4E00C94DE12ABE05A
:10262000B0E0E5E1F3E10C94B4123C012B015A0156
:10263000FC0117821682838181FD03C06FEF7FEF5B
:10264000C6C19AE0892E1E010894211C311CF30199
:102650002381F20123FD859123FF81912F0188239E
:1026600009F4B2C1853239F423FD859123FF8191AC
:102670002F01853229F490E0B3010E940215E7CFC3
:10268000982FFF24EE249924FFE1FF15D0F09B3210
:1026900069F09C3228F4903259F0933291F40EC0D4
:1026A0009D3249F0903369F441E024C052E0F52AAC
:1026B00084E0F82A28C098E0F92A25C0E0E1FE2A43
:1026C00022C0F7FC29C0892F80538A3070F4F6FEAF
:1026D00005C0989C902C1124980E15C0E89CE02C05
:1026E0001124E80EF0E2FF2A0EC09E3229F4F6FC17
:1026F0006BC140E4F42A07C09C3619F450E8F52A6F
:1027000002C0983649F4F20123FD959123FF91917F
:102710002F01992309F0B8CF892F8554833018F001
:102720008052833038F444E050E0A40EB51E5FE3DD
:1027300059830FC0933631F0933779F0933509F010
:1027400056C020C0F5018081898342E050E0A40E8C
:10275000B51E610101E010E012C0F501C080D1801A
:10276000F6FC03C06FEF7FEF02C0692D70E042E01E
:1027700050E0A40EB51EC6010E94F7148C015FE75D
:10278000F52214C0F501C080D180F6FC03C06FEFC4
:102790007FEF02C0692D70E042E050E0A40EB51E4C
:1027A000C6010E94EC148C0150E8F52AF3FE07C024
:1027B0001AC080E290E0B3010E940215EA948E2DC7
:1027C00090E008171907A8F30EC0F601F7FC8591F1
:1027D000F7FE81916F0190E0B3010E940215E110B4
:1027E000EA94015010400115110579F7EAC09436BA
:1027F00011F0993669F5F7FE08C0F50120813181A5
:102800004281538184E090E00AC0F501808191818A
:102810009C01442737FD4095542F82E090E0A80E9C
:10282000B91E9FE6F92257FF09C050954095309593
:1028300021953F4F4F4F5F4FE0E8FE2ACA01B90193
:10284000A1012AE030E00E942E15D82ED21840C0F7
:10285000953729F41F2D1F7E2AE030E01DC01F2D63
:10286000197F9F3661F0903720F4983509F0ACC09D
:102870000FC0903739F0983709F0A6C004C028E09F
:1028800030E00AC0106114FD146020E130E004C0A3
:1028900014FD166020E132E017FF08C0F5016081E9
:1028A00071818281938144E050E008C0F50180810C
:1028B0009181BC0180E090E042E050E0A40EB51EA2
:1028C000A1010E942E15D82ED2188FE7F82EF122E2
:1028D000F6FE0BC05EEFF522D91438F4F4FE07C003
:1028E000F2FC05C08FEEF82202C01D2D01C0192D8B
:1028F000F4FE0DC0FE01ED0DF11D8081803319F451
:1029000099EEF92208C01F5FF2FE05C003C08F2DAB
:10291000867809F01F5F0F2DF3FC14C0F0FE0FC086
:102920001E1510F09D2C0BC09D2C9E0C911A1E2D77
:1029300006C080E290E0B3010E9402151F5F1E15E1
:10294000C0F304C01E1510F4E11A01C0EE2404FF08
:102950000FC080E390E0B3010E94021502FF1DC08A
:1029600001FD03C088E790E00EC088E590E00BC051
:10297000802F867891F001FF02C08BE201C080E2D7
:10298000F7FC8DE290E0B3010E94021506C080E3DF
:1029900090E0B3010E9402159A94D914C0F3DA941E
:1029A000F101ED0DF11D808190E0B3010E9402154F
:1029B000DD20A9F706C080E290E0B3010E94021575
:1029C000EA94EE20C1F743CEF30166817781CB0113
:1029D0002B96E2E10C94D012FC01059061507040FE
:1029E0000110D8F7809590958E0F9F1F0895FC01D8
:1029F0006150704001900110D8F7809590958E0F2E
:102A00009F1F08950F931F93CF93DF938C01EB01CA
:102A10008B8181FF1BC082FF0DC02E813F818C8185
:102A20009D812817390764F4E881F9810193F983BE
:102A3000E88306C0E885F985802F0995892B31F454
:102A40008E819F8101969F838E8302C00FEF1FEFBF
:102A5000C801DF91CF911F910F910895FA01AA2724
:102A6000283051F1203181F1E8946F936E7F6E5FD1
:102A70007F4F8F4F9F4FAF4FB1E03ED0B4E03CD07F
:102A8000670F781F891F9A1FA11D680F791F8A1F62
:102A9000911DA11D6A0F711D811D911DA11D20D0C9
:102AA00009F468943F912AE0269F11243019305D83
:102AB0003193DEF6CF010895462F4770405D419374
:102AC000B3E00FD0C9F7F6CF462F4F70405D4A33C1
:102AD00018F0495D31FD4052419302D0A9F7EACF89
:102AE000B4E0A6959795879577956795BA95C9F7B8
:102AF00000976105710508959B01AC010A2E0694AB
:102B00005795479537952795BA95C9F7620F731F63
:0C2B1000841F951FA01D0895F894FFCFAE
:102B1C00576174657220436F6F6C65722076393023
:102B2C0030300000000025660054454D5000000A6E
:102B3C00D72340EEEDEBDEDDDBBEBDBBE7D7B777D1
:102B4C007E7B7D0000803F0000803F0000C842007B
:102B5C0000C8420000C8420000C84200000000004B
:102B6C000000000001020203030303040404040434
:102B7C0004040405050505050505050505050505FC
:102B8C0005050506060606060606060606060606DC
:102B9C0006060606060606060606060606060606C9
:102BAC0006060607070707070707070707070707AC
:102BBC000707070707070707070707070707070799
:102BCC000707070707070707070707070707070789
:102BDC000707070707070707070707070707070779
:102BEC00070707080808080808080808080808085C
:102BFC000808080808080808080808080808080849
:102C0C000808080808080808080808080808080838
:102C1C000808080808080808080808080808080828
:102C2C000808080808080808080808080808080818
:102C3C000808080808080808080808080808080808
:102C4C0008080808080808080808080808080808F8
:102C5C0008080808080808080808080808080808E8
:042C6C00080808004C
:00000001FF
