:100000000C9400010C941D010C9470050C941D01BE
:100010000C941D010C941D010C941D010C941D01E8
:100020000C941D010C941D010C941D010C94CB0526
:100030000C941D010C941F010C941D010C941D01C6
:100040000C941D010C941D010C941D010C941D01B8
:100050000C947C040C940C040C941D010C941D0154
:100060000C941D010C941D010C941D010C941D0198
:100070006E616E00696E66006364696E6F707375A1
:1000800078585B65666745464700616E006E666935
:100090006E69747900CDCCCC3D0AD7233C17B7D11B
:1000A0003877CC2B329595E6241FB14F0A000020FB
:1000B000410000C84200401C4620BCBE4CCA1B0E7A
:1000C0005AAEC59D74001F000000001F00001F10E5
:1000D0001010101F00001F181818181F00001F1CF8
:1000E0001C1C1C1F00001F1E1E1E1E1F00001F1FA9
:1000F0001F1F1F1F0003070F1F0F070300181C1EE1
:100100001F1E1C180000407A10F35A00A0724E18EF
:10011000090010A5D4E80000E87648170000E40BB9
:1001200054020000CA9A3B000000E1F5050000807F
:10013000969800000040420F000000A086010000D9
:1001400000102700000000E8030000000064000029
:100150000000000A00000000000100000000002C68
:1001600076D888DC674F0823DFC1DFAE59E1B1B72D
:1001700096E5E3E453C63AE651997696E8E6C284FA
:1001800026EB898C9B62ED407C6FFCEFBC9C9F4012
:10019000F2BAA56FA5F490055A2AF75C936B6CF937
:1001A000676DC11BFCE0E40D47FEF520E6B500D00D
:1001B000ED902E0300943577050080841E08000022
:1001C000204E0A000000C80C333333330F986E12F0
:1001D000831141EF8D2114893BE65516CFFEE6DBF6
:1001E00018D1844B381BF77C1D901DA4BBE4242040
:1001F0003284725E228100C9F124ECA1E53D270022
:1002000011241FBECFEFD0E1DEBFCDBF11E0A0E0D3
:10021000B1E0E8EBF3E302C005900D92AE32B10716
:10022000D9F712E0AEE2B1E001C01D92AE3AB107DB
:10023000E1F70E944E080C94DA190C9400001F920A
:100240000F920FB60F9211242F923F924F925F920E
:100250006F927F928F929F92AF92BF92CF92DF92D6
:10026000EF92FF920F931F932F933F934F935F93C0
:100270006F937F938F939F93AF93BF93CF93DF93AE
:10028000EF93FF9310926F0050905C02B09B14C0EC
:1002900080919E0290919F02A091A002B091A10234
:1002A0000196A11DB11D80939E0290939F02A09381
:1002B000A002B093A102B09A809184009091850031
:1002C0003C018824992480919E0290919F02A091E4
:1002D000A002B091A102DC0199278827680E791E3F
:1002E0008A1E9B1E40905B0270E061E0FFEFAF2E24
:1002F000FFEFBF2EFFEFCF2EFFE7DF2EEBE02E2E1E
:1003000033243394CBE0D0E043C0629DD00111246C
:10031000A35ABD4F1A968C911A978230A1F4129667
:10032000ED90FD900D911C9115976E147F04800641
:10033000910620F01A963C921A9705C0EA14FB0425
:100340000C051D0510F0860175011A968C911A97FF
:100350008130D9F4872F90E08C9FF0018D9FF00DB4
:100360009C9FF00D1124E55AFD4F16962D913D915D
:100370004D915C91199780859185A285B385281749
:1003800039074A075B0708F4762F6F5F570168014A
:10039000461608F0BACF7515B1F0EBE05E9ED001BD
:1003A0001124A35ABD4F8DB78C938EB711968C93A1
:1003B0007E9FF0011124E35AFD4F81818EBF808121
:1003C0008DBF70935C02A092A202B092A302C09271
:1003D000A402D092A502209184003091850040E0D3
:1003E00050E080919E0290919F02A091A002B09156
:1003F000A102DC0199278827280F391F4A1F5B1F9C
:10040000D601C501821B930BA40BB50B9C01AD015A
:1004100084309105A105B10524F424E030E040E0EA
:1004200050E08091840090918500A0E0B0E0820FC0
:10043000931FA41FB51F80509040A140B04038F4D6
:100440008091840090918500820F931F0EC080914F
:100450008400909185008C5F9F4F28F41092890052
:100460001092880006C084E090E090938900809309
:10047000880082E080936F00FF91EF91DF91CF9130
:10048000BF91AF919F918F917F916F915F914F91AC
:100490003F912F911F910F91FF90EF90DF90CF90A0
:1004A000BF90AF909F908F907F906F905F904F9094
:1004B0003F902F900F900FBE0F901F9018951092A5
:1004C0008500109284001092800025E02093810026
:1004D00022E020936F002FEF30E1281B390B30937F
:1004E0009D0220939C0210925B0210925C0210927B
:1004F0009E0210929F021092A0021092A1028FEF12
:100500009FEFAFEFBFE78093A2029093A302A09367
:10051000A402B093A5028093630290936402A09317
:100520006502B093660210925F0210926002109210
:10053000610210926202789408958F929F92AF9216
:10054000BF92CF92DF92EF92FF920F931F93CF93C0
:10055000DF9349015A01F89420915B022F5F2093A9
:100560005B02C0919C02D0919D029E01261B370B1D
:1005700030939D0220939C028883FE0192933197D1
:10058000DF01CE014B971C921197A817B907D9F735
:100590007997C082D2923197DF019E012352304079
:1005A0001C921197A217B307D9F79F01265030402C
:1005B000E0915B028BE0E89FF0011124E35AFD4FCC
:1005C00082829382A482B582E682F78200871187B5
:1005D00082E08287208331830E941F01DF91CF91C7
:1005E0001F910F91FF90EF90DF90CF90BF90AF9051
:1005F0009F908F900895F894EBE5F2E0E80FF11DDD
:1006000060AF78940895482F20915C02F894E82F09
:10061000F0E0ED56FD4F8081882319F081508083F2
:1006200010C030E08BE090E0289FF001299FF00D92
:10063000389FF00D1124E35AFD4F4E5F42870E9410
:100640001F0178940895FF920F931F93182FF89429
:1006500000915B02E1E04FEF5FEF6FEF7FEFF0E0C3
:100660008BE0F82E212F30E02E5F3F4F1EC0EF9D14
:10067000D0011124A35ABD4F1A968C911A9790E07D
:100680008217930769F416968D919D910D90BC91F8
:10069000A02D481759076A077B0710F0FE2F02C0EC
:1006A000DB01CA01EF5FAC01BD010E1700F7FF23AC
:1006B00041F4E12FF0E0E65AFD4F81AD8F5F81AF4D
:1006C00011C02F2F30E08BE090E0289FF001299F90
:1006D000F00D389FF00D1124E55AFD4F81E084871D
:1006E0000E941F0178941F910F91FF90089520910F
:1006F00084003091850040E050E080919E0290910E
:100700009F02A091A002B091A102DC019927882745
:10071000280F391F4A1F5B1FB901CA010895E091D4
:100720005C02ABE0EA9FF0011124E35AFD4FF8941C
:10073000A2E0A287628373838483958326833783B1
:10074000408751870E941F01089580915C0290E0CC
:100750002BE030E0829FF001839FF00D929FF00D1F
:100760001124E55AFD4FDF011496648111967C91A6
:10077000119712968C91129713969C9108958091DF
:100780005C0290E02BE030E0829FF001839FF00D4F
:10079000929FF00D1124E55AFD4FDF0118966085F8
:1007A00011967C91119712968C91129713969C91A9
:1007B0000895F89480915C0290E02BE030E0829FF5
:1007C000F001839FF00D929FF00D1124E55AFD4F2B
:1007D00014860E941F010895F894E82FF0E0ED566A
:1007E000FD4F8081882319F0815080838F5F78943A
:1007F000089587E68093C400E1ECF0E088E180830F
:10080000109288011092870110928A01109289013A
:1008100080818068808308951F920F920FB60F9297
:1008200011242F933F938F939F93EF93FF932091E6
:100830008701309188018091890190918A01281760
:10084000390731F48091C1008F7D8093C1001DC0B4
:10085000E0918901F0918A01E557FE4F80818093F4
:10086000C6008091890190918A01019690938A0136
:10087000809389018091890190918A01883C91053A
:1008800021F410928A0110928901FF91EF919F91BA
:100890008F913F912F910F900FBE0F901F90189541
:1008A0001F93182F8A3019F48DE00E945004809114
:1008B0008701909188018F5F883C09F480E0E09186
:1008C0008701F0918801E557FE4F1083282F30E013
:1008D0008091890190918A0128173907C9F33093D3
:1008E0008801209387018091C10080628093C100BC
:1008F00080E090E01F9108951F920F920FB60F9223
:1009000011242F933F934F935F936F937F938F9314
:100910009F93AF93BF93EF93FF938091C600809313
:10092000A70281E00E942303FF91EF91BF91AF9155
:100930009F918F917F916F915F914F913F912F91F7
:100940000F900FBE0F901F901895EF92FF920F938C
:100950001F93CF93DF937C018091350190913601F5
:10096000892B09F0A1C007E311E081E00E94030395
:100970008091C00084FF03C02EEF3FEFA9C080919B
:10098000C00083FDA3C09091A7029D3011F09A3062
:1009900081F48AE0F8018083B7010E94500487E364
:1009A00091E0909336018093350182E00E94230309
:1009B0007BC0993009F490E2892F80528F3510F076
:1009C000903A70F0F1E006381F0711F487E004C098
:1009D000F80191938F01892FB7010E945004C5CF70
:1009E000923139F1933138F4933009F46FC0983073
:1009F00009F0BBCF09C0973109F44BC09F3721F0F4
:100A0000953109F0B2CF32C0F1E007331F0709F08A
:100A100008F4ABCF88E0B7010E94500480E2B70130
:100A20000E94500488E0B7010E9450040150104019
:100A30009CCF8DE0B7010E945004C7E3D1E004C011
:100A40008991B7010E945004C017D107C8F38DCF18
:100A500088E0B7010E94500480E2B7010E94500470
:100A600088E0B7010E9450040150104081E0073334
:100A7000180709F068F779CF88E0B7010E945004A1
:100A800080E2B7010E94500488E0B7010E94500440
:100A90008E01E1E007331E0709F008F466CFE80194
:100AA0008A91803249F761CFE0913501F0913601AA
:100AB0008191F0933601E09335018A3021F4109250
:100AC000360110923501282F30E002C02FEF3FEFA2
:100AD000C901DF91CF911F910F91FF90EF90089581
:100AE0001F920F920FB60F9211242F933F934F93A3
:100AF0005F936F937F938F939F93AF93BF93EF9386
:100B0000FF93109B03C01092B20034C02091B2003A
:100B10008091320190913301820F911D90933101A8
:100B200080933001109233011092320160913001B4
:100B300070913101882777FD8095982F0E94721659
:100B40002AE939E94BE253E40E94AD162DEB37E375
:100B500046E858E30E94AD1660935702709358021E
:100B60008093590290935A0281E08093A60285E017
:100B70000E942303FF91EF91BF91AF919F918F91BD
:100B80007F916F915F914F913F912F910F900FBE89
:100B90000F901F9018951F920F920FB60F9211246D
:100BA0008F939F93809132019091330181509F4F99
:100BB00090933301809332019F918F910F900FBEDC
:100BC0000F901F9018952F923F924F925F926F92C5
:100BD0007F928F929F92AF92BF92CF92DF92EF92CD
:100BE000FF920F931F933324772488249924CC24D5
:100BF000DD24442455245394662422242394109AFB
:100C000085E38A95F1F710981092A60203C085E05B
:100C10000E9403038091A6028823C9F39394DD20E8
:100C200021F560915702709158028091590290917C
:100C30005A020E94480AC62E6091570270915802CB
:100C40008091590290915A020E94480A862E609122
:100C50005702709158028091590290915A020E9455
:100C6000480A462EDD24D3941DC16091570270912D
:100C700058028091590290915A0220E030E040EFF2
:100C800051E40E947E0C88230CF0E3C0609157026F
:100C9000709158028091590290915A0220E030E000
:100CA00040E450E40E941E0C18160CF0D2C0E090F4
:100CB0005702F09058020091590210915A026C2D7F
:100CC00070E0882777FD8095982F0E9472165B014F
:100CD0006C01C801B701A60195010E94C00B20E07C
:100CE00030E040EA50E40E941E0C1816A4F0209157
:100CF0005702309158024091590250915A02C60150
:100D0000B5010E94C00B20E030E040EA50E40E94B0
:100D10001E0C1816F4F460915702709158028091DD
:100D2000590290915A020E94480A462E6091570239
:100D3000709158028091590290915A020E94480A7B
:100D4000762E99249394DD24D394552466246394B9
:100D50009EC0662031F5992061F460915702709130
:100D600058028091590290915A020E94480A462ED8
:100D70008824E0905702F090580200915902109197
:100D80005A02682D70E0882777FD8095982F0E9481
:100D90007216A80197010E94F10B0E94480A862E44
:100DA00017C0E0905702F09058020091590210913C
:100DB0005A02672D70E0882777FD8095982F0E9452
:100DC0007216A80197010E94F10B0E94480A762E24
:100DD000939480E4981601F5662009F58294880CB6
:100DE000880CA0EC8A22482D50E0242D30E0CA0166
:100DF000821B930B06970CF045C0241B350B263045
:100E000031050CF03FC0552031F0382C9924DD24F9
:100E1000D39455243CC09924DD24D39438C07294D3
:100E2000770C770CF0EC7F2288E00E940303872D7B
:100E300090E083199109880F991F80932E0188E013
:100E40000E94230387E00E9423039924DD24D39486
:100E500014C060915702709158028091590290918C
:100E60005A0220E030E040E450E40E94AE0C181634
:100E700034F49924DD2455245394662408C0209228
:100E80003401CACF9924DD24D3945524539460911E
:100E90005702709158028091590290915A020E9413
:100EA000480AC62E20919E0230919F024091A002D6
:100EB0005091A102A90133272227609184007091EB
:100EC0008500E0908400F090850080E090E0620F63
:100ED000731F841F951F6C507F4F8F4F9F4F00E0F3
:100EE00010E02E0D3F1D401F511F285C3E4F4F4FFD
:100EF0005F4F0E948F0383CE5F926F927F928F929B
:100F00009F92AF92BF92CF92DF92EF92FF920F9398
:100F10001F93CF93DF938FEF84B915B8CC24DD24D2
:100F20006624772488249924AA24BB2401E055242C
:100F30005A9403C087E00E94030380912F01882305
:100F4000C9F3002311F43601892C84E00E940303C5
:100F50001092250184E00E94230383E00E94030392
:100F60001091230183E00E942303C12EDD2400237E
:100F700091F4E601C619D7091C161D061CF4992424
:100F800093944FC0209709F44BC099249A9449C078
:100F9000AC0CBD1C4BC0B601882777FD8095982FFF
:100FA0000E94721623E333E343EE50E40E94AD1631
:100FB0000E94DE0C77FF02C017BC07C06F3F7105AF
:100FC00019F014F057BC01C067BD20919E0230910A
:100FD0009F024091A0025091A102A901332722272C
:100FE0006091840070918500E0908400F09085000D
:100FF00080E090E0620F731F841F951F685C7E4F36
:101000008F4F9F4F00E010E02E0D3F1D401F511FDE
:101010002A573E4F4F4F5F4F0E948F0300E08DCF06
:101020009924981409F4B4CFAA24BB24B6018827C4
:1010300077FD8095982F0E94721623E333E343EEE9
:1010400050E40E94AD167B018C01B501882777FD25
:101050008095982F0E9472162EEA37E441EE5DE3E8
:101060000E94AD169B01AC01C801B7010E94F10BB3
:101070007B018C01BE01882777FD8095982F0E9407
:1010800072162BE734E14EE25FE30E94AD169B013E
:10109000AC01C801B7010E94F10B8ACFCF92DF9259
:1010A000EF92FF920F931F938BEF8AB91BB80E94A8
:1010B000F90364E171E07093AD026093AC02709348
:1010C000A9026093A8027093AB026093AA0280E029
:1010D00091E00E94361982E08DBB84E08093690024
:1010E00087E08093B10081E08093700083E884BD45
:1010F00085E085BD8FE787BD80E890E00E945F02B4
:10110000F894109294027894F8941092950278943E
:10111000F89481E0809396027894F89480939702F3
:101120007894F894809399027894F89480939B0231
:101130007894F89410929A027894F8948093980294
:1011400078948CE797E060E071E02DE033E040E0D8
:1011500050E0FDE0EF2EF3E0FF2E012D112DE3E531
:10116000CE2EE2E0DE2E0E949D0283EE95E060E04E
:1011700071E02DE033E040E050E00E949D02789461
:1011800083B7817F83BF83B7816083BF8895FECF9C
:101190000E9478090E94E0090E94110980E060E045
:1011A0000E942E090895282F207F28B9409A429A3C
:1011B00020EA3FE0F9013197F1F742984098F901B0
:1011C0003197F1F790E044E0880F991F4A95E1F7D5
:1011D00088B9409A429AC9010197F1F7429840981C
:1011E000C9010197F1F70895282F207F28B9429A65
:1011F00020EA3FE0F9013197F1F74298F901319780
:10120000F1F790E054E0880F991F5A95E1F788B9FB
:10121000429AC9010197F1F74298C9010197F1F784
:10122000089581E00E94F408089582E00E94F40885
:1012300008950F931F93CF93DF93062F009749F0E4
:10124000EC0110E004C089910E94D3081F5F1017C1
:10125000D0F3DF91CF911F910F910895623031F05B
:10126000633031F0613029F4805C03C08C5E01C0D2
:101270008C5A80680E94F40808951F93CF93DF93DF
:10128000EC01862F642F0E942E0910E003C00E94FB
:10129000D3081F5FFE01E10FF11D84918823B9F788
:1012A000DF91CF911F910895EF92FF920F931F93BB
:1012B000CF93DF937C01162F110F110F110F1064C4
:1012C000C0E0D0E0F701EC0FFD1F0491812F8C0FDF
:1012D0000E94F408802F0E94D3082196C830D105BF
:1012E00089F7DF91CF911F910F91FF90EF900895B3
:1012F0001F93CF93DF9380E69AEE0197F1F718B82A
:1013000018B887B1806F87B987B1876087B980E3E4
:1013100088B9429A20EA3FE0F9013197F1F7429803
:10132000F9013197F1F788B9429AC9010197F1F7AC
:101330004298C9010197F1F780E288B9429AC90140
:101340000197F1F74298C9010197F1F788E20E94ED
:10135000F4088CE00E94F408C5ECD0E060E0162FA1
:101360001F5FCE010E9454092896612F1830B9F7EB
:10137000DF91CF911F9108950F931F93082F10E0D5
:1013800004C08EE10E94F4081F5F1017D0F31F9174
:101390000F9108950F931F93082F10E004C088E168
:1013A0000E94F4081F5F1017D0F31F910F9108954A
:1013B0008EE00E94F40808958FE00E94F4080895DA
:1013C0008CE00E94F408089588E00E94F4080895D3
:1013D0008CE00E94F40808950F931F93082F10E0EB
:1013E00004C080E10E94F4081F5F1017D0F31F9122
:1013F0000F9108950F931F93082F10E004C084E10C
:101400000E94F4081F5F1017D0F31F910F910895E9
:10141000DF92EF92FF920F931F93CF93DF93D42E1F
:1014200096E0899FC0011124242F30E0AC01429F37
:10143000C001439F900D529F900D112470E00E94B7
:101440007517EB01CB0166E070E00E946117E82E92
:10145000FF2400E010E012C0C8010596C817D907A4
:1014600010F085E006C0C017D10710F08E2D01C026
:1014700080E00E94D308F3940A5F1F4FFD1460F3CD
:10148000DF91CF911F910F91FF90EF90DF90089522
:10149000EF92FF920F931F937B018C0120E030E0CD
:1014A00040E05FE40E944E0C88238CF0C801B70135
:1014B00020E030E040E05FE40E94C00B0E94DE0CC0
:1014C0009B01AC01205030404040504806C0C8014C
:1014D000B7010E94DE0C9B01AC01B901CA011F914A
:1014E0000F91FF90EF900895A0E0B0E0EAE7FAE0F6
:1014F0000C948817DC012B01FA019C91923008F4BE
:1015000039C1EB018881823008F433C1943069F429
:10151000843009F02FC111969C91119789819817F9
:1015200009F428C1A6E2B1E025C1843009F421C143
:101530008230A9F4923009F01DC19A01AD0188E012
:10154000EA010990AE01E90109929E018150C1F7BB
:10155000E201898111969C918923818308C192308F
:1015600009F407C112962D903C901397EB018A81E4
:101570009B811496AD90BD90CD90DC901797EC8038
:10158000FD800E811F819101281B390BB90137FFA6
:1015900004C066277727621B730B603271050CF05D
:1015A00061C0121613066CF537014801062E04C0FF
:1015B00096948794779467940A94D2F721E030E068
:1015C00040E050E004C0220F331F441F551F6A95AE
:1015D000D2F721503040404050402E213F2140233F
:1015E0005123211531054105510521F021E030E05D
:1015F00040E050E079018A01E628F72808291929F6
:101600003CC0232BD1F1260E371E35014601062E94
:1016100004C096948794779467940A94D2F721E053
:1016200030E040E050E004C0220F331F441F551F3C
:101630006A95D2F721503040404050402A213B214A
:101640004C215D21211531054105510521F021E095
:1016500030E040E050E059016A01A628B728C828C8
:10166000D9280BC0821593052CF01C01AA24BB2499
:10167000650103C0EE24FF24870111969C91D201DD
:1016800011968C91981709F445C0992339F0A80157
:1016900097012A193B094C095D0906C0A60195016D
:1016A0002E193F09400B510B57FD08C011823382A0
:1016B000228224833583468357831DC081E0818342
:1016C0003382228288279927DC01821B930BA40B8B
:1016D000B50B84839583A683B7830DC0220F331F78
:1016E000441F551F2483358346835783828193810A
:1016F0000197938382832481358146815781DA0162
:10170000C9010197A109B1098F5F9F4FAF4FBF4337
:1017100028F30BC0918333822282EA0CFB1C0C1D40
:101720001D1DE482F5820683178383E08083248174
:1017300035814681578157FF1AC0C901AA2797FDF5
:10174000A095BA2F81709070A070B0705695479593
:1017500037952795822B932BA42BB52B84839583C8
:10176000A683B78382819381019693838283DF016D
:1017700001C0D201CD01CDB7DEB7E2E10C94A417D0
:10178000A0E2B0E0E6ECFBE00C94941769837A8366
:101790008B839C832D833E834F835887E9E0EE2E15
:1017A000F12CEC0EFD1ECE010196B7010E94070E32
:1017B0008E010F5E1F4FCE010596B8010E94070EE5
:1017C0008A8991E089278A8BC701B801AE01475EFB
:1017D0005F4F0E94740A0E94320DA096E6E00C94BE
:1017E000B017A0E2B0E0E7EFFBE00C949417698338
:1017F0007A838B839C832D833E834F835887F9E0C4
:10180000EF2EF12CEC0EFD1ECE010196B7010E94C9
:10181000070E8E010F5E1F4FCE010596B8010E9484
:10182000070EC701B801AE01475E5F4F0E94740A00
:101830000E94320DA096E6E00C94B017A8E1B0E04B
:10184000E4E2FCE00C94941769837A838B839C8395
:101850002D833E834F83588789E0E82EF12CEC0ED0
:10186000FD1ECE010196B7010E94070E8E010F5E8C
:101870001F4FCE010596B8010E94070E8985823060
:1018800040F08989823028F0C701B8010E947F0E9C
:1018900001C08FEF6896E6E00C94B017A8E1B0E0C5
:1018A000E4E5FCE00C94941769837A838B839C8332
:1018B0002D833E834F83588789E0E82EF12CEC0E70
:1018C000FD1ECE010196B7010E94070E8E010F5E2C
:1018D0001F4FCE010596B8010E94070E8985823000
:1018E00040F08989823028F0C701B8010E947F0E3C
:1018F00001C08FEF6896E6E00C94B017A8E1B0E065
:10190000E4E8FCE00C94941769837A838B839C83CE
:101910002D833E834F83588789E0E82EF12CEC0E0F
:10192000FD1ECE010196B7010E94070E8E010F5ECB
:101930001F4FCE010596B8010E94070E898582309F
:1019400040F08989823028F0C701B8010E947F0EDB
:1019500001C081E06896E6E00C94B017A8E1B0E021
:10196000E4EBFCE00C94941769837A838B839C836B
:101970002D833E834F83588789E0E82EF12CEC0EAF
:10198000FD1ECE010196B7010E94070E8E010F5E6B
:101990001F4FCE010596B8010E94070E898582303F
:1019A00040F08989823028F0C701B8010E947F0E7B
:1019B00001C081E06896E6E00C94B017ACE0B0E0BE
:1019C000E4EEFCE00C94981769837A838B839C8304
:1019D000CE010196BE016B5F7F4F0E94070E8D8185
:1019E000823061F1823050F1843021F48E8188237D
:1019F00051F12EC02F81388537FD20C06E812F31E7
:101A000031051CF06623F9F023C08EE190E0821BC3
:101A1000930B29853A854B855C8504C0569547957F
:101A2000379527958A95D2F76623B1F05095409562
:101A3000309521953F4F4F4F5F4F0EC020E030E073
:101A400040E050E009C02FEF3FEF4FEF5FE704C0E9
:101A500020E030E040E050E8B901CA012C96E2E015
:101A60000C94B417DF92EF92FF920F931F93FC0137
:101A7000E480F58006811781D1808081823048F42E
:101A800080E090E0A0E1B0E0E82AF92A0A2B1B2BC5
:101A9000A5C0843009F49FC0823021F4EE24FF24D5
:101AA000870105C0E114F1040105110519F4E0E016
:101AB000F0E096C0628173819FEF623879070CF085
:101AC0005BC022E83FEF261B370B2A3131052CF093
:101AD00020E030E040E050E02AC0B801A701022E2B
:101AE00004C076956795579547950A94D2F781E09B
:101AF00090E0A0E0B0E004C0880F991FAA1FBB1FB0
:101B00002A95D2F70197A109B1098E219F21A0231F
:101B1000B1230097A105B10521F081E090E0A0E09C
:101B2000B0E09A01AB01282B392B4A2B5B2BDA0151
:101B3000C9018F779070A070B07080349105A105B5
:101B4000B10539F427FF09C0205C3F4F4F4F5F4F6D
:101B500004C0215C3F4F4F4F5F4FE0E0F0E020308A
:101B6000A0E03A07A0E04A07A0E45A0710F0E1E03D
:101B7000F0E079018A0127C06038710564F5FB0146
:101B8000E158FF4FD801C7018F779070A070B070F7
:101B900080349105A105B10539F4E7FE0DC080E45C
:101BA00090E0A0E0B0E004C08FE390E0A0E0B0E0FF
:101BB000E80EF91E0A1F1B1F17FF05C01695079593
:101BC000F794E794319687E016950795F794E79494
:101BD0008A95D1F705C0EE24FF248701EFEFF0E0EE
:101BE0006E2F679566276795902F9F77D794DD2492
:101BF000D7948E2F8695492F462B582F5D29B701F4
:101C0000CA011F910F91FF90EF90DF900895FC01A2
:101C1000DB01408151812281622F6F7770E0221FAA
:101C20002227221F9381892F880F822B282F30E0B3
:101C3000991F9927991F11969C931197211531058A
:101C4000A9F5411551056105710511F482E037C010
:101C500082E89FEF13969C938E9312979A01AB01A3
:101C600067E0220F331F441F551F6A95D1F783E0A9
:101C70008C930DC0220F331F441F551F12968D9158
:101C80009C911397019713969C938E9312972030F3
:101C900080E0380780E0480780E4580758F314963E
:101CA0002D933D934D935C93179708952F3F3105E6
:101CB00079F4411551056105710519F484E08C939F
:101CC000089564FF03C081E08C9312C01C9210C081
:101CD0002F57304013963C932E93129783E08C93AA
:101CE00087E0440F551F661F771F8A95D1F77064F0
:101CF00014964D935D936D937C93179708951F935E
:101D0000DC01FB019C91923008F447C08081823055
:101D100008F443C0943051F411961C91843099F525
:101D20008181682F70E0611B71093FC0843021F010
:101D3000923031F48230B9F18181882389F12DC04C
:101D400011961C9111978230F1F081811817D9F406
:101D500012962D913C91139782819381821793075C
:101D600094F028173907BCF014968D919D910D9031
:101D7000BC91A02D248135814681578128173907D0
:101D80004A075B0718F4112341F00AC08217930732
:101D9000A407B50740F4112319F061E070E005C015
:101DA0006FEF7FEF02C060E070E0CB011F910895FC
:101DB000A1E1B0E0EEEDFEE00C9488173C017F87D6
:101DC0006E876A01FC0117821682838181FD03C040
:101DD0006FEF7FEF6FC39E012F5F3F4F398B288BD3
:101DE000F3012381EE85FF8523FD859123FF8191FA
:101DF000FF87EE87882309F45AC3853251F4EE85B4
:101E0000FF8523FD859123FF8191FF87EE87853232
:101E100029F490E0B3010E940A19E2CF982F10E054
:101E2000882499241032B0F49B3269F09C3228F453
:101E3000903251F0933271F40BC09D3239F09033EF
:101E400049F4116028C01260146025C0186023C0D6
:101E5000106121C017FD2AC0892F80538A3078F481
:101E600016FF06C0FAE09F9E902C1124980E13C016
:101E70003AE0839E802C1124880E10620CC09E32A2
:101E800021F416FD14C3106406C09C3611F41068CA
:101E900002C0983659F4EE85FF8523FD959123FF06
:101EA0009191FF87EE87992309F0BCCF892F855444
:101EB000833020F4812F8061905E07C0892F855682
:101EC000833008F09FC1812F8F7E86FD02C076E0AF
:101ED000972E6FE3F62EF822953619F4F0E4FF2AD8
:101EE00007C0963619F420E8F22A02C091109A949D
:101EF000F7FE0AC03BE3391518F45CE3B52E02C0C7
:101F0000B92CB39427E009C047E0491520F4BB245D
:101F100047E0942EF7CF292DBB24C60104969D8758
:101F20008C87F6016081718182819381AE014F5F60
:101F30005F4F0B2D0E94BF176C010981202E3324A7
:101F400000FF04C003FD02C01DE209C0F1FE02C093
:101F50001BE205C0F2FC02C010E001C010E2C101AA
:101F60008C709070892BB9F1112311F483E001C0BA
:101F700084E0881510F088240AC0881AF3FC07C092
:101F800080E290E0B3010E940A198A94C9F71123F4
:101F900029F0812F90E0B3010E940A1923FE03C0AB
:101FA00000E710E00EC004E710E00BC0E114F104FC
:101FB00009F0805290E0B3010E940A190F5F1F4F91
:101FC00005C0EF2CFF24F0E1EF22FF24F8018491FB
:101FD000882361F714C1F7FE12C0BC0C24FE04C0B4
:101FE0008A81813309F4BA941B141CF0BB24B39486
:101FF0002DC0F8E0FB1550F538E0B32E27C0F6FCF5
:1020000025C0892D90E08C159D054CF02CEFC21653
:102010002FEFD20624F030E8F32A01C09A949920D9
:1020200049F0E2E0F0E0EC0FFD1FE90DF11D8081C9
:102030008033A1F3F7FE0AC0B92CB394892D90E048
:10204000C816D90614F0992401C09C18F7FC03C0E7
:1020500025E030E009C01C141D041CF021E030E034
:1020600003C096012F5F3F4F112311F02F5F3F4FA9
:10207000992029F0892D90E00196280F391F882D8D
:1020800090E02817390714F0882401C0821A4F2CD9
:102090005524C20189709070892B39F008C080E204
:1020A00090E0B3010E940A198A948820C1F7112395
:1020B00029F0812F90E0B3010E940A1943FE07C066
:1020C00008C080E390E0B3010E940A198A94882036
:1020D000C1F7F7FE46C08601D7FE02C000E010E05F
:1020E00076010894E11CF11CE01AF10A41E050E08D
:1020F0004C0F5D1FE40EF51E26014B185108892D6B
:1021000090E0AA24BB24A81AB90A5FEF0F3F150775
:1021100029F48EE290E0B3010E940A19C016D1069C
:1021200034F0401651061CF4F701808101C080E3B1
:10213000015010400894E11CF11C0A151B052CF0FD
:1021400090E0B3010E940A19E0CF0C151D0539F487
:102150009A81963318F4953311F424FE81E390E0CC
:102160004BC08A81813309F00F7E90E0B3010E9459
:102170000A199920A1F08EE290E0B3010E940A1999
:1021800012E0E1E0F0E0EC0FFD1FE10FF11D1F5F39
:10219000808190E0B3010E940A199A9491F744FC5F
:1021A00003C085E690E002C085E490E0B3010E94A0
:1021B0000A19D7FC05C0C114D10441F404FF06C0BC
:1021C000D094C194D108D3948DE201C08BE290E009
:1021D000B3010E940A1980E305C08F5F26EF3FEF2D
:1021E000C20ED31E3AE0C316D104BCF790E0B3018F
:1021F0000E940A19C601C096B3010E940A19CC8434
:10220000DD8452C1933631F0933799F0933509F05C
:1022100059C023C0F601808189835E010894A11C06
:10222000B11C22E030E0C20ED31E21E0E22EF12CE0
:1022300012C0F601A080B18016FD03C06FEF7FEFE2
:1022400002C0692D70E022E030E0C20ED31EC5014D
:102250000E94BD187C011F7713C0F601A080B180D9
:1022600016FD03C06FEF7FEF02C0692D70E022E022
:1022700030E0C20ED31EC5010E94B2187C01106866
:1022800013FF07C01BC080E290E0B3010E940A194F
:102290008A94882D90E0E816F906A8F30FC0F5019E
:1022A00017FD859117FF81915F0190E0B3010E94B6
:1022B0000A1981108A940894E108F108E114F104E4
:1022C00071F7F2C0943611F0993689F517FF08C0FE
:1022D000F601208131814281538184E090E00AC07F
:1022E000F601808191819C01442737FD4095542F50
:1022F00082E090E0C80ED91E9FE6F92EF12257FF2A
:1023000009C050954095309521953F4F4F4F5F4FF5
:1023100090E8F92ACA01B901AE014F5F5F4F2AE088
:1023200030E00E947919E82EE889EE1A41C095370D
:1023300021F41F7E2AE030E01CC0197F9F3661F037
:10234000903720F4983509F0B2C00FC0903739F0BB
:10235000983709F0ACC004C028E030E00AC0106132
:1023600014FD146020E130E004C014FD166020E18B
:1023700032E017FF08C0F60160817181828193818C
:1023800044E050E008C0F60180819181BC0180E00A
:1023900090E042E050E0C40ED51EAE014F5F5F4FAB
:1023A0000E947919E82E5889E51A8FE7F82EF12254
:1023B000F6FE0BC08EEFF822E91438F4F4FE07C0E5
:1023C000F2FC05C09FEEF92202C01E2D01C0192D9E
:1023D000F4FE0DC0FE01EE0DF11D8081803319F475
:1023E000E9EEFE2208C01F5FF2FE05C003C08F2D7C
:1023F000867809F01F5F0F2DF3FC14C0F0FE0FC0AC
:10240000181510F09E2C0BC09E2C980C911A182DAC
:1024100006C080E290E0B3010E940A191F5F181500
:10242000C0F304C0181510F4811A01C0882404FFF9
:102430000FC080E390E0B3010E940A1902FF1DC0A3
:1024400001FD03C088E790E00EC088E590E00BC076
:10245000802F867891F001FF02C08BE201C080E2FC
:10246000F7FC8DE290E0B3010E940A1906C080E3F8
:1024700090E0B3010E940A199A94E914C0F3EA9417
:10248000E1E0F0E0EC0FFD1FEE0DF11D808190E02A
:10249000B3010E940A19EE2091F706C080E290E095
:1024A000B3010E940A198A948820C1F799CCF301DC
:1024B00066817781CB016196E2E10C94A417FC015F
:1024C00020FD08C023FD05C022FF02C07383628384
:1024D000518340830895EF92FF920F931F9344FF1F
:1024E00002C033E011C046FF02C034E00DC0DB0182
:1024F000FC01AA0FBB1FEE1FFF1F1094D1F76A0F3C
:102500007B1F8E1F9F1F31E0660F771F881F991F4B
:102510003150D1F77B018C01E20EF11C011D111D20
:10252000A8019701B701CA011F910F91FF90EF9089
:1025300008950F931F93CF93DF938C01C8010E94DE
:10254000C818EC0197FD08C00E949718892BB1F7B5
:10255000CE01B8010E945F19CE01DF91CF911F918A
:102560000F9108958F929F92AF92BF92DF92EF9258
:10257000FF920F931F93CF93DF935C01EB014A010E
:10258000122F0E94C818AC018B3219F08D3251F411
:102590001068219709F46DC0C5010E94C818AC01EC
:1025A00097FD67C06DEFD62ED1228D2D807301F57A
:1025B0004033F1F4219709F447C0C5010E94C818BF
:1025C000AC0197FD41C082E0D82A483711F0483568
:1025D00059F480E4D82A2197B9F1C5010E94C8189E
:1025E000AC0199232CF430C0D6FC02C080E1D82A7B
:1025F000EE24FF248701242F2053283088F0D4FCB8
:1026000009C02A3068F0D6FE05C02F7D822F815187
:10261000863028F0CA01B5010E945F1912C0275008
:10262000C801B7014D2D0E946B127B018C0182E025
:10263000D82A219761F0C5010E94C818AC0197FF04
:10264000DACFD1FC04C015C0EE24FF248701D7FEE9
:1026500008C010950095F094E094E11CF11C011D58
:10266000111DC401B801A7012D2D0E945F1281E048
:1026700001C080E0DF91CF911F910F91FF90EF900B
:10268000DF90BF90AF909F908F900895A0E2B0E050
:10269000ECE4F3E10C948C175C016B018A01790185
:1026A000FE01319680E2DF011D928A95E9F770E024
:1026B00030E060E040E050E03F01A1E0B0E0F50133
:1026C0008381F70183FD259183FF21917F012223DF
:1026D00009F481C02E3519F44115510569F1872F90
:1026E00090E08417950744F42D3551F12D3221F4F3
:1026F000332329F431E021C0332309F4622F322F30
:10270000832F869586958695F301E80FF11D832F1B
:1027100087704D0102C0880C991C8A95E2F72081D0
:1027200028292083361711F430E007C0361710F43B
:102730003F5FE6CF3150E4CF71E04F5F5F4FBFCFD7
:10274000332319F08E8180628E83772359F0FE0146
:1027500031969E012F5D3F4F808180958193E217D6
:10276000F307D1F7992493943E010894611C711CDE
:10277000C5010E94C818AC0197FD25C086958695B5
:102780008695F301E80FF11D808190E09A01277092
:10279000307002C0959587952A95E2F780FD05C0B7
:1027A000CA01B5010E945F190EC00115110519F08B
:1027B000D8014D938D010894C108D1089924C11402
:1027C000D104B1F602C0992031F40115110529F0A8
:1027D000F801108202C0EE24FF24C701A096EEE0AB
:1027E0000C94A8172F923F925F926F927F928F92D4
:1027F0009F92AF92BF92CF92DF92EF92FF920F9390
:102800001F93CF93DF933C017B011A010E94C818EC
:10281000EC018B3239F08D3211F0552411C0B0E843
:102820005B2E01C055240894E108F108E114F1047D
:1028300009F418C1C3010E94C818EC0197FD12C128
:10284000CE010E949F188936910521F08E369105A0
:1028500099F51DC00DE810E01CC00894E108F108CE
:10286000E114F10471F0C3010E94C818EC0197FD56
:1028700008C00E949F18D81661F0CE01B3010E94D3
:102880005F1920E00039120709F0ECC008C00AE81F
:1028900010E0F8010F5F1F4FD490DD20F1F60D58C6
:1028A000104029F080E090E0A0E8BFE7CFC080E0D2
:1028B00090E0A0ECBFE7CAC0CC24DD248824992492
:1028C0005401AE014053242F4A3038F552E0552AC6
:1028D000852D90E0AC014870507052FE06C0452B2B
:1028E00011F50894C11CD11C1EC0452B19F0089489
:1028F000C108D108C501B40140E20E946B124B012E
:102900005C0188E9881689E9980689E9A80689E1C1
:10291000B80648F094E0592A06C04E3F81F453FCB3
:102920000EC0E8E05E2A0894E108F108E114F10421
:1029300031F0C3010E94C818EC0197FFC2CF51FECD
:1029400091C0C53619F0C53409F046C00894E108B5
:10295000F108E114F10409F485C0C3010E94C8180C
:10296000EC0197FD7FC08B3221F08D3269F4F0E1EC
:102970005F2A0894E108F108E114F10409F472C037
:10298000C3010E94C818EC01CE01C0970A9708F055
:1029900069C000E010E0B801882777FD8095982F86
:1029A000AE014053242F40E20E946B128B01089429
:1029B000E108F108E114F10439F0C3010E94C818DC
:1029C000EC01C0970A9738F3B80154FE03C0709524
:1029D00061957F4FC60ED71EEF2831F0D7FD04C09A
:1029E000CE01B3010E945F19C501B4010E947016A7
:1029F000D7FE0DC0A9EAEA2EA0E0FA2ED094C19429
:102A0000D108D394C0E2D0E000E010E00EC0F1ECB9
:102A1000EF2EF0E0FF2EF6CFF7012591359145918D
:102A200054910E94AD16CC1ADD0ACC16DD06A0F733
:102A3000D695C7950F5F1F4F0630110529F0ECEFB3
:102A4000FFEFEE0EFF1EF1CFDC01CB0157FCB058BB
:102A50002114310429F0F10180839183A283B3838F
:102A600081E001C080E0DF91CF911F910F91FF9035
:102A7000EF90DF90CF90BF90AF909F908F907F901E
:102A80006F905F903F902F900895A0E0B0E0EBE44E
:102A9000F5E10C948B174C015B013A01FC011782A4
:102AA0001682552404C1812F90E00E949718892B2B
:102AB00021F0C4010E949912FAC0153249F4F501BF
:102AC000F3FC6591F3FE61915F01653269F415E2F3
:102AD000C4010E94C81897FDF6C0181709F4E7C092
:102AE000B4010E945F19F4C06A3219F0162F00E099
:102AF00006C0F3FC1591F3FE11915F0101E0CC24B7
:102B0000DD240EC00260B60180E090E040E20E9449
:102B10006B126B01F501F3FC1591F3FE11915F014E
:102B2000212F20532A3070F301FD04C0CC24CA9415
:102B3000DC2C04C0C114D10409F4CAC0183621F039
:102B40001C3699F4F5010BC0F501F3FC6591F3FE19
:102B50006191683619F05F01162F07C008600460A4
:102B6000F3FC1591F3FE11915F01112309F4B0C03C
:102B700088E790E0612F70E00E94A718892B09F484
:102B8000A7C0802F00FF03C0EE24FF2407C0F3017D
:102B9000E080F18022E030E0620E731E1E3651F4B8
:102BA000F4014681578160E070E0C701202F0E9448
:102BB0005F127DC01336B9F481FD03C081E0C82ED9
:102BC000D12CC4010E94C81897FD7DC0E114F10406
:102BD00019F0F70181937F010894C108D108C1144D
:102BE000D10479F762C01B3559F4C401B601A701BD
:102BF00095010E9446135C01009709F056C050C031
:102C0000C4010E94991297FD5EC01F36D1F11037A2
:102C100038F41436A1F11936A9F11835D1F52DC0C3
:102C2000133751F0143718F4103799F526C01537BB
:102C300031F1183771F521C0C4010E94C818EC01A8
:102C400097FD15C00E949718892B29F0CE01B40179
:102C50000E945F190CC0E114F10419F0F701C1934F
:102C60007F010894C108D108C114D10429F7E114E7
:102C7000F104D9F0F701108218C0006403C00062AB
:102C800001C00061C401B601A701202F0E94B21249
:102C900005C0C401B601A7010E94F213882329F4DC
:102CA000F4018381807379F413C000FF5394F4011D
:102CB000F380F501F3FC1591F3FE11915F011123EF
:102CC00009F0F1CE05C0552019F42FEF3FEF02C0F7
:102CD000252D30E0C901CDB7DEB7EFE00C94A71782
:102CE000E89409C097FB3EF49095809570956195A6
:102CF0007F4F8F4F9F4F9923A9F0F92F96E9BB275C
:102D00009395F695879577956795B795F111F8CFD7
:102D1000FAF4BB0F11F460FF1BC06F5F7F4F8F4F42
:102D20009F4F16C0882311F096E911C0772321F038
:102D30009EE8872F762F05C0662371F096E8862FD0
:102D400070E060E02AF09A95660F771F881FDAF727
:102D5000880F9695879597F908950BD078C069D01C
:102D600028F06ED018F0952309F05AC05FC01124E6
:102D7000A2C07ED0A0F3959FD1F3950F50E0551FD0
:102D8000629FF001729FBB27F00DB11D639FAA27C0
:102D9000F00DB11DAA1F649F6627B00DA11D661F0F
:102DA000829F2227B00DA11D621F739FB00DA11D30
:102DB000621F839FA00D611D221F749F3327A00DEA
:102DC000611D231F849F600D211D822F762F6A2F86
:102DD00011249F5750408AF0E1F088234AF0EE0F0B
:102DE000FF1FBB1F661F771F881F91505040A9F718
:102DF0009E3F510570F014C05EC05F3FECF3983EFB
:102E0000DCF3869577956795B795F795E7959F5F7E
:102E1000C1F7FE2B880F911D9695879597F9089518
:102E200097F99F6780E870E060E008959FEF80EC7D
:102E3000089500240A941616170618060906089520
:102E400000240A9412161306140605060895092E86
:102E50000394000C11F4882352F0BB0F40F4BF2BF5
:102E600011F460FF04C06F5F7F4F8F4F9F4F089535
:102E700057FD9058440F551F59F05F3F71F047952B
:102E8000880F97FB991F61F09F3F79F08795089510
:102E9000121613061406551FF2CF4695F1DF08C02F
:102EA000161617061806991FF1CF8695710561054C
:102EB00008940895E894BB2766277727CB0197F9F4
:102EC0000895AA1BBB1B51E107C0AA1FBB1FA61771
:102ED000B70710F0A61BB70B881F991F5A95A9F7C3
:102EE00080959095BC01CD01089597FB092E07268A
:102EF0000AD077FD04D0E5DF06D000201AF47095E3
:102F000061957F4F0895F6F7909581959F4F0895AD
:102F10002F923F924F925F926F927F928F929F92E9
:102F2000AF92BF92CF92DF92EF92FF920F931F93D7
:102F3000CF93DF93CDB7DEB7CA1BDB0B0FB6F89488
:102F4000DEBF0FBECDBF09942A88398848885F84C8
:102F50006E847D848C849B84AA84B984C884DF8039
:102F6000EE80FD800C811B81AA81B981CE0FD11D1D
:102F70000FB6F894DEBF0FBECDBFED010895283027
:102F800008F027E03327DA01990F311D87FD9160A2
:102F900000966105710539F432602E5F3D9330E390
:102FA0002A95E1F708959F3F30F08038710561055B
:102FB00009F03C5F3C5F3D93913008F08068911DC3
:102FC000DF93CF931F930F93FF92EF92192F987F68
:102FD0009695E92F96959695E90FFF27E15AFE4FB2
:102FE00099273327EE24FF24A701E70105900894D1
:102FF000079428F4360FE71EF81E491F511D660F6F
:10300000771F881F991F0694A1F70590079428F44D
:10301000E70EF81E491F561FC11D770F881F991F05
:10302000661F0694A1F70590079428F4F80E491F2F
:10303000561FC71FD11D880F991F661F771F069443
:10304000A1F70590079420F4490F561FC71FD81FFA
:10305000990F661F771F881F0694A9F78491109512
:10306000177041F0D695C79557954795F794E79413
:103070001A95C1F7E5E0F1E0689415901591359146
:103080006591959105907FE27395E118F10A430BE4
:10309000560BC90BD009C0F7E10CF11E431F561F98
:1030A000C91FD01D7EF4703311F48A95E6CFE894E1
:1030B000015030F0080F0AF40027021708F4202FFF
:1030C0002395022F7A3328F079E37D932A95E9F747
:1030D00010C07D932A9589F6069497956795379544
:1030E00017951794E118F10A430B560BC90BD00939
:1030F00098F023957E9173957A3308F070E37C9372
:103100002013B8F77E9170617D9330F0839571E361
:103110007D9370E32A95E1F71124EF90FF900F91D2
:103120001F91CF91DF91992787FD90950895911177
:103130003EC1803219F089508550D0F70895911121
:10314000089581548A5108F4805E855A0895FC01DF
:103150000590061621F00020D9F7C0010895319797
:10316000CF010895FC010590615070400110D8F71F
:10317000809590958E0F9F1F0895FC0161507040BF
:1031800001900110D8F7809590958E0F9F1F08959C
:10319000CF93DF93EC014B8140FF1AC046FF0AC07A
:1031A0004F7B4B838E819F8101969F838E838A8183
:1031B000282F2BC042FF13C0E881F9818081282F7E
:1031C000332727FD30952115310529F440624B83C3
:1031D0002FEF3FEF1BC03196F983E88311C0EA85DA
:1031E000FB85CE0109959C0197FF0AC09B812F5F4B
:1031F0003F4F11F080E201C080E1892B8B83E8CF43
:103200008E819F8101969F838E8330E0C901DF917B
:10321000CF9108950F931F93CF93DF938C01EB0110
:103220008B8181FF1BC082FF0DC02E813F818C816D
:103230009D812817390764F4E881F9810193F983A6
:10324000E88306C0E885F985802F0995892B31F43C
:103250008E819F8101969F838E8302C00FEF1FEFA7
:10326000C801DF91CF911F910F910895EF92FF92C6
:103270000F931F93CF93DF937C018B01DB01139698
:103280008C9181FD03C0CFEFDFEF13C0C0E0D0E031
:103290000BC0D8011896ED91FC911997B8010995CA
:1032A000892B11F0CFEFDFEFF70181917F018823A8
:1032B00081F7CE01CDB7DEB7E6E00C94B0179C01E4
:1032C000FB01838180FF11C086FD0FC09FEF2F3F60
:1032D000390759F0228380648F7D838386819781AB
:1032E00001979783868330E002C02FEF3FEFC9013B
:1032F0000895FA01AA27283051F1203181F1E8948C
:103300006F936E7F6E5F7F4F8F4F9F4FAF4FB1E0D8
:103310003ED0B4E03CD0670F781F891F9A1FA11DD3
:10332000680F791F8A1F911DA11D6A0F711D811DD4
:10333000911DA11D20D009F468943F912AE0269F99
:1033400011243019305D3193DEF6CF010895462FF8
:103350004770405D4193B3E00FD0C9F7F6CF462FD9
:103360004F70405D4A3318F0495D31FD4052419342
:1033700002D0A9F7EACFB4E0A695979587957795FF
:103380006795BA95C9F700976105710508959B0186
:10339000AC010A2E06945795479537952795BA950F
:1033A000C9F7620F731F841F951FA01D08959927E9
:0833B00088270895F894FFCF6F
:1033B8000A0D205452542039666562323030390A79
:1033C8000D0A0D0000000003000000005004A504D1
:0E33D8000000191E0A0900000000000000009D
:00000001FF
