:100000000C9400010C9470050C941D010C941D01BE
:100010000C941D010C941D010C941D010C941D01E8
:100020000C941D010C941D010C941D010C9496055B
:100030000C941D010C941F010C941D010C941D01C6
:100040000C941D010C941D010C941D010C941D01B8
:100050000C947C040C940C040C941D010C941D0154
:100060000C941D010C941D010C941D010C941D0198
:100070006E616E00696E66006364696E6F707375A1
:1000800078585B65666745464700616E006E666935
:100090006E69747900CDCCCC3D0AD7233C17B7D11B
:1000A0003877CC2B329595E6241FB14F0A000020FB
:1000B000410000C84200401C4620BCBE4CCA1B0E7A
:1000C0005AAEC59D74001F000000001F00001F10E5
:1000D0001010101F00001F181818181F00001F1CF8
:1000E0001C1C1C1F00001F1E1E1E1E1F00001F1FA9
:1000F0001F1F1F1F0003070F1F0F070300181C1EE1
:100100001F1E1C180000407A10F35A00A0724E18EF
:10011000090010A5D4E80000E87648170000E40BB9
:1001200054020000CA9A3B000000E1F5050000807F
:10013000969800000040420F000000A086010000D9
:1001400000102700000000E8030000000064000029
:100150000000000A00000000000100000000002C68
:1001600076D888DC674F0823DFC1DFAE59E1B1B72D
:1001700096E5E3E453C63AE651997696E8E6C284FA
:1001800026EB898C9B62ED407C6FFCEFBC9C9F4012
:10019000F2BAA56FA5F490055A2AF75C936B6CF937
:1001A000676DC11BFCE0E40D47FEF520E6B500D00D
:1001B000ED902E0300943577050080841E08000022
:1001C000204E0A000000C80C333333330F986E12F0
:1001D000831141EF8D2114893BE65516CFFEE6DBF6
:1001E00018D1844B381BF77C1D901DA4BBE4242040
:1001F0003284725E228100C9F124ECA1E53D270022
:1002000011241FBECFEFD0E1DEBFCDBF12E0A0E0D2
:10021000B1E0E0E4F2E302C005900D92AE35B10723
:10022000D9F713E0AEE5B2E001C01D92A63DB107DB
:10023000E1F70E94DC050C941E190C9400001F923B
:100240000F920FB60F9211242F923F924F925F920E
:100250006F927F928F929F92AF92BF92CF92DF92D6
:10026000EF92FF920F931F932F933F934F935F93C0
:100270006F937F938F939F93AF93BF93CF93DF93AE
:10028000EF93FF9310926F0050908403B09B14C0C3
:100290008091C5039091C603A091C703B091C80394
:1002A0000196A11DB11D8093C5039093C603A09331
:1002B000C703B093C803B09A8091840090918500E1
:1002C0003C01882499248091C5039091C603A09194
:1002D000C703B091C803DC0199278827680E791EEF
:1002E0008A1E9B1E4090830370E061E0FFEFAF2EFB
:1002F000FFEFBF2EFFEFCF2EFFE7DF2EEBE02E2E1E
:1003000033243394CBE0D0E043C0629DD00111246C
:10031000AB57BC4F1A968C911A978230A1F4129663
:10032000ED90FD900D911C9115976E147F04800641
:10033000910620F01A963C921A9705C0EA14FB0425
:100340000C051D0510F0860175011A968C911A97FF
:100350008130D9F4872F90E08C9FF0018D9FF00DB4
:100360009C9FF00D1124ED57FC4F16962D913D9159
:100370004D915C91199780859185A285B385281749
:1003800039074A075B0708F4762F6F5F570168014A
:10039000461608F0BACF7515B1F0EBE05E9ED001BD
:1003A0001124AB57BC4F8DB78C938EB711968C939D
:1003B0007E9FF0011124EB57FC4F81818EBF80811D
:1003C0008DBF70938403A092C903B092CA03C092F8
:1003D000CB03D092CC03209184003091850040E083
:1003E00050E08091C5039091C603A091C703B091DE
:1003F000C803DC0199278827280F391F4A1F5B1F74
:10040000D601C501821B930BA40BB50B9C01AD015A
:1004100084309105A105B10524F424E030E040E0EA
:1004200050E08091840090918500A0E0B0E0820FC0
:10043000931FA41FB51F80509040A140B04038F4D6
:100440008091840090918500820F931F0EC080914F
:100450008400909185008C5F9F4F28F41092890052
:100460001092880006C084E090E090938900809309
:10047000880082E080936F00FF91EF91DF91CF9130
:10048000BF91AF919F918F917F916F915F914F91AC
:100490003F912F911F910F91FF90EF90DF90CF90A0
:1004A000BF90AF909F908F907F906F905F904F9094
:1004B0003F902F900F900FBE0F901F9018951092A5
:1004C0008500109284001092800025E02093810026
:1004D00022E020936F002FEF30E1281B390B30937F
:1004E000C4032093C30310928303109284031092D9
:1004F000C5031092C6031092C7031092C8038FEF72
:100500009FEFAFEFBFE78093C9039093CA03A09317
:10051000CB03B093CC0380938B0390938C03A09375
:100520008D03B0938E03109287031092880310926C
:10053000890310928A03789408958F929F92AF92C4
:10054000BF92CF92DF92EF92FF920F931F93CF93C0
:10055000DF9349015A01F894209183032F5F209380
:100560008303C091C303D091C4039E01261B370BA4
:100570003093C4032093C3038883FE019293319781
:10058000DF01CE014B971C921197A817B907D9F735
:100590007997C082D2923197DF019E012352304079
:1005A0001C921197A217B307D9F79F01265030402C
:1005B000E09183038BE0E89FF0011124EB57FC4F9F
:1005C00082829382A482B582E682F78200871187B5
:1005D00082E08287208331830E941F01DF91CF91C7
:1005E0001F910F91FF90EF90DF90CF90BF90AF9051
:1005F0009F908F900895F894E3E8F3E0E80FF11DE1
:1006000060AF78940895482F20918403F894E82FE0
:10061000F0E0E554FC4F8081882319F081508083FD
:1006200010C030E08BE090E0289FF001299FF00D92
:10063000389FF00D1124EB57FC4F4E5F42870E940C
:100640001F0178940895FF920F931F93182FF89429
:1006500000918303E1E04FEF5FEF6FEF7FEFF0E09A
:100660008BE0F82E212F30E02E5F3F4F1EC0EF9D14
:10067000D0011124AB57BC4F1A968C911A9790E079
:100680008217930769F416968D919D910D90BC91F8
:10069000A02D481759076A077B0710F0FE2F02C0EC
:1006A000DB01CA01EF5FAC01BD010E1700F7FF23AC
:1006B00041F4E12FF0E0EE57FC4F81AD8F5F81AF49
:1006C00011C02F2F30E08BE090E0289FF001299F90
:1006D000F00D389FF00D1124ED57FC4F81E0848719
:1006E0000E941F0178941F910F91FF90089520910F
:1006F00084003091850040E050E08091C5039091E6
:10070000C603A091C703B091C803DC0199278827CD
:10071000280F391F4A1F5B1FB901CA010895E091D4
:100720008403ABE0EA9FF0011124EB57FC4FF894EF
:10073000A2E0A287628373838483958326833783B1
:10074000408751870E941F0108958091840390E0A3
:100750002BE030E0829FF001839FF00D929FF00D1F
:100760001124ED57FC4FDF011496648111967C91A2
:10077000119712968C91129713969C9108958091DF
:10078000840390E02BE030E0829FF001839FF00D26
:10079000929FF00D1124ED57FC4FDF0118966085F4
:1007A00011967C91119712968C91129713969C91A9
:1007B0000895F8948091840390E02BE030E0829FCC
:1007C000F001839FF00D929FF00D1124ED57FC4F27
:1007D00014860E941F010895F894E82FF0E0E55474
:1007E000FC4F8081882319F0815080838F5F78943B
:1007F000089587E68093C400E1ECF0E088E180830F
:100800001092B1021092B0021092B3021092B20292
:1008100080818068808308951F920F920FB60F9297
:1008200011242F933F938F939F93EF93FF932091E6
:10083000B0023091B1028091B2029091B3022817B8
:10084000390731F48091C1008F7D8093C1001DC0B4
:10085000E091B202F091B302EC54FD4F808180939D
:10086000C6008091B2029091B30201969093B302B8
:100870008093B2028091B2029091B302883C9105BC
:1008800021F41092B3021092B202FF91EF919F9166
:100890008F913F912F910F900FBE0F901F90189541
:1008A0001F93182F8A3019F48DE00E945004809114
:1008B000B0029091B1028F5F883C09F480E0E09132
:1008C000B002F091B102EC54FD4F1083282F30E0BC
:1008D0008091B2029091B30228173907C9F330937F
:1008E000B1022093B0028091C10080628093C10068
:1008F00080E090E01F9108951F920F920FB60F9223
:1009000011242F933F934F935F936F937F938F9314
:100910009F93AF93BF93EF93FF938091C600809313
:10092000CD0381E00E942303FF91EF91BF91AF912E
:100930009F918F917F916F915F914F913F912F91F7
:100940000F900FBE0F901F901895EF92FF920F938C
:100950001F93CF93DF937C0180915E0290915F02A1
:10096000892B09F0A1C000E612E081E00E94030398
:100970008091C00084FF03C02EEF3FEFA9C080919B
:10098000C00083FDA3C09091CD039D3011F09A303B
:1009900081F48AE0F8018083B7010E94500480E668
:1009A00092E090935F0280935E0282E00E942303B4
:1009B0007BC0993009F490E2892F80528F3510F076
:1009C000903A70F0F2E00F3A1F0711F487E004C08C
:1009D000F80191938F01892FB7010E945004C5CF70
:1009E000923139F1933138F4933009F46FC0983073
:1009F00009F0BBCF09C0973109F44BC09F3721F0F4
:100A0000953109F0B2CF32C0F2E000361F0709F08D
:100A100008F4ABCF88E0B7010E94500480E2B70130
:100A20000E94500488E0B7010E9450040150104019
:100A30009CCF8DE0B7010E945004C0E6D2E004C014
:100A40008991B7010E945004C017D107C8F38DCF18
:100A500088E0B7010E94500480E2B7010E94500470
:100A600088E0B7010E9450040150104082E0003637
:100A7000180709F068F779CF88E0B7010E945004A1
:100A800080E2B7010E94500488E0B7010E94500440
:100A90008E01E2E000361E0709F008F466CFE80197
:100AA0008A91803249F761CFE0915E02F0915F0256
:100AB0008191F0935F02E0935E028A3021F41092FC
:100AC0005F0210925E02282F30E002C02FEF3FEF4E
:100AD000C901DF91CF911F910F91FF90EF90089581
:100AE0001F920F920FB60F9211242F938F939F9303
:100AF000EF93FF93E2EBF0E02081809181039091EE
:100B00008203820F911D9093CF038093CE031082B6
:100B10001092820310928103FF91EF919F918F9128
:100B20002F910F900FBE0F901F9018951F920F924C
:100B30000FB60F9211248F939F9380918103909110
:100B4000820380509F4F90938203809381039F91F3
:100B50008F910F900FBE0F901F901895EF92FF92FC
:100B60000F931F932091C5033091C6034091C70393
:100B70005091C803A9013327222760918400709106
:100B80008500E0908400F090850080E090E0620FA6
:100B9000731F841F951F64567F4F8F4F9F4F00E038
:100BA00010E02E0D3F1D401F511F24563F4F4F4F49
:100BB0005F4F0E948F03D6CFCF92DF92EF92FF92CA
:100BC0000F931F930E94F9036FE372E07093D503B4
:100BD0006093D4037093D1036093D0037093D303D5
:100BE0006093D20380E091E00E94421891E09DBBA7
:100BF00083E08093690087E08093B1009093700058
:100C000080E890E00E945F02F8941092BC03789410
:100C1000F8941092BD037894F89481E08093BE0319
:100C20007894F8948093C2037894F8948093BF03E7
:100C30007894F8948093C0037894F8948093C103D7
:100C400078948EEA95E060E071E02DE033E040E0DA
:100C500050E0BDE0EB2EB3E0FB2E012D112DACE7F3
:100C6000CA2EA3E0DA2E0E949D0287E699E060E09A
:100C700071E02AE136E040E050E0FAE1EF2EF6E0E4
:100C8000FF2E012D112DEEE7CE2EE3E0DE2E0E9489
:100C90009D0286E696E060E071E02AE136E040E001
:100CA00050E00E949D0283B7817F83BF83B781603C
:100CB00083BF8895FECF0E947B0B0E94E30B0E94AE
:100CC000140B80E060E00E94310B08952F923F9258
:100CD0004F925F926F927F928F929F92AF92BF924C
:100CE000CF92DF92EF92FF920F931F93DF93CF93F8
:100CF000CDB7DEB7E3970FB6F894DEBF0FBECDBF1A
:100D0000DE015796EAE1F1E089E001900D92815011
:100D1000E1F7DE015296E3E2F1E085E001900D9209
:100D20008150E1F783E00E94030320905902309044
:100D30005A0283E00E94230384E00E94030380910F
:100D40004D0288A790914E0299A7A0914F02AAA7A1
:100D5000B0915002BBA784E00E94230385E00E946B
:100D60000303809151028CA3909152029DA3A09104
:100D70005302AEA3B0915402BFA385E00E942303A7
:100D800086E00E9403038091550288A39091560249
:100D900099A3A0915702AAA3B0915802BBA386E0E1
:100DA0000E9423030E945B0680E060E00E94310BFA
:100DB000CE01479667E00E941C0B00D000D000D007
:100DC000EDB7FEB731963EE0432E512C4C0E5D1E22
:100DD000ADB7BEB712965C924E92119724E1622E87
:100DE00021E0722E7382628280915B0290915C029C
:100DF000958384830E947F188DB79EB706960FB6A1
:100E0000F8949EBF0FBE8DBF87E060E00E94310B5B
:100E1000C20164E00E941C0B8DE060E00E94310B77
:100E2000CE01429663E00E941C0B00D000D000D09F
:100E3000EDB7FEB731969AE0892E912C8C0E9D1E4F
:100E4000ADB7BEB712969C928E9211977382628252
:100E5000358224820E947F188DB79EB706960FB602
:100E6000F8949EBF0FBE8DBF80E061E00E94310B01
:100E7000C40164E00E941C0BADB7BEB718970FB653
:100E8000F894BEBF0FBEADBFEDB7FEB731965E01A1
:100E90000894A11CB11C1296BC92AE92119787E1E6
:100EA000E82E81E0F82EF382E28288A599A5AAA512
:100EB000BBA584839583A683B7830E947F188DB7D3
:100EC0009EB708960FB6F8949EBF0FBE8DBF85E003
:100ED00061E00E94310BC50163E00E941C0BADB7BD
:100EE000BEB718970FB6F894BEBF0FBEADBFEDB733
:100EF000FEB7319604E0C02ED12CCC0EDD1E12962A
:100F0000DC92CE921197F382E2828CA19DA1AEA1D8
:100F1000BFA184839583A683B7830E947F188DB772
:100F20009EB708960FB6F8949EBF0FBE8DBF89E09E
:100F300061E00E94310BC60163E00E941C0BADB75B
:100F4000BEB718970FB6F894BEBF0FBEADBFEDB7D2
:100F5000FEB731968E01095F1F4F12961C930E93B8
:100F60001197F382E28288A199A1AAA1BBA18483EF
:100F70009583A683B7830E947F188DB79EB7089686
:100F80000FB6F8949EBF0FBE8DBF8DE061E00E944A
:100F9000310BC80163E00E941C0B8CA69DA66EA6B7
:100FA0007FA6A8AAB9AA5701CAAADBAA3801852C2C
:100FB00083E00E9403038091590290915A022816FF
:100FC000390611F4992403C01C019924939483E0F9
:100FD0000E94230384E00E94030310914D020091BC
:100FE0004E02F0904F02E090500268A579A58AA5C4
:100FF0009BA5212F302F4F2D5E2D0E944B0C882357
:1010000039F018A709A7FAA6EBA6CC24C39401C00F
:10101000CC2484E00E94230385E00E940303109106
:10102000510200915202F0905302E09054026CA1E0
:101030007DA18EA19FA1212F302F4F2D5E2D0E94CB
:101040004B0C882339F01CA30DA3FEA2EFA2DD24D4
:10105000D39401C0DD2485E00E94230386E00E9432
:10106000030300915502E090560210915702F09050
:10107000580268A179A18AA19BA1202F3E2D412F62
:101080005F2D0E944B0C882331F008A3E9A21AA31C
:10109000FBA211E001C010E086E00E94230399202A
:1010A00041F100D000D000D0EDB7FEB731968CA54D
:1010B000ADB7BEB711968C9311979DA512969C93D0
:1010C000AEA5A283BFA5B383358224820E947F1878
:1010D0008DB79EB706960FB6F8949EBF0FBE8DBF14
:1010E00080E061E00E94310B8CA59DA564E00E9428
:1010F0001C0BCC2079F1ADB7BEB718970FB6F8949A
:10110000BEBF0FBEADBFEDB7FEB7319688A9119631
:101110008C93119799A912969C93A282B38288A569
:1011200099A5AAA5BBA584839583A683B7830E94AE
:101130007F18ADB7BEB718960FB6F894BEBF0FBEF6
:10114000ADBF85E061E00E94310B88A999A963E0F9
:101150000E941C0BDD2089F18DB79EB708970FB652
:10116000F8949EBF0FBE8DBFEDB7FEB731968AA92A
:10117000ADB7BEB711968C9311979BA912969C930D
:10118000A282B3828CA19DA1AEA1BFA184839583CD
:10119000A683B7830E947F18ADB7BEB718960FB667
:1011A000F894BEBF0FBEADBF89E061E00E94310B75
:1011B0008AA99BA963E00E941C0B112371F18DB7D2
:1011C0009EB708970FB6F8949EBF0FBE8DBFEDB7C0
:1011D000FEB73196ADB7BEB711966C9211971296C5
:1011E0007C92A282B38288A199A1AAA1BBA1848387
:1011F0009583A683B7830E947F188DB79EB7089604
:101200000FB6F8949EBF0FBE8DBF8DE061E00E94C7
:10121000310BC30163E00E941C0B87E00E940303B3
:1012200000D000D000D0EDB7FEB73196ADB7BEB755
:1012300011964C92119712968C92BEA5B2838FA5EF
:10124000838380915B0290915C02958384830E94EA
:101250007F18ADB7BEB716960FB6F894BEBF0FBED7
:10126000ADBF87E060E00E94310B842D982D64E0D3
:101270000E941C0B87E00E9423032091C50330913C
:10128000C6034091C7035091C803A9013327222701
:101290006091840070918500E0908400F09085005A
:1012A00080E090E0620F731F841F951F665E794F88
:1012B0008F4F9F4F00E010E02E0D3F1D401F511F2C
:1012C0002554324F4F4F5F4F0E948F0371CE2F92A4
:1012D0003F924F925F926F927F928F929F92AF92C6
:1012E000BF92CF92DF92EF92FF920F931F93DF9303
:1012F000CF9300D000D00F92CDB7DEB71E01089477
:10130000211C311CE2E04E2E512C4C0E5D1E7DE264
:10131000672E71E0772E68E3862E61E0962E53EFFC
:10132000A52E51E0B52E4EE0C42E42E0D42E6091A1
:10133000D2037091D3038EE390E00E9416188DB70C
:101340009EB708970FB6F8949EBF0FBE8DBFEDB73E
:10135000FEB731968091D0039091D103ADB7BEB75F
:1013600012969C938E93119788E291E093838283E7
:1013700035822482578246820E946B180F900F900C
:10138000EDB7FEB731968091D2039091D303ADB7FC
:10139000BEB712969C938E93119773826282898155
:1013A000848315820E94021800D0EDB7FEB73196F3
:1013B0008091D2039091D303ADB7BEB712969C93A0
:1013C0008E931197938282828A819B81AC81BD81A9
:1013D00084839583A683B7830E940218EA80FB80EA
:1013E0000C811D818DB79EB708960FB6F8949EBFED
:1013F0000FBE8DBFC801B70120E030E040E050E0F3
:101400000E947B0C88230CF4ADC02981293609F495
:101410004BC02A3620F4243609F08AC066C0203733
:1014200011F1233709F084C06091D2037091D30386
:1014300083E491E00E94421883E00E9403036A81E2
:101440007B818C819D810E94AB0C70935A026093CA
:10145000590283E00E9423036091D2037091D30369
:101460008DE591E062C06091D2037091D30385E76E
:1014700091E00E94421884E00E9403038A819B81CC
:10148000AC81BD8180934D0290934E02A0934F0298
:10149000B093500284E00E9423036091D2037091C4
:1014A000D3038BE891E041C06091D2037091D303E4
:1014B0008FE991E00E94421885E00E9403038A812F
:1014C0009B81AC81BD818093510290935202A09385
:1014D0005302B093540285E00E9423036091D2032B
:1014E0007091D30385EB91E020C06091D20370919D
:1014F000D30389EC91E00E94421886E00E94030326
:101500008A819B81AC81BD81809355029093560264
:10151000A0935702B093580286E00E942303609183
:10152000D2037091D3038FED91E00E944218FFCE59
:1015300000D000D000D0EDB7FEB731968091D20335
:101540009091D303ADB7BEB712969C938E9311972B
:10155000B382A282248315820E9402188DB79EB79F
:1015600006961EC0ADB7BEB718970FB6F894BEBFAB
:101570000FBEADBFEDB7FEB731968091D20390910B
:10158000D30312969C938E931197D382C282E482E6
:10159000F582068317830E9402188DB79EB70896BE
:1015A0000FB6F8949EBF0FBE8DBFC1CE282F207FEF
:1015B00028B9409A429A20EA3FE0F9013197F1F7C1
:1015C00042984098F9013197F1F790E044E0880F94
:1015D000991F4A95E1F788B9409A429AC901019743
:1015E000F1F742984098C9010197F1F70895282F23
:1015F000207F28B9429A20EA3FE0F9013197F1F7BC
:101600004298F9013197F1F790E054E0880F991F63
:101610005A95E1F788B9429AC9010197F1F74298C2
:10162000C9010197F1F7089581E00E94F70A089532
:1016300082E00E94F70A08950F931F93CF93DF93E0
:10164000062F009749F0EC0110E004C089910E9438
:10165000D60A1F5F1017D0F3DF91CF911F910F9122
:101660000895623031F0633031F0613029F4805CEC
:1016700003C08C5E01C08C5A80680E94F70A0895EE
:101680001F93CF93DF93EC01862F642F0E94310BC1
:1016900010E003C00E94D60A1F5FFE01E10FF11D9A
:1016A00084918823B9F7DF91CF911F910895EF922C
:1016B000FF920F931F93CF93DF937C01162F110F8F
:1016C000110F110F1064C0E0D0E0F701EC0FFD1F07
:1016D0000491812F8C0F0E94F70A802F0E94D60A56
:1016E0002196C830D10589F7DF91CF911F910F91D5
:1016F000FF90EF9008951F93CF93DF9380E69AEECB
:101700000197F1F718B818B887B1806F87B987B11A
:10171000876087B980E388B9429A20EA3FE0F901FF
:101720003197F1F74298F9013197F1F788B9429A68
:10173000C9010197F1F74298C9010197F1F780E2D9
:1017400088B9429AC9010197F1F74298C9010197F6
:10175000F1F788E20E94F70A8CE00E94F70AC5ECD4
:10176000D0E060E0162F1F5FCE010E94570B289635
:10177000612F1830B9F7DF91CF911F9108950F9322
:101780001F93082F10E004C08EE10E94F70A1F5F2C
:101790001017D0F31F910F9108950F931F93082FE7
:1017A00010E004C088E10E94F70A1F5F1017D0F311
:1017B0001F910F9108958EE00E94F70A08958FE01F
:1017C0000E94F70A08958CE00E94F70A089588E0C5
:1017D0000E94F70A08958CE00E94F70A08950F937B
:1017E0001F93082F10E004C080E10E94F70A1F5FDA
:1017F0001017D0F31F910F9108950F931F93082F87
:1018000010E004C084E10E94F70A1F5F1017D0F3B4
:101810001F910F910895DF92EF92FF920F931F9304
:10182000CF93DF93D42E96E0899FC0011124242FFB
:1018300030E0AC01429FC001439F900D529F900D3C
:10184000112470E00E946D16EB01CB0166E070E0A0
:101850000E945916E82EFF2400E010E012C0C801D3
:101860000596C817D90710F085E006C0C017D10744
:1018700010F08E2D01C080E00E94D60AF3940A5F1A
:101880001F4FFD1460F3DF91CF911F910F91FF90D7
:10189000EF90DF900895A8E1B0E0E1E5FCE00C9462
:1018A0008C1669837A838B839C832D833E834F833D
:1018B000588789E0E82EF12CEC0EFD1ECE01019632
:1018C000B7010E94FF0C8E010F5E1F4FCE010596DF
:1018D000B8010E94FF0C8985823040F089898230EE
:1018E00028F0C701B8010E94770D01C081E0689619
:1018F000E6E00C94A816A8E1B0E0E1E8FCE00C9466
:101900008C1669837A838B839C832D833E834F83DC
:10191000588789E0E82EF12CEC0EFD1ECE010196D1
:10192000B7010E94FF0C8E010F5E1F4FCE0105967E
:10193000B8010E94FF0C8985823040F0898982308D
:1019400028F0C701B8010E94770D01C08FEF68969B
:10195000E6E00C94A816ACE0B0E0E1EBFCE00C94FF
:10196000901669837A838B839C83CE010196BE0196
:101970006B5F7F4F0E94FF0C8D81823061F182305E
:1019800050F1843021F48E81882351F12EC02F81B3
:10199000388537FD20C06E812F3131051CF066235C
:1019A000F9F023C08EE190E0821B930B29853A85E4
:1019B0004B855C8504C056954795379527958A9544
:1019C000D2F76623B1F050954095309521953F4F61
:1019D0004F4F5F4F0EC020E030E040E050E009C0C4
:1019E0002FEF3FEF4FEF5FE704C020E030E040E033
:1019F00050E8B901CA012C96E2E00C94AC16FC0147
:101A0000DB01408151812281622F6F7770E0221FBC
:101A10002227221F9381892F880F822B282F30E0C5
:101A2000991F9927991F11969C931197211531059C
:101A3000A9F5411551056105710511F482E037C022
:101A400082E89FEF13969C938E9312979A01AB01B5
:101A500067E0220F331F441F551F6A95D1F783E0BB
:101A60008C930DC0220F331F441F551F12968D916A
:101A70009C911397019713969C938E931297203005
:101A800080E0380780E0480780E4580758F3149650
:101A90002D933D934D935C93179708952F3F3105F8
:101AA00079F4411551056105710519F484E08C93B1
:101AB000089564FF03C081E08C9312C01C9210C093
:101AC0002F57304013963C932E93129783E08C93BC
:101AD00087E0440F551F661F771F8A95D1F7706402
:101AE00014964D935D936D937C93179708951F9370
:101AF000DC01FB019C91923008F447C08081823068
:101B000008F443C0943051F411961C91843099F537
:101B10008181682F70E0611B71093FC0843021F022
:101B2000923031F48230B9F18181882389F12DC05E
:101B300011961C9111978230F1F081811817D9F418
:101B400012962D913C91139782819381821793076E
:101B500094F028173907BCF014968D919D910D9043
:101B6000BC91A02D248135814681578128173907E2
:101B70004A075B0718F4112341F00AC08217930744
:101B8000A407B50740F4112319F061E070E005C027
:101B90006FEF7FEF02C060E070E0CB011F9108950E
:101BA000A1E1B0E0E6EDFDE00C9480163C017F87FA
:101BB0006E876A01FC0117821682838181FD03C052
:101BC0006FEF7FEF6FC39E012F5F3F4F398B288BE5
:101BD000F3012381EE85FF8523FD859123FF81910C
:101BE000FF87EE87882309F45AC3853251F4EE85C6
:101BF000FF8523FD859123FF8191FF87EE87853245
:101C000029F490E0B3010E941618E2CF982F10E05B
:101C1000882499241032B0F49B3269F09C3228F465
:101C2000903251F0933271F40BC09D3239F0903301
:101C300049F4116028C01260146025C0186023C0E8
:101C4000106121C017FD2AC0892F80538A3078F493
:101C500016FF06C0FAE09F9E902C1124980E13C028
:101C60003AE0839E802C1124880E10620CC09E32B4
:101C700021F416FD14C3106406C09C3611F41068DC
:101C800002C0983659F4EE85FF8523FD959123FF18
:101C90009191FF87EE87992309F0BCCF892F855456
:101CA000833020F4812F8061905E07C0892F855694
:101CB000833008F09FC1812F8F7E86FD02C076E0C1
:101CC000972E6FE3F62EF822953619F4F0E4FF2AEA
:101CD00007C0963619F420E8F22A02C091109A94AF
:101CE000F7FE0AC03BE3391518F45CE3B52E02C0D9
:101CF000B92CB39427E009C047E0491520F4BB2470
:101D000047E0942EF7CF292DBB24C60104969D876A
:101D10008C87F6016081718182819381AE014F5F72
:101D20005F4F0B2D0E94B7166C010981202E3324C2
:101D300000FF04C003FD02C01DE209C0F1FE02C0A5
:101D40001BE205C0F2FC02C010E001C010E2C101BC
:101D50008C709070892BB9F1112311F483E001C0CC
:101D600084E0881510F088240AC0881AF3FC07C0A4
:101D700080E290E0B3010E9416188A94C9F71123FB
:101D800029F0812F90E0B3010E94161823FE03C0B2
:101D900000E710E00EC004E710E00BC0E114F1040E
:101DA00009F0805290E0B3010E9416180F5F1F4F98
:101DB00005C0EF2CFF24F0E1EF22FF24F80184910D
:101DC000882361F714C1F7FE12C0BC0C24FE04C0C6
:101DD0008A81813309F4BA941B141CF0BB24B39498
:101DE0002DC0F8E0FB1550F538E0B32E27C0F6FC07
:101DF00025C0892D90E08C159D054CF02CEFC21666
:101E00002FEFD20624F030E8F32A01C09A949920EB
:101E100049F0E2E0F0E0EC0FFD1FE90DF11D8081DB
:101E20008033A1F3F7FE0AC0B92CB394892D90E05A
:101E3000C816D90614F0992401C09C18F7FC03C0F9
:101E400025E030E009C01C141D041CF021E030E046
:101E500003C096012F5F3F4F112311F02F5F3F4FBB
:101E6000992029F0892D90E00196280F391F882D9F
:101E700090E02817390714F0882401C0821A4F2CEB
:101E80005524C20189709070892B39F008C080E216
:101E900090E0B3010E9416188A948820C1F711239C
:101EA00029F0812F90E0B3010E94161843FE07C06D
:101EB00008C080E390E0B3010E9416188A9488203D
:101EC000C1F7F7FE46C08601D7FE02C000E010E071
:101ED00076010894E11CF11CE01AF10A41E050E09F
:101EE0004C0F5D1FE40EF51E26014B185108892D7D
:101EF00090E0AA24BB24A81AB90A5FEF0F3F150788
:101F000029F48EE290E0B3010E941618C016D106A3
:101F100034F0401651061CF4F701808101C080E3C3
:101F2000015010400894E11CF11C0A151B052CF00F
:101F300090E0B3010E941618E0CF0C151D0539F48E
:101F40009A81963318F4953311F424FE81E390E0DE
:101F50004BC08A81813309F00F7E90E0B3010E946B
:101F600016189920A1F08EE290E0B3010E94161895
:101F700012E0E1E0F0E0EC0FFD1FE10FF11D1F5F4B
:101F8000808190E0B3010E9416189A9491F744FC66
:101F900003C085E690E002C085E490E0B3010E94B2
:101FA0001618D7FC05C0C114D10441F404FF06C0C3
:101FB000D094C194D108D3948DE201C08BE290E01B
:101FC000B3010E94161880E305C08F5F26EF3FEF34
:101FD000C20ED31E3AE0C316D104BCF790E0B301A1
:101FE0000E941618C601C096B3010E941618CC8430
:101FF000DD8452C1933631F0933799F0933509F06F
:1020000059C023C0F601808189835E010894A11C18
:10201000B11C22E030E0C20ED31E21E0E22EF12CF2
:1020200012C0F601A080B18016FD03C06FEF7FEFF4
:1020300002C0692D70E022E030E0C20ED31EC5015F
:102040000E94B5177C011F7713C0F601A080B180F4
:1020500016FD03C06FEF7FEF02C0692D70E022E034
:1020600030E0C20ED31EC5010E94AA177C01106881
:1020700013FF07C01BC080E290E0B3010E94161856
:102080008A94882D90E0E816F906A8F30FC0F501B0
:1020900017FD859117FF81915F0190E0B3010E94C8
:1020A000161881108A940894E108F108E114F104EB
:1020B00071F7F2C0943611F0993689F517FF08C010
:1020C000F601208131814281538184E090E00AC091
:1020D000F601808191819C01442737FD4095542F62
:1020E00082E090E0C80ED91E9FE6F92EF12257FF3C
:1020F00009C050954095309521953F4F4F4F5F4F08
:1021000090E8F92ACA01B901AE014F5F5F4F2AE09A
:1021100030E00E94BD18E82EE889EE1A41C09537DC
:1021200021F41F7E2AE030E01CC0197F9F3661F049
:10213000903720F4983509F0B2C00FC0903739F0CD
:10214000983709F0ACC004C028E030E00AC0106144
:1021500014FD146020E130E004C014FD166020E19D
:1021600032E017FF08C0F60160817181828193819E
:1021700044E050E008C0F60180819181BC0180E01C
:1021800090E042E050E0C40ED51EAE014F5F5F4FBD
:102190000E94BD18E82E5889E51A8FE7F82EF12223
:1021A000F6FE0BC08EEFF822E91438F4F4FE07C0F7
:1021B000F2FC05C09FEEF92202C01E2D01C0192DB0
:1021C000F4FE0DC0FE01EE0DF11D8081803319F487
:1021D000E9EEFE2208C01F5FF2FE05C003C08F2D8E
:1021E000867809F01F5F0F2DF3FC14C0F0FE0FC0BE
:1021F000181510F09E2C0BC09E2C980C911A182DBF
:1022000006C080E290E0B3010E9416181F5F181507
:10221000C0F304C0181510F4811A01C0882404FF0B
:102220000FC080E390E0B3010E94161802FF1DC0AA
:1022300001FD03C088E790E00EC088E590E00BC088
:10224000802F867891F001FF02C08BE201C080E20E
:10225000F7FC8DE290E0B3010E94161806C080E3FF
:1022600090E0B3010E9416189A94E914C0F3EA941E
:10227000E1E0F0E0EC0FFD1FEE0DF11D808190E03C
:10228000B3010E941618EE2091F706C080E290E09C
:10229000B3010E9416188A948820C1F799CCF301E3
:1022A00066817781CB016196E2E10C949C16FC017A
:1022B00020FD08C023FD05C022FF02C07383628396
:1022C000518340830895EF92FF920F931F9344FF31
:1022D00002C033E011C046FF02C034E00DC0DB0194
:1022E000FC01AA0FBB1FEE1FFF1F1094D1F76A0F4E
:1022F0007B1F8E1F9F1F31E0660F771F881F991F5E
:102300003150D1F77B018C01E20EF11C011D111D32
:10231000A8019701B701CA011F910F91FF90EF909B
:1023200008950F931F93CF93DF938C01C8010E94F0
:10233000C017EC0197FD08C00E948F17892BB1F7D9
:10234000CE01B8010E94A318CE01DF91CF911F9159
:102350000F9108958F929F92AF92BF92DF92EF926A
:10236000FF920F931F93CF93DF935C01EB014A0120
:10237000122F0E94C017AC018B3219F08D3251F42C
:102380001068219709F46DC0C5010E94C017AC0107
:1023900097FD67C06DEFD62ED1228D2D807301F58C
:1023A0004033F1F4219709F447C0C5010E94C017DA
:1023B000AC0197FD41C082E0D82A483711F048357A
:1023C00059F480E4D82A2197B9F1C5010E94C017B9
:1023D000AC0199232CF430C0D6FC02C080E1D82A8D
:1023E000EE24FF248701242F2053283088F0D4FCCA
:1023F00009C02A3068F0D6FE05C02F7D822F81519A
:10240000863028F0CA01B5010E94A31812C02750D7
:10241000C801B7014D2D0E9463117B018C0182E040
:10242000D82A219761F0C5010E94C017AC0197FF1F
:10243000DACFD1FC04C015C0EE24FF248701D7FEFB
:1024400008C010950095F094E094E11CF11C011D6A
:10245000111DC401B801A7012D2D0E94571181E063
:1024600001C080E0DF91CF911F910F91FF90EF901D
:10247000DF90BF90AF909F908F900895A0E2B0E062
:10248000E4E4F2E10C9484165C016B018A017901A9
:10249000FE01319680E2DF011D928A95E9F770E036
:1024A00030E060E040E050E03F01A1E0B0E0F50145
:1024B0008381F70183FD259183FF21917F012223F1
:1024C00009F481C02E3519F44115510569F1872FA2
:1024D00090E08417950744F42D3551F12D3221F405
:1024E000332329F431E021C0332309F4622F322F42
:1024F000832F869586958695F301E80FF11D832F2E
:1025000087704D0102C0880C991C8A95E2F72081E2
:1025100028292083361711F430E007C0361710F44D
:102520003F5FE6CF3150E4CF71E04F5F5F4FBFCFE9
:10253000332319F08E8180628E83772359F0FE0158
:1025400031969E012F5D3F4F808180958193E217E8
:10255000F307D1F7992493943E010894611C711CF0
:10256000C5010E94C017AC0197FD25C086958695D0
:102570008695F301E80FF11D808190E09A012770A4
:10258000307002C0959587952A95E2F780FD05C0C9
:10259000CA01B5010E94A3180EC00115110519F05A
:1025A000D8014D938D010894C108D1089924C11414
:1025B000D104B1F602C0992031F40115110529F0BA
:1025C000F801108202C0EE24FF24C701A096EEE0BD
:1025D0000C94A0162F923F925F926F927F928F92EF
:1025E0009F92AF92BF92CF92DF92EF92FF920F93A2
:1025F0001F93CF93DF933C017B011A010E94C01708
:10260000EC018B3239F08D3211F0552411C0B0E855
:102610005B2E01C055240894E108F108E114F1048F
:1026200009F418C1C3010E94C017EC0197FD12C143
:10263000CE010E9497178936910521F08E369105BB
:1026400099F51DC00DE810E01CC00894E108F108E0
:10265000E114F10471F0C3010E94C017EC0197FD71
:1026600008C00E949717D81661F0CE01B3010E94EE
:10267000A31820E00039120709F0ECC008C00AE8EE
:1026800010E0F8010F5F1F4FD490DD20F1F60D58D8
:10269000104029F080E090E0A0E8BFE7CFC080E0E4
:1026A00090E0A0ECBFE7CAC0CC24DD2488249924A4
:1026B0005401AE014053242F4A3038F552E0552AD8
:1026C000852D90E0AC014870507052FE06C0452B3D
:1026D00011F50894C11CD11C1EC0452B19F008949B
:1026E000C108D108C501B40140E20E9463114B0149
:1026F0005C0188E9881689E9980689E9A80689E1D4
:10270000B80648F094E0592A06C04E3F81F453FCC5
:102710000EC0E8E05E2A0894E108F108E114F10433
:1027200031F0C3010E94C017EC0197FFC2CF51FEE8
:1027300091C0C53619F0C53409F046C00894E108C7
:10274000F108E114F10409F485C0C3010E94C01727
:10275000EC0197FD7FC08B3221F08D3269F4F0E1FE
:102760005F2A0894E108F108E114F10409F472C049
:10277000C3010E94C017EC01CE01C0970A9708F070
:1027800069C000E010E0B801882777FD8095982F98
:10279000AE014053242F40E20E9463118B01089444
:1027A000E108F108E114F10439F0C3010E94C017F7
:1027B000EC01C0970A9738F3B80154FE03C0709536
:1027C00061957F4FC60ED71EEF2831F0D7FD04C0AC
:1027D000CE01B3010E94A318C501B4010E9468157F
:1027E000D7FE0DC0A9EAEA2EA0E0FA2ED094C1943B
:1027F000D108D394C0E2D0E000E010E00EC0F1ECCC
:10280000EF2EF0E0FF2EF6CFF7012591359145919F
:1028100054910E94A515CC1ADD0ACC16DD06A0F74E
:10282000D695C7950F5F1F4F0630110529F0ECEFC5
:10283000FFEFEE0EFF1EF1CFDC01CB0157FCB058CD
:102840002114310429F0F10180839183A283B383A1
:1028500081E001C080E0DF91CF911F910F91FF9047
:10286000EF90DF90CF90BF90AF909F908F907F9030
:102870006F905F903F902F900895A0E0B0E0E3E468
:10288000F4E10C9483164C015B013A01FC011782C0
:102890001682552404C1812F90E00E948F17892B46
:1028A00021F0C4010E949111FAC0153249F4F501DA
:1028B000F3FC6591F3FE61915F01653269F415E205
:1028C000C4010E94C01797FDF6C0181709F4E7C0AD
:1028D000B4010E94A318F4C06A3219F0162F00E068
:1028E00006C0F3FC1591F3FE11915F0101E0CC24C9
:1028F000DD240EC00260B60180E090E040E20E945C
:1029000063116B01F501F3FC1591F3FE11915F0169
:10291000212F20532A3070F301FD04C0CC24CA9427
:10292000DC2C04C0C114D10409F4CAC0183621F04B
:102930001C3699F4F5010BC0F501F3FC6591F3FE2B
:102940006191683619F05F01162F07C008600460B6
:10295000F3FC1591F3FE11915F01112309F4B0C04E
:1029600088E790E0612F70E00E949F17892B09F49F
:10297000A7C0802F00FF03C0EE24FF2407C0F3018F
:10298000E080F18022E030E0620E731E1E3651F4CA
:10299000F4014681578160E070E0C701202F0E945A
:1029A00057117DC01336B9F481FD03C081E0C82EF4
:1029B000D12CC4010E94C01797FD7DC0E114F10421
:1029C00019F0F70181937F010894C108D108C1145F
:1029D000D10479F762C01B3559F4C401B601A701CF
:1029E00095010E943E125C01009709F056C050C04C
:1029F000C4010E94911197FD5EC01F36D1F11037BE
:102A000038F41436A1F11936A9F11835D1F52DC0D5
:102A1000133751F0143718F4103799F526C01537CD
:102A200031F1183771F521C0C4010E94C017EC01C3
:102A300097FD15C00E948F17892B29F0CE01B40194
:102A40000E94A3180CC0E114F10419F0F701C1931E
:102A50007F010894C108D108C114D10429F7E114F9
:102A6000F104D9F0F701108218C0006403C00062BD
:102A700001C00061C401B601A701202F0E94AA1164
:102A800005C0C401B601A7010E94EA12882329F4F7
:102A9000F4018381807379F413C000FF5394F4012F
:102AA000F380F501F3FC1591F3FE11915F01112301
:102AB00009F0F1CE05C0552019F42FEF3FEF02C009
:102AC000252D30E0C901CDB7DEB7EFE00C949F169D
:102AD000E89409C097FB3EF49095809570956195B8
:102AE0007F4F8F4F9F4F9923A9F0F92F96E9BB276E
:102AF0009395F695879577956795B795F111F8CFEA
:102B0000FAF4BB0F11F460FF1BC06F5F7F4F8F4F54
:102B10009F4F16C0882311F096E911C0772321F04A
:102B20009EE8872F762F05C0662371F096E8862FE2
:102B300070E060E02AF09A95660F771F881FDAF739
:102B4000880F9695879597F908950BD078C069D02E
:102B500028F06ED018F0952309F05AC05FC01124F8
:102B6000A2C07ED0A0F3959FD1F3950F50E0551FE2
:102B7000629FF001729FBB27F00DB11D639FAA27D2
:102B8000F00DB11DAA1F649F6627B00DA11D661F21
:102B9000829F2227B00DA11D621F739FB00DA11D42
:102BA000621F839FA00D611D221F749F3327A00DFC
:102BB000611D231F849F600D211D822F762F6A2F98
:102BC00011249F5750408AF0E1F088234AF0EE0F1D
:102BD000FF1FBB1F661F771F881F91505040A9F72A
:102BE0009E3F510570F014C05EC05F3FECF3983E0D
:102BF000DCF3869577956795B795F795E7959F5F91
:102C0000C1F7FE2B880F911D9695879597F908952A
:102C100097F99F6780E870E060E008959FEF80EC8F
:102C2000089500240A941616170618060906089532
:102C300000240A9412161306140605060895092E98
:102C40000394000C11F4882352F0BB0F40F4BF2B07
:102C500011F460FF04C06F5F7F4F8F4F9F4F089547
:102C600057FD9058440F551F59F05F3F71F047953D
:102C7000880F97FB991F61F09F3F79F08795089522
:102C8000121613061406551FF2CF4695F1DF08C041
:102C9000161617061806991FF1CF8695710561055E
:102CA00008940895E894BB2766277727CB0197F906
:102CB0000895AA1BBB1B51E107C0AA1FBB1FA61783
:102CC000B70710F0A61BB70B881F991F5A95A9F7D5
:102CD00080959095BC01CD01089597FB092E07269C
:102CE0000AD077FD04D0E5DF06D000201AF47095F5
:102CF00061957F4F0895F6F7909581959F4F0895C0
:102D00002F923F924F925F926F927F928F929F92FB
:102D1000AF92BF92CF92DF92EF92FF920F931F93E9
:102D2000CF93DF93CDB7DEB7CA1BDB0B0FB6F8949A
:102D3000DEBF0FBECDBF09942A88398848885F84DA
:102D40006E847D848C849B84AA84B984C884DF804B
:102D5000EE80FD800C811B81AA81B981CE0FD11D2F
:102D60000FB6F894DEBF0FBECDBFED010895283039
:102D700008F027E03327DA01990F311D87FD9160B4
:102D800000966105710539F432602E5F3D9330E3A2
:102D90002A95E1F708959F3F30F08038710561056D
:102DA00009F03C5F3C5F3D93913008F08068911DD5
:102DB000DF93CF931F930F93FF92EF92192F987F7A
:102DC0009695E92F96959695E90FFF27E15AFE4FC4
:102DD00099273327EE24FF24A701E70105900894E3
:102DE000079428F4360FE71EF81E491F511D660F81
:102DF000771F881F991F0694A1F70590079428F460
:102E0000E70EF81E491F561FC11D770F881F991F17
:102E1000661F0694A1F70590079428F4F80E491F41
:102E2000561FC71FD11D880F991F661F771F069455
:102E3000A1F70590079420F4490F561FC71FD81F0C
:102E4000990F661F771F881F0694A9F78491109524
:102E5000177041F0D695C79557954795F794E79425
:102E60001A95C1F7E5E0F1E0689415901591359158
:102E70006591959105907FE27395E118F10A430BF6
:102E8000560BC90BD009C0F7E10CF11E431F561FAA
:102E9000C91FD01D7EF4703311F48A95E6CFE894F3
:102EA000015030F0080F0AF40027021708F4202F11
:102EB0002395022F7A3328F079E37D932A95E9F759
:102EC00010C07D932A9589F6069497956795379556
:102ED00017951794E118F10A430B560BC90BD0094B
:102EE00098F023957E9173957A3308F070E37C9384
:102EF0002013B8F77E9170617D9330F0839571E374
:102F00007D9370E32A95E1F71124EF90FF900F91E4
:102F10001F91CF91DF91992787FD90950895911189
:102F20008AC1803219F089508550D0F708959111E7
:102F3000089581548A5108F4805E855A0895FC01F1
:102F40000590061621F00020D9F7C00108953197A9
:102F5000CF010895FC010590615070400110D8F731
:102F6000809590958E0F9F1F0895FC0161507040D1
:102F700001900110D8F7809590958E0F9F1F0895AE
:102F8000CF93DF93EC014B8140FF1AC046FF0AC08C
:102F90004F7B4B838E819F8101969F838E838A8195
:102FA000282F2BC042FF13C0E881F9818081282F90
:102FB000332727FD30952115310529F440624B83D5
:102FC0002FEF3FEF1BC03196F983E88311C0EA85EC
:102FD000FB85CE0109959C0197FF0AC09B812F5F5D
:102FE0003F4F11F080E201C080E1892B8B83E8CF55
:102FF0008E819F8101969F838E8330E0C901DF918E
:10300000CF910895A0E0B0E0E8E0F8E10C949016CC
:103010009E01275F3F4F8D819E816F817885A90139
:103020000E94D00D2096E2E00C94AC160F931F93F3
:10303000CF93DF938C01EB018B8181FF1BC082FF5B
:103040000DC02E813F818C819D812817390764F442
:10305000E881F9810193F983E88306C0E885F98561
:10306000802F0995892B31F48E819F8101969F8352
:103070008E8302C00FEF1FEFC801DF91CF911F9128
:103080000F910895EF92FF920F931F93CF93DF93C9
:103090007C018B01DB0113968C9181FD03C0CFEF86
:1030A000DFEF13C0C0E0D0E00BC0D8011896ED915F
:1030B000FC911997B8010995892B11F0CFEFDFEF3B
:1030C000F70181917F01882381F7CE01CDB7DEB76B
:1030D000E6E00C94A816A0E0B0E0E1E7F8E10C947B
:1030E00090169E01275F3F4F8D819E816F8178856D
:1030F000A9010E943D142096E2E00C94AC16AEE0CB
:10310000B0E0E5E8F8E10C948E160D891E8986E0A2
:103110008C831A8309838FEF9FE79E838D839E01A3
:10312000275E3F4FCE0101966F89788DA9010E94DD
:10313000D00D2F813885020F131FF80110822E96B3
:10314000E4E00C94AA169C01FB01838180FF11C06E
:1031500086FD0FC09FEF2F3F390759F0228380640F
:103160008F7D83838681978101979783868330E063
:1031700002C02FEF3FEFC9010895FA01AA272830B6
:1031800051F1203181F1E8946F936E7F6E5F7F4F34
:103190008F4F9F4FAF4FB1E03ED0B4E03CD0670FB0
:1031A000781F891F9A1FA11D680F791F8A1F911D03
:1031B000A11D6A0F711D811D911DA11D20D009F453
:1031C00068943F912AE0269F11243019305D319395
:1031D000DEF6CF010895462F4770405D4193B3E07E
:1031E0000FD0C9F7F6CF462F4F70405D4A3318F025
:1031F000495D31FD4052419302D0A9F7EACFB4E0D6
:10320000A6959795879577956795BA95C9F700978D
:103210006105710508959B01AC010A2E069457952E
:10322000479537952795BA95C9F7620F731F841F85
:10323000951FA01D0895992788270895F894FFCF1A
:103240000A0D205452542039666562323030390AF2
:103250000D0A0D0025690025660053504545443A86
:1032600020000052504D00002573256600436D6418
:103270002069732025630A0056616C20697320253C
:10328000660A005374617274696E67202D2053655D
:103290007474696E672073706565640A00456E64B6
:1032A000696E67202D2053657474696E6720737092
:1032B0006565640A005374617274696E67202D201D
:1032C00053657474696E6720700A00456E64696E98
:1032D00067202D2053657474696E6720700A00534F
:1032E00074617274696E67202D2053657474696E01
:1032F0006720690A00456E64696E67202D2053655A
:103300007474696E6720690A005374617274696E1F
:1033100067202D2053657474696E6720640A004528
:103320006E64696E67202D2053657474696E672022
:10333000640A00436F6D6D616E64202563206E6FBB
:1033400074207265636F676E697A65640A00506104
:1033500072616D6574657273206D7573742062653A
:10336000206E6F6E206E656761746976652C20250E
:1033700066206973206E656761746976650A00006E
:10338000000003000000005004A5040000000080BD
:0E3390003F0000803F0000803F010001000070
:00000001FF
