:100000000C943E000C945B000C945B000C945B0021
:100010000C945B000C945B000C945B000C945B00F4
:100020000C945B000C945B000C945B000C945B00E4
:100030000C945B000C945D000C945B000C945B00D2
:100040000C945B000C945B000C945B000C945B00C4
:100050000C94BA030C944A030C945B000C945B0060
:100060000C945B000C945B000C945B000C945B00A4
:100070006364696E6F70737578585B0011241FBEDE
:10008000CFEFD0E1DEBFCDBF11E0A0E0B1E0E4E50D
:10009000F9E102C005900D92A036B107D9F712E040
:1000A000A0E6B1E001C01D92A83EB107E1F70E94B1
:1000B000E7040C94A80C0C9400001F920F920FB64A
:1000C0000F9211242F923F924F925F926F927F92E4
:1000D0008F929F92AF92BF92CF92DF92EF92FF9258
:1000E0000F931F932F933F934F935F936F937F9340
:1000F0008F939F93AF93BF93CF93DF93EF93FF9330
:1001000010926F0050908C02B09B14C08091CD0271
:100110009091CE02A091CF02B091D0020196A11D84
:10012000B11D8093CD029093CE02A093CF02B093E5
:10013000D002B09A80918400909185003C0188247F
:1001400099248091CD029091CE02A091CF02B091DE
:10015000D002DC0199278827680E791E8A1E9B1E13
:1001600040908B0270E061E0FFEFAF2EFFEFBF2EFB
:10017000FFEFCF2EFFE7DF2EEBE02E2E332433945C
:10018000CBE0D0E043C0629DD0011124A357BD4F06
:100190001A968C911A978230A1F41296ED90FD90E8
:1001A0000D911C9115976E147F048006910620F026
:1001B0001A963C921A9705C0EA14FB040C051D051B
:1001C00010F0860175011A968C911A978130D9F436
:1001D000872F90E08C9FF0018D9FF00D9C9FF00D7C
:1001E0001124E557FD4F16962D913D914D915C914F
:1001F000199780859185A285B385281739074A0705
:100200005B0708F4762F6F5F57016801461608F008
:10021000BACF7515B1F0EBE05E9ED0011124A35763
:10022000BD4F8DB78C938EB711968C937E9FF00146
:100230001124E357FD4F81818EBF80818DBF709364
:100240008C02A092D102B092D202C092D302D0927C
:10025000D402209184003091850040E050E08091EC
:10026000CD029091CE02A091CF02B091D002DC01DC
:1002700099278827280F391F4A1F5B1FD601C50100
:10028000821B930BA40BB50B9C01AD01843091052F
:10029000A105B10524F424E030E040E050E0809175
:1002A000840090918500A0E0B0E0820F931FA41F0E
:1002B000B51F80509040A140B04038F48091840038
:1002C00090918500820F931F0EC0809184009091C1
:1002D00085008C5F9F4F28F410928900109288004F
:1002E00006C084E090E0909389008093880082E0CB
:1002F00080936F00FF91EF91DF91CF91BF91AF910C
:100300009F918F917F916F915F914F913F912F912D
:100310001F910F91FF90EF90DF90CF90BF90AF9023
:100320009F908F907F906F905F904F903F902F9015
:100330000F900FBE0F901F9018951092850010928D
:1003400084001092800025E02093810022E0209319
:100350006F002FEF30E1281B390B3093CC02209334
:10036000CB0210928B0210928C021092CD0210924E
:10037000CE021092CF021092D0028FEF9FEFAFEF1C
:10038000BFE78093D1029093D202A093D302B0939F
:10039000D4028093930290939402A0939502B09319
:1003A000960210928F021092900210929102109277
:1003B0009202789408958F929F92AF92BF92CF92BB
:1003C000DF92EF92FF920F931F93CF93DF93490138
:1003D0005A01F89420918B022F5F20938B02C091D9
:1003E000CB02D091CC029E01261B370B3093CC025E
:1003F0002093CB028883FE0192933197DF01CE01D7
:100400004B971C921197A817B907D9F77997C08213
:10041000D2923197DF019E01235230401C921197F6
:10042000A217B307D9F79F0126503040E0918B0205
:100430008BE0E89FF0011124E357FD4F8282938205
:10044000A482B582E682F7820087118782E08287E4
:10045000208331830E945D00DF91CF911F910F9126
:10046000FF90EF90DF90CF90BF90AF909F908F90D4
:100470000895F894EBE8F2E0E80FF11D60AF78948E
:100480000895482F20918C02F894E82FF0E0ED5366
:10049000FD4F8081882319F08150808310C030E0A7
:1004A0008BE090E0289FF001299FF00D389FF00D20
:1004B0001124E357FD4F4E5F42870E945D00789400
:1004C0000895FF920F931F93182FF89400918B02B9
:1004D000E1E04FEF5FEF6FEF7FEFF0E08BE0F82EA2
:1004E000212F30E02E5F3F4F1EC0EF9DD001112421
:1004F000A357BD4F1A968C911A9790E082179307D5
:1005000069F416968D919D910D90BC91A02D481780
:1005100059076A077B0710F0FE2F02C0DB01CA01F2
:10052000EF5FAC01BD010E1700F7FF2341F4E12F8F
:10053000F0E0E657FD4F81AD8F5F81AF11C02F2FE7
:1005400030E08BE090E0289FF001299FF00D389F6C
:10055000F00D1124E557FD4F81E084870E945D0076
:1005600078941F910F91FF9008952091840030910D
:10057000850040E050E08091CD029091CE02A091A4
:10058000CF02B091D002DC0199278827280F391FAC
:100590004A1F5B1FB901CA010895E0918C02ABE0CC
:1005A000EA9FF0011124E357FD4FF894A2E0A287DF
:1005B000628373838483958326833783408751873F
:1005C0000E945D00089580918C0290E02BE030E065
:1005D000829FF001839FF00D929FF00D1124E5574B
:1005E000FD4FDF011496648111967C91119712964C
:1005F0008C91129713969C91089580918C0290E0B3
:100600002BE030E0829FF001839FF00D929FF00D70
:100610001124E557FD4FDF011896608511967C91F6
:10062000119712968C91129713969C910895F894B5
:1006300080918C0290E02BE030E0829FF001839F5C
:10064000F00D929FF00D1124E557FD4F14860E9486
:100650005D000895F894E82FF0E0ED53FD4F8081A0
:10066000882319F0815080838F5F7894089587E6FE
:100670008093C400E1ECF0E088E180831092B30144
:100680001092B2011092B5011092B401808180687D
:10069000808308951F920F920FB60F9211242F930B
:1006A0003F938F939F93EF93FF932091B2013091EB
:1006B000B3018091B4019091B5012817390731F445
:1006C0008091C1008F7D8093C1001DC0E091B40175
:1006D000F091B501EA54FE4F80818093C60080916D
:1006E000B4019091B50101969093B5018093B40146
:1006F0008091B4019091B501883C910521F410924C
:10070000B5011092B401FF91EF919F918F913F91AC
:100710002F910F900FBE0F901F9018951F93182FB9
:100720008A3019F48DE00E948E038091B20190917D
:10073000B3018F5F883C09F480E0E091B201F09151
:10074000B301EA54FE4F1083282F30E08091B401AA
:100750009091B50128173907C9F33093B30120935D
:10076000B2018091C10080628093C10080E090E07E
:100770001F9108951F920F920FB60F9211242F937D
:100780003F934F935F936F937F938F939F93AF9319
:10079000BF93EF93FF938091C6008093E10281E0C5
:1007A0000E946102FF91EF91BF91AF919F918F9154
:1007B0007F916F915F914F913F912F910F900FBE5D
:1007C0000F901F901895EF92FF920F931F93CF9366
:1007D000DF937C018091600190916101892B09F088
:1007E000A1C002E611E081E00E9441028091C000B8
:1007F00084FF03C02EEF3FEFA9C08091C00083FDAE
:10080000A3C09091E1029D3011F09A3081F48AE00A
:10081000F8018083B7010E948E0382E691E09093F5
:1008200061018093600182E00E9461027BC0993087
:1008300009F490E2892F80528F3510F0903A70F0D1
:10084000F1E0013B1F0711F487E004C0F801919328
:100850008F01892FB7010E948E03C5CF923139F1E4
:10086000933138F4933009F46FC0983009F0BBCF5E
:1008700009C0973109F44BC09F3721F0953109F039
:10088000B2CF32C0F1E002361F0709F008F4ABCF57
:1008900088E0B7010E948E0380E2B7010E948E03B8
:1008A00088E0B7010E948E03015010409CCF8DE07C
:1008B000B7010E948E03C2E6D1E004C08991B7015E
:1008C0000E948E03C017D107C8F38DCF88E0B7010F
:1008D0000E948E0380E2B7010E948E0388E0B70178
:1008E0000E948E030150104081E00236180709F083
:1008F00068F779CF88E0B7010E948E0380E2B701E4
:100900000E948E0388E0B7010E948E038E01E1E011
:1009100002361E0709F008F466CFE8018A9180329A
:1009200049F761CFE0916001F09161018191F0930D
:100930006101E09360018A3021F41092610110920C
:100940006001282F30E002C02FEF3FEFC901DF9197
:10095000CF911F910F91FF90EF900895EF92FF922A
:100960000F931F93CF93DF93C0E9D1E088EE93E01C
:10097000FE013197F1F70197D9F72091CD0230911F
:10098000CE024091CF025091D002A90133272227F5
:100990006091840070918500E0908400F090850063
:1009A00080E090E0620F731F841F951F665E794F91
:1009B0008F4F9F4F00E010E02E0D3F1D401F511F35
:1009C0002B5C334F4F4F5F4F0E94CD02CFCFCF9262
:1009D000DF92EF92FF920F931F930E94370362E51D
:1009E00071E07093E7026093E6027093E302609314
:1009F000E2027093E5026093E40280E091E00E94DD
:100A0000DC0680E590E00E949D01F8941092C402FB
:100A10007894F8941092C5027894F89481E08093C9
:100A2000C602789487EA95E068EC70E02DE033E048
:100A300040E050E0BDE0EB2EB3E0FB2E012D112D88
:100A4000AEE7CA2EA2E0DA2E0E94DB0186E296E033
:100A500068EC70E02AE136E040E050E0FAE1EF2E89
:100A6000F6E0FF2E012D112DE0E8CE2EE2E0DE2E85
:100A70000E94DB018EEA94E068EC70E02AE136E047
:100A800040E050E00E94DB0183B7817F83BF83B7E2
:100A9000816083BF8895FECFEF92FF920F931F93E3
:100AA0007A018B0190E00E949406282F833749F445
:100AB000E092D902F092DA020093DB021093DC029A
:100AC00041C0803749F4E092DD02F092DE020093EB
:100AD000DF021093E00236C0893649F4E0928702C3
:100AE000F09288020093890210938A022BC0843608
:100AF00049F4E0928202F092830200938402109300
:100B0000850220C000D000D000D0EDB7FEB73196EE
:100B10008091E4029091E502ADB7BEB712969C9326
:100B20008E93119784E191E09383828324831582CD
:100B30000E949C068DB79EB706960FB6F8949EBF8E
:100B40000FBE8DBF1F910F91FF90EF900895CF9230
:100B5000DF92EF92FF920F931F93CF93DF938FEF6C
:100B600087B988B981E081B9DD24CC24C394CDE272
:100B7000D1E082B18C2582B913B1109583E00E9437
:100B8000410280918602812B80938602809588B9EC
:100B900083E00E946102DD2049F5112369F120E024
:100BA00002C016952F5F1130E1F700D000D000D0C1
:100BB000EDB7FEB731968091E4029091E502ADB7B2
:100BC000BEB712969C938E931197D383C2832483CE
:100BD00015820E949C06DD24D3948DB79EB706969D
:100BE0000FB6F8949EBF0FBE8DBF06C091E0D91618
:100BF00019F4112309F4DD242091CD023091CE02A5
:100C00004091CF025091D002A90133272227609151
:100C1000840070918500E0908400F090850080E071
:100C200090E0620F731F841F951F64567F4F8F4F94
:100C30009F4F00E010E02E0D3F1D401F511F245616
:100C40003F4F4F4F5F4F0E94CD0293CFAF92BF9265
:100C5000CF92DF92EF92FF920F931F93DF93CF9388
:100C600000D00F92CDB7DEB781E4A82E81E0B82E78
:100C70006E010894C11CD11C02E0E02EF12CEC0E98
:100C8000FD1E07E411E06091E4027091E5028EE33D
:100C900090E00E94B0068DB79EB708970FB6F89403
:100CA0009EBF0FBE8DBFEDB7FEB731968091E202B9
:100CB0009091E302ADB7BEB712969C938E931197B5
:100CC000B382A282D582C482F782E6820E9405079F
:100CD0008DB79EB708960FB6F8949EBF0FBE8DBF16
:100CE0008981813681F600D000D000D0EDB7FEB703
:100CF00031968091E4029091E502ADB7BEB71296AD
:100D00009C938E931197138302838A819B81958391
:100D100084830E949C068DB79EB706960FB6F89402
:100D20009EBF0FBE8DBFAFCF9111089581548A51E0
:100D300008F4805E855A0895A0E0B0E0E2EAF6E0AB
:100D40000C94810C9E01275F3F4F8D819E816F81A6
:100D50007885A9010E9419072096E2E00C949D0C69
:100D60000F931F93CF93DF938C01EB018B8181FF56
:100D70001BC082FF0DC02E813F818C819D81281771
:100D8000390764F4E881F9810193F983E88306C0A7
:100D9000E885F985802F0995892B31F48E819F8113
:100DA00001969F838E8302C00FEF1FEFC801DF9172
:100DB000CF911F910F910895EF92FF920F931F9380
:100DC000CF93DF937C018B01DB0113968C9181FD26
:100DD00003C0CFEFDFEF13C0C0E0D0E00BC0D801FD
:100DE0001896ED91FC911997B8010995892B11F08E
:100DF000CFEFDFEFF70181917F01882381F7CE01EB
:100E0000CDB7DEB7E6E00C94990CA0E0B0E0EBE0E3
:100E1000F7E00C94810C9E01275F3F4F8D819E81EE
:100E20006F817885A9010E947A0A2096E2E00C94ED
:100E30009D0CABE0B0E0EFE1F7E00C94710C3C01ED
:100E40002B015A01FC0117821682838181FD03C0A8
:100E50006FEF7FEFC6C19AE0892E1E010894211C16
:100E6000311CF3012381F20123FD859123FF819140
:100E70002F01882309F4B2C1853239F423FD85910D
:100E800023FF81912F01853229F490E0B3010E9464
:100E9000B006E7CF982FFF24EE249924FFE1FF1539
:100EA000D0F09B3269F09C3228F4903259F09332A2
:100EB00091F40EC09D3249F0903369F441E024C0B2
:100EC00052E0F52A84E0F82A28C098E0F92A25C0E3
:100ED000E0E1FE2A22C0F7FC29C0892F80538A3026
:100EE00070F4F6FE05C0989C902C1124980E15C045
:100EF000E89CE02C1124E80EF0E2FF2A0EC09E329E
:100F000029F4F6FC6BC140E4F42A07C09C3619F4BE
:100F100050E8F52A02C0983649F4F20123FD959174
:100F200023FF91912F01992309F0B8CF892F855480
:100F3000833018F08052833038F444E050E0A40E3F
:100F4000B51E5FE359830FC0933631F0933779F0C4
:100F5000933509F056C020C0F5018081898342E0B5
:100F600050E0A40EB51E610101E010E012C0F501D1
:100F7000C080D180F6FC03C06FEF7FEF02C0692D07
:100F800070E042E050E0A40EB51EC6010E94A90B1D
:100F90008C015FE7F52214C0F501C080D180F6FC1A
:100FA00003C06FEF7FEF02C0692D70E042E050E0B8
:100FB000A40EB51EC6010E949E0B8C0150E8F52AB6
:100FC000F3FE07C01AC080E290E0B3010E94B006B1
:100FD000EA948E2D90E008171907A8F30EC0F601C9
:100FE000F7FC8591F7FE81916F0190E0B3010E94BB
:100FF000B006E110EA94015010400115110579F78F
:10100000EAC0943611F0993669F5F7FE08C0F5018B
:10101000208131814281538184E090E00AC0F50152
:10102000808191819C01442737FD4095542F82E0B7
:1010300090E0A80EB91E9FE6F92257FF09C050950F
:101040004095309521953F4F4F4F5F4FE0E8FE2A86
:10105000CA01B901A1012AE030E00E94100CD82E8B
:10106000D21840C0953729F41F2D1F7E2AE030E0AA
:101070001DC01F2D197F9F3661F0903720F49835E1
:1010800009F0ACC00FC0903739F0983709F0A6C00E
:1010900004C028E030E00AC0106114FD146020E1B3
:1010A00030E004C014FD166020E132E017FF08C0F4
:1010B000F501608171818281938144E050E008C034
:1010C000F50180819181BC0180E090E042E050E038
:1010D000A40EB51EA1010E94100CD82ED2188FE7C5
:1010E000F82EF122F6FE0BC05EEFF522D91438F48B
:1010F000F4FE07C0F2FC05C08FEEF82202C01D2DE1
:1011000001C0192DF4FE0DC0FE01ED0DF11D808111
:10111000803319F499EEF92208C01F5FF2FE05C072
:1011200003C08F2D867809F01F5F0F2DF3FC14C0CC
:10113000F0FE0FC01E1510F09D2C0BC09D2C9E0CB8
:10114000911A1E2D06C080E290E0B3010E94B00605
:101150001F5F1E15C0F304C01E1510F4E11A01C074
:10116000EE2404FF0FC080E390E0B3010E94B006BC
:1011700002FF1DC001FD03C088E790E00EC088E5B6
:1011800090E00BC0802F867891F001FF02C08BE2C7
:1011900001C080E2F7FC8DE290E0B3010E94B0064E
:1011A00006C080E390E0B3010E94B0069A94D9147F
:1011B000C0F3DA94F101ED0DF11D808190E0B301EF
:1011C0000E94B006DD20A9F706C080E290E0B301DE
:1011D0000E94B006EA94EE20C1F743CEF301668187
:1011E0007781CB012B96E2E10C948D0CFC0120FD64
:1011F00008C023FD05C022FF02C0738362835183B0
:1012000040830895EF92FF920F931F9344FF02C013
:1012100033E011C046FF02C034E00DC0DB01FC0129
:10122000AA0FBB1FEE1FFF1F1094D1F76A0F7B1F81
:101230008E1F9F1F31E0660F771F881F991F315047
:10124000D1F77B018C01E20EF11C011D111DA801DB
:101250009701B701CA011F910F91FF90EF90089578
:101260000F931F93CF93DF938C01C8010E94B40B9F
:10127000EC0197FD08C00E948B0B892BB1F7CE01C2
:10128000B8010E94F60BCE01DF91CF911F910F9113
:101290000895A0E0B0E0EFE4F9E00C94790CEC01E3
:1012A000C62E5A01122F0E94B40BAC018B3219F0DA
:1012B0008D3251F41068CA9409F46DC0CE010E94B9
:1012C000B40BAC0197FD67C06DEFD62ED1228D2DEA
:1012D000807301F54033F1F4CA9409F447C0CE019C
:1012E0000E94B40BAC0197FD41C082E0D82A483778
:1012F00011F0483559F480E4D82ACA94B9F1CE01E6
:101300000E94B40BAC0199232CF430C0D6FC02C06F
:1013100080E1D82AEE24FF248701242F205328308F
:1013200088F0D4FC09C02A3068F0D6FE05C02F7DB5
:10133000822F8151863028F0CA01BE010E94F60B2F
:1013400012C02750C801B7014D2D0E9402097B0130
:101350008C0182E0D82ACA9461F0CE010E94B40BBD
:10136000AC0197FFDACFD1FC04C015C0EE24FF24F6
:101370008701D7FE08C010950095F094E094E11C19
:10138000F11C011D111DC501B801A7012D2D0E94E1
:10139000F60881E001C080E0CDB7DEB7EAE00C944A
:1013A000950CA0E2B0E0E7EDF9E00C94750C6C014F
:1013B000A62E8A017901FE01319680E2DF011D929D
:1013C0008A95E9F770E030E060E040E050E04F01DE
:1013D000A1E0B0E0F6018381F70183FD259183FF51
:1013E00021917F01222309F47EC02E3519F4411585
:1013F000510569F1872F90E08417950744F42D3546
:1014000051F12D3221F4332329F431E021C033236B
:1014100009F4622F322F832F869586958695F401E5
:10142000E80FF11D832F87703D0102C0660C771C09
:101430008A95E2F7208126292083361711F430E0BF
:1014400007C0361710F43F5FE6CF3150E4CF71E0AC
:101450004F5F5F4FBFCF332319F08E8180628E8341
:10146000772359F0FE0131969E012F5D3F4F808119
:1014700080958193E217F307D1F7BB24B3944E0113
:101480000894811C911CC6010E94B40BAC0197FD0D
:1014900022C0869586958695F401E80FF11D80811E
:1014A00090E09A012770307002C0959587952A9533
:1014B000E2F780FD05C0CA01B6010E94F60B0BC021
:1014C0000115110519F0D8014D938D01AA94BB2483
:1014D000AA20C9F602C0BB2031F40115110529F07C
:1014E000F801108202C0EE24FF24C701A096EEE0AE
:1014F0000C94910CA0E0B0E0E0E8FAE00C94750CDC
:101500005C016B013A01FC01178216828824EAC053
:10151000812F90E00E948B0B892B21F0C5010E9446
:101520003009E0C0153249F4F601F3FC6591F3FE91
:1015300061916F01653269F415E2C5010E94B40B37
:1015400097FDDCC0181709F4CDC0B5010E94F60B59
:10155000DAC06A3219F0162F00E006C0F3FC1591CC
:10156000F3FE11916F0101E099240FC00260692D13
:1015700070E080E090E040E20E940209962EF601C1
:10158000F3FC1591F3FE11916F01212F20532A30A6
:1015900068F301FD03C099249A9403C0992009F4CB
:1015A000B2C0183621F01C3699F4F6010BC0F601D2
:1015B000F3FC6591F3FE6191683619F06F01162F07
:1015C00007C008600460F3FC1591F3FE11916F01F0
:1015D000112309F498C080E790E0612F70E00E9429
:1015E000930B892B09F48FC0802F00FF03C0EE24DA
:1015F000FF2407C0F301E080F18022E030E0620EBA
:10160000731E1E3651F4F5014681578160E070E08B
:10161000C701202F0E94F60865C0133691F481FDA2
:1016200002C099249394C5010E94B40B97FD66C033
:10163000E114F10419F0F70181937F019A9499F76D
:101640004FC01B3559F4C501692DA70196010E94B1
:10165000D1096C01009709F043C03DC0C5010E944B
:10166000300997FD4BC01F3659F1103728F4143656
:1016700029F1193639F527C0133719F0153711F547
:101680001DC0C5010E94B40BEC0197FD11C00E9462
:101690008B0B892B29F0CE01B5010E94F60B08C0F7
:1016A000E114F10419F0F701C1937F019A9449F70D
:1016B000E114F104A9F0F701108212C0006203C026
:1016C000006101C00064C501692DA701202F0E949F
:1016D0004909882329F4F5018381807379F413C0C3
:1016E00000FF8394F501F380F601F3FC1591F3FEFE
:1016F00011916F01112309F00BCF05C0882019F457
:101700002FEF3FEF02C0282D30E0C901CDB7DEB783
:10171000EEE00C94910C9111E1C0803219F08950E7
:101720008550D0F70895FC010590061621F00020A1
:10173000D9F7C00108953197CF010895FC010590B4
:10174000615070400110D8F7809590958E0F9F1FC3
:101750000895FC016150704001900110D8F7809508
:1017600090958E0F9F1F0895CF93DF93EC014B81CF
:1017700040FF1AC046FF0AC04F7B4B838E819F817A
:1017800001969F838E838A81282F2BC042FF13C02E
:10179000E881F9818081282F332727FD3095211595
:1017A000310529F440624B832FEF3FEF1BC0319688
:1017B000F983E88311C0EA85FB85CE0109959C0178
:1017C00097FF0AC09B812F5F3F4F11F080E201C05D
:1017D00080E1892B8B83E8CF8E819F8101969F8347
:1017E0008E8330E0C901DF91CF9108959C01FB0108
:1017F000838180FF11C086FD0FC09FEF2F3F390707
:1018000059F0228380648F7D83838681978101973D
:101810009783868330E002C02FEF3FEFC901089520
:10182000FA01AA27283051F1203181F1E8946F9311
:101830006E7F6E5F7F4F8F4F9F4FAF4FB1E03ED0B7
:10184000B4E03CD0670F781F891F9A1FA11D680F55
:10185000791F8A1F911DA11D6A0F711D811D911D88
:10186000A11D20D009F468943F912AE0269F1124FD
:101870003019305D3193DEF6CF010895462F477061
:10188000405D4193B3E00FD0C9F7F6CF462F4F70BC
:10189000405D4A3318F0495D31FD4052419302D01A
:1018A000A9F7EACFB4E0A6959795879577956795C0
:1018B000BA95C9F700976105710508959B01AC01C0
:1018C0000A2E06945795479537952795BA95C9F7E7
:1018D000620F731F841F951FA01D089599278827E5
:1018E00008952F923F924F925F926F927F928F92C4
:1018F0009F92AF92BF92CF92DF92EF92FF920F939F
:101900001F93CF93DF93CDB7DEB7CA1BDB0B0FB6A8
:10191000F894DEBF0FBECDBF09942A883988488865
:101920005F846E847D848C849B84AA84B984C884FB
:10193000DF80EE80FD800C811B81AA81B981CE0FF2
:10194000D11D0FB6F894DEBF0FBECDBFED010895D7
:04195000F894FFCF39
:101954000A0D205452542039666562323030390AF7
:101964000D0A0D00436F6D6D616E64202563207553
:101974006E7265636F676E697A65640A0042757496
:10198400746F6E207075736865643D25640A0D3E3E
:10199400002563202564004F43414D4C3A202564C3
:1019A4000A0000000003000000008E03E3030000AF
:00000001FF
