:100000000C9400010C9470050C941D010C941D01BE
:100010000C941D010C941D010C941D010C941D01E8
:100020000C941D010C941D010C941D010C9496055B
:100030000C941D010C941F010C941D010C941D01C6
:100040000C941D010C941D010C941D010C941D01B8
:100050000C947C040C940C040C941D010C941D0154
:100060000C941D010C941D010C941D010C941D0198
:100070006E616E00696E66006364696E6F707375A1
:1000800078585B65666745464700616E006E666935
:100090006E69747900CDCCCC3D0AD7233C17B7D11B
:1000A0003877CC2B329595E6241FB14F0A000020FB
:1000B000410000C84200401C4620BCBE4CCA1B0E7A
:1000C0005AAEC59D74001F000000001F00001F10E5
:1000D0001010101F00001F181818181F00001F1CF8
:1000E0001C1C1C1F00001F1E1E1E1E1F00001F1FA9
:1000F0001F1F1F1F0003070F1F0F070300181C1EE1
:100100001F1E1C180000407A10F35A00A0724E18EF
:10011000090010A5D4E80000E87648170000E40BB9
:1001200054020000CA9A3B000000E1F5050000807F
:10013000969800000040420F000000A086010000D9
:1001400000102700000000E8030000000064000029
:100150000000000A00000000000100000000002C68
:1001600076D888DC674F0823DFC1DFAE59E1B1B72D
:1001700096E5E3E453C63AE651997696E8E6C284FA
:1001800026EB898C9B62ED407C6FFCEFBC9C9F4012
:10019000F2BAA56FA5F490055A2AF75C936B6CF937
:1001A000676DC11BFCE0E40D47FEF520E6B500D00D
:1001B000ED902E0300943577050080841E08000022
:1001C000204E0A000000C80C333333330F986E12F0
:1001D000831141EF8D2114893BE65516CFFEE6DBF6
:1001E00018D1844B381BF77C1D901DA4BBE4242040
:1001F0003284725E228100C9F124ECA1E53D270022
:1002000011241FBECFEFD0E1DEBFCDBF11E0A0E0D3
:10021000B1E0E4E6FAE302C005900D92A03AB1071E
:10022000D9F713E0A0EAB1E001C01D92A132B107F5
:10023000E1F70E94DE060C94301D0C9400001F9222
:100240000F920FB60F9211242F923F924F925F920E
:100250006F927F928F929F92AF92BF92CF92DF92D6
:10026000EF92FF920F931F932F933F934F935F93C0
:100270006F937F938F939F93AF93BF93CF93DF93AE
:10028000EF93FF9310926F005090D002B09B14C078
:100290008091120390911303A0911403B091150360
:1002A0000196A11DB11D8093120390931303A09397
:1002B0001403B0931503B09A809184009091850047
:1002C0003C01882499248091120390911303A091FA
:1002D0001403B0911503DC0199278827680E791E55
:1002E0008A1E9B1E4090CF0270E061E0FFEFAF2EB0
:1002F000FFEFBF2EFFEFCF2EFFE7DF2EEBE02E2E1E
:1003000033243394CBE0D0E043C0629DD00111246C
:10031000AF52BD4F1A968C911A978230A1F4129663
:10032000ED90FD900D911C9115976E147F04800641
:10033000910620F01A963C921A9705C0EA14FB0425
:100340000C051D0510F0860175011A968C911A97FF
:100350008130D9F4872F90E08C9FF0018D9FF00DB4
:100360009C9FF00D1124E153FD4F16962D913D9168
:100370004D915C91199780859185A285B385281749
:1003800039074A075B0708F4762F6F5F570168014A
:10039000461608F0BACF7515B1F0EBE05E9ED001BD
:1003A0001124AF52BD4F8DB78C938EB711968C939D
:1003B0007E9FF0011124EF52FD4F81818EBF80811D
:1003C0008DBF7093D002A0921603B0921703C09213
:1003D0001803D0921903209184003091850040E0E9
:1003E00050E08091120390911303A0911403B091F7
:1003F0001503DC0199278827280F391F4A1F5B1F27
:10040000D601C501821B930BA40BB50B9C01AD015A
:1004100084309105A105B10524F424E030E040E0EA
:1004200050E08091840090918500A0E0B0E0820FC0
:10043000931FA41FB51F80509040A140B04038F4D6
:100440008091840090918500820F931F0EC080914F
:100450008400909185008C5F9F4F28F41092890052
:100460001092880006C084E090E090938900809309
:10047000880082E080936F00FF91EF91DF91CF9130
:10048000BF91AF919F918F917F916F915F914F91AC
:100490003F912F911F910F91FF90EF90DF90CF90A0
:1004A000BF90AF909F908F907F906F905F904F9094
:1004B0003F902F900F900FBE0F901F9018951092A5
:1004C0008500109284001092800025E02093810026
:1004D00022E020936F002FEF30E1281B390B30937F
:1004E0001103209310031092CF021092D0021092A9
:1004F00012031092130310921403109215038FEF3E
:100500009FEFAFEFBFE78093160390931703A0937D
:100510001803B09319038093D7029093D802A09345
:10052000D902B093DA021092D3021092D402109240
:10053000D5021092D602789408958F929F92AF922E
:10054000BF92CF92DF92EF92FF920F931F93CF93C0
:10055000DF9349015A01F8942091CF022F5F209335
:10056000CF02C0911003D09111039E01261B370BBF
:1005700030931103209310038883FE0192933197E7
:10058000DF01CE014B971C921197A817B907D9F735
:100590007997C082D2923197DF019E012352304079
:1005A0001C921197A217B307D9F79F01265030402C
:1005B000E091CF028BE0E89FF0011124EF52FD4F54
:1005C00082829382A482B582E682F78200871187B5
:1005D00082E08287208331830E941F01DF91CF91C7
:1005E0001F910F91FF90EF90DF90CF90BF90AF9051
:1005F0009F908F900895F894EFECF2E0E80FF11DD2
:1006000060AF78940895482F2091D002F894E82F95
:10061000F0E0E95FFC4F8081882319F081508083EE
:1006200010C030E08BE090E0289FF001299FF00D92
:10063000389FF00D1124EF52FD4F4E5F42870E940C
:100640001F0178940895FF920F931F93182FF89429
:100650000091CF02E1E04FEF5FEF6FEF7FEFF0E04F
:100660008BE0F82E212F30E02E5F3F4F1EC0EF9D14
:10067000D0011124AF52BD4F1A968C911A9790E079
:100680008217930769F416968D919D910D90BC91F8
:10069000A02D481759076A077B0710F0FE2F02C0EC
:1006A000DB01CA01EF5FAC01BD010E1700F7FF23AC
:1006B00041F4E12FF0E0E253FD4F81AD8F5F81AF58
:1006C00011C02F2F30E08BE090E0289FF001299F90
:1006D000F00D389FF00D1124E153FD4F81E0848728
:1006E0000E941F0178941F910F91FF90089520910F
:1006F00084003091850040E050E080911203909199
:100700001303A0911403B0911503DC0199278827E6
:10071000280F391F4A1F5B1FB901CA010895E091D4
:10072000D002ABE0EA9FF0011124EF52FD4FF894A4
:10073000A2E0A287628373838483958326833783B1
:10074000408751870E941F0108958091D00290E058
:100750002BE030E0829FF001839FF00D929FF00D1F
:100760001124E153FD4FDF011496648111967C91B1
:10077000119712968C91129713969C9108958091DF
:10078000D00290E02BE030E0829FF001839FF00DDB
:10079000929FF00D1124E153FD4FDF011896608503
:1007A00011967C91119712968C91129713969C91A9
:1007B0000895F8948091D00290E02BE030E0829F81
:1007C000F001839FF00D929FF00D1124E153FD4F36
:1007D00014860E941F010895F894E82FF0E0E95F65
:1007E000FC4F8081882319F0815080838F5F78943B
:1007F000089587E68093C400E1ECF0E088E180830F
:100800001092FF011092FE0110920102109200025C
:1008100080818068808308951F920F920FB60F9297
:1008200011242F933F938F939F93EF93FF932091E6
:10083000FE013091FF018091000290910102281782
:10084000390731F48091C1008F7D8093C1001DC0B4
:10085000E0910002F0910102EE5FFD4F80818093F4
:10086000C6008091000290910102019690930102CE
:10087000809300028091000290910102883C9105D2
:1008800021F41092010210920002FF91EF919F91CA
:100890008F913F912F910F900FBE0F901F90189541
:1008A0001F93182F8A3019F48DE00E945004809114
:1008B000FE019091FF018F5F883C09F480E0E09198
:1008C000FE01F091FF01EE5FFD4F1083282F30E015
:1008D000809100029091010228173907C9F33093E3
:1008E000FF012093FE018091C10080628093C100CE
:1008F00080E090E01F9108951F920F920FB60F9223
:1009000011242F933F934F935F936F937F938F9314
:100910009F93AF93BF93EF93FF938091C600809313
:100920001A0381E00E942303FF91EF91BF91AF91E1
:100930009F918F917F916F915F914F913F912F91F7
:100940000F900FBE0F901F901895EF92FF920F938C
:100950001F93CF93DF937C018091AC019091AD0107
:10096000892B09F0A1C00EEA11E081E00E94030387
:100970008091C00084FF03C02EEF3FEFA9C080919B
:10098000C00083FDA3C090911A039D3011F09A30EE
:1009900081F48AE0F8018083B7010E9450048EEA56
:1009A00091E09093AD018093AC0182E00E9423031B
:1009B0007BC0993009F490E2892F80528F3510F076
:1009C000903A70F0F1E00D3F1F0711F487E004C08A
:1009D000F80191938F01892FB7010E945004C5CF70
:1009E000923139F1933138F4933009F46FC0983073
:1009F00009F0BBCF09C0973109F44BC09F3721F0F4
:100A0000953109F0B2CF32C0F1E00E3A1F0709F07C
:100A100008F4ABCF88E0B7010E94500480E2B70130
:100A20000E94500488E0B7010E9450040150104019
:100A30009CCF8DE0B7010E945004CEEAD1E004C003
:100A40008991B7010E945004C017D107C8F38DCF18
:100A500088E0B7010E94500480E2B7010E94500470
:100A600088E0B7010E9450040150104081E00E3A26
:100A7000180709F068F779CF88E0B7010E945004A1
:100A800080E2B7010E94500488E0B7010E94500440
:100A90008E01E1E00E3A1E0709F008F466CFE80186
:100AA0008A91803249F761CFE091AC01F091AD01BC
:100AB0008191F093AD01E093AC018A3021F4109262
:100AC000AD011092AC01282F30E002C02FEF3FEFB4
:100AD000C901DF91CF911F910F91FF90EF90089581
:100AE0001F920F920FB60F9211242F938F939F9303
:100AF000EF93FF93E2EBF0E020818091AA019091C7
:100B0000AB01820F911D9093A9018093A8011082DF
:100B10001092AB011092AA01FF91EF919F918F91DA
:100B20002F910F900FBE0F901F9018951F920F924C
:100B30000FB60F9211248F939F938091AA019091E9
:100B4000AB0180509F4F9093AB018093AA019F917E
:100B50008F910F900FBE0F901F9018952F923F927C
:100B60004F925F926F927F928F929F92AF92BF92BD
:100B7000CF92DF92EF92FF920F931F93DF93CF9369
:100B8000CDB7DEB727970FB6F894DEBF0FBECDBF47
:100B90008FEF84B915B821E029831A828091A801CA
:100BA0009091A901892B19F41F821E821CC06091AB
:100BB000A8017091A901882777FD8095982F0E9440
:100BC0007C199B01AC0160E074E284E796E40E942A
:100BD000DC0E20E030E040E752E40E94B7190E94AA
:100BE000060D7F836E8387E00E9403038E819F81C1
:100BF000909397018093960187E00E94230383E0FE
:100C00000E940303C0909401D090950183E00E945C
:100C1000230384E00E940303E0909001F09091018F
:100C2000009192011091930184E00E94230385E0DA
:100C30000E9403038090A0019090A101A090A201C6
:100C4000B090A30185E00E94230386E00E94030385
:100C50004090A4015090A5016090A6017090A7015A
:100C600086E00E942303EE81FF81CE1ADF0AF9811C
:100C7000FF23C1F496018C819D81281B390B3F8392
:100C80002E83121613061CF491E09A8356C0EE814F
:100C9000FF81EF2B09F450C0FFEFFA834EC02C0CFC
:100CA0003D1C52C0B601882777FD8095982F0E9481
:100CB0007C199B01AC01C801B7010E94B7190E94C1
:100CC000E80F77FF02C017BC08C06F3F710521F025
:100CD0001CF02FEF27BD01C067BD2091120330919A
:100CE00013034091140350911503A90133272227C0
:100CF0006091840070918500E0908400F090850000
:100D000080E090E0620F731F841F951F685C7E4F28
:100D10008F4F9F4F00E010E02E0D3F1D401F511FD1
:100D20002A573E4F4F4F5F4F0E948F0319823A81DF
:100D30003B83DD82CC8232CF1A828A819B818917E4
:100D400009F4ADCF22243324B601882777FD80959E
:100D5000982F0E947C199B01AC01C801B7010E9429
:100D6000B7197B018C01B101882777FD8095982FF9
:100D70000E947C199B01AC01C501B4010E94B71906
:100D80009B01AC01C801B7010E94AF0E7B018C0131
:100D9000EE81FF81BF01882777FD8095982F0E9403
:100DA0007C199B01AC01C301B2010E94B7199B01E0
:100DB000AC01C801B7010E94AF0E81CFCF92DF9284
:100DC000EF92FF920F931F938BEF8AB91BB80E948B
:100DD000F90362E871E07093200360931F0370933E
:100DE0001C0360931B0370931E0360931D0380E03C
:100DF00091E00E94541C91E09DBB83E080936900C8
:100E000087E08093B1009093700083E884BD85E013
:100E100085BD8FE787BD80E890E00E945F02F8946F
:100E2000109208037894F894109209037894F89437
:100E300081E080930A037894F89480930E03789469
:100E4000F89480930B037894F89480930C0378942F
:100E5000F89480930D0378948EEA95E060E071E059
:100E60002DE033E040E050E0BDE0EB2EB3E0FB2EA0
:100E7000012D112DAAECCA2EA2E0DA2E0E949D02AD
:100E80008BE99AE060E071E02AE136E040E050E072
:100E9000FAE1EF2EF6E0FF2E012D112DECECCE2E17
:100EA000E2E0DE2E0E949D0282E797E060E071E0C2
:100EB0002AE136E040E050E00E949D02789483B73A
:100EC000817F83BF83B7816083BF8895FECF0E94F7
:100ED000360C0E949E0C0E94CF0B80E060E00E94C6
:100EE000EC0B08952F923F924F925F926F927F92F8
:100EF0008F929F92AF92BF92CF92DF92EF92FF922A
:100F00000F931F93DF93CF93CDB7DEB7E0970FB664
:100F1000F894DEBF0FBECDBFDE015796E3E2F1E0ED
:100F200089E001900D928150E1F7DE015296ECE2EA
:100F3000F1E085E001900D928150E1F783E00E949D
:100F40000303609094017090950183E00E94230355
:100F500084E00E940303809190018FA390919101FE
:100F600098A7A0919201A9A7B0919301BAA784E094
:100F70000E94230385E00E9403038091A0018BA3BC
:100F80009091A1019CA3A091A201ADA3B091A30156
:100F9000BEA385E00E94230386E00E9403038091A4
:100FA000A40188A39091A50199A3A091A601AAA349
:100FB0002090A70186E00E9423030E94670780E03B
:100FC00060E00E94EC0BCE01479667E00E94D70BD1
:100FD00000D000D000D0EDB7FEB731968E01025F91
:100FE0001F4FADB7BEB712961C930E93119784E1B5
:100FF00091E09383828380919601909197019583EC
:1010000084830E94911C8DB79EB706960FB6F89404
:101010009EBF0FBE8DBF87E060E00E94EC0BF80121
:1010200001900020E9F731976E2F601B643008F0C3
:1010300064E0CE010E960E94D70B8DE060E00E9426
:10104000EC0BCE01429663E00E94D70B00D000D09B
:1010500000D0EDB7FEB731968E01065F1F4FADB7DA
:10106000BEB712961C930E93119784E191E093837F
:101070008283758264820E94911CF8010190002095
:10108000E9F73197BE2FB01B0B2F8DB79EB7069691
:101090000FB6F8949EBF0FBE8DBFB43008F004E0C9
:1010A00080E061E00E94EC0B2AE0822E912C8C0EF5
:1010B0009D1EC401602F0E94D70BADB7BEB7189715
:1010C0000FB6F894BEBF0FBEADBFEDB7FEB73196F9
:1010D0005E010894A11CB11C1296BC92AE921197AD
:1010E00097E1E92E91E0F92EF382E2828FA198A593
:1010F000A9A5BAA584839583A683B7830E94911C72
:101100008DB79EB708960FB6F8949EBF0FBE8DBFE1
:1011100085E061E00E94EC0BC50163E00E94D70B03
:10112000ADB7BEB718970FB6F894BEBF0FBEADBF30
:10113000EDB7FEB7319684E0C82ED12CCC0EDD1E63
:101140001296DC92CE921197F382E2828BA19CA13F
:10115000ADA1BEA184839583A683B7830E94911C11
:101160008DB79EB708960FB6F8949EBF0FBE8DBF81
:1011700089E061E00E94EC0BC60163E00E94D70B9E
:10118000ADB7BEB718970FB6F894BEBF0FBEADBFD0
:10119000EDB7FEB731968E01095F1F4F12961C9373
:1011A0000E931197F382E28288A199A1AAA1B22D90
:1011B00084839583A683B7830E94911C8DB79EB7C5
:1011C00008960FB6F8949EBF0FBE8DBF8DE061E00C
:1011D0000E94EC0BC80163E00E94D70B2401ABA670
:1011E000BCA69E2CAF2CCDA6DEA60FA718AB0EE09A
:1011F000C02ED12CCC0EDD1E83E00E940303809113
:101200009401909195016816790611F4332403C076
:101210003C013324339483E00E94230384E00E9442
:1012200003031091900100919101E0909201809050
:1012300093016FA178A589A59AA5212F302F4E2D56
:10124000582D0E94880F882339F01FA308A7E9A60C
:101250008AA6BB24B39401C0BB2484E00E9423036C
:1012600085E00E9403031091A0010091A101E0908C
:10127000A2018090A3016BA17CA18DA19EA1212F31
:10128000302F4E2D582D0E94880F882339F01BA334
:101290000CA3EDA28EA2FF24F39401C0FF2485E0ED
:1012A0000E94230386E00E9403030091A401E090C2
:1012B000A5018090A6011091A70168A179A18AA13A
:1012C000922D202F3E2D482D512F0E94880F8823CC
:1012D00031F008A3E9A28AA2212E11E001C010E09A
:1012E00086E00E942303332071F100D000D000D0AB
:1012F000EDB7FEB73196ADB7BEB712965C924E927F
:1013000011978AE191E093838283758264820E94BF
:10131000911CF20101900020E9F731970E2F04197A
:10132000ADB7BEB716960FB6F894BEBF0FBEADBF31
:10133000043008F004E080E061E00E94EC0BC201A0
:10134000602F0E94D70BBB2089F18DB79EB70897FD
:101350000FB6F8949EBF0FBE8DBFEDB7FEB73196A6
:101360008BA5ADB7BEB711968C9311979CA512961D
:101370009C939282A3828FA198A5A9A5BAA58483E4
:101380009583A683B7830E94911CADB7BEB718960C
:101390000FB6F894BEBF0FBEADBF85E061E00E94FE
:1013A000EC0B8BA59CA563E00E94D70BFF2089F175
:1013B0008DB79EB708970FB6F8949EBF0FBE8DBF2E
:1013C000EDB7FEB731968DA5ADB7BEB711968C932C
:1013D00011979EA512969C939282A3828BA19CA1A9
:1013E000ADA1BEA184839583A683B7830E94911C7F
:1013F000ADB7BEB718960FB6F894BEBF0FBEADBF5F
:1014000089E061E00E94EC0B8DA59EA563E00E943F
:10141000D70B112389F18DB79EB708970FB6F894B3
:101420009EBF0FBE8DBFEDB7FEB731968FA5ADB78E
:10143000BEB711968C93119798A912969C9392829D
:10144000A38288A199A1AAA1B22D84839583A683A2
:10145000B7830E94911CADB7BEB718960FB6F8942B
:10146000BEBF0FBEADBF8DE061E00E94EC0B8FA54B
:1014700098A963E00E94D70B87E00E9403030091C4
:1014800096011091970187E00E94230300D000D0BD
:1014900000D0EDB7FEB73196ADB7BEB71296DC926D
:1014A000CE9211978EE191E093838283158304831A
:1014B0000E94911CADB7BEB716960FB6F894BEBF8A
:1014C0000FBEADBF87E060E00E94EC0BF60101901B
:1014D0000020E9F73197EC19FD09C6016E2F0E9433
:1014E000D70B2091120330911303409114035091B4
:1014F0001503A9013327222760918400709185008C
:10150000E0908400F090850080E090E0620F731F0F
:10151000841F951F6B5C734F8F4F9F4F00E010E04F
:101520002E0D3F1D401F511F2554324F4F4F5F4F0F
:101530000E948F0361CE4F925F926F927F928F9243
:101540009F92AF92BF92CF92DF92EF92FF920F9352
:101550001F93DF93CF9300D000D00F92CDB7DEB7AB
:1015600061E3462E61E0562E3E010894611C711C19
:1015700052E0852E912C8C0E9D1E46E3A42E41E058
:10158000B42E31E5C32E31E0D32E60911D0370914E
:101590001E038EE390E00E94281C8DB79EB708972B
:1015A0000FB6F8949EBF0FBE8DBFEDB7FEB7319654
:1015B00080911B0390911C03ADB7BEB712969C930C
:1015C0008E931197538242827582648297828682BB
:1015D0000E947D1CEA80FB800C811D818DB79EB727
:1015E00008960FB6F8949EBF0FBE8DBFC801B70115
:1015F00020E030E040E050E00E94B80F88230CF477
:101600006CC02981293659F12A3620F4243609F094
:101610004AC036C0203791F0233709F044C083E038
:101620000E9403036A817B818C819D810E94E80F67
:10163000709395016093940183E032C084E00E942E
:1016400003038A819B81AC81BD818093900190933B
:101650009101A0939201B093930184E021C085E0B1
:101660000E9403038A819B81AC81BD818093A0018C
:101670009093A101A093A201B093A30185E010C0B3
:1016800086E00E9403038A819B81AC81BD818093A7
:10169000A4019093A501A093A601B093A70186E0B1
:1016A0000E94230372CF00D000D000D0EDB7FEB768
:1016B000319680911D0390911E03ADB7BEB712966F
:1016C0009C938E931197B382A282248315820E94E9
:1016D000141C8DB79EB706961EC0ADB7BEB718973F
:1016E0000FB6F894BEBF0FBEADBFEDB7FEB73196D3
:1016F00080911D0390911E0312969C938E931197D7
:10170000D382C282E482F582068317830E94141C6E
:101710008DB79EB708960FB6F8949EBF0FBE8DBFCB
:1017200034CF282F207F28B9409A429A20EA3FE000
:10173000F9013197F1F742984098F9013197F1F7A3
:1017400090E044E0880F991F4A95E1F788B9409AE4
:10175000429AC9010197F1F742984098C90101974F
:10176000F1F70895282F207F28B9429A20EA3FE018
:10177000F9013197F1F74298F9013197F1F790E0CB
:1017800054E0880F991F5A95E1F788B9429AC90128
:101790000197F1F74298C9010197F1F7089581E0A7
:1017A0000E94B20B089582E00E94B20B08950F933D
:1017B0001F93CF93DF93062F009749F0EC0110E0C1
:1017C00004C089910E94910B1F5F1017D0F3DF9125
:1017D000CF911F910F910895623031F0633031F055
:1017E000613029F4805C03C08C5E01C08C5A806833
:1017F0000E94B20B08951F93CF93DF93EC01862FC5
:10180000642F0E94EC0B10E003C00E94910B1F5F3D
:10181000FE01E10FF11D84918823B9F7DF91CF918B
:101820001F910895EF92FF920F931F93CF93DF9331
:101830007C01162F110F110F110F1064C0E0D0E0C2
:10184000F701EC0FFD1F0491812F8C0F0E94B20B4A
:10185000802F0E94910B2196C830D10589F7DF9126
:10186000CF911F910F91FF90EF9008951F93CF9309
:10187000DF9380E69AEE0197F1F718B818B887B1B0
:10188000806F87B987B1876087B980E388B9429A4A
:1018900020EA3FE0F9013197F1F74298F9013197D9
:1018A000F1F788B9429AC9010197F1F74298C90145
:1018B0000197F1F780E288B9429AC9010197F1F7DF
:1018C0004298C9010197F1F788E20E94B20B8CE0BF
:1018D0000E94B20BC5ECD0E060E0162F1F5FCE0176
:1018E0000E94120C2896612F1830B9F7DF91CF9122
:1018F0001F9108950F931F93082F10E004C08EE1ED
:101900000E94B20B1F5F1017D0F31F910F91089523
:101910000F931F93082F10E004C088E10E94B20BC0
:101920001F5F1017D0F31F910F9108958EE00E9452
:10193000B20B08958FE00E94B20B08958CE00E94D4
:10194000B20B089588E00E94B20B08958CE00E94CB
:10195000B20B08950F931F93082F10E004C080E18D
:101960000E94B20B1F5F1017D0F31F910F910895C3
:101970000F931F93082F10E004C084E10E94B20B64
:101980001F5F1017D0F31F910F910895DF92EF9210
:10199000FF920F931F93CF93DF93D42E96E0899FEE
:1019A000C0011124242F30E0AC01429FC001439FAD
:1019B000900D529F900D112470E00E947F1AEB0150
:1019C000CB0166E070E00E946B1AE82EFF2400E075
:1019D00010E012C0C8010596C817D90710F085E0BD
:1019E00006C0C017D10710F08E2D01C080E00E9404
:1019F000910BF3940A5F1F4FFD1460F3DF91CF91B9
:101A00001F910F91FF90EF90DF900895EF92FF925A
:101A10000F931F937B018C0120E030E040E05FE4F6
:101A20000E94B80F88238CF0C801B70120E030E095
:101A300040E05FE40E947E0E0E94E80F9B01AC0133
:101A4000205030404040504806C0C801B7010E94B5
:101A5000E80F9B01AC01B901CA011F910F91FF90E2
:101A6000EF900895A0E0B0E0E8E3FDE00C94921A56
:101A7000DC012B01FA019C91923008F439C1EB0191
:101A80008881823008F433C1943069F4843009F0DD
:101A90002FC111969C9111978981981709F428C13B
:101AA000A8E9B1E025C1843009F421C18230A9F44C
:101AB000923009F01DC19A01AD0188E0EA01099058
:101AC000AE01E90109929E018150C1F7E2018981CD
:101AD00011969C918923818308C1923009F407C132
:101AE00012962D903C901397EB018A819B8114965E
:101AF000AD90BD90CD90DC901797EC80FD800E816D
:101B00001F819101281B390BB90137FF04C06627DB
:101B10007727621B730B603271050CF061C01216DF
:101B200013066CF537014801062E04C0969487947D
:101B3000779467940A94D2F721E030E040E050E0D7
:101B400004C0220F331F441F551F6A95D2F721503E
:101B50003040404050402E213F2140235123211549
:101B600031054105510521F021E030E040E050E031
:101B700079018A01E628F728082919293CC0232B76
:101B8000D1F1260E371E35014601062E04C096946B
:101B90008794779467940A94D2F721E030E040E08C
:101BA00050E004C0220F331F441F551F6A95D2F71F
:101BB00021503040404050402A213B214C215D21A2
:101BC000211531054105510521F021E030E040E0CB
:101BD00050E059016A01A628B728C828D9280BC0A7
:101BE000821593052CF01C01AA24BB24650103C0B7
:101BF000EE24FF24870111969C91D20111968C91BD
:101C0000981709F445C0992339F0A80197012A19BA
:101C10003B094C095D0906C0A60195012E193F0933
:101C2000400B510B57FD08C011823382228224835E
:101C30003583468357831DC081E0818333822282AE
:101C400088279927DC01821B930BA40BB50B848397
:101C50009583A683B7830DC0220F331F441F551FE2
:101C600024833583468357838281938101979383AD
:101C700082832481358146815781DA01C901019728
:101C8000A109B1098F5F9F4FAF4FBF4328F30BC02E
:101C9000918333822282EA0CFB1C0C1D1D1DE48201
:101CA000F5820683178383E0808324813581468112
:101CB000578157FF1AC0C901AA2797FDA095BA2FCF
:101CC00081709070A070B0705695479537952795A4
:101CD000822B932BA42BB52B84839583A683B78368
:101CE00082819381019693838283DF0101C0D201B7
:101CF000CD01CDB7DEB7E2E10C94AE1AA0E2B0E0C0
:101D0000E4E8FEE00C949E1A69837A838B839C83BB
:101D10002D833E834F835887E9E0EE2EF12CEC0EA5
:101D2000FD1ECE010196B7010E9411118E010F5EBA
:101D30001F4FCE010596B8010E9411118A8991E0CA
:101D400089278A8BC701B801AE01475E5F4F0E94A9
:101D5000320D0E943C10A096E6E00C94BA1AA0E264
:101D6000B0E0E5EBFEE00C949E1A69837A838B83E6
:101D70009C832D833E834F835887F9E0EF2EF12C0F
:101D8000EC0EFD1ECE010196B7010E9411118E01CD
:101D90000F5E1F4FCE010596B8010E941111C701B9
:101DA000B801AE01475E5F4F0E94320D0E943C10A9
:101DB000A096E6E00C94BA1AA8E1B0E0E2EEFEE0EC
:101DC0000C949A1A69837A838B839C832D833E8338
:101DD0004F835887B9E0EB2EF12CEC0EFD1ECE019F
:101DE0000196B7010E9411118E010F5E1F4FCE01A7
:101DF0000596B8010E9411112985223008F47EC091
:101E00003989323010F4B8017CC08A859A898927D3
:101E10008A87243011F0223031F4231709F06EC084
:101E200068E971E06EC0343039F41D861E861F8665
:101E3000188A1C861B8604C0323021F484E089870E
:101E4000B7015FC02B853C858B899C89281B390B8A
:101E50003C872B87ED84FE840F851889AD88BE886A
:101E6000CF88D88CEA14FB040C051D0540F4EE0C59
:101E7000FF1C001F111F215030403C872B8720E0A2
:101E800030E040E050E080E090E0A0E0B0E460E0CE
:101E900070E0EA14FB040C051D0540F0282B392BDB
:101EA0004A2B5B2BEA18FB080C091D09B695A79570
:101EB00097958795EE0CFF1C001F111F6F5F7F4FDA
:101EC0006F31710531F7DA01C9018F779070A07019
:101ED000B07080349105A105B10561F427FD0AC0F9
:101EE000E114F1040105110529F0205C3F4F4F4F2B
:101EF0005F4F20782D873E874F87588BBE01675FE5
:101F00007F4FCB010E943C106896EAE00C94B61A11
:101F1000A8E1B0E0EEE8FFE00C949E1A69837A83B2
:101F20008B839C832D833E834F83588789E0E82EE3
:101F3000F12CEC0EFD1ECE010196B7010E9411118D
:101F40008E010F5E1F4FCE010596B8010E94111140
:101F50008985823040F08989823028F0C701B80134
:101F60000E94891101C081E06896E6E00C94BA1ADB
:101F7000A8E1B0E0EEEBFFE00C949E1A69837A834F
:101F80008B839C832D833E834F83588789E0E82E83
:101F9000F12CEC0EFD1ECE010196B7010E9411112D
:101FA0008E010F5E1F4FCE010596B8010E941111E0
:101FB0008985823040F08989823028F0C701B801D4
:101FC0000E94891101C08FEF6896E6E00C94BA1A5E
:101FD000ACE0B0E0EEEEFFE00C94A21A69837A83E5
:101FE0008B839C83CE010196BE016B5F7F4F0E9465
:101FF00011118D81823061F1823050F1843021F4F1
:102000008E81882351F12EC02F81388537FD20C065
:102010006E812F3131051CF06623F9F023C08EE16B
:1020200090E0821B930B29853A854B855C8504C023
:1020300056954795379527958A95D2F76623B1F03F
:1020400050954095309521953F4F4F4F5F4F0EC0B3
:1020500020E030E040E050E009C02FEF3FEF4FEFCD
:102060005FE704C020E030E040E050E8B901CA0179
:102070002C96E2E00C94BE1ADF92EF92FF920F933F
:102080001F93FC01E480F58006811781D180808157
:10209000823048F480E090E0A0E1B0E0E82AF92A3C
:1020A0000A2B1B2BA5C0843009F49FC0823021F479
:1020B000EE24FF24870105C0E114F1040105110598
:1020C00019F4E0E0F0E096C0628173819FEF62381E
:1020D00079070CF05BC022E83FEF261B370B2A3153
:1020E00031052CF020E030E040E050E02AC0B8019B
:1020F000A701022E04C076956795579547950A94D7
:10210000D2F781E090E0A0E0B0E004C0880F991F12
:10211000AA1FBB1F2A95D2F70197A109B1098E21E9
:102120009F21A023B1230097A105B10521F081E0F3
:1021300090E0A0E0B0E09A01AB01282B392B4A2BAC
:102140005B2BDA01C9018F779070A070B07080347A
:102150009105A105B10539F427FF09C0205C3F4F67
:102160004F4F5F4F04C0215C3F4F4F4F5F4FE0E048
:10217000F0E02030A0E03A07A0E04A07A0E45A07C8
:1021800010F0E1E0F0E079018A0127C060387105C4
:1021900064F5FB01E158FF4FD801C7018F779070BC
:1021A000A070B07080349105A105B10539F4E7FE47
:1021B0000DC080E490E0A0E0B0E004C08FE390E0C8
:1021C000A0E0B0E0E80EF91E0A1F1B1F17FF05C0B4
:1021D00016950795F794E794319687E0169507953D
:1021E000F794E7948A95D1F705C0EE24FF24870180
:1021F000EFEFF0E06E2F679566276795902F9F773A
:10220000D794DD24D7948E2F8695492F462B582FAF
:102210005D29B701CA011F910F91FF90EF90DF90E8
:102220000895FC01DB01408151812281622F6F778B
:1022300070E0221F2227221F9381892F880F822B73
:10224000282F30E0991F9927991F11969C93119779
:1022500021153105A9F5411551056105710511F4E7
:1022600082E037C082E89FEF13969C938E9312977B
:102270009A01AB0167E0220F331F441F551F6A9577
:10228000D1F783E08C930DC0220F331F441F551FDD
:1022900012968D919C911397019713969C938E9310
:1022A0001297203080E0380780E0480780E4580724
:1022B00058F314962D933D934D935C93179708957F
:1022C0002F3F310579F4411551056105710519F468
:1022D00084E08C93089564FF03C081E08C9312C066
:1022E0001C9210C02F57304013963C932E93129798
:1022F00083E08C9387E0440F551F661F771F8A95F4
:10230000D1F7706414964D935D936D937C931797FA
:1023100008951F93DC01FB019C91923008F447C0A3
:102320008081823008F443C0943051F411961C919E
:10233000843099F58181682F70E0611B71093FC07D
:10234000843021F0923031F48230B9F181818823D8
:1023500089F12DC011961C9111978230F1F0818185
:102360001817D9F412962D913C911397828193817D
:102370008217930794F028173907BCF014968D91B3
:102380009D910D90BC91A02D24813581468157816E
:10239000281739074A075B0718F4112341F00AC0D0
:1023A00082179307A407B50740F4112319F061E0E1
:1023B00070E005C06FEF7FEF02C060E070E0CB011E
:1023C0001F910895A1E1B0E0E8EEF1E10C94921ABA
:1023D0003C017F876E876A01FC0117821682838128
:1023E00081FD03C06FEF7FEF6FC39E012F5F3F4FF3
:1023F000398B288BF3012381EE85FF8523FD8591A1
:1024000023FF8191FF87EE87882309F45AC3853221
:1024100051F4EE85FF8523FD859123FF8191FF8790
:10242000EE87853229F490E0B3010E94281CE2CFA8
:10243000982F10E0882499241032B0F49B3269F070
:102440009C3228F4903251F0933271F40BC09D32DB
:1024500039F0903349F4116028C01260146025C02F
:10246000186023C0106121C017FD2AC0892F805336
:102470008A3078F416FF06C0FAE09F9E902C112453
:10248000980E13C03AE0839E802C1124880E1062AF
:102490000CC09E3221F416FD14C3106406C09C3695
:1024A00011F4106802C0983659F4EE85FF8523FDBB
:1024B000959123FF9191FF87EE87992309F0BCCF77
:1024C000892F8554833020F4812F8061905E07C06E
:1024D000892F8556833008F09FC1812F8F7E86FD1E
:1024E00002C076E0972E6FE3F62EF822953619F4A7
:1024F000F0E4FF2A07C0963619F420E8F22A02C059
:1025000091109A94F7FE0AC03BE3391518F45CE386
:10251000B52E02C0B92CB39427E009C047E0491595
:1025200020F4BB2447E0942EF7CF292DBB24C6010D
:1025300004969D878C87F6016081718182819381E9
:10254000AE014F5F5F4F0B2D0E94C91A6C010981CC
:10255000202E332400FF04C003FD02C01DE209C089
:10256000F1FE02C01BE205C0F2FC02C010E001C097
:1025700010E2C1018C709070892BB9F1112311F414
:1025800083E001C084E0881510F088240AC0881A0E
:10259000F3FC07C080E290E0B3010E94281C8A94FB
:1025A000C9F7112329F0812F90E0B3010E94281C64
:1025B00023FE03C000E710E00EC004E710E00BC0EC
:1025C000E114F10409F0805290E0B3010E94281C4C
:1025D0000F5F1F4F05C0EF2CFF24F0E1EF22FF2417
:1025E000F8018491882361F714C1F7FE12C0BC0C76
:1025F00024FE04C08A81813309F4BA941B141CF0B0
:10260000BB24B3942DC0F8E0FB1550F538E0B32E91
:1026100027C0F6FC25C0892D90E08C159D054CF057
:102620002CEFC2162FEFD20624F030E8F32A01C0B7
:102630009A94992049F0E2E0F0E0EC0FFD1FE90DDB
:10264000F11D80818033A1F3F7FE0AC0B92CB39449
:10265000892D90E0C816D90614F0992401C09C1861
:10266000F7FC03C025E030E009C01C141D041CF079
:1026700021E030E003C096012F5F3F4F112311F09E
:102680002F5F3F4F992029F0892D90E00196280F68
:10269000391F882D90E02817390714F0882401C0CD
:1026A000821A4F2C5524C20189709070892B39F001
:1026B00008C080E290E0B3010E94281C8A94882020
:1026C000C1F7112329F0812F90E0B3010E94281C4B
:1026D00043FE07C008C080E390E0B3010E94281CBD
:1026E0008A948820C1F7F7FE46C08601D7FE02C053
:1026F00000E010E076010894E11CF11CE01AF10AF8
:1027000041E050E04C0F5D1FE40EF51E26014B1812
:102710005108892D90E0AA24BB24A81AB90A5FEFBA
:102720000F3F150729F48EE290E0B3010E94281CA8
:10273000C016D10634F0401651061CF4F701808112
:1027400001C080E3015010400894E11CF11C0A15FF
:102750001B052CF090E0B3010E94281CE0CF0C1563
:102760001D0539F49A81963318F4953311F424FE3B
:1027700081E390E04BC08A81813309F00F7E90E0C5
:10278000B3010E94281C9920A1F08EE290E0B301D1
:102790000E94281C12E0E1E0F0E0EC0FFD1FE10FC9
:1027A000F11D1F5F808190E0B3010E94281C9A9464
:1027B00091F744FC03C085E690E002C085E490E018
:1027C000B3010E94281CD7FC05C0C114D10441F4F8
:1027D00004FF06C0D094C194D108D3948DE201C007
:1027E0008BE290E0B3010E94281C80E305C08F5F5C
:1027F00026EF3FEFC20ED31E3AE0C316D104BCF75A
:1028000090E0B3010E94281CC601C096B3010E944B
:10281000281CCC84DD8452C1933631F0933799F073
:10282000933509F059C023C0F601808189835E0188
:102830000894A11CB11C22E030E0C20ED31E21E09E
:10284000E22EF12C12C0F601A080B18016FD03C06B
:102850006FEF7FEF02C0692D70E022E030E0C20E22
:10286000D31EC5010E94C71B7C011F7713C0F60150
:10287000A080B18016FD03C06FEF7FEF02C0692D0D
:1028800070E022E030E0C20ED31EC5010E94BC1BE6
:102890007C01106813FF07C01BC080E290E0B30109
:1028A0000E94281C8A94882D90E0E816F906A8F367
:1028B0000FC0F50117FD859117FF81915F0190E031
:1028C000B3010E94281C81108A940894E108F10841
:1028D000E114F10471F7F2C0943611F0993689F5DC
:1028E00017FF08C0F601208131814281538184E0C5
:1028F00090E00AC0F601808191819C01442737FD58
:102900004095542F82E090E0C80ED91E9FE6F92E24
:10291000F12257FF09C050954095309521953F4FC2
:102920004F4F5F4F90E8F92ACA01B901AE014F5FDE
:102930005F4F2AE030E00E94CF1CE82EE889EE1AB3
:1029400041C0953721F41F7E2AE030E01CC0197F7A
:102950009F3661F0903720F4983509F0B2C00FC06F
:10296000903739F0983709F0ACC004C028E030E067
:102970000AC0106114FD146020E130E004C014FDB1
:10298000166020E132E017FF08C0F6016081718116
:102990008281938144E050E008C0F60180819181FA
:1029A000BC0180E090E042E050E0C40ED51EAE01D4
:1029B0004F5F5F4F0E94CF1CE82E5889E51A8FE7C2
:1029C000F82EF122F6FE0BC08EEFF822E91438F44F
:1029D000F4FE07C0F2FC05C09FEEF92202C01E2DD6
:1029E00001C0192DF4FE0DC0FE01EE0DF11D808118
:1029F000803319F4E9EEFE2208C01F5FF2FE05C025
:102A000003C08F2D867809F01F5F0F2DF3FC14C0D3
:102A1000F0FE0FC0181510F09E2C0BC09E2C980CC9
:102A2000911A182D06C080E290E0B3010E94281C84
:102A30001F5F1815C0F304C0181510F4811A01C0E7
:102A4000882404FF0FC080E390E0B3010E94281C9B
:102A500002FF1DC001FD03C088E790E00EC088E5BD
:102A600090E00BC0802F867891F001FF02C08BE2CE
:102A700001C080E2F7FC8DE290E0B3010E94281CC7
:102A800006C080E390E0B3010E94281C9A94E914E8
:102A9000C0F3EA94E1E0F0E0EC0FFD1FEE0DF11D54
:102AA000808190E0B3010E94281CEE2091F706C0BF
:102AB00080E290E0B3010E94281C8A948820C1F72C
:102AC00099CCF30166817781CB016196E2E10C94A8
:102AD000AE1AFC0120FD08C023FD05C022FF02C084
:102AE00073836283518340830895EF92FF920F9323
:102AF0001F9344FF02C033E011C046FF02C034E020
:102B00000DC0DB01FC01AA0FBB1FEE1FFF1F1094BD
:102B1000D1F76A0F7B1F8E1F9F1F31E0660F771F53
:102B2000881F991F3150D1F77B018C01E20EF11CF7
:102B3000011D111DA8019701B701CA011F910F9135
:102B4000FF90EF9008950F931F93CF93DF938C0125
:102B5000C8010E94D21BEC0197FD08C00E94A11B76
:102B6000892BB1F7CE01B8010E94B51CCE01DF91CF
:102B7000CF911F910F9108958F929F92AF92BF9224
:102B8000DF92EF92FF920F931F93CF93DF935C013D
:102B9000EB014A01122F0E94D21BAC018B3219F0BB
:102BA0008D3251F41068219709F46DC0C5010E945F
:102BB000D21BAC0197FD67C06DEFD62ED1228D2DB3
:102BC000807301F54033F1F4219709F447C0C50142
:102BD0000E94D21BAC0197FD41C082E0D82A483741
:102BE00011F0483559F480E4D82A2197B9F1C5018C
:102BF0000E94D21BAC0199232CF430C0D6FC02C039
:102C000080E1D82AEE24FF248701242F2053283086
:102C100088F0D4FC09C02A3068F0D6FE05C02F7DAC
:102C2000822F8151863028F0CA01B5010E94B51C5F
:102C300012C02750C801B7014D2D0E9475157B01A8
:102C40008C0182E0D82A219761F0C5010E94D21B35
:102C5000AC0197FFDACFD1FC04C015C0EE24FF24ED
:102C60008701D7FE08C010950095F094E094E11C10
:102C7000F11C011D111DC401B801A7012D2D0E94D9
:102C8000691581E001C080E0DF91CF911F910F9124
:102C9000FF90EF90DF90BF90AF909F908F9008953E
:102CA000A0E2B0E0E6E5F6E10C94961A5C016B0157
:102CB0008A017901FE01319680E2DF011D928A9539
:102CC000E9F770E030E060E040E050E03F01A1E073
:102CD000B0E0F5018381F70183FD259183FF219108
:102CE0007F01222309F481C02E3519F441155105C5
:102CF00069F1872F90E08417950744F42D3551F141
:102D00002D3221F4332329F431E021C0332309F497
:102D1000622F322F832F869586958695F301E80FD3
:102D2000F11D832F87704D0102C0880C991C8A9574
:102D3000E2F7208128292083361711F430E007C0FC
:102D4000361710F43F5FE6CF3150E4CF71E04F5FAC
:102D50005F4FBFCF332319F08E8180628E8377233C
:102D600059F0FE0131969E012F5D3F4F8081809585
:102D70008193E217F307D1F7992493943E010894C5
:102D8000611C711CC5010E94D21BAC0197FD25C0BE
:102D9000869586958695F301E80FF11D808190E078
:102DA0009A012770307002C0959587952A95E2F7B1
:102DB00080FD05C0CA01B5010E94B51C0EC00115F9
:102DC000110519F0D8014D938D010894C108D1085F
:102DD0009924C114D104B1F602C0992031F401152F
:102DE000110529F0F801108202C0EE24FF24C7016A
:102DF000A096EEE00C94B21A2F923F925F926F92DF
:102E00007F928F929F92AF92BF92CF92DF92EF927A
:102E1000FF920F931F93CF93DF933C017B011A0125
:102E20000E94D21BEC018B3239F08D3211F0552407
:102E300011C0B0E85B2E01C055240894E108F108E8
:102E4000E114F10409F418C1C3010E94D21BEC0182
:102E500097FD12C1CE010E94A91B8936910521F070
:102E60008E36910599F51DC00DE810E01CC0089440
:102E7000E108F108E114F10471F0C3010E94D21BD2
:102E8000EC0197FD08C00E94A91BD81661F0CE0185
:102E9000B3010E94B51C20E00039120709F0ECC014
:102EA00008C00AE810E0F8010F5F1F4FD490DD2042
:102EB000F1F60D58104029F080E090E0A0E8BFE75F
:102EC000CFC080E090E0A0ECBFE7CAC0CC24DD24F6
:102ED000882499245401AE014053242F4A3038F5F8
:102EE00052E0552A852D90E0AC014870507052FE9A
:102EF00006C0452B11F50894C11CD11C1EC0452BE2
:102F000019F00894C108D108C501B40140E20E943B
:102F100075154B015C0188E9881689E9980689E9ED
:102F2000A80689E1B80648F094E0592A06C04E3F49
:102F300081F453FC0EC0E8E05E2A0894E108F10831
:102F4000E114F10431F0C3010E94D21BEC0197FFA0
:102F5000C2CF51FE91C0C53619F0C53409F046C044
:102F60000894E108F108E114F10409F485C0C301F3
:102F70000E94D21BEC0197FD7FC08B3221F08D3275
:102F800069F4F0E15F2A0894E108F108E114F10422
:102F900009F472C0C3010E94D21BEC01CE01C0979C
:102FA0000A9708F069C000E010E0B801882777FDB3
:102FB0008095982FAE014053242F40E20E94751552
:102FC0008B010894E108F108E114F10439F0C30120
:102FD0000E94D21BEC01C0970A9738F3B80154FE47
:102FE00003C0709561957F4FC60ED71EEF2831F054
:102FF000D7FD04C0CE01B3010E94B51CC501B401C8
:103000000E947A19D7FE0DC0A9EAEA2EA0E0FA2E96
:10301000D094C194D108D394C0E2D0E000E010E095
:103020000EC0F1ECEF2EF0E0FF2EF6CFF701259168
:103030003591459154910E94B719CC1ADD0ACC16EE
:10304000DD06A0F7D695C7950F5F1F4F0630110517
:1030500029F0ECEFFFEFEE0EFF1EF1CFDC01CB010C
:1030600057FCB0582114310429F0F1018083918379
:10307000A283B38381E001C080E0DF91CF911F91F3
:103080000F91FF90EF90DF90CF90BF90AF909F9007
:103090008F907F906F905F903F902F900895A0E069
:1030A000B0E0E5E5F8E10C94951A4C015B013A01BA
:1030B000FC0117821682552404C1812F90E00E94E2
:1030C000A11B892B21F0C4010E94A315FAC015325F
:1030D00049F4F501F3FC6591F3FE61915F016532FE
:1030E00069F415E2C4010E94D21B97FDF6C01817BF
:1030F00009F4E7C0B4010E94B51CF4C06A3219F0AB
:10310000162F00E006C0F3FC1591F3FE11915F014C
:1031100001E0CC24DD240EC00260B60180E090E026
:1031200040E20E9475156B01F501F3FC1591F3FE69
:1031300011915F01212F20532A3070F301FD04C04B
:10314000CC24CA94DC2C04C0C114D10409F4CAC034
:10315000183621F01C3699F4F5010BC0F501F3FC8B
:103160006591F3FE6191683619F05F01162F07C073
:1031700008600460F3FC1591F3FE11915F011123C7
:1031800009F4B0C088E790E0612F70E00E94B11BA5
:10319000892B09F4A7C0802F00FF03C0EE24FF2471
:1031A00007C0F301E080F18022E030E0620E731E80
:1031B0001E3651F4F4014681578160E070E0C7018A
:1031C000202F0E9469157DC01336B9F481FD03C01C
:1031D00081E0C82ED12CC4010E94D21B97FD7DC076
:1031E000E114F10419F0F70181937F010894C108FB
:1031F000D108C114D10479F762C01B3559F4C40158
:10320000B601A70195010E9450165C01009709F0D4
:1032100056C050C0C4010E94A31597FD5EC01F3662
:10322000D1F1103738F41436A1F11936A9F1183557
:10323000D1F52DC0133751F0143718F4103799F524
:1032400026C0153731F1183771F521C0C4010E942D
:10325000D21BEC0197FD15C00E94A11B892B29F000
:10326000CE01B4010E94B51C0CC0E114F10419F0A8
:10327000F701C1937F010894C108D108C114D1049A
:1032800029F7E114F104D9F0F701108218C00064A5
:1032900003C0006201C00061C401B601A701202F74
:1032A0000E94BC1505C0C401B601A7010E94FC160E
:1032B000882329F4F4018381807379F413C000FF1B
:1032C0005394F401F380F501F3FC1591F3FE119191
:1032D0005F01112309F0F1CE05C0552019F42FEF3D
:1032E0003FEF02C0252D30E0C901CDB7DEB7EFE0DA
:1032F0000C94B11AE89409C097FB3EF49095809520
:10330000709561957F4F8F4F9F4F9923A9F0F92FAB
:1033100096E9BB279395F695879577956795B79529
:10332000F111F8CFFAF4BB0F11F460FF1BC06F5F0F
:103330007F4F8F4F9F4F16C0882311F096E911C021
:10334000772321F09EE8872F762F05C0662371F042
:1033500096E8862F70E060E02AF09A95660F771F56
:10336000881FDAF7880F9695879597F908950BD0FF
:1033700078C069D028F06ED018F0952309F05AC0B3
:103380005FC01124A2C07ED0A0F3959FD1F3950F0A
:1033900050E0551F629FF001729FBB27F00DB11DD9
:1033A000639FAA27F00DB11DAA1F649F6627B00D69
:1033B000A11D661F829F2227B00DA11D621F739F52
:1033C000B00DA11D621F839FA00D611D221F749F60
:1033D0003327A00D611D231F849F600D211D822FA7
:1033E000762F6A2F11249F5750408AF0E1F08823EE
:1033F0004AF0EE0FFF1FBB1F661F771F881F9150FB
:103400005040A9F79E3F510570F014C05EC05F3F69
:10341000ECF3983EDCF3869577956795B795F7952D
:10342000E7959F5FC1F7FE2B880F911D96958795B5
:1034300097F9089597F99F6780E870E060E0089534
:103440009FEF80EC089500240A94161617061806BC
:103450000906089500240A94121613061406050698
:103460000895092E0394000C11F4882352F0BB0F29
:1034700040F4BF2B11F460FF04C06F5F7F4F8F4F8C
:103480009F4F089557FD9058440F551F59F05F3FC7
:1034900071F04795880F97FB991F61F09F3F79F076
:1034A00087950895121613061406551FF2CF4695F8
:1034B000F1DF08C0161617061806991FF1CF86957A
:1034C0007105610508940895E894BB27662777275E
:1034D000CB0197F90895AA1BBB1B51E107C0AA1F96
:1034E000BB1FA617B70710F0A61BB70B881F991FA5
:1034F0005A95A9F780959095BC01CD01089597FB49
:10350000092E07260AD077FD04D0E5DF06D000207B
:103510001AF4709561957F4F0895F6F7909581950F
:103520009F4F08952F923F924F925F926F927F929A
:103530008F929F92AF92BF92CF92DF92EF92FF92C3
:103540000F931F93CF93DF93CDB7DEB7CA1BDB0B6F
:103550000FB6F894DEBF0FBECDBF09942A88398814
:1035600048885F846E847D848C849B84AA84B9841B
:10357000C884DF80EE80FD800C811B81AA81B98127
:10358000CE0FD11D0FB6F894DEBF0FBECDBFED013B
:103590000895283008F027E03327DA01990F311D0C
:1035A00087FD916000966105710539F432602E5FE8
:1035B0003D9330E32A95E1F708959F3F30F080383E
:1035C0007105610509F03C5F3C5F3D93913008F067
:1035D0008068911DDF93CF931F930F93FF92EF921B
:1035E000192F987F9695E92F96959695E90FFF27C5
:1035F000E15AFE4F99273327EE24FF24A701E70164
:1036000005900894079428F4360FE71EF81E491F0A
:10361000511D660F771F881F991F0694A1F705900B
:10362000079428F4E70EF81E491F561FC11D770F97
:10363000881F991F661F0694A1F70590079428F428
:10364000F80E491F561FC71FD11D880F991F661FEF
:10365000771F0694A1F70590079420F4490F561F91
:10366000C71FD81F990F661F771F881F0694A9F7D9
:1036700084911095177041F0D695C7955795479549
:10368000F794E7941A95C1F7E5E0F1E06894159096
:10369000159135916591959105907FE27395E118AB
:1036A000F10A430B560BC90BD009C0F7E10CF11E10
:1036B000431F561FC91FD01D7EF4703311F48A9525
:1036C000E6CFE894015030F0080F0AF40027021703
:1036D00008F4202F2395022F7A3328F079E37D9385
:1036E0002A95E9F710C07D932A9589F60694979557
:1036F0006795379517951794E118F10A430B560B08
:10370000C90BD00998F023957E9173957A3308F010
:1037100070E37C932013B8F77E9170617D9330F055
:10372000839571E37D9370E32A95E1F71124EF907F
:10373000FF900F911F91CF91DF91992787FD909571
:10374000089591118AC1803219F089508550D0F7BF
:1037500008959111089581548A5108F4805E855A24
:103760000895FC010590061621F00020D9F7C0014C
:1037700008953197CF010895FC0105906150704084
:103780000110D8F7809590958E0F9F1F0895FC012A
:103790006150704001900110D8F7809590958E0F80
:1037A0009F1F0895CF93DF93EC014B8140FF1AC018
:1037B00046FF0AC04F7B4B838E819F8101969F837A
:1037C0008E838A81282F2BC042FF13C0E881F981A4
:1037D0008081282F332727FD30952115310529F4C5
:1037E00040624B832FEF3FEF1BC03196F983E88394
:1037F00011C0EA85FB85CE0109959C0197FF0AC09F
:103800009B812F5F3F4F11F080E201C080E1892B47
:103810008B83E8CF8E819F8101969F838E8330E0DA
:10382000C901DF91CF910895A0E0B0E0EAE1FCE1A9
:103830000C94A21A9E01275F3F4F8D819E816F815C
:103840007885A9010E94E2112096E2E00C94BE1A4C
:103850000F931F93CF93DF938C01EB018B8181FF3B
:103860001BC082FF0DC02E813F818C819D81281756
:10387000390764F4E881F9810193F983E88306C08C
:10388000E885F985802F0995892B31F48E819F81F8
:1038900001969F838E8302C00FEF1FEFC801DF9157
:1038A000CF911F910F910895EF92FF920F931F9365
:1038B000CF93DF937C018B01DB0113968C9181FD0B
:1038C00003C0CFEFDFEF13C0C0E0D0E00BC0D801E2
:1038D0001896ED91FC911997B8010995892B11F073
:1038E000CFEFDFEFF70181917F01882381F7CE01D0
:1038F000CDB7DEB7E6E00C94BA1AA0E0B0E0E3E89A
:10390000FCE10C94A21A9E01275F3F4F8D819E819E
:103910006F817885A9010E944F182096E2E00C94EF
:10392000BE1AAEE0B0E0E7E9FCE10C94A01A0D8904
:103930001E8986E08C831A8309838FEF9FE79E831D
:103940008D839E01275E3F4FCE0101966F89788D52
:10395000A9010E94E2112F813885020F131FF8017F
:1039600010822E96E4E00C94BC1A9C01FB0183812A
:1039700080FF11C086FD0FC09FEF2F3F390759F020
:10398000228380648F7D83838681978101979783CB
:10399000868330E002C02FEF3FEFC9010895FA019E
:1039A000AA27283051F1203181F1E8946F936E7F7E
:1039B0006E5F7F4F8F4F9F4FAF4FB1E03ED0B4E06F
:1039C0003CD0670F781F891F9A1FA11D680F791FB0
:1039D0008A1F911DA11D6A0F711D811D911DA11DC1
:1039E00020D009F468943F912AE0269F11243019D1
:1039F000305D3193DEF6CF010895462F4770405D6C
:103A00004193B3E00FD0C9F7F6CF462F4F70405D1A
:103A10004A3318F0495D31FD4052419302D0A9F775
:103A2000EACFB4E0A6959795879577956795BA956F
:103A3000C9F700976105710508959B01AC010A2E35
:103A400006945795479537952795BA95C9F7620F0C
:103A5000731F841F951FA01D089599278827089517
:043A6000F894FFCF08
:103A64000A0D205452542039666562323030390AC6
:103A74000D0A0D00256900256600256920002569C9
:103A840020200053504545443A20000052504D0038
:103A9400002573256600436F6D6D616E6420256398
:103AA400206E6F74207265636F676E697A65640A4D
:103AB40000506172616D6574657273206D75737405
:103AC400206265206E6F6E206E656761746976652D
:103AD4002C202566206973206E656761746976659C
:103AE4000A0000000003000000005004A5040000C8
:103AF4000000803FE8030A0000000000000000000E
:00000001FF
